:020000040800F2
:10000000C037012025130008991300082F6E00083F
:1000100099130008991300089913000800000000C4
:1000200000000000000000000000000061720008F5
:100030009913000800000000F973000849740008D3
:1000400099130008991300089913000899130008E0
:1000500099130008991300089913000899130008D0
:1000600099130008991300082D3C00089913000803
:1000700099130008991300089913000899130008B0
:1000800099130008991300089913000899130008A0
:100090009913000899130008991300089913000890
:1000A0009913000899130008991300089913000880
:1000B0009913000899130008991300089913000870
:1000C0009913000899130008991300089913000860
:1000D0009913000875600008AD600008E56000082D
:1000E0009913000899130008991300089913000840
:1000F0009913000899130008991300089913000830
:10010000991300089913000899130008991300081F
:100110001D6100085561000899130008FD3D0008A5
:1001200099130008991300089913000899130008FF
:1001300099130008991300089913000899130008EF
:1001400099130008991300089913000899130008DF
:100150009913000899130008991300088D6100088D
:1001600099130008991300089913000899130008BF
:1001700099130008991300089913000899130008AF
:10018000991300089913000880B582B000AF324B74
:100190001B78002B5AD14FF480004FF0010103F07F
:1001A000D9F92E4B9B6818464FF0010103F0B0F9C6
:1001B0002A4B9B6918464FF0010103F0A9F94FF44F
:1001C00080004FF0010103F009FA4FF480004FF076
:1001D000000103F003FA214B1A68204B1B7B1046E9
:1001E00019464FF0040206F0C3FD1C4B1A691B4B65
:1001F0001B7F104619464FF0040206F0B9FD4FF080
:1002000002033B714FF002037B714FF00103BB719E
:100210004FF00003FB71114B9B883B600F4B1A683A
:100220003B461046194606F0E1FC0C4B9B8A3B60AE
:100230000A4B1A693B461046194606F0D7FC00F0F7
:1002400003FC054B4FF001021A7000E000BF07F1FC
:100250000807BD4680BD00BFBC0100200000002093
:1002600080B584B000AF02460B46FA71BB714FF007
:1002700000037B814FF44053FB6079484FF001014C
:1002800007F09AFF4FF44053FB600DE0FB68002B32
:1002900004D0FB6803F1FF33FB6005E04FF0FF3053
:1002A00000F0F8FB0346D4E06D486E4908F07CF896
:1002B0000346002BEAD06A484FF0000107F0DAFF4E
:1002C000FB79674819464FF0000207F0B5FF4FF47D
:1002D0004053FB600DE0FB68002B04D0FB6803F18A
:1002E000FF33FB6005E06FF0010000F0D3FB034635
:1002F000AFE05B485C4908F057F80346002BEAD0B2
:10030000574B1B8B4FF44053FB600DE0FB68002BF9
:1003100004D0FB6803F1FF33FB6005E06FF00200DF
:1003200000F0B8FB034694E04D48504908F03CF813
:100330000346002BEAD0BB794948194607F0DEFF97
:100340004FF44053FB600DE0FB68002B04D0FB68CA
:1003500003F1FF33FB6005E06FF0030000F09AFB50
:10036000034676E03E48414908F01EF80346002B5C
:10037000EAD03B483E4908F017F80346002BE3D08B
:1003800037484FF0010107F017FF4FF44053FB606F
:100390000DE0FB68002B04D0FB6803F1FF33FB602A
:1003A00005E06FF0040000F075FB034651E02C48B7
:1003B0002C4907F0F9FF0346002BEAD0FB792848C7
:1003C00019464FF0010207F037FF4FF44053FB602E
:1003D0000DE0FB68002B04D0FB6803F1FF33FB60EA
:1003E00005E06FF0050000F055FB034631E01C48C6
:1003F0001D4907F0D9FF0346002BEAD0184B1B8B91
:100400004FF44053FB600DE0FB68002B04D0FB6809
:1004100003F1FF33FB6005E06FF0060000F03AFBEC
:10042000034616E00E48134907F0BEFF0346002BB3
:10043000EAD00B484FF0010107F0DEFE084807F054
:100440006DFF03467B8106484FF0010107F012FF64
:100450007B891BB2184607F11007BD4680BD00BF5F
:100460000058004001000010020000108000001041
:10047000040000104000001080B584B000AF1346A7
:100480000246FA710A46BA717B714FF000037B8114
:100490004FF44053FB6055484FF0010107F08CFECC
:1004A0004FF44053FB600DE0FB68002B04D0FB6869
:1004B00003F1FF33FB6005E04FF0FF3000F0EAFA94
:1004C00003468DE049484A4907F06EFF0346002B7A
:1004D000EAD0FB79454819464FF0000207F0ACFE20
:1004E0004FF44053FB600DE0FB68002B04D0FB6829
:1004F00003F1FF33FB6005E06FF0010000F0CAFA82
:1005000003466DE039483B4907F04EFF0346002B98
:10051000EAD0364B1B8B4FF44053FB600DE0FB6879
:10052000002B04D0FB6803F1FF33FB6005E06FF0A4
:10053000020000F0AFFA034652E02C482E4907F0C3
:1005400033FF0346002BEAD0BB792848194607F051
:10055000D5FE4FF44053FB600DE0FB68002B04D048
:10056000FB6803F1FF33FB6005E06FF0030000F070
:1005700091FA034634E01D481F4907F015FF034672
:10058000002BEAD07B791948194607F0B7FE4FF4E3
:100590004053FB600DE0FB68002B04D0FB6803F1C7
:1005A000FF33FB6005E06FF0040000F073FA0346D0
:1005B00016E00E48104907F0F7FE0346002BEAD07C
:1005C0000A480E4907F0F0FE0346002BE3D0074827
:1005D0004FF0010107F010FE4FF000037B817B8993
:1005E0001BB2184607F11007BD4680BD00580040F9
:1005F0000100001002000010800000100400001034
:1006000080B586B000AF13460246FA710A46BA7149
:100610007B714FF000033B824FF440537B617B7949
:10062000002B02D14FF6F87318E17B790A2B02D91F
:100630004FF6F77312E18C484FF0010107F0BCFD53
:100640004FF440537B610DE07B69002B04D07B6944
:1006500003F1FF337B6105E04FF0FF3000F01AFA41
:100660000346FBE08048814907F09EFE0346002BCD
:10067000EAD07B79012B05D17B484FF0000107F0D0
:10068000F9FD04E078484FF0010107F0F3FDFB7934
:10069000754819464FF0000207F0CEFD4FF4405365
:1006A0007B610DE07B69002B04D07B6903F1FF3394
:1006B0007B6105E06FF0010000F0ECF90346CDE04E
:1006C00069486B4907F070FE0346002BEAD0664B81
:1006D0001B8B4FF440537B610DE07B69002B04D0F2
:1006E0007B6903F1FF337B6105E06FF0020000F0EE
:1006F000D1F90346B2E05C485E4907F055FE034677
:10070000002BEAD0BB795848194607F0F7FD4FF4A3
:1007100040537B610DE07B69002B04D07B6903F1C2
:10072000FF337B6105E06FF0030000F0B3F903468F
:1007300094E04D484F4907F037FE0346002BEAD0BE
:1007400049484D4907F030FE0346002BE3D04648A8
:100750004FF0010107F030FD4FF440537B610DE095
:100760007B69002B04D07B6903F1FF337B6105E0DB
:100770006FF0040000F08EF903466FE03A483B4901
:1007800007F012FE0346002BEAD0FB7936481946E3
:100790004FF0010207F050FD4FF440537B610DE034
:1007A0007B69002B04D07B6903F1FF337B6105E09B
:1007B0006FF0050000F06EF903464FE02A482C491F
:1007C00007F0F2FD0346002BEAD0274B1B8B4FF0BE
:1007D0000003FB7435E0FB7C03F101027B799A4254
:1007E00009DB21484FF0000107F044FD1E484FF09F
:1007F000010107F001FD4FF440537B610DE07B697F
:10080000002B04D07B6903F1FF337B6105E06FF0BF
:10081000060000F03FF9034620E01348174907F0AF
:10082000C3FD0346002BEAD00F4807F077FD0346CF
:10083000FB73FB7C124AF97BD154FB7C03F101036F
:10084000FB74FA7C7B799A42C5D307484FF00101CB
:1008500007F010FD4FF000033B823B8A1BB21846A5
:1008600007F11807BD4680BD005800400100001088
:100870000200001080000010040000104000001072
:10088000602F012080B586B000AF13460246FA7192
:100890000A46BA717B714FF000033B824FF440531C
:1008A0007B617B79002B02D14FF6FA73BAE07B793A
:1008B0000A2B02D94FF6F973B4E05D484FF00101FD
:1008C00007F07AFC4FF440537B610DE07B69002B0D
:1008D00004D07B6903F1FF337B6105E04FF0FF300B
:1008E00000F0D8F803469DE05148524907F05CFDFE
:1008F0000346002BEAD0FB794D4819464FF0000221
:1009000007F09AFC4FF440537B610DE07B69002BAC
:1009100004D07B6903F1FF337B6105E06FF00100D8
:1009200000F0B8F803467DE04148434907F03CFD3C
:100930000346002BEAD03E4B1B8B4FF440537B61A8
:100940000DE07B69002B04D07B6903F1FF337B61F1
:1009500005E06FF0020000F09DF8034662E03448C5
:10096000364907F021FD0346002BEAD0BB79304819
:10097000194607F0C3FC4FF440537B610DE07B69DF
:10098000002B04D07B6903F1FF337B6105E06FF03E
:10099000030000F07FF8034644E02548274907F0AC
:1009A00003FD0346002BEAD04FF00003FB742CE05C
:1009B000FB7C234AD35CFB73FB7B1D48194607F085
:1009C0009DFC4FF440537B610DE07B69002B04D00C
:1009D0007B6903F1FF337B6105E06FF0040000F0F9
:1009E00059F803461EE01248144907F0DDFC03469F
:1009F000002BEAD00E48134907F0D6FC0346002B23
:100A0000E3D0FB7C03F10103FB74FA7C7B799A420F
:100A1000CED307484FF0010107F0EEFB4FF0000383
:100A20003B823B8A1BB2184607F11807BD4680BDC2
:100A3000005800400100001002000010800000106B
:100A4000602F01200400001080B584B000AF4FF08B
:100A50000003BB804BF6FF73FB804FF000033B812C
:100A60004FF480637B814FF48043BB81074B3B6035
:100A700007484FF0010107F07FFB3B460448194649
:100A800007F0A2FA07F11007BD4680BDA08601005D
:100A90000058004080B584B000AF0346FB80FB885F
:100AA000FB810D484FF0010107F0A6FB0A484FF00B
:100AB000010107F0FFFB08484FF0000107F0FAFBC7
:100AC000054807F041FAFFF7BFFFFB891BB2184644
:100AD00007F11007BD4680BD0058004080B483B0C8
:100AE00000AF78607B689B889BB24FEAC3534FEAA4
:100AF000D3539BB2184607F10C07BD4680BC704724
:100B000080B487B000AF78600B467B804FF0000365
:100B1000FB604FF000037B614FF00003BB604FF0C0
:100B20000003FB747B88DBB24FEA5313DBB2BB607C
:100B30007B8803F01F037B617B694FF0010202FA9F
:100B400003F37B61BB68012B07D17B689B899BB258
:100B50007A6902EA03037B6111E0BB68022B07D1CB
:100B60007B681B8A9BB27A6902EA03037B6106E019
:100B70007B689B8A9BB27A6902EA03037B617B886C
:100B80004FEA13239BB2FB60FB684FF0010202FAAD
:100B900003F3FB607B681B889BB2FA6802EA0303DD
:100BA000FB607B69002B06D0FB68002B03D04FF065
:100BB0000103FB7402E04FF00003FB74FB7C18465A
:100BC00007F11C07BD4680BC704700BF80B582B0EE
:100BD00000AF4FF004004FF0010102F099FC4FF01C
:100BE00001033B714FF00003BB714FF00003FB7139
:100BF0004FF003037B714FF480633B603B460C482E
:100C0000194605F0F3FF4FF400633B603B4608488C
:100C1000194605F0EBFF064B4FF400625A83044B74
:100C20004FF480621A8307F10807BD4680BD00BFFC
:100C30000008024080B582B000AF02460B46FA7150
:100C4000BB71FFF7C3FF55484FF0010105F09CFC55
:100C5000BB79202B02D94FF02003BB71504BFA799E
:100C60005A704F4BBA791A704D4B4FF003029A707D
:100C70004B4B4FF00002DA7000F020FA484B5B78E3
:100C8000184600F0F1FA464B1B784FF01100194658
:100C900000F016F9424B1B784FF01200194600F095
:100CA0000FF93F4B1B784FF01300194600F008F97D
:100CB0003B4B1B784FF01400194600F001F9384BFC
:100CC0001B784FF01500194600F0FAF8344B1B78EA
:100CD0004FF01600194600F0F3F8314BDA78304B3C
:100CE0009B781046194600F0DBFA4FF000004FF0F9
:100CF000080100F0E5F84FF001004FF03F0100F06F
:100D0000DFF84FF002004FF03F0100F0D9F84FF04C
:100D100004004FF04F0100F0D3F84FF01C004FF0EB
:100D2000000100F0CDF81F4B4FF480625A831B483E
:100D30004FF0E10105F058FC1A4B4FF480621A8322
:100D4000184B4FF480625A8314484FF0E20105F0CB
:100D50004BFC144B4FF480621A834FF007004FF0A6
:100D600004014FF0010200F04FF84FF007004FF080
:100D700005014FF0010200F047F84FF007004FF077
:100D800006014FF0010200F03FF800F0EBF84FF0E1
:100D90000103184607F10807BD4680BD0038004032
:100DA0006C2F01200008024080B582B000AF78604F
:100DB000094B4FF400625A834FF00B0079684FF0F3
:100DC000050200F0A5F8044B4FF400621A8307F106
:100DD0000807BD4680BD00BF0008024080B582B054
:100DE00000AF78604FF00A0079684FF0050200F01C
:100DF0008FF84FF0100079684FF0050200F088F886
:100E000007F10807BD4680BD80B584B000AF13462A
:100E10000246FA710A46BA717B71FB79184600F0F6
:100E200029F80346FB737B79002B0BD0BB794FF07D
:100E3000010202FA03F3DAB2FB7B42EA0303DBB2FC
:100E4000FB730DE0BB794FF0010202FA03F3DBB252
:100E50006FEA0303DAB2FB7B02EA0303DBB2FB7344
:100E6000FA79FB7B1046194600F02AF807F11007C3
:100E7000BD4680BD80B584B000AF0346FB710E4B0C
:100E80004FF480625A83FB7903F01F03DBB20B48F7
:100E9000194605F0A9FB09484FF0FF0105F0A4FB36
:100EA0000346FB73044B4FF480621A83FB7B1846A6
:100EB00007F11007BD4680BD000802400038004021
:100EC00080B582B000AF02460B46FA71BB710E4B83
:100ED0004FF480625A83FB7903F01F03DBB243F0C7
:100EE0002003DBB20948194605F07EFBBB790748B1
:100EF000194605F079FB044B4FF480621A8307F121
:100F00000807BD4680BD00BF000802400038004011
:100F100080B584B000AFB96013460246FA73FB7126
:100F20000E4B4FF480625A83FB7B03F01F03DBB24E
:100F300043F02003DBB20A48194605F055FBFB7964
:100F40009BB20748B9681A4605F0A0FB034B4FF463
:100F500080621A8307F11007BD4680BD0008024079
:100F60000038004080B500AF194B4FF480625A83BF
:100F700018484FF0E20105F037FB154B4FF4806243
:100F80001A834FF007004FF004014FF00102FFF702
:100F90003BFF4FF007004FF005014FF00102FFF754
:100FA00033FF4FF007004FF006014FF00102FFF74B
:100FB0002BFF074B4FF400625A834FF000004FF0B5
:100FC0000B01FFF77DFF024B4FF400621A8380BDD7
:100FD000000802400038004080B582B000AF786061
:100FE0000E4B4FF480625A830D484FF0610105F0BB
:100FF000FBFA0C4B1B780A4879687A6805F022FBEB
:10100000064B4FF480621A834FF007004FF0400107
:10101000FFF756FF07F10807BD4680BD00080240F4
:10102000003800406C2F012080B582B000AF00F086
:1010300029F80346FB71FB7903F04003002B02D033
:101040004FF0010307E000F00BF80346002B14BF3C
:1010500000230123DBB2184607F10807BD4680BD17
:1010600080B582B000AF4FF01700FFF703FF0346D3
:10107000FB71FB7903F00103DBB2184607F10807A7
:10108000BD4680BD80B582B000AF0A4B4FF4806290
:101090005A8309484FF0FF0105F0A6FA0346FB7199
:1010A000044B4FF480621A83FB79184607F1080756
:1010B000BD4680BD000802400038004080B582B0C7
:1010C00000AF4FF000004FF00801FFF7F9FE4FF0BE
:1010D00001004FF03F01FFF7F3FE4FF002004FF029
:1010E0000301FFF7EDFE4FF003004FF00301FFF7A0
:1010F000E7FE4FF004004FF00301FFF7E1FE4FF071
:1011000005004FF00201FFF7DBFE4FF006004FF045
:101110000E01FFF7D5FE4FF007004FF00E01FFF76D
:10112000CFFE4FF008004FF00001FFF7C9FE4FF06F
:1011300009004FF00001FFF7C3FE4FF0E7033B70DB
:101140004FF0E7037B704FF0E703BB704FF0E7030E
:10115000FB704FF0E7033B713B464FF00A00194626
:101160004FF00502FFF7D4FE4FF0C2033B704FF083
:10117000C2037B704FF0C203BB704FF0C203FB7021
:101180004FF0C2033B713B464FF00B0019464FF046
:101190000502FFF7BDFE4FF00C004FF0C301FFF753
:1011A0008FFE4FF00D004FF0C401FFF789FE4FF0A6
:1011B0000E004FF0C501FFF783FE4FF00F004FF018
:1011C000C601FFF77DFE4FF0E7033B704FF0E703EA
:1011D0007B704FF0E703BB704FF0E703FB704FF0FD
:1011E000E7033B713B464FF0100019464FF00502F4
:1011F000FFF78EFE4FF011004FF00001FFF760FE89
:101200004FF012004FF00001FFF75AFE4FF01300AD
:101210004FF00001FFF754FE4FF014004FF00001B3
:10122000FFF74EFE4FF015004FF00001FFF748FEAC
:101230004FF016004FF00001FFF742FE4FF017008D
:101240004FF01101FFF73CFE4FF01C004FF0000182
:10125000FFF736FE4FF01D004FF00001FFF730FEA4
:1012600007F10807BD4680BD80B582B000AF0346D8
:10127000FB71FB797D2B0DD8084B5B78FA799A428C
:1012800008D0064BFA795A70FB794FF005001946E1
:10129000FFF716FE07F10807BD4680BD6C2F012041
:1012A00080B584B000AF02460B46FA71BB714FF0B7
:1012B0000003FB731A4BFA79DA70194BBA799A70FA
:1012C000FB79002B04D1FB7B43F00803FB7306E0A2
:1012D000FB79022B03D1FB7B43F02003FB73BB792B
:1012E000032B04D1FB7B43F00603FB730EE0BB79B9
:1012F000022B04D1FB7B43F00403FB7306E0BB79B4
:10130000012B03D1FB7B43F00203FB73FB7B4FF00C
:1013100006001946FFF7D4FD07F11007BD4680BD52
:101320006C2F012080B582B000AF154B7B60154B50
:101330003B600BE07B681A683B681A603B6803F10E
:1013400004033B607B6803F104037B603A680E4B47
:101350009A42EFD30D480E494FF000028842B8BFC1
:1013600040F8042BFADBDFF82C00016841F470012F
:10137000016000F0BFF907F10807BD4680BD00BF5E
:10138000DA94000800000020BC010020BC0100200D
:10139000BC2F012088ED00E080B400AFFEE700BF65
:1013A00080B584B000AF4FF00003FB7356E0FA7BCA
:1013B0002E4913464FEA83039B184FEA8303CB1849
:1013C00003F10C031B6818464FF0010102F0A0F86E
:1013D000FA7B264913464FEA83039B184FEA83039F
:1013E000CB1803F108031B887B604FF001033B72AD
:1013F0004FF00003BB724FF00103FB724FF002038A
:101400007B72FA7B194913464FEA83039B184FEA14
:101410008303CB1803F104031A6807F10403104691
:10142000194605F0E3FBFA7B104913464FEA8303A4
:101430009B184FEA8303CB1803F110031B78002B92
:1014400004D1FB7B184600F013F803E0FB7B184641
:1014500000F034F8FB7B03F10103FB73FB7B052BEE
:10146000A5D907F11007BD4680BD00BF20000020B0
:1014700080B483B000AF0346FB71FA790E4913467E
:101480004FEA83039B184FEA8303CB1803F104034D
:101490001968FA79084813464FEA83039B184FEA04
:1014A0008303C31803F108031B884B8307F10C0760
:1014B000BD4680BC704700BF2000002080B483B0D0
:1014C00000AF0346FB71FA790E4913464FEA8303D6
:1014D0009B184FEA8303CB1803F104031968FA79C8
:1014E000084813464FEA83039B184FEA8303C31847
:1014F00003F108031B880B8307F10C07BD4680BC72
:10150000704700BF2000002090B482B000AF0346B7
:10151000FB71FA79154913464FEA83039B184FEA8A
:101520008303CB1803F104031968FA790F481346B3
:101530004FEA83039B184FEA8303C31803F10403A4
:101540001B685869FA79094C13464FEA83039B18C4
:101550004FEA8303E31803F108031B8880EA0303BF
:101560004B6107F10807BD4690BC70472000002082
:1015700080B500AF02F06AFBFFF712FF4FF00000EA
:1015800002F0BCFBFEF700FE05F0CEFD04F01AFEF3
:101590004FF010004FF00401FFF74CFB4FF000003C
:1015A0004FF00001FFF77CFE4148FFF7FDFB41488B
:1015B000FFF714FC404B4FF001021A704FF080000F
:1015C0004FF0E6014FF00102FFF75CF942F23420E0
:1015D0004FF0090107F03AFD03461A46374B1A70DF
:1015E00042F235204FF0090107F030FD03461A465C
:1015F000334B1A7042F236204FF0090107F026FDF6
:1016000003461A462F4B1A7042F237204FF0090159
:1016100007F01CFD03461A462B4B1A7042F2382085
:101620004FF0090107F012FD03461A46274B1A70C6
:10163000244B1A78264B1A70204B1A78254B1A70B7
:10164000244B1A781E4B1B78D318DAB2224B1A702F
:10165000214B1A781B4B1B78D318DAB21F4B1A7028
:101660001E4B1A781A4B1B78D318DAB21C4B1A701F
:101670001B4B1A78154B1B78D318DAB2194B1A701A
:10168000184B1A78104B1B78D318DAB2164B1A7015
:10169000164B4FF000021A704FF00500FFF70EFFD7
:1016A000134803F03BFC4FF00500FFF7E1FE80BD5F
:1016B000A000002098000020602F0120E001002001
:1016C000E1010020E2010020E3010020E40100200C
:1016D000E5010020F3010020F7010020F5010020C2
:1016E000F6010020F8010020F4010020F90100209B
:1016F000404B4C0080B584B004AF05F05FFCFFF7B1
:1017000037FF554B4FF0010200924FF0000201925B
:101710004FF0000202924FF0000203924F48194628
:101720004FF082024FF0000303F01EFC4C4B4FF0D1
:10173000010200924FF0000201924FF0000202926B
:101740004FF000020392474819464FF082024FF0D3
:10175000000303F009FC444B4FF0010200924FF0EC
:10176000000201924FF0000202924FF00002039239
:101770003E4819464FF082024FF0000303F0F4FB9D
:101780003B4B4FF0010200924FF0000201924FF0EC
:10179000000202924FF000020392364819464FF0C1
:1017A00082024FF0000303F0DFFB334B4FF00102E6
:1017B00000924FF0000201924FF0000202924FF0AF
:1017C000000203922D4819464FF082024FF00003A9
:1017D00003F0CAFB2A4B4FF0010200924FF00002C7
:1017E00001924FF0000202924FF00002039225484E
:1017F00019464FF082024FF0000303F0B5FB224B75
:101800004FF0010200924FF0000201924FF00002EF
:1018100002924FF0000203921C4819464FF08202D8
:101820004FF0000303F0A0FB194B4FF001020092B0
:101830004FF0000201924FF0000202924FF00002BE
:101840000392144819464FF082024FF0000303F050
:101850008BFB03F071FCFEE744940008B51A000806
:10186000549400083D1C00085C9400080120000806
:1018700064940008291A0008709400085D25000887
:1018800084940008E11A0008909400085119000897
:10189000A49400089918000880B582B000AF786061
:1018A00004E000BF02E000BF00E000BF224B1B7855
:1018B000002BF6D1214B1B78002BF4D1204B1B7849
:1018C0001A46204B1B784FF47A7101FB03F31E4933
:1018D00081FB03014FEA61114FEAE373CB1A9A428D
:1018E000E3DA1A4B1B78092B06D803F05BFA4FF0AA
:1018F000010002F0E1FB05E003F030FA4FF00100D7
:1019000002F0DAFB4FF4C37003F0EAFB0F4B1B78D5
:10191000092B06D803F052FA4FF0000002F0CCFB7E
:1019200005E003F033FA4FF0000002F0C5FB4FF47E
:10193000C37003F0D5FBB9E7E6010020F9010020F0
:10194000DE010020E00100201F85EB51D9010020BD
:1019500080B584B000AF78604FF00003FB7305F0F2
:1019600017FD4FF0D0004FF000014FF00602FEF7D8
:1019700047FE0346FB73FB7B002B3ED1224B1B78BB
:10198000184602F021FB03461A46204B1A701E4BE4
:101990005B78184602F018FB03461A461C4B1A7077
:1019A000194B9B78184602F00FFB03461A46194B59
:1019B0001A70154BDB78184602F006FB03461A46F0
:1019C000154B1A70104B1B79184602F0FDFA0346AE
:1019D0001A46124B1A700C4B5B79184602F0F4FA57
:1019E00003461A460E4B1A70074B9B79184602F0B5
:1019F000EBFA03461A460B4B1A7005F0DBFC4FF06E
:101A0000960003F06DFBAAE7602F0120D7010020AC
:101A1000D8010020D9010020DB010020DA010020DC
:101A2000DC010020DD01002080B582B000AF7860CD
:101A300005F0AEFCFFF7F8FA0346012B0BD11B486B
:101A4000FFF7CAFA1A4B4FF000021A704FF001006C
:101A5000FFF70EFD22E04FF00100FFF72FFD144BC2
:101A60001B7803F10103DAB2114B1A70104B1B788B
:101A7000042B13D90D4B4FF009021A700B4B4FF08A
:101A800009025A70094B4FF009029A70074B4FF048
:101A90000902DA70064B4FF001021A7005F08AFC59
:101AA00041F2883003F01CFBC2E700BF782F012011
:101AB000F001002080B582B000AF78604FF00200E6
:101AC000FFF722FD054B1B7803F10103DAB2034B4C
:101AD0001A704FF47A7003F003FBEFE7DE01002089
:101AE00080B582B000AF7860464B1B78002B0FD0DA
:101AF000444B1B78042B0BD0424B1B780D2B07D08B
:101B0000404B1B78112B03D03E4B1B78152B14D167
:101B10003D4B1B780A2B0BD03B4B1B78142B07D06B
:101B2000394B1B78232B03D0374B1B78322B04D136
:101B3000364B4FF001021A7003E0344B4FF00002B5
:101B40001A704FF0000002F0D9F80346002B39D08C
:101B500003F0FAF92E4B1B78002B04D12C4B4FF0DD
:101B600001021A7026E02A4B1B7803F10103DAB256
:101B7000274B1A70274B4FF000021A70264B4FF07C
:101B800000021A70254B4FF000021A70244B4FF0E0
:101B900000021A70234B4FF000021A70224B4FF0D4
:101BA00000021A70214B4FF000021A70204B4FF0C8
:101BB00000021A70164B1B780A2B03D1144B4FF0FE
:101BC00000021A704FF0010002F098F80346002B53
:101BD00005D0184B4FF001021A7003F0B5F94FF021
:101BE000020002F08BF80346002B05D0124B4FF099
:101BF00001021A7003F0A8F94FF0020003F070FA26
:101C000072E700BFD9010020D8010020F9010020AF
:101C1000E6010020E7010020E8010020E9010020A2
:101C2000EA010020EB010020EC010020ED01002082
:101C3000EE010020F1010020F201002080B584B007
:101C400000AF78604FF00003FB730B4B1B78002B49
:101C500014D04FF000004FF0000104F0BBFA4FF039
:101C600001004FF0400104F0B5FA4FF002004FF0D0
:101C7000000104F0AFFABBE1E60100207F4B1B78C6
:101C80000A2B40F289807D4B1B78132B00F2848055
:101C9000FB7B002B02D14FF00103FB73FB7B012B7D
:101CA00010D1BB7B03F10103BB734FF000037B73C7
:101CB0004FF000033B73BB7B5BB2002B02DA4FF0AB
:101CC0000203FB73FB7B022B0AD17B7B03F1010335
:101CD0007B737B7B5BB2002B02DA4FF00303FB7359
:101CE000FB7B032B09D1BB7B03F1FF33BB73BB7BB6
:101CF000002B02D14FF00403FB73FB7B042B0AD1B2
:101D00003B7B03F101033B733B7B5BB2002B02DAAD
:101D10004FF00503FB73FB7B052B09D17B7B03F1A4
:101D2000FF337B737B7B002B02D14FF00603FB73E9
:101D3000FB7B062B0AD1BB7B03F10103BB73BB7B8F
:101D40005BB2002B02DA4FF00703FB73FB7B072B20
:101D500009D13B7B03F1FF333B733B7B002B02D16B
:101D60004FF00003FB733B7B9BB24FF00000194622
:101D700004F030FABB7B9BB24FF00100194604F02F
:101D800029FA7B7B9BB24FF00200194604F022FA3D
:101D90004FF01E0003F0A4F9384B1B78132B40F2D0
:101DA0008880364B1B78162B00F28380FB7B002B40
:101DB00002D14FF00103FB73FB7B012B0FD1BB7BE7
:101DC00003F10103BB734FF000037B734FF000037B
:101DD0003B73BB7B0F2B02D94FF00203FB73FB7BE2
:101DE000022B09D17B7B03F101037B737B7B0F2BE0
:101DF00002D94FF00303FB73FB7B032B09D1BB7BA1
:101E000003F1FF33BB73BB7B002B02D14FF0040304
:101E1000FB73FB7B042B09D13B7B03F101033B7379
:101E20003B7B0F2B02D94FF00503FB73FB7B052B8C
:101E300009D17B7B03F1FF337B737B7B002B02D1CA
:101E40004FF00603FB73FB7B062B09D1BB7B03F131
:101E50000103BB73BB7B0F2B02D94FF00703FB734E
:101E6000FB7B072B0CD13B7B03F1FF333B733B7BAD
:101E7000002B05D14FF00003FB7301E0D9010020D6
:101E80003B7B9BB24FF00000194604F0A3F9BB7BEB
:101E90009BB24FF00100194604F09CF97B7B9BB28A
:101EA0004FF00200194604F095F94FF0280003F0B6
:101EB00017F9524B1B78082B11D84FF000004FF048
:101EC000000104F087F94FF001004FF0000104F029
:101ED00081F94FF002004FF0000104F07BF9474B0D
:101EE0001B78082B40F28480444B1B78092B7FD849
:101EF000FB7B002B02D14FF00103FB73FB7B012B1B
:101F00000FD1BB7B03F10103BB734FF000037B7365
:101F10004FF000033B73BB7B0F2B02D94FF0020342
:101F2000FB73FB7B022B09D17B7B03F101037B73EA
:101F30007B7B0F2B02D94FF00303FB73FB7B032B3F
:101F400009D1BB7B03F1FF33BB73BB7B002B02D1F9
:101F50004FF00403FB73FB7B042B09D13B7B03F1A4
:101F600001033B733B7B0F2B02D94FF00503FB733F
:101F7000FB7B052B09D17B7B03F1FF337B737B7BE1
:101F8000002B02D14FF00603FB73FB7B062B09D11C
:101F9000BB7B03F10103BB73BB7B0F2B02D94FF05B
:101FA0000703FB73FB7B072B09D13B7B03F1FF335B
:101FB0003B733B7B002B02D14FF00003FB733B7B59
:101FC0009BB24FF00000194604F004F9BB7B9BB2B2
:101FD0004FF00100194604F0FDF87B7B9BB24FF0F7
:101FE0000200194604F0F6F84FF0280003F078F8E4
:101FF0004FF0030003F074F827E600BFD90100207A
:1020000090B593B000AF78604FF00003A7F846306A
:102010004FF00003A7F844304FF00003A7F8423018
:102020004FF00003A7F840304FF00003FB874FF05C
:102030000003BB874FF000037B874FF000033B8713
:102040004FF00003FB864FF00003BB864FF0000308
:102050007B864FF000033B8605F09AF94FF0EF00C6
:102060004FF0AA01FEF7FCF803469BB24FEA0323A8
:102070009CB24FF0EF004FF0AB01FEF7F1F80346D2
:102080009BB2E3189BB2A7F844304FF0EF004FF03B
:10209000AC01FEF7E5F803469BB24FEA03239CB27E
:1020A0004FF0EF004FF0AD01FEF7DAF803469BB2B8
:1020B000E3189BB2A7F842304FF0EF004FF0AE01AB
:1020C000FEF7CEF803469BB24FEA03239CB24FF0D3
:1020D000EF004FF0AF01FEF7C3F803469BB2E318E1
:1020E0009BB2A7F840304FF0EF004FF0B001FEF781
:1020F000B7F803469BB24FEA03239CB24FF0EF00C0
:102100004FF0B101FEF7ACF803469BB2E318FB8732
:102110004FF0EF004FF0B201FEF7A2F803469BB27A
:102120004FEA03239CB24FF0EF004FF0B301FEF7EC
:1021300097F803469BB2E318BB874FF0EF004FF0D0
:10214000B401FEF78DF803469BB24FEA03239CB21D
:102150004FF0EF004FF0B501FEF782F803469BB257
:10216000E3187B874FF0EF004FF0B601FEF778F8E9
:1021700003469BB24FEA03239CB24FF0EF004FF0AF
:10218000B701FEF76DF803469BB2E3189BB23B879D
:102190004FF0EF004FF0B801FEF762F803469BB234
:1021A0004FEA03239CB24FF0EF004FF0B901FEF766
:1021B00057F803469BB2E3189BB2FB864FF0EF0043
:1021C0004FF0BA01FEF74CF803469BB24FEA0323E7
:1021D0009CB24FF0EF004FF0BB01FEF741F8034611
:1021E0009BB2E3189BB2BB864FF0EF004FF0BC01EF
:1021F000FEF736F803469BB24FEA03239CB24FF03A
:10220000EF004FF0BD01FEF72BF803469BB2E31839
:102210009BB27B864FF0EF004FF0BE01FEF720F837
:1022200003469BB24FEA03239CB24FF0EF004FF0FE
:10223000BF01FEF715F803469BB2E3189BB23B863D
:1022400005F0B8F805F0A4F84FF0EF004FF0F401F6
:102250004FF02E02FEF710F905F0ACF84FF0050034
:1022600002F03EFF05F094F84FF0EF004FF0F6015A
:10227000FDF7F6FF03464FEA03244FF0EF004FF05F
:10228000F701FDF7EDFF0346E318FB6205F092F856
:1022900005F07EF84FF0EF004FF0F4014FF03402FC
:1022A000FEF7EAF805F086F84FF0050002F018FF97
:1022B00005F06EF84FF0EF004FF0F601FDF7D0FF9C
:1022C00003464FEA03244FF0EF004FF0F701FDF70C
:1022D000C7FF0346E318BB6205F06CF87B8FFA6A10
:1022E000D31ABA8F02FB03F34FEAD3337B62B7F9F9
:1022F00032304FEAC322B7F930107B6ACB1892FB19
:10230000F3F37B847B6A9AB27B8CD3189BB23B84B9
:10231000B7F9203003F10803002B01DA03F10F03B2
:102320004FEA23139AB2854B1A803B8CA3F57A634C
:102330009BB2FB83B7F944304FEA8302B7F93630DA
:10234000B7F91E1001FB03F3002B03DA03F57E63DC
:1023500003F11F034FEA23331946B7F94230CB1874
:10236000B7F91E1001FB03F3002B03DA03F5FE633C
:1023700003F10F034FEAE323D31803F10203002B09
:1023800001DA03F103034FEAA303BB83B7F940204B
:10239000B7F938304FEA4303B7F91E1001FB03F3D6
:1023A000D318B7F91E2002FB03F3002B03DA03F165
:1023B000005303F1FF334FEA637303F102037B62BF
:1023C000FA8F7B6A002B01DA03F103034FEAA303C0
:1023D00003F5004303FB02F34FEAD3337B83B7F9E2
:1023E0001C30BA6AD31A4CF2503202FB03F37B6101
:1023F0007A696FF078439A4206D87B694FEA4302C4
:102400007B8BB2FBF3F305E07B8B7A69B2FBF3F3D2
:102410004FEA43034A4A1360494B1B68002B01DA19
:1024200003F1FF034FEA23231A46454B1B68002B99
:1024300001DA03F1FF034FEA232303FB02F340F623
:10244000DE3202FB03F23E4B1B683E4901FB03F305
:10245000D318002B03DA4FF6FF729A1813464FEA8F
:10246000234303F56C6303F10F03002B01DA03F13F
:102470000F034FEA23131A46314B1B68D218304B17
:102480001A602F4B1A6813464FEA83039B184FEAD2
:102490000312D31A2C4A82FB03124FEA22324FEA6C
:1024A000E373D21A264B1A6004F072FF4FF08000DB
:1024B0004FF0E5014FF00302FEF7A2F804F07AFFB7
:1024C000224B1B78A7F84630B7F846304FEA032373
:1024D000A7F846301D4B5B781A46B7F84630D3183C
:1024E000A7F84630B7F8463023F00303A7F8463084
:1024F000B7F8463007EE903AB8EEE77ADFED147A97
:10250000C7EE277AC7ED047A97ED047ADFED117AEA
:1025100067EE277AB1EE087A77EEC77AC7ED037ACD
:10252000D7ED037AFDEEE77A17EE903A9AB20A4BAE
:102530001A8041F2883002F0D3FD69E5C80100201D
:10254000C401002043E3FFFFAD8BDB68602F012057
:10255000000080470000FA42CC01002080B586B020
:1025600000AF78604FF00003FB754FF00003BB75C0
:102570004FF000037B754FF000033B754FF00003F5
:10258000FB744FF00003BB744FF000037B744FF0FB
:1025900000033B744FF00003FB734FF000037B73A9
:1025A0004FF00003BB730B4B1B78002B40F09C805B
:1025B000094B1B78012B40F09780084B1B7803F1E7
:1025C0000103DAB2054B1A7002F0C8FB4FF00003AA
:1025D000BB7385E0E6010020F9010020DF01002047
:1025E000BB7B002B05D0BB7B032B02D0BB7B062B18
:1025F00007D14FF0010001F003FE4FF0010001F0A0
:102600005BFDBB7B012B05D0BB7B042B02D0BB7BCE
:10261000072B07D14FF0010001F02CFE4FF0010015
:1026200001F018FDBB7B022B05D0BB7B052B02D034
:10263000BB7B082B09D14FF0010001F055FE4FF094
:10264000010001F06BFD02F089FB4FF0010001F089
:1026500097FDBB7B1A464FEA8202D2184FEA42022C
:10266000D318DAB2BB7B19464FEA8101C9184FEA89
:102670004101CB18DBB21046194602F0CFFABB7B02
:102680009BB21A464FEAC202D21A4FEA0212D31A7A
:102690009BB24FF00C00194601F002FF02F028FB3C
:1026A0004FF0500002F01CFD01F0D6FE4FF000008C
:1026B00001F0A6FD4FF0000001F0FEFC02F066FB09
:1026C0004FF0000001F010FE4FF0000001F058FD47
:1026D0004FF0C80002F004FDBB7B03F10103BB73A4
:1026E000BB7B092B7FF67CAF924B1B78002B40F015
:1026F000F880914B1B78002B40F0F3808F4B1A78B9
:102700008F4B1B789A4210D28E4B1B784FF00400EF
:10271000194601F0C5FE8C4B1A788C4B1B7810467D
:10272000194602F07BFA02F0E3FA844B1A78844BE4
:102730001B789A4211D9814B1A78854B1B789A42A3
:102740000BD202F047FB834B1B689BB24FF0030098
:10275000194601F0A5FE02F0CBFA784B1A787C4BB3
:102760001B789A4217D9754B1A787B4B1B789A4283
:1027700011D202F047FB4FF000004FF00A0102F0C7
:102780004DFA764B1B889BB24FF00000194601F0C2
:1027900087FE02F0ADFA694B1A786F4B1B789A42AC
:1027A00059D9664B1A786E4B1B789A4253D202F075
:1027B00029FB4FF000004FF0140102F02FFA694B93
:1027C0001B781A46674B9B7819464FEA8101CB1854
:1027D00019464FEA810019460346CB184FEA830396
:1027E00099B2604B5B7818464FEA8000C3184FEAF5
:1027F00043039BB2CB189BB2D3189BB29AB25A4BED
:102800001A80584BDB78092B09D1574B1B889BB298
:102810004FF00D00194601F043FE02F069FA514BEA
:10282000DB782B2B09D1504B1B889BB24FF000005B
:10283000194601F035FE02F05BFA4A4BDB782D2B8E
:1028400009D1494B1B889BB24FF00100194601F09A
:1028500027FE02F04DFA394B1A78414B1B789A4209
:1028600017D9364B1A78414B1B789A4211D202F095
:10287000C9FA4FF000004FF00A0102F0CFF93C4BCB
:102880001B889BB24FF00200194601F009FE02F0CE
:102890002FFA2A4B1A78354B1B789A4217D9274BB7
:1028A0001A78344B1B789A4211D202F057FA324B05
:1028B0001A78324B1B781046194602F0AFF94FF0E8
:1028C0000A004FF0000101F0EBFD02F011FA1B4B82
:1028D0001A78284B1B789A4203D9184B4FF0000204
:1028E0001A70144B1B78012B40F0D380244B1B78BB
:1028F000002B06D1154B1B78BB75214B4FF0010205
:102900001A70204B1B78012B0ED1BB7D03F1010304
:10291000BB7597F916303B2B02DD4FF00003BB75FA
:10292000184B4FF000021A70174B1B78012B3CD14B
:102930002CE000BFE6010020F9010020DE010020AC
:10294000F3010020D7010020D9010020D801002088
:10295000F7010020C4010020F5010020C80100207B
:10296000F6010020782F0120D0010020F80100207E
:10297000CC010020F4010020DA010020DC0100205D
:10298000E7010020F1010020F2010020BB7D03F1EE
:10299000FF33BB7597F91630002B02DA4FF03B037B
:1029A000BB75974B4FF000021A7002F01FFA954B5F
:1029B0001B784FF00500194601F072FD924B1A7812
:1029C000BB7D1046194602F029F902F091F94FF04B
:1029D000640002F085FB02F0C1F98A4B1B784FF0CE
:1029E0000500194601F05CFD874B1A78BB7D104647
:1029F000194602F013F902F07BF9844B1B78012B86
:102A00000ED1BB7D03F10103BB7597F916303B2B4B
:102A100002DD4FF00003BB757C4B4FF000021A70D3
:102A2000774B1B78012B0AD1BB7D03F1FF33BB75BC
:102A300097F91630002B02DA4FF03B03BB754FF0CD
:102A40001E0001F0DDFA0346DAB2714B1A7097F9F5
:102A50001630184601F0D4FA0346DAB26C4B5A70BD
:102A6000694B1B78184601F0CBFA0346DAB2684B83
:102A70009A7004F08DFC4FF0D0004FF000014FF041
:102A80000302FDF7FFFE04F095FC4FF0640002F036
:102A900027FB604B1B78022B40F0A5805E4B1B7818
:102AA000002B06D1584B1B78FB755B4B4FF0010296
:102AB0001A70564B1B78012B0AD1FB7D03F10103E1
:102AC000FB7597F91730172B02DD4FF00003FB75EC
:102AD0004B4B1B78012B0ED1FB7D03F1FF33FB75B4
:102AE00097F91730002B02DA4FF01703FB75444BB0
:102AF0004FF000021A7002F091F9424B1B784FF030
:102B00000500194601F0CCFCFA7D444B1B781046B9
:102B1000194602F083F802F0EBF84FF0640002F07F
:102B2000DFFA02F01BF9374B1B784FF0050019460E
:102B300001F0B6FCFA7D394B1B781046194602F0BD
:102B40006DF802F0D5F8314B1B78012B0ED1FB7DCF
:102B500003F10103FB7597F91730172B02DD4FF0D6
:102B60000003FB75294B4FF000021A70244B1B78B1
:102B7000012B0ED1FB7D03F1FF33FB7597F9173065
:102B8000002B02DA4FF01703FB751D4B4FF00002CC
:102B90001A704FF01E0001F033FA0346DAB21C4BF4
:102BA0001A701E4B1B78184601F02AFA0346DAB257
:102BB000174B5A7097F91730184601F021FA03465F
:102BC000DAB2134B9A7004F0E3FB4FF0D0004FF0F1
:102BD00000014FF00302FDF755FE04F0EBFB4FF050
:102BE000640002F07DFA0B4B1B78032B40F0CC8085
:102BF0000B4B1B78002B1CD10A4B1B7814E000BF39
:102C0000F2010020D7010020D9010020F1010020AD
:102C1000602F0120E6010020E8010020D8010020FB
:102C2000ED010020DA0100203B74914B4FF00102CE
:102C30001A70904B1B78012B0ED13B7C03F10103E2
:102C40003B7497F910301F2B02DD4FF001033B74EA
:102C5000884B4FF000021A70874B1B78012B0ED166
:102C60003B7C03F1FF333B7497F91030002B02DCFF
:102C70004FF01F033B74804B4FF000021A7002F0BC
:102C8000CDF84FF00A004FF0000101F009FC3A7C4A
:102C90007A4B1B781046194601F0C0FF02F028F865
:102CA0004FF0640002F01CFA02F058F84FF00A00EE
:102CB0004FF0000101F0F4FB3A7C704B1B7810469A
:102CC000194601F0ABFF02F013F86A4B1B78012B99
:102CD0000ED13B7C03F101033B7497F910301F2B9D
:102CE00002DD4FF001033B74624B4FF000021A709B
:102CF000614B1B78012B0ED13B7C03F1FF333B74FE
:102D000097F91030002B02DC4FF01F033B745A4B35
:102D10004FF000021A70397C584B1A78584B1B78C8
:102D2000084611461A4602F085F80346DAB2554BBA
:102D30001A7097F91030184601F062F90346DAB2BA
:102D4000504B5A704D4B1B78184601F059F9034609
:102D5000DAB24C4B9A704A4B1B78184601F050F986
:102D60000346DAB2474BDA7004F012FB4FF0D000A2
:102D70004FF003014FF00402FDF784FD04F01AFB4D
:102D80004FF0640002F0ACF93F4B1B78042B40F08D
:102D9000C9803E4B1B78002B06D1384B1B78FB7348
:102DA0003A4B4FF001021A70324B1B78012B0ED1B7
:102DB000FB7B03F10103FB7397F90F300C2B02DD52
:102DC0004FF00103FB732B4B4FF000021A702A4B9C
:102DD0001B78012B0ED1FB7B03F1FF33FB7397F9BB
:102DE0000F30002B02DA4FF00C03FB73224B4FF035
:102DF00000021A7001F0FAFF4FF00A004FF00001D4
:102E000001F04EFB224B1A78FB7B1046194601F06D
:102E100005FF01F06DFF4FF0640002F061F901F071
:102E20009DFF4FF00A004FF0000101F039FB184BF5
:102E30001A78FB7B1046194601F0F0FE01F058FFAE
:102E40000C4B1B78012B0ED1FB7B03F10103FB73B1
:102E500097F90F300C2B02DD4FF00103FB73054B8C
:102E60004FF000021A70044B1B78012B21D111E0A6
:102E7000ED010020F1010020F2010020DC01002022
:102E8000DD010020602F0120E6010020EE0100207E
:102E9000DA010020FB7B03F1FF33FB7397F90F305E
:102EA000002B02DA4FF00C03FB73944B4FF000023F
:102EB0001A70934B1978FA7B924B1B78084611468F
:102EC0001A4601F0B7FF0346DAB28F4B1A708C4BEB
:102ED0001B78184601F094F80346DAB28A4B5A7010
:102EE00097F90F30184601F08BF80346DAB2864B9B
:102EF0009A70844B1B78184601F082F80346DAB2C8
:102F0000814BDA7004F044FA4FF0D0004FF0030127
:102F10004FF00402FDF7B6FC04F04CFA4FF06400E9
:102F200002F0DEF8794B1B78052B58D101F052FFE7
:102F3000774B1B78002B0FD104F02AFA42F2342091
:102F40004FF0090106F082F803467B7504F032FA6F
:102F50006F4B4FF001021A706E4B1B78012B0ED194
:102F60007B7D03F101037B7597F91530632B02DD3F
:102F70004FF000037B75674B4FF000021A705F4BF8
:102F80001B78012B0ED17B7D03F1FF337B7597F905
:102F90001530002B02DA4FF063037B75574B4FF06F
:102FA00000021A707A7D5C4B1A7004F0F1F97B7D97
:102FB00042F2342019464FF0090205F07BFF04F07D
:102FC000F9F997F915309BB24FF00600194601F058
:102FD00067FA01F08DFE4FF0640002F081F84B4B70
:102FE0001B78062B58D101F0F5FE4C4B1B78002BBB
:102FF0000FD104F0CDF942F235204FF0090106F06F
:1030000025F803463B7504F0D5F9444B4FF0010217
:103010001A70404B1B78012B0ED13B7D03F101034D
:103020003B7597F91430632B02DD4FF000033B75BD
:10303000384B4FF000021A70304B1B78012B0ED129
:103040003B7D03F1FF333B7597F91430002B02DA17
:103050004FF063033B75294B4FF000021A703A7D25
:103060002F4B1A7004F094F93B7D42F2352019463B
:103070004FF0090205F01EFF04F09CF997F9143097
:103080009BB24FF00700194601F00AFA01F030FE3A
:103090004FF0640002F024F81C4B1B78072B6FD113
:1030A00001F098FE1F4B1B78002B0FD104F070F934
:1030B00042F236204FF0090105F0C8FF0346FB74C9
:1030C00004F078F9174B4FF001021A70114B1B787E
:1030D000012B0ED1FB7C03F10103FB7497F9133034
:1030E000632B02DD4FF00003FB740A4B4FF000022C
:1030F0001A70024B1B78012B25D115E0F20100203C
:10310000DA010020DD010020602F0120E60100200F
:10311000E9010020F1010020E0010020EA01002087
:10312000E1010020EB010020FB7C03F1FF33FB7485
:1031300097F91330002B02DA4FF06303FB74844BD2
:103140004FF000021A70FA7C824B1A7004F020F9DA
:10315000FB7C42F2362019464FF0090205F0AAFE28
:1031600004F028F997F913309BB24FF00800194684
:1031700001F096F901F0BCFD4FF0640001F0B0FFE2
:10318000754B1B78082B58D101F024FE734B1B782C
:10319000002B0FD104F0FCF842F237204FF0090168
:1031A00005F054FF0346BB7404F004F96B4B4FF079
:1031B00001021A706A4B1B78012B0ED1BB7C03F104
:1031C0000103BB7497F91230632B02DD4FF000034B
:1031D000BB74634B4FF000021A705D4B1B78012BE0
:1031E0000ED1BB7C03F1FF33BB7497F91230002B77
:1031F00002DA4FF06303BB74554B4FF000021A70B4
:10320000BA7C584B1A7004F0C3F8BB7C42F23720EA
:1032100019464FF0090205F04DFE04F0CBF897F97E
:1032200012309BB24FF00B00194601F039F901F052
:103230005FFD4FF0640001F053FF474B1B78092BF3
:1032400058D101F0C7FD484B1B78002B0FD104F07B
:103250009FF842F238204FF0090105F0F7FE0346CF
:103260007B7404F0A7F8404B4FF001021A703C4BFE
:103270001B78012B0ED17B7C03F101037B7497F942
:103280001130632B02DD4FF000037B74344B4FF0A1
:1032900000021A702E4B1B78012B0ED17B7C03F1A0
:1032A000FF337B7497F91130002B02DA4FF0630380
:1032B0007B74274B4FF000021A707A7C2B4B1A70EC
:1032C00004F066F8BB7C42F2382019464FF0090240
:1032D00005F0F0FD04F06EF897F911309BB24FF055
:1032E0000900194601F0DCF801F002FD4FF064001E
:1032F00001F0F6FE1E4B1A781E4B1A701D4B1A7801
:103300001D4B1B78D318DAB21C4B1A701B4B1A7862
:10331000104B1B78D318DAB2194B1A70184B1A7865
:10332000184B1B78D318DAB2174B1A70164B1A7851
:103330000E4B1B78D318DAB2144B1A70134B1A7851
:10334000084B1B78D318DAB2114B1A70FFF72BB960
:10335000F2010020E2010020E6010020EC01002043
:10336000F1010020E3010020EF010020E401002032
:10337000E0010020F3010020E1010020F70100201E
:10338000F5010020E5010020F6010020F8010020F1
:10339000F401002080B489B000AF78604FF00003E2
:1033A000BB614FF000037B614FF00003FB614FF006
:1033B00002033B614FF00003FB604FF00203BB6070
:1033C0004F4B9B6803F00C03BB61BB69042B07D018
:1033D000082B09D0002B47D17B684A4A1A6047E086
:1033E0007B68494A1A6043E0454B5B6803F48003FD
:1033F0004FEA9353FB60424B5B6803F03F03BB60B3
:10340000FB68002B0FD0404ABB68B2FBF3F23C4B89
:10341000596847F6C07301EA03034FEA931303FBAD
:1034200002F3FB610EE0374ABB68B2FBF3F2344BA8
:10343000596847F6C07301EA03034FEA931303FB8D
:1034400002F3FB612E4B5B6803F440334FEA1343F6
:1034500003F101034FEA43033B61FA693B69B2FBA5
:10346000F3F27B681A6003E07B68264A1A6000BFAB
:10347000234B9B6803F0F003BB61BB694FEA131356
:10348000BB61224ABB69D3181B78DBB27B617B68C6
:103490001A687B6922FA03F27B685A60184B9B68B2
:1034A00003F4E053BB61BB694FEA9323BB61174A46
:1034B000BB69D3181B78DBB27B617B685A687B6978
:1034C00022FA03F27B689A600D4B9B6803F4604319
:1034D000BB61BB694FEA5333BB610C4ABB69D3186C
:1034E0001B78DBB27B617B685A687B6922FA03F246
:1034F0007B68DA6007F12407BD4680BC704700BFD7
:10350000003802400024F40040787D01A80000202B
:1035100080B483B000AF78600B46FB70FB78002B63
:1035200007D00B4B0A4A116B7A6841EA02021A6310
:1035300008E0074B064A116B7A686FEA020201EA5B
:1035400002021A6307F10C07BD4680BC704700BF3A
:103550000038024080B483B000AF78600B46FB7047
:10356000FB78002B07D00B4B0A4A116C7A6841EAB2
:1035700002021A6408E0074B064A116C7A686FEA87
:10358000020201EA02021A6407F10C07BD4680BC80
:10359000704700BF0038024080B483B000AF78604D
:1035A0000B46FB70FB78002B07D00B4B0A4A516C83
:1035B0007A6841EA02025A6408E0074B064A516CF5
:1035C0007A686FEA020201EA02025A6407F10C0704
:1035D000BD4680BC704700BF0038024080B483B055
:1035E00000AF78600B46FB70FB78002B07D00B4BCD
:1035F0000A4A116A7A6841EA02021A6208E0074B35
:10360000064A116A7A686FEA020201EA02021A6245
:1036100007F10C07BD4680BC704700BF0038024070
:1036200080B483B000AF78600B46FB70FB78002B52
:1036300007D00B4B0A4A516A7A6841EA02025A6281
:1036400008E0074B064A516A7A686FEA020201EA0B
:1036500002025A6207F10C07BD4680BC704700BFEA
:103660000038024080B586B004AF4FF000037B60A5
:1036700000F078FA124B1B68002B15D0114B4FF05D
:10368000020200924FF0000201924FF000020292FB
:103690004FF0000203920C4819464FF482724FF02B
:1036A000000301F061FC78607B68002B02D103F01D
:1036B00095FEFEE77B68184607F10807BD4680BD0A
:1036C0002C020020B0940008E137000880B588B0D3
:1036D00000AFF860B9607A603B604FF00003FB61B7
:1036E0001F4B1B68002B34D0BB683B617B687B6140
:1036F000FB68BB613B68002B1FD102F041FA034617
:10370000012B0CD1164B1A6807F11003104619460D
:10371000BA6A4FF0000303F0A9FFF86119E0104BFB
:103720001A6807F11003104619464FF000024FF0D7
:10373000000303F09BFFF8610BE0094B1A6807F1E7
:103740001003104619463A684FF0000304F04AF897
:10375000F861FB69184607F12007BD4680BD00BF30
:103760002C02002080B586B002AF786039601B4B18
:103770001B68DB68DB68FB60FB6803F10403184629
:1037800003F0F0FBFB68DB69012B1ED1FB689A6933
:103790007B68D318F86819463A687B6800F0B6F879
:1037A0000346012B11D14FF000030093F8684FF04E
:1037B00000017A684FF00003FFF788FFB860BB682C
:1037C000002B02D103F00AFEFEE7FB685B6AF86893
:1037D000984707F11007BD4680BD00BF24020020B6
:1037E00080B584B000AF786007F10803184600F098
:1037F00043F8F860BB68F868194600F003F800F079
:10380000CDF8F1E780B584B000AF7860396001F0A1
:10381000D5FC07F10803184600F052F8F860BB68C1
:10382000002B1ED13B68002B0AD17A68FB689A42B4
:1038300006D801F0D1FC7868F968FFF793FF14E02F
:103840000C4B1A687968FB68CB1A1046194604F0CD
:1038500035FA01F0C1FC0346002B05D103F088FDC9
:1038600003E001F0B9FC00E000BF07F11007BD461E
:1038700080BD00BF2C02002080B485B000AF78600E
:103880000E4B1B681B68002B14BF002201227B68B3
:103890001A607B681B68002B05D1084B1B68DB682E
:1038A0001B68FB6002E04FF00003FB60FB681846FA
:1038B00007F11407BD4680BC704700BF24020020FA
:1038C00080B584B000AF786001F018FDF8600E4B51
:1038D0001B68FA689A4209D20B4B1B68184600F025
:1038E000E1F87B684FF001021A6003E07B684FF05B
:1038F00000021A60044BFA681A60FB68184607F168
:103900001007BD4680BD00BF3002002080B586B0E4
:1039100000AFF860B9607A603B604FF000037B61F4
:10392000FB68BA685A60FB68FA681A61BA687B6813
:103930009A4214D87A683B68D21AFB689B699A420B
:1039400003D34FF001037B611EE0124B1A68FB6842
:1039500003F104031046194603F0CAFA14E07A682A
:103960003B689A4207D2BA683B689A4203D34FF049
:1039700001037B6108E0084B1A68FB6803F104034C
:103980001046194603F0B4FA7B69184607F1180788
:10399000BD4680BD280200202402002080B58AB0E8
:1039A00002AF6AE03B69FB61FB695B69002B05D0F4
:1039B000FB6903F10403184603F0D4FA07F104038A
:1039C0001846FFF77DFFB861BB68032B4ED801A2F4
:1039D00052F823F0E53900086D3A00083B3A000838
:1039E000653A0008FA68FB699B69D218FB68F869B8
:1039F0001146BA69FFF78AFF0346012B38D1FB69EC
:103A00005B6AF8699847FB69DB69012B32D1FA6878
:103A1000FB699B69D3184FF000020092F8694FF0E0
:103A200000011A464FF00003FFF750FE78617B69F2
:103A3000002B21D103F0D2FCFEE7FA68FB699A6102
:103A4000FB699B69002B02D103F0C8FCFEE7FB6910
:103A50009A69BB69D318F8691946BA69BB69FFF757
:103A600055FF0AE0F86904F037FE06E000BF04E005
:103A700000BF02E000BF00E000BF094B1A6807F179
:103A80000803104619464FF000024FF0000303F000
:103A90001DFF0346002B85D107F12007BD4680BDE1
:103AA0002C02002080B58AB002AF786042E02B4B38
:103AB0001B68DB681B68FB61284B1B68DB68DB68E5
:103AC000BB61BB6903F10403184603F04BFABB6901
:103AD0005B6AB8699847BB69DB69012B2AD1BB696E
:103AE0009A69FB69D3187B617A69FB699A420FD99D
:103AF000BB697A695A60BB69BA691A61174B1A685F
:103B0000BB6903F104031046194603F0F1F911E013
:103B10004FF000030093B8694FF00001FA694FF0CD
:103B20000003FFF7D3FD38613B69002B02D103F09E
:103B300055FCFEE7094B1B681B68002BB7D1074BF0
:103B40001B68FB60064B1A68044B1A60044BFA684A
:103B50001A6007F12007BD4680BD00BF2402002087
:103B60002802002080B500AF03F012FC0E4B1B684A
:103B7000002B16D10D4803F065F90D4803F062F9EA
:103B80000C4B0A4A1A600C4B094A1A604FF00A00A3
:103B90004FF00C014FF0000203F01EFD0246024BF5
:103BA0001A6003F007FC80BD2C020020FC010020FD
:103BB00010020020240200202802002080B582B0DC
:103BC00000AF17484FF0100103F0B4F80346FB7143
:103BD00013484FF0200103F0ADF80346BB71114BC1
:103BE0001B78FA799A4216D00E4BFA791A700D4B5F
:103BF0001B78002B0FD1BB79012B06D10A4B1B6818
:103C000003F10102084B1A6005E0074B1B6803F142
:103C1000FF32054B1A6007F10807BD4680BD00BFA3
:103C200000080240B8000020B82F012080B500AF86
:103C30004FF0100004F0F6FB0346002B05D0FFF711
:103C4000BDFF4FF0100004F017FC80BD80B584B0BC
:103C500000AF4FF00003FB7343E0FA7B26491346A5
:103C60004FEA83039B184FEA8303CB1803F10C033D
:103C70001B6818464FF00101FFF74AFC4FF00003A4
:103C80003B72FA7B1C4913464FEA83039B184FEAA9
:103C90008303CB1803F110031B78FB72FA7B1649E0
:103CA00013464FEA83039B184FEA8303CB1803F1B3
:103CB00008031B887B60FA7B0F4913464FEA830396
:103CC0009B184FEA8303CB1803F104031A6807F12A
:103CD00004031046194602F089FFFB7B03F1010340
:103CE000FB73FB7B022BB8D900F03AF800F064F8C4
:103CF00007F11007BD4680BDBC00002080B485B030
:103D000000AF0346FB71FA79134913464FEA830368
:103D10009B184FEA8303CB1803F110035B78FB7306
:103D2000FB790E4AD35CBB73FB790C4AF97BD15407
:103D3000FB7B002B02D14FF0000307E0BB7B002B85
:103D400002D04FF0000301E04FF00103184607F1E5
:103D50001407BD4680BC7047BC000020380200201C
:103D600080B584B000AF4FF020004FF00101FFF7A5
:103D7000F1FB41F28733BB6040F24733BB804FF029
:103D80000003BB814FF00003FB8007F104030948E7
:103D9000194604F009FD07484FF0010104F072FDD7
:103DA00004484FF0010104F08DFD07F11007BD46F6
:103DB00080BD00BF0014004080B582B000AF0E4847
:103DC0004FF001014FF0010205F03CF84FF03703CE
:103DD0003B714FF000037B714FF00003BB714FF05C
:103DE0000103FB7107F10403184604F053FB07F1CC
:103DF0000807BD4680BD00BF0014004080B582B0FA
:103E000000AF1F484FF0010105F042F84FF00003EA
:103E1000FB712EE0FA791B4913464FEA83039B1886
:103E20004FEA8303CB1803F104031968FA791548A4
:103E300013464FEA83039B184FEA8303C31803F129
:103E400008031B880846194602F074FF0346BB713D
:103E5000FA790C4913464FEA83039B184FEA830310
:103E6000CB1803F11003BA795A70FB7903F10103FF
:103E7000FB71FB79022BCDD907F10807BD4680BD48
:103E800000140040BC00002080B485B000AF0346A1
:103E9000FB714FF00003FB73FB79092B3ED801A2A5
:103EA00052F823F0CD3E0008D53E0008DD3E000864
:103EB000E53E0008ED3E0008F53E0008FD3E000826
:103EC000053F00080D3F0008153F00084FF00903AB
:103ED000FB7323E04FF00103FB731FE04FF003037C
:103EE000FB731BE04FF00B03FB7317E04FF00A036B
:103EF000FB7313E04FF00203FB730FE04FF00C0372
:103F0000FB730BE04FF00403FB7307E04FF000037B
:103F1000FB7303E04FF00803FB7300BF184607F183
:103F20001407BD4680BC704780B485B000AF03461F
:103F3000FB714FF00003FB73FB79092B3ED801A204
:103F400052F823F06D3F0008753F00087D3F0008E0
:103F5000853F00088D3F0008953F00089D3F000801
:103F6000A53F0008AD3F0008B53F00084FF0030330
:103F7000FB7323E04FF00C03FB731FE04FF00403CF
:103F8000FB731BE04FF00803FB7317E04FF00203D5
:103F9000FB7313E04FF00A03FB730FE04FF00903CC
:103FA000FB730BE04FF00103FB7307E04FF00003DE
:103FB000FB7303E04FF00B03FB7300BF184607F1E0
:103FC0001407BD4680BC704780B483B000AF034681
:103FD000FB71FB7903F00F03DAB2FB794FEA13139D
:103FE000DBB219464FEA8101CB184FEA4303DBB23B
:103FF000D318DBB2184607F10C07BD4680BC7047EA
:1040000080B483B000AF0346FB71FA79104BA3FB79
:1040100002034FEAD3010B464FEA83035B184FEAD2
:104020004303D31ADBB2DAB2F979094BA3FB0103DC
:104030004FEAD303DBB24FEA0313DBB242EA0303D6
:10404000DBB2DBB2184607F10C07BD4680BC7047F7
:10405000CDCCCCCC80B483B000AF0346FB71FB79F0
:10406000012B0AD1134B1B7843F00203DAB2114B38
:104070001A70104B1A780F4B1A70FB79002B06D16F
:104080000C4B1B7823F00203DAB20A4B1A70094B6F
:104090001B7823F00803DAB2064B1A70054B1B7825
:1040A00023F00403DAB2034B1A7007F10C07BD4684
:1040B00080BC70473C02002080B483B000AF034650
:1040C000FB71FB79012B0AD1134B1B7843F00403DE
:1040D000DAB2114B1A70104B1A780F4B1A70FB7929
:1040E000002B06D10C4B1B7823F00403DAB20A4BE9
:1040F0001A70094B1B7823F00803DAB2064B1A70CA
:10410000054B1B7823F00203DAB2034B1A7007F158
:104110000C07BD4680BC70473C02002080B483B0D1
:1041200000AF0346FB71FB79012B0AD1134B1B78BF
:1041300043F00803DAB2114B1A70104B1A780F4B88
:104140001A70FB79002B06D10C4B1B7823F0080367
:10415000DAB20A4B1A70094B1B7823F00203DAB269
:10416000064B1A70054B1B7823F00403DAB2034B9D
:104170001A7007F10C07BD4680BC70473C02002056
:1041800080B483B000AF0346FB71FB79012B0AD1E9
:104190000C4B1B7843F00103DAB20A4B1A70094B3F
:1041A0001A78084B1A70FB79002B06D1054B1B7847
:1041B00023F00103DAB2034B1A7007F10C07BD4676
:1041C00080BC70473C02002080B400AF0B4B1B78D2
:1041D00023F00803DAB2094B1A70084B1B7823F05E
:1041E0000203DAB2054B1A70044B1B7823F0040368
:1041F000DAB2024B1A70BD4680BC70473C02002008
:1042000080B483B000AF0346FB71FB79012B0AD168
:10421000174B1B7843F04003DAB2154B1A70144B5E
:104220001A78134B1A70FB79002B06D1104B1B78B0
:1042300023F04003DAB20E4B1A700D4B1B7823F0BB
:104240002003DAB20A4B1A70094B1B7823F01003D3
:10425000DAB2074B1A70064B1B7803F07F03DAB211
:10426000034B1A7007F10C07BD4680BC704700BFB6
:104270003C02002080B483B000AF0346FB71FB79A1
:10428000012B0AD1174B1B7843F02003DAB2154BF0
:104290001A70144B1A78134B1A70FB79002B06D145
:1042A000104B1B7823F02003DAB20E4B1A700D4B23
:1042B0001B7823F04003DAB20A4B1A70094B1B78C3
:1042C00023F01003DAB2074B1A70064B1B7803F089
:1042D0007F03DAB2034B1A7007F10C07BD4680BCAE
:1042E000704700BF3C02002080B483B000AF03469B
:1042F000FB71FB79012B15D11C4B1B7843F010038C
:10430000DAB21A4B1A70194B1A78184B1A70174BED
:104310001B7863F07F03DAB2144B1A70134B1A78D0
:10432000124B1A70FB79002B0DD1104B1B7823F028
:104330001003DAB20D4B1A700C4B1B7803F07F039D
:10434000DAB20A4B1A70094B1B7823F02003DAB259
:10435000064B1A70054B1B7823F04003DAB2034B6F
:104360001A7007F10C07BD4680BC70473C02002064
:1043700080B483B000AF0346FB71FB79012B0AD1F7
:10438000174B1B7843F01003DAB2154B1A70144B1D
:104390001A78134B1A70FB79002B0DD1104B1B7838
:1043A00023F01003DAB20E4B1A700D4B1B7803F09A
:1043B0007F03DAB20A4B1A70094B1B7823F02003F3
:1043C000DAB2074B1A70064B1B7823F04003DAB2BF
:1043D000034B1A7007F10C07BD4680BC704700BF45
:1043E0003C02002080B483B000AF0346FB71FB7930
:1043F000012B0AD1174B1B7863F07F03DAB2154B00
:104400001A70144B1A78134B1A70FB79002B0DD1CC
:10441000104B1B7823F01003DAB20E4B1A700D4BC1
:104420001B7803F07F03DAB20A4B1A70094B1B7832
:1044300023F02003DAB2074B1A70064B1B7823F0E7
:104440004003DAB2034B1A7007F10C07BD4680BC7B
:10445000704700BF3C02002080B400AF0F4B1B78B8
:1044600023F02003DAB20D4B1A700C4B1B7823F0AB
:104470004003DAB2094B1A70084B1B7803F07F0334
:10448000DAB2064B1A70054B1B7823F01003DAB230
:10449000024B1A70BD4680BC704700BF3C02002032
:1044A00080B584B000AF02460B46FA71BB804FF076
:1044B0000003BB734FF00003FB734FF000037B73EB
:1044C0004FF00E03FB73FB79032B0CD1FFF77CFE3F
:1044D0004FF00100FFF708FF4FF00000FFF750FE1C
:1044E0004FF00E03FB73FB790C2B02D14FF00E0340
:1044F000FB73FB790A2B0CD1FFF766FE4FF000002F
:10450000FFF7F2FE4FF00000FFF73AFE4FF0000316
:10451000FB73FB79022B0CD1FFF756FE4FF0010025
:10452000FFF7A8FE4FF00000FFF72AFE4FF00C0344
:10453000FB73FB79002B0ED14FF00100FFF7EEFD6E
:104540004FF00100FFF75CFE4FF00100FFF718FE8F
:104550004FF00E03FB73FB79012B0ED14FF00100DE
:10456000FFF778FD4FF00100FFF74AFE4FF0010022
:10457000FFF706FE4FF00E03FB73FB790D2B0CD1FA
:10458000FFF722FE4FF00100FFF73AFE4FF0000068
:10459000FFF7F6FD4FF00003FB73BB88994AA2FBBF
:1045A00003124FEA52124FF0640101FB02F29B1A10
:1045B0009BB2BB73BA7B944BA3FB02134FEAD301AC
:1045C0000B464FEA83035B184FEA4303D31ADBB26F
:1045D0001846FFF759FC03461A468C4B1A708B4B52
:1045E0001B784FEA0313DAB2884B1A70BA88854BEE
:1045F000A3FB02134FEA53139BB2DBB21846FFF73B
:1046000043FC03461A46814B1B78D318DAB27F4B22
:104610001A70BA7B7C4BA3FB02134FEAD303DBB2C5
:104620001846FFF731FC03461A46794B1A70784B4F
:104630001B784FEA0313DAB2754B1A70744B1A7871
:10464000FB7BD318DAB2724B1A70FB79042B40D182
:104650006F4B4FF000021A70FFF7FEFE4FF00000A4
:10466000FFF78EFD4FF00603FB73BA88664BA3FB82
:1046700002134FEAD3039BB2DBB21846FFF704FCE8
:1046800003467B73614B7A7B1A70BA885E4BA3FB3F
:1046900002134FEAD3010B464FEA83035B184FEA3C
:1046A0004303D31A9BB2DBB21846FFF7EDFB034678
:1046B0001A46574B1A70564B1B784FEA0313DAB25F
:1046C000534B1A70524B1A78FB7BD318DAB2504B0B
:1046D0001A70FB79052B44D14D4B4FF000021A7034
:1046E000FFF7BAFE4FF00000FFF7E6FC4FF00000C6
:1046F000FFF746FD4FF00003FB73BA88424BA3FB64
:1047000002134FEAD3039BB2DBB21846FFF7BCFBA0
:1047100003467B733D4B7A7B1A70BA883A4BA3FBF6
:1047200002134FEAD3010B464FEA83035B184FEAAB
:104730004303D31A9BB2DBB21846FFF7A5FB03462F
:104740001A46334B1A70324B1B784FEA0313DAB216
:104750002F4B1A702E4B1A78FB7BD318DAB22C4BE6
:104760001A70FB79062B77D1294B4FF000021A7093
:1047700000F000FBFFF770FE4FF00000FFF740FD78
:104780004FF00100FFF798FC4FF00000FFF7F8FC36
:104790004FF00E03FB73BB881A4AA2FB03124FEAC9
:1047A00052124FF0640101FB02F29B1A9BB2BB73E1
:1047B000BA7B154BA3FB02134FEAD3010B464FEA1A
:1047C00083035B184FEA4303D31ADBB21846FFF7A3
:1047D0005BFB03461A460D4B1A700C4B1B784FEAD5
:1047E0000313DAB2094B1A70BA88064BA3FB021303
:1047F0004FEA53139BB2DBB21846FFF745FB034663
:104800001A4607E01F85EB51CDCCCCCC3D020020F1
:104810003E0200209B4B1B78D318DAB2994B1A70DA
:10482000BA7B994BA3FB02134FEAD303DBB21846C2
:10483000FFF72AFB03461A46944B1A70934B1B78DA
:104840004FEA0313DAB2914B1A70904B1A78FB7B44
:10485000D318DAB28D4B1A70FB79072B70D18B4BC2
:104860004FF000021A70FFF7F7FD4FF00100FFF75D
:104870007FFD4FF00100FFF7B5FD4FF00000FFF79F
:104880001BFC4FF00000FFF77BFC4FF00E03FB73A7
:10489000BB887F4AA2FB03124FEA52124FF0640119
:1048A00001FB02F29B1A9BB2BB73BA7B764BA3FB54
:1048B00002134FEAD3010B464FEA83035B184FEA1A
:1048C0004303D31ADBB21846FFF7DEFA03461A4653
:1048D0006C4B1A706B4B1B784FEA0313DAB2694BBF
:1048E0001A70BA886A4BA3FB02134FEA53139BB2A8
:1048F000DBB21846FFF7C8FA03461A46614B1B782D
:10490000D318DAB25F4B1A70BA7B5F4BA3FB02136A
:104910004FEAD303DBB21846FFF7B6FA03461A464E
:104920005A4B1A70594B1B784FEA0313DAB2574BA4
:104930001A70564B1A78FB7BD318DAB2534B1A70A5
:10494000FB79082B70D1514B4FF000021A70FFF722
:1049500083FD4FF00000FFF70BFD4FF00000FFF765
:10496000ABFB4FF00000FFF70BFC4FF00100FFF72F
:1049700047FC4FF00E03FB73BB88454AA2FB0312B2
:104980004FEA52124FF0640101FB02F29B1A9BB2F4
:10499000BB73BA7B3C4BA3FB02134FEAD3010B461C
:1049A0004FEA83035B184FEA4303D31ADBB218467E
:1049B000FFF76AFA03461A46324B1A70314B1B78DE
:1049C0004FEA0313DAB22F4B1A70BA88304BA3FBAD
:1049D00002134FEA53139BB2DBB21846FFF754FAA7
:1049E00003461A46274B1B78D318DAB2254B1A70A8
:1049F000BA7B254BA3FB02134FEAD303DBB2184665
:104A0000FFF742FA03461A46204B1A701F4B1B78D9
:104A10004FEA0313DAB21D4B1A701C4B1A78FB7B5A
:104A2000D318DAB2194B1A70FB790B2B76D1174BCE
:104A30004FF000021A70FFF70FFD4FF00100FFF773
:104A4000D1FC4FF00100FFF737FB4FF00000FFF7FC
:104A500097FB4FF00E03FB73BB880D4AA2FB0312BA
:104A60004FEA52124FF0640101FB02F29B1A9BB213
:104A7000BB73BA7B044BA3FB02134FEAD3010B4673
:104A800008E000BF3D020020CDCCCCCC3E0200208F
:104A90001F85EB514FEA83035B184FEA4303D31A98
:104AA000DBB21846FFF7F0F903461A46574B1A7067
:104AB000564B1B784FEA0313DAB2544B1A70BA887C
:104AC000534BA3FB02134FEA53139BB2DBB21846BE
:104AD000FFF7DAF903461A464C4B1B78D318DAB2C3
:104AE0004A4B1A70BA7B4B4BA3FB02134FEAD3031A
:104AF000DBB21846FFF7C8F903461A46464B1A7050
:104B0000454B1B784FEA0313DAB2434B1A70424B02
:104B10001A78FB7BD318DAB23F4B1A70FB79092B5A
:104B200070D13D4B4FF000021A70FFF795FC4FF02B
:104B30000000FFF71DFC4FF00100FFF79BFB4FF05B
:104B40000000FFF7B9FA4FF00000FFF719FB4FF034
:104B50000E03FB73BB882E4AA2FB03124FEA5212CC
:104B60004FF0640101FB02F29B1A9BB2BB73BA7B4C
:104B7000284BA3FB02134FEAD3010B464FEA8303F2
:104B80005B184FEA4303D31ADBB21846FFF77CF9F0
:104B900003461A461D4B1A701C4B1B784FEA031331
:104BA000DAB21A4B1A70BA88194BA3FB02134FEAF8
:104BB00053139BB2DBB21846FFF766F903461A4659
:104BC000124B1B78D318DAB2104B1A70BA7B114B08
:104BD000A3FB02134FEAD303DBB21846FFF754F9E5
:104BE00003461A460C4B1A700B4B1B784FEA031303
:104BF000DAB2094B1A70084B1A78FB7BD318DAB279
:104C0000054B1A7007F11007BD4680BD3D0200201C
:104C10001F85EB51CDCCCCCC3E02002080B584B0BA
:104C200000AF02460B46FA71BB714FF00003FB73F5
:104C30004FF00003BB73BA792A4BA3FB02134FEA70
:104C4000D3010B464FEA83035B184FEA4303D31AA1
:104C5000DBB21846FFF768F90346BB73BB7B4FEA2C
:104C60000313BB73BA791F4BA3FB02134FEAD303A1
:104C7000DBB21846FFF758F903461A46BB7BD31838
:104C8000BB73FA79174BA3FB02134FEAD3010B4610
:104C90004FEA83035B184FEA4303D31ADBB218468B
:104CA000FFF742F90346FB73FB7B4FEA0313FB73E9
:104CB000FA790C4BA3FB02134FEAD303DBB218467D
:104CC000FFF732F903461A46FB7BD318FB73064BFA
:104CD000BA7B1A70054BFA7B1A7007F11007BD46B4
:104CE00080BD00BFCDCCCCCC3F02002040020020D4
:104CF00080B500AF4FF0000002F052FA114B1B7864
:104D0000184601F0E9F8104B1B78184601F0E4F85A
:104D10000E4B1B78184601F0DFF80D4B1B78184638
:104D200001F0DAF80B4B1B78184601F0D5F80A4B66
:104D30001B78184601F0D0F84FF0010002F030FA6D
:104D400080BD00BF3C0200203D0200203E0200204A
:104D50003F020020400200204102002080B400AF4A
:104D6000034B4FF0F8021A70BD4680BC704700BF7D
:104D70004102002080B400AF034B4FF020021A70B4
:104D8000BD4680BC704700BF4102002080B400AF28
:104D9000034B4FF0D8021A70BD4680BC704700BF6D
:104DA0004102002080B400AF034B4FF0F0021A70B4
:104DB000BD4680BC704700BF4102002080B400AFF8
:104DC000034B4FF0D0021A70BD4680BC704700BF45
:104DD0004102002080B400AF034B4FF000021A7074
:104DE000BD4680BC704700BF4102002080B400AFC8
:104DF000034B4FF038021A70BD4680BC704700BFAD
:104E00004102002080B400AF034B4FF040021A7003
:104E1000BD4680BC704700BF4102002080B400AF97
:104E2000034B4FF0E0021A70BD4680BC704700BFD4
:104E30004102002080B487B000AF13460246FA71E9
:104E40000A46BA717B71BB79C3F10E03304A82FB0B
:104E500003024FEA62024FEAE373D31A7B617B7964
:104E600003F5FA627B69D31A3B61B9797A69134613
:104E70004FEA43039B184FEA8303CB18A3F10203C5
:104E8000FB60FA793B69D2183B69002B01DA03F128
:104E900003034FEAA303D2183B691E4981FB0301B8
:104EA0004FEA61114FEAE373CB1AD21A3B691949F1
:104EB00081FB03014FEAE1114FEAE373CB1AD118EA
:104EC000FA6813464FEA43139B1A114A82FB030206
:104ED0004FEA62024FEAE373D31ACB1803F5DA53B1
:104EE00003F118030C4A82FB0312D2184FEAA20105
:104EF0004FEAE372891A0A464FEAC202521A991A15
:104F00000B46184607F11C07BD4680BC704700BF22
:104F1000ABAAAA2A1F85EB519324499280B483B08F
:104F200000AF786000BF7B68002B0CBF002201221D
:104F3000D2B203F1FF337B60002AF4D107F10C07F2
:104F4000BD4680BC704700BF80B500AF4FF0050084
:104F5000FCF7B4FA4FF0640000F0C2F84FF005001F
:104F6000FCF786FA80BD00BF80B58AB002AFF8605A
:104F7000B9603B601346FB80FB68002B02D102F056
:104F80002DFAFEE7BB6A042B02D902F027FAFEE7EE
:104F9000FB881846396B00F099FDB861BB69002B9E
:104FA0007AD0BB691A6BFB8803F1FF334FEA8303A6
:104FB000D3187B617B6923F007037B617B6903F076
:104FC0000703002B02D002F009FAFEE7FB880093EA
:104FD000B869B968BA6A7B6B00F06EFC7869F968E9
:104FE0003A6802F0F5F803461A46BB691A60FB6A94
:104FF000002B02D0FB6ABA691A6002F0C9F9324B81
:105000001B6803F10102304B1A60304B1B68002B08
:1050100009D12E4BBA691A602B4B1B68012B0FD19B
:1050200000F09AFC0CE02A4B1B68002B08D1274BA0
:105030001B68DA6ABB6A9A4202D8244BBA691A60C2
:10504000244B1B6803F10102224B1A60214B1A68A2
:10505000BB691A64BB69DA6A1F4B1B689A4203D9A1
:10506000BB69DA6A1C4B1A60BB69DA6A13464FEAFD
:1050700083039B184FEA83031A46184BD218BB6967
:1050800003F104031046194601F00EFF4FF001032F
:10509000FB6102F08FF902E04FF0FF33FB61FB6927
:1050A000012B0BD10A4B1B68002B07D0074B1B6849
:1050B000DA6ABB6A9A4201D202F05AF9FB691846D1
:1050C00007F12007BD4680BD1C03002044020020DC
:1050D000280300203C030020240300204802002075
:1050E00080B584B000AF78604FF00003FB607B6850
:1050F000002B13D000F062F80D4B1A687B68D318B0
:10510000BB600C4B1B6803F10403184601F02AFF37
:10511000B86800F0A3FC00F05FF8F860FB68002BB3
:1051200001D102F025F907F11007BD4680BD00BF8F
:10513000200300204402002080B586B004AF1B4B42
:105140004FF0000200924FF0000201924FF0000277
:1051500002924FF000020392154819464FF0820266
:105160004FF00003FFF700FF78607B68012B02D14E
:10517000FEF778FA78607B68012B0CD102F02EF9EB
:105180000C4B4FF001021A600B4B4FF000021A60FB
:1051900002F07EF805E07B68002B02D102F01EF9D8
:1051A000FEE707F10807BD4680BD00BFB8940008C0
:1051B00095580008280300202003002080B400AF89
:1051C000044B1B6803F10102024B1A60BD4680BC10
:1051D000704700BF2C03002080B582B000AF4FF0B5
:1051E00000037B603D4B1B68002B02D102F0F6F8F8
:1051F000FEE702F0CDF8394B1B6803F1FF32374B65
:105200001A60364B1B68002B60D1354B1B68002B96
:105210005CD036E0334BDB68DB683B603B6803F116
:105220001803184601F09EFE3B6803F1040318467C
:1052300001F098FE3B68DA6A2B4B1B689A4203D94F
:105240003B68DA6A284B1A603B68DA6A13464FEA11
:1052500083039B184FEA83031A46244BD2183B68FA
:1052600003F104031046194601F01EFE3B68DA6A9A
:105270001F4B1B68DB6A9A4203D31E4B4FF001029F
:105280001A60184B1B68002BC4D11B4B1B68002BEA
:1052900013D00EE000F044F80346002B03D0154B6A
:1052A0004FF001021A60144B1B6803F1FF32124BDE
:1052B0001A60114B1B68002BECD10E4B1B68012BA5
:1052C00004D14FF001037B6002F052F802F072F853
:1052D0007B68184607F10807BD4680BD2C030020F7
:1052E0001C030020DC0200202403002048020020D0
:1052F00044020020340300203003002080B582B037
:1053000000AF02F045F8054B1B687B6002F052F8D5
:105310007B68184607F10807BD4680BD20030020C2
:1053200080B586B000AF4FF000037B61674B1B6810
:10533000002B40F0B680664B1B6803F10102644B02
:105340001A60634B1B683B613B69002B31D1614B99
:105350001B681B68002B02D002F040F8FEE75D4B93
:105360001B68FB605C4B1A685A4B1A605A4BFA6810
:105370001A605A4B1B6803F10102584B1A60554BD7
:105380001B681B68002B02D14FF0010301E04FF0B6
:105390000003002B04D0524B4FF0FF321A6008E09C
:1053A0004C4B1B68DB68DB68BB60BB685A684C4BC6
:1053B0001A604B4B1B683A699A4259D300E000BF10
:1053C000444B1B681B68002B02D14FF0010301E026
:1053D0004FF00003002B04D0414B4FF0FF321A6016
:1053E00046E03C4B1B68DB68DB68BB60BB685B6806
:1053F0007B603A697B689A4203D2394B7A681A60BB
:1054000036E0BB6803F10403184601F0ABFDBB684E
:105410009B6A002B05D0BB6803F11803184601F006
:10542000A1FDBB68DA6A2F4B1B689A4203D9BB689F
:10543000DA6A2C4B1A60BB68DA6A13464FEA8303B8
:105440009B184FEA83031A46274BD218BB6803F117
:1054500004031046194601F027FDBB68DA6A234BA6
:105460001B68DB6A9A42AAD34FF001037B61A7E76E
:105470001E4B1B68DA6A13464FEA83039B184FEAF8
:1054800083031A46184BD3181B68012B02D94FF01F
:1054900001037B61164B1B68002B0AD103F06CF8EB
:1054A00007E0134B1B6803F10102114B1A6003F074
:1054B00063F8104B1B68002B02D04FF001037B6197
:1054C0007B69184607F11807BD4680BD2C030020F4
:1054D00020030020D4020020D8020020380300203E
:1054E000F80000202403002048020020440200208D
:1054F000300300203403002080B582B000AF3C4B65
:105500001B68002B04D03B4B4FF001021A606AE08D
:10551000384B4FF000021A60374B1B681A68364B45
:105520001B681B6B9A4209D8334B1A68324B1B68B5
:1055300003F134031046194603F024F82E4B1B6880
:105540001B6B18462D494FF0140203F093FE0346DF
:10555000002B17D0284B1A68274B1B6803F1340324
:105560001046194603F00EF80CE0254B1B68002B83
:1055700002D101F033FFFEE7214B1B6803F1FF323C
:105580001F4B1A601E4B1A6813464FEA83039B1881
:105590004FEA83031A461B4BD3181B68002BE4D039
:1055A000174B1A6813464FEA83039B184FEA83038D
:1055B0001A46144BD3187B607B685B685A687B681B
:1055C0005A607B685A687B6803F108039A4204D1E9
:1055D0007B685B685A687B685A607B685B68DB68DD
:1055E0001A46054B1A6007F10807BD4680BD00BF8B
:1055F0002C0300203403002044020020C094000843
:10560000240300204802002080B584B000AF7860F9
:1056100039607B68002B02D101F0E0FEFEE7144BFD
:105620001B6803F118037868194601F061FC104B00
:105630001B6803F10403184601F094FC3B68B3F1C6
:10564000FF3F08D10A4B1B6803F1040309481946C0
:1056500001F02AFC07E0084B1A683B68D318FB608E
:10566000F86800F0FBF907F11007BD4680BD00BFE8
:1056700044020020080300202003002080B584B0ED
:1056800000AF786039607B68002B02D101F0A6FE84
:10569000FEE70D4B1B6803F118037868194601F00B
:1056A00003FC094B1B6803F10403184601F05AFC84
:1056B000064B1A683B68D318FB60F86800F0CEF917
:1056C00007F11007BD4680BD4402002020030020E2
:1056D00080B584B000AF78607B68DB68DB68BB6056
:1056E000BB68002B02D101F079FEFEE7BB6803F135
:1056F0001803184601F036FC224B1B68002B22D100
:10570000BB6803F10403184601F02CFCBB68DA6A9D
:105710001D4B1B689A4203D9BB68DA6A1A4B1A60A0
:10572000BB68DA6A13464FEA83039B184FEA830388
:105730001A46164BD218BB6803F1040310461946EB
:1057400001F0B2FB06E0BB6803F1180310481946EC
:1057500001F0AAFBBB68DA6A0E4B1B68DB6A9A424F
:1057600007D34FF00103FB600B4B4FF001021A60AF
:1057700002E04FF00003FB60FB68184607F11007DA
:10578000BD4680BD2C0300202403002048020020D9
:10579000DC020020440200203403002080B582B0E7
:1057A00000AF78607B68002B02D101F017FEFEE7A6
:1057B000054B1A687B681A60044B1A687B685A604C
:1057C00007F10807BD4680BD3803002020030020F4
:1057D00080B584B000AF786039607B68002B02D15F
:1057E00001F0FCFDFEE73B68002B02D101F0F6FD65
:1057F000FEE701F0CDFD1F4B1B68BB603B681B68DB
:10580000B3F1FF3F03D14FF00003FB6029E07B6859
:105810001A68194B1B689A4208D07B685A68BB68A3
:105820009A4203D84FF00103FB601AE07B685B6883
:10583000BA68D21A3B681B689A420FD23B681A6852
:105840007B685968BB68CB1AD2183B681A607868C5
:10585000FFF7A4FF4FF00003FB6002E04FF00103ED
:10586000FB6001F0A7FDFB68184607F11007BD4675
:1058700080BD00BF200300203803002080B400AFAB
:10588000034B4FF001021A60BD4680BC704700BF59
:105890003403002080B582B000AF786000F0A0F83B
:1058A000044B1B68012B01D901F062FD02F05EFE82
:1058B000F4E700BF4802002080B586B000AFF86072
:1058C000B9607A603B604FF000037B6113E0BA6817
:1058D0007B69D3181A78F9687B69CB1803F1300318
:1058E0001A71BA687B69D3181B78002B07D07B69C3
:1058F00003F101037B617B69092BE8D900E000BF5C
:10590000FB684FF0000283F83D207B68042B02D92E
:105910004FF004037B60FB687A68DA62FB687A68A0
:105920009A64FB6803F10403184601F0AFFAFB68C0
:1059300003F11803184601F0A9FAFB68FA681A6126
:105940007B68C3F10502FB689A61FB68FA685A62DA
:1059500007F11807BD4680BD80B582B000AF4FF09B
:1059600000037B6010E07A6813464FEA83039B18BC
:105970004FEA83031A46124BD318184601F062FA15
:105980007B6803F101037B607B68042BEBD90D4836
:1059900001F058FA0C4801F055FA0C4801F052FA9F
:1059A0000B4801F04FFA0B4801F04CFA0A4B054A3C
:1059B0001A600A4B044A1A6007F10807BD4680BD09
:1059C00048020020AC020020C0020020DC020020BF
:1059D000F002002008030020D4020020D80200209A
:1059E00080B582B000AF2AE0FFF7E8FB184B1B68D8
:1059F000002B14BF002301237B60FFF7EDFB7B68C6
:105A0000002B1CD101F0C4FC114BDB68DB683B6050
:105A10003B6803F10403184601F0A4FA0D4B1B6820
:105A200003F1FF320B4B1A600B4B1B6803F1FF3283
:105A3000094B1A6001F0BEFC386800F081F8064B93
:105A40001B68002BD0D107F10807BD4680BD00BF01
:105A5000F00200201C0300200403002080B582B067
:105A600000AF7860144B1B687A685A60134B1B6850
:105A70007A689A420AD2124B1A680F4B1B6803F1DC
:105A800004031046194601F033FA11E00D4B1A6871
:105A9000094B1B6803F104031046194601F028FA6C
:105AA000094B1B687A689A4202D2074B7A681A60DF
:105AB00007F10807BD4680BD4402002020030020F6
:105AC000D8020020D4020020F800002080B584B065
:105AD00000AF03463960FB804FF04C0002F060FDE0
