:020000040800F2
:10000000A8370120CD0B0008410C00082B5C00082C
:10001000410C0008410C0008410C000800000000E1
:100020000000000000000000000000005D6000080B
:10003000410C000800000000F5610008456200085E
:10004000410C0008410C0008410C0008410C00085C
:10005000410C0008410C0008410C0008410C00084C
:10006000410C0008410C0008AD330008410C0008A9
:10007000410C0008410C0008410C0008410C00082C
:10008000410C0008410C0008410C0008410C00081C
:10009000410C0008410C0008410C0008410C00080C
:1000A000410C0008410C0008410C0008410C0008FC
:1000B000410C0008410C0008410C0008410C0008EC
:1000C000410C0008410C0008410C0008410C0008DC
:1000D000410C0008F55700082D5800086558000825
:1000E000410C0008410C0008410C0008410C0008BC
:1000F000410C0008410C0008410C0008410C0008AC
:10010000410C0008410C0008410C0008410C00089B
:100110009D580008D5580008410C00087D3500089E
:10012000410C0008410C0008410C0008410C00087B
:10013000410C0008410C0008410C0008410C00086B
:10014000410C0008410C0008410C0008410C00085B
:10015000410C0008410C0008410C00080D59000832
:10016000410C0008410C0008410C0008410C00083B
:10017000410C0008410C0008410C0008410C00082B
:10018000410C0008410C000880B582B000AF324B32
:100190001B78002B5AD14FF480004FF0010102F080
:1001A000BBFD2E4B9B6818464FF0010102F092FDFB
:1001B0002A4B9B6918464FF0010102F08BFD4FF46A
:1001C00080004FF0010102F0EBFD4FF480004FF092
:1001D000000102F0E5FD214B1A68204B1B7B104605
:1001E00019464FF0040205F0C1FC1C4B1A691B4B69
:1001F0001B7F104619464FF0040205F0B7FC4FF084
:1002000002033B714FF002037B714FF00103BB719E
:100210004FF00003FB71114B9B883B600F4B1A683A
:100220003B461046194605F0DFFB0C4B9B8A3B60B2
:100230000A4B1A693B461046194605F0D5FB00F0FB
:1002400003FC054B4FF001021A7000E000BF07F1FC
:100250000807BD4680BD00BFAC01002000000020A3
:1002600080B584B000AF02460B46FA71BB714FF007
:1002700000037B814FF44053FB6079484FF001014C
:1002800006F02AFE4FF44053FB600DE0FB68002BA4
:1002900004D0FB6803F1FF33FB6005E04FF0FF3053
:1002A00000F0F8FB0346D4E06D486E4906F00CFF01
:1002B0000346002BEAD06A484FF0000106F06AFEC0
:1002C000FB79674819464FF0000206F045FE4FF4EF
:1002D0004053FB600DE0FB68002B04D0FB6803F18A
:1002E000FF33FB6005E06FF0010000F0D3FB034635
:1002F000AFE05B485C4906F0E7FE0346002BEAD01E
:10030000574B1B8B4FF44053FB600DE0FB68002BF9
:1003100004D0FB6803F1FF33FB6005E06FF00200DF
:1003200000F0B8FB034694E04D48504906F0CCFE7F
:100330000346002BEAD0BB794948194606F06EFE09
:100340004FF44053FB600DE0FB68002B04D0FB68CA
:1003500003F1FF33FB6005E06FF0030000F09AFB50
:10036000034676E03E48414906F0AEFE0346002BC8
:10037000EAD03B483E4906F0A7FE0346002BE3D0F7
:1003800037484FF0010106F0A7FD4FF44053FB60E2
:100390000DE0FB68002B04D0FB6803F1FF33FB602A
:1003A00005E06FF0040000F075FB034651E02C48B7
:1003B0002C4906F089FE0346002BEAD0FB79284839
:1003C00019464FF0010206F0C7FD4FF44053FB60A1
:1003D0000DE0FB68002B04D0FB6803F1FF33FB60EA
:1003E00005E06FF0050000F055FB034631E01C48C6
:1003F0001D4906F069FE0346002BEAD0184B1B8B03
:100400004FF44053FB600DE0FB68002B04D0FB6809
:1004100003F1FF33FB6005E06FF0060000F03AFBEC
:10042000034616E00E48134906F04EFE0346002B25
:10043000EAD00B484FF0010106F06EFD084806F0C7
:10044000FDFD03467B8106484FF0010106F0A2FD49
:100450007B891BB2184607F11007BD4680BD00BF5F
:100460000058004001000010020000108000001041
:10047000040000104000001080B584B000AF1346A7
:100480000246FA710A46BA717B714FF000037B8114
:100490004FF44053FB6055484FF0010106F01CFD3E
:1004A0004FF44053FB600DE0FB68002B04D0FB6869
:1004B00003F1FF33FB6005E04FF0FF3000F0EAFA94
:1004C00003468DE049484A4906F0FEFD0346002BED
:1004D000EAD0FB79454819464FF0000206F03CFD92
:1004E0004FF44053FB600DE0FB68002B04D0FB6829
:1004F00003F1FF33FB6005E06FF0010000F0CAFA82
:1005000003466DE039483B4906F0DEFD0346002B0B
:10051000EAD0364B1B8B4FF44053FB600DE0FB6879
:10052000002B04D0FB6803F1FF33FB6005E06FF0A4
:10053000020000F0AFFA034652E02C482E4906F0C4
:10054000C3FD0346002BEAD0BB792848194606F0C4
:1005500065FD4FF44053FB600DE0FB68002B04D0B9
:10056000FB6803F1FF33FB6005E06FF0030000F070
:1005700091FA034634E01D481F4906F0A5FD0346E5
:10058000002BEAD07B791948194606F047FD4FF455
:100590004053FB600DE0FB68002B04D0FB6803F1C7
:1005A000FF33FB6005E06FF0040000F073FA0346D0
:1005B00016E00E48104906F087FD0346002BEAD0EE
:1005C0000A480E4906F080FD0346002BE3D0074899
:1005D0004FF0010106F0A0FC4FF000037B817B8906
:1005E0001BB2184607F11007BD4680BD00580040F9
:1005F0000100001002000010800000100400001034
:1006000080B586B000AF13460246FA710A46BA7149
:100610007B714FF000033B824FF440537B617B7949
:10062000002B02D14FF6F87318E17B790A2B02D91F
:100630004FF6F77312E18C484FF0010106F04CFCC5
:100640004FF440537B610DE07B69002B04D07B6944
:1006500003F1FF337B6105E04FF0FF3000F01AFA41
:100660000346FBE08048814906F02EFD0346002B3F
:10067000EAD07B79012B05D17B484FF0000106F0D1
:1006800089FC04E078484FF0010106F083FCFB7917
:10069000754819464FF0000206F05EFC4FF44053D7
:1006A0007B610DE07B69002B04D07B6903F1FF3394
:1006B0007B6105E06FF0010000F0ECF90346CDE04E
:1006C00069486B4906F000FD0346002BEAD0664BF3
:1006D0001B8B4FF440537B610DE07B69002B04D0F2
:1006E0007B6903F1FF337B6105E06FF0020000F0EE
:1006F000D1F90346B2E05C485E4906F0E5FC0346EA
:10070000002BEAD0BB795848194606F087FC4FF415
:1007100040537B610DE07B69002B04D07B6903F1C2
:10072000FF337B6105E06FF0030000F0B3F903468F
:1007300094E04D484F4906F0C7FC0346002BEAD031
:1007400049484D4906F0C0FC0346002BE3D046481B
:100750004FF0010106F0C0FB4FF440537B610DE008
:100760007B69002B04D07B6903F1FF337B6105E0DB
:100770006FF0040000F08EF903466FE03A483B4901
:1007800006F0A2FC0346002BEAD0FB793648194656
:100790004FF0010206F0E0FB4FF440537B610DE0A7
:1007A0007B69002B04D07B6903F1FF337B6105E09B
:1007B0006FF0050000F06EF903464FE02A482C491F
:1007C00006F082FC0346002BEAD0274B1B8B4FF030
:1007D0000003FB7435E0FB7C03F101027B799A4254
:1007E00009DB21484FF0000106F0D4FB1E484FF012
:1007F000010106F091FB4FF440537B610DE07B69F2
:10080000002B04D07B6903F1FF337B6105E06FF0BF
:10081000060000F03FF9034620E01348174906F0B0
:1008200053FC0346002BEAD00F4806F007FC0346B2
:10083000FB73FB7C124AF97BD154FB7C03F101036F
:10084000FB74FA7C7B799A42C5D307484FF00101CB
:1008500006F0A0FB4FF000033B823B8A1BB2184618
:1008600007F11807BD4680BD005800400100001088
:100870000200001080000010040000104000001072
:10088000502F012080B586B000AF13460246FA71A2
:100890000A46BA717B714FF000033B824FF440531C
:1008A0007B617B79002B02D14FF6FA73BAE07B793A
:1008B0000A2B02D94FF6F973B4E05D484FF00101FD
:1008C00006F00AFB4FF440537B610DE07B69002B7F
:1008D00004D07B6903F1FF337B6105E04FF0FF300B
:1008E00000F0D8F803469DE05148524906F0ECFB71
:1008F0000346002BEAD0FB794D4819464FF0000221
:1009000006F02AFB4FF440537B610DE07B69002B1E
:1009100004D07B6903F1FF337B6105E06FF00100D8
:1009200000F0B8F803467DE04148434906F0CCFBAF
:100930000346002BEAD03E4B1B8B4FF440537B61A8
:100940000DE07B69002B04D07B6903F1FF337B61F1
:1009500005E06FF0020000F09DF8034662E03448C5
:10096000364906F0B1FB0346002BEAD0BB7930488C
:10097000194606F053FB4FF440537B610DE07B6951
:10098000002B04D07B6903F1FF337B6105E06FF03E
:10099000030000F07FF8034644E02548274906F0AD
:1009A00093FB0346002BEAD04FF00003FB742CE0CE
:1009B000FB7C234AD35CFB73FB7B1D48194606F086
:1009C0002DFB4FF440537B610DE07B69002B04D07D
:1009D0007B6903F1FF337B6105E06FF0040000F0F9
:1009E00059F803461EE01248144906F06DFB034611
:1009F000002BEAD00E48134906F066FB0346002B95
:100A0000E3D0FB7C03F10103FB74FA7C7B799A420F
:100A1000CED307484FF0010106F07EFA4FF00003F5
:100A20003B823B8A1BB2184607F11807BD4680BDC2
:100A3000005800400100001002000010800000106B
:100A4000502F01200400001080B584B000AF4FF09B
:100A50000003BB804BF6FF73FB804FF000033B812C
:100A60004FF480637B814FF48043BB81074B3B6035
:100A700007484FF0010106F00FFA3B4604481946BB
:100A800006F032F907F11007BD4680BDA0860100CF
:100A90000058004080B584B000AF0346FB80FB885F
:100AA000FB810D484FF0010106F036FA0A484FF07D
:100AB000010106F08FFA08484FF0000106F08AFAAB
:100AC000054806F0D1F8FFF7BFFFFB891BB21846B7
:100AD00007F11007BD4680BD0058004080B483B0C8
:100AE00000AF78607B689B889BB24FEAC3534FEAA4
:100AF000D3539BB2184607F10C07BD4680BC704724
:100B000080B487B000AF78600B467B804FF0000365
:100B1000FB604FF000037B614FF00003BB604FF0C0
:100B20000003FB747B88DBB24FEA5313DBB2BB607C
:100B30007B8803F01F037B617B694FF0010202FA9F
:100B400003F37B61BB68012B07D17B689B899BB258
:100B50007A6902EA03037B6111E0BB68022B07D1CB
:100B60007B681B8A9BB27A6902EA03037B6106E019
:100B70007B689B8A9BB27A6902EA03037B617B886C
:100B80004FEA13239BB2FB60FB684FF0010202FAAD
:100B900003F3FB607B681B889BB2FA6802EA0303DD
:100BA000FB607B69002B06D0FB68002B03D04FF065
:100BB0000103FB7402E04FF00003FB74FB7C18465A
:100BC00007F11C07BD4680BC704700BF80B582B0EE
:100BD00000AF154B7B60154B3B600BE07B681A68E0
:100BE0003B681A603B6803F104033B607B6803F1D8
:100BF00004037B603A680E4B9A42EFD30D480E49CE
:100C00004FF000028842B8BF40F8042BFADBDFF84F
:100C10002C00016841F47001016000F0A7F907F1B0
:100C20000807BD4680BD00BFAE7C00080000002064
:100C3000AC010020AC010020A82F012088ED00E0CD
:100C400080B400AFFEE700BF80B584B000AF4FF0C6
:100C50000003FB7356E0FA7B2E4913464FEA8303E9
:100C60009B184FEA8303CB1803F10C031B6818464B
:100C70004FF0010102F02EF8FA7B264913464FEAA5
:100C800083039B184FEA8303CB1803F108031B88E7
:100C90007B604FF001033B724FF00003BB724FF0DB
:100CA0000103FB724FF002037B72FA7B1949134672
:100CB0004FEA83039B184FEA8303CB1803F1040325
:100CC0001A6807F104031046194604F08DFEFA7BFA
:100CD000104913464FEA83039B184FEA8303CB184E
:100CE00003F110031B78002B04D1FB7B184600F0A6
:100CF00013F803E0FB7B184600F034F8FB7B03F1AC
:100D00000103FB73FB7B052BA5D907F11007BD463B
:100D100080BD00BF2000002080B483B000AF034638
:100D2000FB71FA790E4913464FEA83039B184FEA89
:100D30008303CB1803F104031968FA7908481346B2
:100D40004FEA83039B184FEA8303C31803F1080398
:100D50001B884B8307F10C07BD4680BC704700BF62
:100D60002000002080B483B000AF0346FB71FA7905
:100D70000E4913464FEA83039B184FEA8303CB18AF
:100D800003F104031968FA79084813464FEA83030C
:100D90009B184FEA8303C31803F108031B880B83D6
:100DA00007F10C07BD4680BC704700BF2000002043
:100DB00090B482B000AF0346FB71FA79154913462F
:100DC0004FEA83039B184FEA8303CB1803F1040314
:100DD0001968FA790F4813464FEA83039B184FEAC4
:100DE0008303C31803F104031B685869FA79094C9B
:100DF00013464FEA83039B184FEA8303E31803F17A
:100E000008031B8880EA03034B6107F10807BD460E
:100E100090BC70472000002080B500AF02F0D6FAE9
:100E2000FFF712FF4FF0000002F028FBFFF7ACF9CC
:100E300005F078F83E4B4FF001021A704FF0800039
:100E40004FF0E6014FF00102FFF71CFD42F23420A3
:100E50004FF0090106F0EAFC03461A46354B1A70BA
:100E600042F235204FF0090106F0E0FC03461A4635
:100E7000314B1A7042F236204FF0090106F0D6FCD1
:100E800003461A462D4B1A7042F237204FF00901E3
:100E900006F0CCFC03461A46294B1A7042F2382061
:100EA0004FF0090106F0C2FC03461A46254B1A70A2
:100EB000224B1A78244B1A701E4B1A78234B1A7047
:100EC000224B1A781C4B1B78D318DAB2204B1A70BD
:100ED0001F4B1A78194B1B78D318DAB21D4B1A70B6
:100EE0001C4B1A78184B1B78D318DAB21A4B1A70AD
:100EF000194B1A78134B1B78D318DAB2174B1A70A8
:100F0000164B1A780E4B1B78D318DAB2144B1A70A2
:100F1000144B4FF000021A704FF00500FFF722FF4C
:100F2000114803F0BBFB4FF00500FFF7F5FE80BD55
:100F3000502F0120D0010020D1010020D20100203B
:100F4000D3010020D4010020D5010020E3010020BE
:100F5000E7010020E5010020E6010020E801002073
:100F6000E4010020E9010020404B4C0080B584B032
:100F700004AF04F021FFFFF74FFF4B4B4FF001028E
:100F800000924FF0000201924FF0000202924FF0E7
:100F900000020392454819464FF082024FF00003C9
:100FA00003F0A2FB424B4FF0010200924FF000020F
:100FB00001924FF0000202924FF0000203923D486E
:100FC00019464FF082024FF0000303F08DFB3A4BBD
:100FD0004FF0010200924FF0000201924FF0000228
:100FE00002924FF000020392344819464FF08202F9
:100FF0004FF0000303F078FB314B4FF001020092F9
:101000004FF0000201924FF0000202924FF00002F6
:1010100003922C4819464FF082024FF0000303F070
:1010200063FB294B4FF0010200924FF00002019246
:101030004FF0000202924FF000020392234819463B
:101040004FF082024FF0000303F04EFB204B4FF0B5
:10105000010200924FF0000201924FF00002029252
:101060004FF0000203921B4819464FF082024FF0E6
:10107000000303F039FB184B4FF0010200924FF0D0
:10108000000201924FF0000202924FF00002039220
:10109000124819464FF082024FF0000303F024FB80
:1010A00003F00AFCFEE700BF247C00087112000870
:1010B000347C0008F91300083C7C0008BD170008C8
:1010C000447C0008191D0008587C00089D12000887
:1010D000647C000899110008787C0008E110000881
:1010E00080B582B000AF786004E000BF02E000BFCE
:1010F00000E000BF224B1B78002BF6D1214B1B7860
:10110000002BF4D1204B1B781A46204B1B784FF450
:101110007A7101FB03F31E4981FB03014FEA611160
:101120004FEAE373CB1A9A42E3DA1A4B1B78092B86
:1011300006D803F0F7F94FF0010002F07DFB05E05F
:1011400003F0CCF94FF0010002F076FB4FF4C370CE
:1011500003F086FB0F4B1B78092B06D803F0EEF942
:101160004FF0000002F068FB05E003F0CFF94FF00C
:10117000000002F061FB4FF4C37003F071FBB9E7AC
:10118000D6010020E9010020CE010020D00100207E
:101190001F85EB51C901002080B584B000AF786095
:1011A0004FF00003FB7304F0F1FF4FF0D0004FF05D
:1011B00000014FF00602FFF723FA0346FB73FB7BA7
:1011C000002B3ED1224B1B78184602F0BDFA034695
:1011D0001A46204B1A701E4B5B78184602F0B4FA80
:1011E00003461A461C4B1A70194B9B78184602F09E
:1011F000ABFA03461A46194B1A70154BDB781846A2
:1012000002F0A2FA03461A46154B1A70104B1B79CE
:10121000184602F099FA03461A46124B1A700C4B04
:101220005B79184602F090FA03461A460E4B1A7084
:10123000074B9B79184602F087FA03461A460B4B78
:101240001A7004F0B5FF4FF0960003F009FBAAE70F
:10125000502F0120C7010020C8010020C901002033
:10126000CB010020CA010020CC010020CD010020CC
:1012700080B582B000AF78604FF00200FFF798FDB4
:10128000054B1B7803F10103DAB2034B1A704FF4DC
:101290007A7003F0E5FAEFE7CE01002080B582B066
:1012A00000AF7860464B1B78002B0FD0444B1B7867
:1012B000042B0BD0424B1B780D2B07D0404B1B78D7
:1012C000112B03D03E4B1B78152B14D13D4B1B78B3
:1012D0000A2B0BD03B4B1B78142B07D0394B1B78B8
:1012E000232B03D0374B1B78322B04D1364B4FF0D6
:1012F00001021A7003E0344B4FF000021A704FF0F5
:10130000000002F0BBF80346002B39D003F0DCF9F3
:101310002E4B1B78002B04D12C4B4FF001021A707E
:1013200026E02A4B1B7803F10103DAB2274B1A702F
:10133000274B4FF000021A70264B4FF000021A7034
:10134000254B4FF000021A70244B4FF000021A7028
:10135000234B4FF000021A70224B4FF000021A701C
:10136000214B4FF000021A70204B4FF000021A7010
:10137000164B1B780A2B03D1144B4FF000021A7046
:101380004FF0010002F07AF80346002B05D0184B0D
:101390004FF001021A7003F097F94FF0020002F0CB
:1013A0006DF80346002B05D0124B4FF001021A7066
:1013B00003F08AF94FF0020003F052FA72E700BF1F
:1013C000C9010020C8010020E9010020D601002049
:1013D000D7010020D8010020D9010020DA01002027
:1013E000DB010020DC010020DD010020DE01002007
:1013F000E1010020E201002080B584B000AF7860F8
:101400004FF00003FB730B4B1B78002B14D04FF0F5
:1014100000004FF0000104F095FA4FF001004FF08A
:10142000400104F08FFA4FF002004FF0000104F089
:1014300089FABBE1D60100207F4B1B780A2B40F2D2
:1014400089807D4B1B78132B00F28480FB7B002B63
:1014500002D14FF00103FB73FB7B012B10D1BB7B4F
:1014600003F10103BB734FF000037B734FF00003E4
:101470003B73BB7B5BB2002B02DA4FF00203FB73C2
:10148000FB7B022B0AD17B7B03F101037B737B7B0C
:101490005BB2002B02DA4FF00303FB73FB7B032BE1
:1014A00009D1BB7B03F1FF33BB73BB7B002B02D1A4
:1014B0004FF00403FB73FB7B042B0AD13B7B03F14E
:1014C00001033B733B7B5BB2002B02DA4FF0050359
:1014D000FB73FB7B052B09D17B7B03F1FF337B7314
:1014E0007B7B002B02D14FF00603FB73FB7B062BAB
:1014F0000AD1BB7B03F10103BB73BB7B5BB2002B47
:1015000002DA4FF00703FB73FB7B072B09D13B7B10
:1015100003F1FF333B733B7B002B02D14FF0000301
:10152000FB733B7B9BB24FF00000194604F00AFAB4
:10153000BB7B9BB24FF00100194604F003FA7B7BA2
:101540009BB24FF00200194604F0FCF94FF01E0068
:1015500003F086F9384B1B78132B40F28880364B0A
:101560001B78162B00F28380FB7B002B02D14FF0FF
:101570000103FB73FB7B012B0FD1BB7B03F1010349
:10158000BB734FF000037B734FF000033B73BB7BD7
:101590000F2B02D94FF00203FB73FB7B022B09D107
:1015A0007B7B03F101037B737B7B0F2B02D94FF015
:1015B0000303FB73FB7B032B09D1BB7B03F1FF33DD
:1015C000BB73BB7B002B02D14FF00403FB73FB7B8F
:1015D000042B09D13B7B03F101033B733B7B0F2BB6
:1015E00002D94FF00503FB73FB7B052B09D17B7BF5
:1015F00003F1FF337B737B7B002B02D14FF006039B
:10160000FB73FB7B062B09D1BB7B03F10103BB738F
:10161000BB7B0F2B02D94FF00703FB73FB7B072B20
:101620000CD13B7B03F1FF333B733B7B002B05D19C
:101630004FF00003FB7301E0C90100203B7B9BB22C
:101640004FF00000194604F07DF9BB7B9BB24FF0D0
:101650000100194604F076F97B7B9BB24FF0020043
:10166000194604F06FF94FF0280003F0F9F8524BD7
:101670001B78082B11D84FF000004FF0000104F048
:1016800061F94FF001004FF0000104F05BF94FF0F9
:1016900002004FF0000104F055F9474B1B78082B6E
:1016A00040F28480444B1B78092B7FD8FB7B002BB6
:1016B00002D14FF00103FB73FB7B012B0FD1BB7BEE
:1016C00003F10103BB734FF000037B734FF0000382
:1016D0003B73BB7B0F2B02D94FF00203FB73FB7BE9
:1016E000022B09D17B7B03F101037B737B7B0F2BE7
:1016F00002D94FF00303FB73FB7B032B09D1BB7BA8
:1017000003F1FF33BB73BB7B002B02D14FF004030B
:10171000FB73FB7B042B09D13B7B03F101033B7380
:101720003B7B0F2B02D94FF00503FB73FB7B052B93
:1017300009D17B7B03F1FF337B737B7B002B02D1D1
:101740004FF00603FB73FB7B062B09D1BB7B03F138
:101750000103BB73BB7B0F2B02D94FF00703FB7355
:10176000FB7B072B09D13B7B03F1FF333B733B7BB7
:10177000002B02D14FF00003FB733B7B9BB24FF079
:101780000000194604F0DEF8BB7B9BB24FF001006D
:10179000194604F0D7F87B7B9BB24FF00200194644
:1017A00004F0D0F84FF0280003F05AF84FF003008F
:1017B00003F056F827E600BFC901002090B593B0AA
:1017C00000AF78604FF00003A7F846304FF00003F9
:1017D000A7F844304FF00003A7F842304FF0000361
:1017E000A7F840304FF00003FB874FF00003BB87A2
:1017F0004FF000037B874FF000033B874FF000035F
:10180000FB864FF00003BB864FF000037B864FF052
:1018100000033B8604F0BAFC4FF0EF004FF0AA0142
:10182000FEF71EFD03469BB24FEA03239CB24FF026
:10183000EF004FF0AB01FEF713FD03469BB2E31838
:101840009BB2A7F844304FF0EF004FF0AC01FEF729
:1018500007FD03469BB24FEA03239CB24FF0EF0013
:101860004FF0AD01FEF7FCFC03469BB2E3189BB2C0
:10187000A7F842304FF0EF004FF0AE01FEF7F0FC5A
:1018800003469BB24FEA03239CB24FF0EF004FF0A8
:10189000AF01FEF7E5FC03469BB2E3189BB2A7F845
:1018A00040304FF0EF004FF0B001FEF7D9FC034697
:1018B0009BB24FEA03239CB24FF0EF004FF0B1010F
:1018C000FEF7CEFC03469BB2E318FB874FF0EF0018
:1018D0004FF0B201FEF7C4FC03469BB24FEA03236C
:1018E0009CB24FF0EF004FF0B301FEF7B9FC034696
:1018F0009BB2E318BB874FF0EF004FF0B401FEF747
:10190000AFFC03469BB24FEA03239CB24FF0EF00BB
:101910004FF0B501FEF7A4FC03469BB2E3187B87AA
:101920004FF0EF004FF0B601FEF79AFC03469BB272
:101930004FEA03239CB24FF0EF004FF0B701FEF7E0
:101940008FFC03469BB2E3189BB23B874FF0EF003E
:101950004FF0B801FEF784FC03469BB24FEA032325
:101960009CB24FF0EF004FF0B901FEF779FC03464F
:101970009BB2E3189BB2FB864FF0EF004FF0BA0129
:10198000FEF76EFC03469BB24FEA03239CB24FF076
:10199000EF004FF0BB01FEF763FC03469BB2E31878
:1019A0009BB2BB864FF0EF004FF0BC01FEF758FC36
:1019B00003469BB24FEA03239CB24FF0EF004FF077
:1019C000BD01FEF74DFC03469BB2E3189BB27B863C
:1019D0004FF0EF004FF0BE01FEF742FC03469BB212
:1019E0004FEA03239CB24FF0EF004FF0BF01FEF728
:1019F00037FC03469BB2E3189BB23B8604F0D8FB4E
:101A000004F0C4FB4FF0EF004FF0F4014FF02E0252
:101A1000FEF732FD04F0CCFB4FF0050002F020FF92
:101A200004F0B4FB4FF0EF004FF0F601FEF718FCA6
:101A300003464FEA03244FF0EF004FF0F701FEF7A3
:101A40000FFC0346E318FB6204F0B2FB04F09EFBBC
:101A50004FF0EF004FF0F4014FF03402FEF70CFDB1
:101A600004F0A6FB4FF0050002F0FAFE04F08EFB36
:101A70004FF0EF004FF0F601FEF7F2FB03464FEA9E
:101A800003244FF0EF004FF0F701FEF7E9FB0346A8
:101A9000E318BB6204F08CFB7B8FFA6AD31ABA8F0F
:101AA00002FB03F34FEAD3337B62B7F932304FEADC
:101AB000C322B7F930107B6ACB1892FBF3F37B8417
:101AC0007B6A9AB27B8CD3189BB23B84B7F92030E7
:101AD00003F10803002B01DA03F10F034FEA23138C
:101AE0009AB2854B1A803B8CA3F57A639BB2FB8339
:101AF000B7F944304FEA8302B7F93630B7F91E1010
:101B000001FB03F3002B03DA03F57E6303F11F03EC
:101B10004FEA23331946B7F94230CB18B7F91E10F4
:101B200001FB03F3002B03DA03F5FE6303F10F035C
:101B30004FEAE323D31803F10203002B01DA03F188
:101B400003034FEAA303BB83B7F94020B7F938304A
:101B50004FEA4303B7F91E1001FB03F3D318B7F99B
:101B60001E2002FB03F3002B03DA03F1005303F101
:101B7000FF334FEA637303F102037B62FA8F7B6AE0
:101B8000002B01DA03F103034FEAA30303F500433B
:101B900003FB02F34FEAD3337B83B7F91C30BA6AF5
:101BA000D31A4CF2503202FB03F37B617A696FF077
:101BB00078439A4206D87B694FEA43027B8BB2FB9B
:101BC000F3F305E07B8B7A69B2FBF3F34FEA43034F
:101BD0004A4A1360494B1B68002B01DA03F1FF03EB
:101BE0004FEA23231A46454B1B68002B01DA03F109
:101BF000FF034FEA232303FB02F340F6DE3202FB2E
:101C000003F23E4B1B683E4901FB03F3D318002B44
:101C100003DA4FF6FF729A1813464FEA234303F58F
:101C20006C6303F10F03002B01DA03F10F034FEA9A
:101C300023131A46314B1B68D218304B1A602F4BB6
:101C40001A6813464FEA83039B184FEA0312D31A0C
:101C50002C4A82FB03124FEA22324FEAE373D21A74
:101C6000264B1A6004F092FA4FF080004FF0E50125
:101C70004FF00302FEF7C4FC04F09AFA224B1B78E3
:101C8000A7F84630B7F846304FEA0323A7F84630A6
:101C90001D4B5B781A46B7F84630D318A7F8463084
:101CA000B7F8463023F00303A7F84630B7F84630BC
:101CB00007EE903AB8EEE77ADFED147AC7EE277AAE
:101CC000C7ED047A97ED047ADFED117A67EE277A93
:101CD000B1EE087A77EEC77AC7ED037AD7ED037ACB
:101CE000FDEEE77A17EE903A9AB20A4B1A8041F26B
:101CF000883002F0B5FD69E5B8010020B40100208C
:101D000043E3FFFFAD8BDB68502F012000008047CD
:101D10000000FA42BC01002080B586B000AF7860B8
:101D20004FF00003FB754FF00003BB754FF000034D
:101D30007B754FF000033B754FF00003FB744FF0D1
:101D40000003BB744FF000037B744FF000033B743F
:101D50004FF00003FB734FF000037B734FF0000361
:101D6000BB730B4B1B78002B40F09C80094B1B78FE
:101D7000012B40F09780084B1B7803F10103DAB286
:101D8000054B1A7002F0AAFB4FF00003BB7385E00D
:101D9000D6010020E9010020CF010020BB7B002BF1
:101DA00005D0BB7B032B02D0BB7B062B07D14FF0AA
:101DB000010001F0E5FD4FF0010001F03DFDBB7BAE
:101DC000012B05D0BB7B042B02D0BB7B072B07D19B
:101DD0004FF0010001F00EFE4FF0010001F0FAFC9F
:101DE000BB7B022B05D0BB7B052B02D0BB7B082B1A
:101DF00009D14FF0010001F037FE4FF0010001F072
:101E00004DFD02F06BFB4FF0010001F079FDBB7B53
:101E10001A464FEA8202D2184FEA4202D318DAB2C7
:101E2000BB7B19464FEA8101C9184FEA4101CB1823
:101E3000DBB21046194602F0B1FABB7B9BB21A46E0
:101E40004FEAC202D21A4FEA0212D31A9BB24FF0E3
:101E50000C00194601F0E4FE02F00AFB4FF05000BE
:101E600002F0FEFC01F0B8FE4FF0000001F088FD2A
:101E70004FF0000001F0E0FC02F048FB4FF00000E2
:101E800001F0F2FD4FF0000001F03AFD4FF0C80004
:101E900002F0E6FCBB7B03F10103BB73BB7B092BA8
:101EA0007FF67CAF934B1B78002B40F0FC80924B6D
:101EB0001B78002B40F0F780904B1A78904B1B78E2
:101EC0009A4210D28F4B1B784FF00400194601F054
:101ED000A7FE8D4B1A788D4B1B781046194602F0E1
:101EE0005DFA02F0C5FA854B1A78854B1B789A4249
:101EF00011D9824B1A78864B1B789A420BD202F08A
:101F000029FB844B1B689BB24FF00300194601F07C
:101F100087FE02F0ADFA794B1A787D4B1B789A4216
:101F200017D9764B1A787C4B1B789A4211D202F063
:101F300029FB4FF000004FF00A0102F02FFA774B17
:101F40001B889BB24FF00000194601F069FE02F0B9
:101F50008FFA6A4B1A78704B1B789A4259D9674BA3
:101F60001A786F4B1B789A4253D202F00BFB4FF05A
:101F700000004FF0140102F011FA6A4B1B781A4668
:101F8000684B9B7819464FEA8101CB1819464FEAF6
:101F9000810019460346CB184FEA830399B2614B7F
:101FA0005B7818464FEA8000C3184FEA43039BB2A0
:101FB000CB189BB2D3189BB29AB25B4B1A80594B89
:101FC000DB78092B09D1584B1B889BB24FF00D00D1
:101FD000194601F025FE02F04BFA524BDB782B2B11
:101FE00009D1514B1B889BB24FF00000194601F0FC
:101FF00017FE02F03DFA4B4BDB782D2B09D14A4BF3
:102000001B889BB24FF00100194601F009FE02F057
:102010002FFA3A4B1A78424B1B789A4217D9374B12
:102020001A78424B1B789A4211D202F0ABFA4FF069
:1020300000004FF00A0102F0B1F93D4B1B889BB242
:102040004FF00200194601F0EBFD02F011FA2B4BA4
:102050001A78364B1B789A4217D9284B1A78354B89
:102060001B789A4211D202F039FA334B1A78334B6B
:102070001B781046194602F091F94FF00A004FF014
:10208000000101F0CDFD02F0F3F91C4B1A78294B49
:102090001B789A4203D9194B4FF000021A704FF087
:1020A000320002F0DDFB134B1B78012B40F0D38094
:1020B000234B1B78002B06D1144B1B78BB75204B90
:1020C0004FF001021A701F4B1B78012B0ED1BB7D04
:1020D00003F10103BB7597F916303B2B02DD4FF07E
:1020E0000003BB75174B4FF000021A70164B1B789C
:1020F0002CE000BFD6010020E9010020CE01002025
:10210000E3010020C7010020C9010020C801002010
:10211000E7010020B4010020E5010020B801002003
:10212000E6010020642F0120C0010020E80100200A
:10213000BC010020E4010020CA010020CC010020E5
:10214000D7010020E1010020E2010020012B0ED187
:10215000BB7D03F1FF33BB7597F91630002B02DA14
:102160004FF03B03BB75974B4FF000021A7002F023
:10217000FDF9954B1B784FF00500194601F050FD15
:10218000924B1A78BB7D1046194602F007F902F00F
:102190006FF94FF0640002F063FB02F09FF98A4B85
:1021A0001B784FF00500194601F03AFD874B1A786D
:1021B000BB7D1046194602F0F1F802F059F9844B44
:1021C0001B78012B0ED1BB7D03F10103BB7597F981
:1021D00016303B2B02DD4FF00003BB757C4B4FF0FC
:1021E00000021A70774B1B78012B0AD1BB7D03F1DB
:1021F000FF33BB7597F91630002B02DA4FF03B0323
:10220000BB754FF01E0001F0BBFA0346DAB2714B0A
:102210001A7097F91630184601F0B2FA0346DAB28E
:102220006C4B5A70694B1B78184601F0A9FA0346AB
:10223000DAB2684B9A7003F0A9FF4FF0D0004FF06C
:1022400000014FF00302FEF71DFB03F0B1FF4FF05A
:10225000640002F005FB604B1B78022B40F0A58068
:102260005E4B1B78002B06D1584B1B78FB755B4BE4
:102270004FF001021A70564B1B78012B0AD1FB7DDF
:1022800003F10103FB7597F91730172B02DD4FF0AF
:102290000003FB754B4B1B78012B0ED1FB7D03F12B
:1022A000FF33FB7597F91730002B02DA4FF0170355
:1022B000FB75444B4FF000021A7002F06FF9424B6D
:1022C0001B784FF00500194601F0AAFCFA7D444B3B
:1022D0001B781046194602F061F802F0C9F84FF079
:1022E000640002F0BDFA02F0F9F8374B1B784FF0AA
:1022F0000500194601F094FCFA7D394B1B78104615
:10230000194602F04BF802F0B3F8314B1B78012B61
:102310000ED1FB7D03F10103FB7597F91730172BE5
:1023200002DD4FF00003FB75294B4FF000021A70DD
:10233000244B1B78012B0ED1FB7D03F1FF33FB7582
:1023400097F91730002B02DA4FF01703FB751D4B7E
:102350004FF000021A704FF01E0001F011FA034610
:10236000DAB21C4B1A701E4B1B78184601F008FAA3
:102370000346DAB2174B5A7097F91730184601F036
:10238000FFF90346DAB2134B9A7003F0FFFE4FF0E9
:10239000D0004FF000014FF00302FEF773FA03F094
:1023A00007FF4FF0640002F05BFA0B4B1B78032B26
:1023B00040F0CC800B4B1B78002B1CD10A4B1B78B8
:1023C00014E000BFE2010020C7010020C901002085
:1023D000E1010020502F0120D6010020D80100206B
:1023E000C8010020DD010020CA0100203B74914B90
:1023F0004FF001021A70904B1B78012B0ED13B7CE1
:1024000003F101033B7497F910301F2B02DD4FF0ED
:1024100001033B74884B4FF000021A70874B1B7806
:10242000012B0ED13B7C03F1FF333B7497F9103045
:10243000002B02DC4FF01F033B74804B4FF0000277
:102440001A7002F0ABF84FF00A004FF0000101F0F3
:10245000E7FB3A7C7A4B1B781046194601F09EFF49
:1024600002F006F84FF0640002F0FAF902F036F8D4
:102470004FF00A004FF0000101F0D2FB3A7C704BA4
:102480001B781046194601F089FF01F0F1FF6A4BF5
:102490001B78012B0ED13B7C03F101033B7497F9B0
:1024A00010301F2B02DD4FF001033B74624B4FF0E5
:1024B00000021A70614B1B78012B0ED13B7C03F19B
:1024C000FF333B7497F91030002B02DC4FF01F03F1
:1024D0003B745A4B4FF000021A70397C584B1A78F3
:1024E000584B1B78084611461A4602F063F803461B
:1024F000DAB2554B1A7097F91030184601F040F9CE
:102500000346DAB2504B5A704D4B1B78184601F017
:1025100037F90346DAB24C4B9A704A4B1B7818468F
:1025200001F02EF90346DAB2474BDA7003F02EFEC3
:102530004FF0D0004FF003014FF00402FEF7A2F974
:1025400003F036FE4FF0640002F08AF93F4B1B782F
:10255000042B40F0C9803E4B1B78002B06D1384B32
:102560001B78FB733A4B4FF001021A70324B1B7809
:10257000012B0ED1FB7B03F10103FB7397F90F30A5
:102580000C2B02DD4FF00103FB732B4B4FF00002CD
:102590001A702A4B1B78012B0ED1FB7B03F1FF3302
:1025A000FB7397F90F30002B02DA4FF00C03FB732B
:1025B000224B4FF000021A7001F0D8FF4FF00A00D2
:1025C0004FF0000101F02CFB224B1A78FB7B1046E8
:1025D000194601F0E3FE01F04BFF4FF0640002F0FA
:1025E0003FF901F07BFF4FF00A004FF0000101F0CE
:1025F00017FB184B1A78FB7B1046194601F0CEFEEC
:1026000001F036FF0C4B1B78012B0ED1FB7B03F145
:102610000103FB7397F90F300C2B02DD4FF0010320
:10262000FB73054B4FF000021A70044B1B78012B13
:1026300021D111E0DD010020E1010020E2010020B4
:10264000CC010020CD010020502F0120D601002018
:10265000DE010020CA010020FB7B03F1FF33FB7386
:1026600097F90F30002B02DA4FF00C03FB73944BF9
:102670004FF000021A70934B1978FA7B924B1B783B
:10268000084611461A4601F095FF0346DAB28F4B11
:102690001A708C4B1B78184601F072F80346DAB2B8
:1026A0008A4B5A7097F90F30184601F069F80346C3
:1026B000DAB2864B9A70844B1B78184601F060F8AA
:1026C0000346DAB2814BDA7003F060FD4FF0D000C0
:1026D0004FF003014FF00402FEF7D4F803F068FD59
:1026E0004FF0640002F0BCF8794B1B78052B58D1F1
:1026F00001F030FF774B1B78002B0FD103F046FD24
:1027000042F234204FF0090105F090F803467B7542
:1027100003F04EFD6F4B4FF001021A706E4B1B78A9
:10272000012B0ED17B7D03F101037B7597F91530E9
:10273000632B02DD4FF000037B75674B4FF0000207
:102740001A705F4B1B78012B0ED17B7D03F1FF3399
:102750007B7597F91530002B02DA4FF063037B7518
:10276000574B4FF000021A707A7D5C4B1A7003F0E1
:102770000DFD7B7D42F2342019464FF0090204F032
:1027800089FF03F015FD97F915309BB24FF0060055
:10279000194601F045FA01F06BFE4FF0640002F0BB
:1027A0005FF84B4B1B78062B58D101F0D3FE4C4BF6
:1027B0001B78002B0FD103F0E9FC42F235204FF0DB
:1027C000090105F033F803463B7503F0F1FC444B77
:1027D0004FF001021A70404B1B78012B0ED13B7D4C
:1027E00003F101033B7597F91430632B02DD4FF0C1
:1027F00000033B75384B4FF000021A70304B1B78CA
:10280000012B0ED13B7D03F1FF333B7597F914305B
:10281000002B02DA4FF063033B75294B4FF00002A7
:102820001A703A7D2F4B1A7003F0B0FC3B7D42F2D8
:10283000352019464FF0090204F02CFF03F0B8FCD4
:1028400097F914309BB24FF00700194601F0E8F9F0
:1028500001F00EFE4FF0640002F002F81C4B1B78F2
:10286000072B6FD101F076FE1F4B1B78002B0FD189
:1028700003F08CFC42F236204FF0090104F0D6FF41
:102880000346FB7403F094FC174B4FF001021A70DF
:10289000114B1B78012B0ED1FB7C03F10103FB7460
:1028A00097F91330632B02DD4FF00003FB740A4BE2
:1028B0004FF000021A70024B1B78012B25D115E056
:1028C000E2010020CA010020CD010020502F01208C
:1028D000D6010020D9010020E1010020D001002014
:1028E000DA010020D1010020DB010020FB7C03F194
:1028F000FF33FB7497F91330002B02DA4FF06303B8
:10290000FB74844B4FF000021A70FA7C824B1A70F1
:1029100003F03CFCFB7C42F2362019464FF00902E2
:1029200004F0B8FE03F044FC97F913309BB24FF06B
:102930000800194601F074F901F09AFD4FF06400A7
:1029400001F08EFF754B1B78082B58D101F002FE69
:10295000734B1B78002B0FD103F018FC42F2372089
:102960004FF0090104F062FF0346BB7403F020FC42
:102970006B4B4FF001021A706A4B1B78012B0ED182
:10298000BB7C03F10103BB7497F91230632B02DDAA
:102990004FF00003BB74634B4FF000021A705D4BA5
:1029A0001B78012B0ED1BB7C03F1FF33BB7497F96D
:1029B0001230002B02DA4FF06303BB74554B4FF01B
:1029C00000021A70BA7C584B1A7003F0DFFBBB7C14
:1029D00042F2372019464FF0090204F05BFE03F083
:1029E000E7FB97F912309BB24FF00B00194601F04C
:1029F00017F901F03DFD4FF0640001F031FF474B46
:102A00001B78092B58D101F0A5FD484B1B78002BF2
:102A10000FD103F0BBFB42F238204FF0090104F064
:102A200005FF03467B7403F0C3FB404B4FF00102EC
:102A30001A703C4B1B78012B0ED17B7C03F10103F8
:102A40007B7497F91130632B02DD4FF000037B7428
:102A5000344B4FF000021A702E4B1B78012B0ED115
:102A60007B7C03F1FF337B7497F91130002B02DA82
:102A70004FF063037B74274B4FF000021A707A7C8F
:102A80002B4B1A7003F082FBBB7C42F238201946B4
:102A90004FF0090204F0FEFD03F08AFB97F91130B4
:102AA0009BB24FF00900194601F0BAF801F0E0FCC2
:102AB0004FF0640001F0D4FE1E4B1A781E4B1A70C2
:102AC0001D4B1A781D4B1B78D318DAB21C4B1A70A9
:102AD0001B4B1A78104B1B78D318DAB2194B1A70AB
:102AE000184B1A78184B1B78D318DAB2174B1A7098
:102AF000164B1A780E4B1B78D318DAB2144B1A7097
:102B0000134B1A78084B1B78D318DAB2114B1A7092
:102B1000FFF727B9E2010020D2010020D6010020F2
:102B2000DC010020E1010020D3010020DF010020B2
:102B3000D4010020D0010020E3010020D1010020B9
:102B4000E7010020E5010020D5010020E60100207A
:102B5000E8010020E401002080B489B000AF786073
:102B60004FF00003BB614FF000037B614FF00003A7
:102B7000FB614FF002033B614FF00003FB604FF03D
:102B80000203BB604F4B9B6803F00C03BB61BB6946
:102B9000042B07D0082B09D0002B47D17B684A4A69
:102BA0001A6047E07B68494A1A6043E0454B5B681E
:102BB00003F480034FEA9353FB60424B5B6803F0DE
:102BC0003F03BB60FB68002B0FD0404ABB68B2FBE1
:102BD000F3F23C4B596847F6C07301EA03034FEA2E
:102BE000931303FB02F3FB610EE0374ABB68B2FBB1
:102BF000F3F2344B596847F6C07301EA03034FEA16
:102C0000931303FB02F3FB612E4B5B6803F4403329
:102C10004FEA134303F101034FEA43033B61FA69AF
:102C20003B69B2FBF3F27B681A6003E07B68264ADB
:102C30001A6000BF234B9B6803F0F003BB61BB69C4
:102C40004FEA1313BB61224ABB69D3181B78DBB26E
:102C50007B617B681A687B6922FA03F27B685A60A1
:102C6000184B9B6803F4E053BB61BB694FEA9323A5
:102C7000BB61174ABB69D3181B78DBB27B617B68E9
:102C80005A687B6922FA03F27B689A600D4B9B6855
:102C900003F46043BB61BB694FEA5333BB610C4A29
:102CA000BB69D3181B78DBB27B617B685A687B6990
:102CB00022FA03F27B68DA6007F12407BD4680BC84
:102CC000704700BF003802400024F40040787D01C6
:102CD0009800002080B483B000AF78600B46FB7092
:102CE000FB78002B07D00B4B0A4A116B7A6841EA3C
:102CF00002021A6308E0074B064A116B7A686FEA12
:102D0000020201EA02021A6307F10C07BD4680BC09
:102D1000704700BF0038024080B483B000AF7860D5
:102D20000B46FB70FB78002B07D00B4B0A4A116C4B
:102D30007A6841EA02021A6408E0074B064A116CFD
:102D40007A686FEA020201EA02021A6407F10C07CC
:102D5000BD4680BC704700BF0038024080B483B0DD
:102D600000AF78600B46FB70FB78002B07D00B4B55
:102D70000A4A516C7A6841EA02025A6408E0074B39
:102D8000064A516C7A686FEA020201EA02025A644A
:102D900007F10C07BD4680BC704700BF00380240F9
:102DA00080B483B000AF78600B46FB70FB78002BDB
:102DB00007D00B4B0A4A116A7A6841EA02021A628A
:102DC00008E0074B064A116A7A686FEA020201EAD4
:102DD00002021A6207F10C07BD4680BC704700BFB3
:102DE0000038024080B586B004AF4FF000037B602E
:102DF00000F078FA124B1B68002B15D0114B4FF0E6
:102E0000020200924FF0000201924FF00002029283
:102E10004FF0000203920C4819464FF482724FF0B3
:102E2000000301F061FC78607B68002B02D103F0A5
:102E3000D3F9FEE77B68184607F10807BD4680BD59
:102E40001C020020847C0008612F000880B588B037
:102E500000AFF860B9607A603B604FF00003FB613F
:102E60001F4B1B68002B34D0BB683B617B687B61C8
:102E7000FB68BB613B68002B1FD102F041FA03469F
:102E8000012B0CD1164B1A6807F110031046194696
:102E9000BA6A4FF0000303F0E7FAF86119E0104B4B
:102EA0001A6807F11003104619464FF000024FF060
:102EB000000303F0D9FAF8610BE0094B1A6807F137
:102EC0001003104619463A684FF0000303F088FBE0
:102ED000F861FB69184607F12007BD4680BD00BFB9
:102EE0001C02002080B586B002AF786039601B4BB1
:102EF0001B68DB68DB68FB60FB6803F104031846B2
:102F000002F02EFFFB68DB69012B1ED1FB689A697A
:102F10007B68D318F86819463A687B6800F0B6F801
:102F20000346012B11D14FF000030093F8684FF0D6
:102F300000017A684FF00003FFF788FFB860BB68B4
:102F4000002B02D103F048F9FEE7FB685B6AF868E2
:102F5000984707F11007BD4680BD00BF140200204E
:102F600080B584B000AF786007F10803184600F020
:102F700043F8F860BB68F868194600F003F800F001
:102F8000CDF8F1E780B584B000AF7860396001F02A
:102F9000D5FC07F10803184600F052F8F860BB684A
:102FA000002B1ED13B68002B0AD17A68FB689A423D
:102FB00006D801F0D1FC7868F968FFF793FF14E0B8
:102FC0000C4B1A687968FB68CB1A1046194603F057
:102FD00073FD01F0C1FC0346002B05D103F0C6F8D8
:102FE00003E001F0B9FC00E000BF07F11007BD46A7
:102FF00080BD00BF1C02002080B485B000AF7860A7
:103000000E4B1B681B68002B14BF002201227B683B
:103010001A607B681B68002B05D1084B1B68DB68B6
:103020001B68FB6002E04FF00003FB60FB68184682
:1030300007F11407BD4680BC704700BF1402002092
:1030400080B584B000AF786001F018FDF8600E4BD9
:103050001B68FA689A4209D20B4B1B68184600F0AD
:10306000E1F87B684FF001021A6003E07B684FF0E3
:1030700000021A60044BFA681A60FB68184607F1F0
:103080001007BD4680BD00BF2002002080B586B07D
:1030900000AFF860B9607A603B604FF000037B617D
:1030A000FB68BA685A60FB68FA681A61BA687B689C
:1030B0009A4214D87A683B68D21AFB689B699A4294
:1030C00003D34FF001037B611EE0124B1A68FB68CB
:1030D00003F104031046194602F008FE14E07A6872
:1030E0003B689A4207D2BA683B689A4203D34FF0D2
:1030F00001037B6108E0084B1A68FB6803F10403D5
:103100001046194602F0F2FD7B69184607F11807D0
:10311000BD4680BD180200201402002080B58AB090
:1031200002AF6AE03B69FB61FB695B69002B05D07C
:10313000FB6903F10403184602F012FE07F10403D1
:103140001846FFF77DFFB861BB68032B4ED801A27C
:1031500052F823F065310008ED310008BB3100085A
:10316000E5310008FA68FB699B69D218FB68F869C9
:103170001146BA69FFF78AFF0346012B38D1FB6974
:103180005B6AF8699847FB69DB69012B32D1FA6801
:10319000FB699B69D3184FF000020092F8694FF069
:1031A00000011A464FF00003FFF750FE78617B697B
:1031B000002B21D103F010F8FEE7FA68FB699A6151
:1031C000FB699B69002B02D103F006F8FEE7FB695F
:1031D0009A69BB69D318F8691946BA69BB69FFF7E0
:1031E00055FF0AE0F86904F007F906E000BF04E0C3
:1031F00000BF02E000BF00E000BF094B1A6807F102
:103200000803104619464FF000024FF0000303F088
:103210005BFA0346002B85D107F12007BD4680BD30
:103220001C02002080B58AB002AF786042E02B4BD0
:103230001B68DB681B68FB61284B1B68DB68DB686D
:10324000BB61BB6903F10403184602F089FDBB6949
:103250005B6AB8699847BB69DB69012B2AD1BB69F6
:103260009A69FB69D3187B617A69FB699A420FD925
:10327000BB697A695A60BB69BA691A61174B1A68E7
:10328000BB6903F104031046194602F02FFD11E05B
:103290004FF000030093B8694FF00001FA694FF056
:1032A0000003FFF7D3FD38613B69002B02D102F028
:1032B00093FFFEE7094B1B681B68002BB7D1074B38
:1032C0001B68FB60064B1A68044B1A60044BFA68D3
:1032D0001A6007F12007BD4680BD00BF1402002020
:1032E0001802002080B500AF02F050FF0E4B1B68A3
:1032F000002B16D10D4802F0A3FC0D4802F0A0FCF3
:103300000C4B0A4A1A600C4B094A1A604FF00A002B
:103310004FF00C014FF0000203F05CF80246024B44
:103320001A6002F045FF80BD1C020020EC01002065
:1033300000020020140200201802002080B582B094
:1033400000AF17484FF0100102F0F2FB0346FB718B
:1033500013484FF0200102F0EBFB0346BB71114B09
:103360001B78FA799A4216D00E4BFA791A700D4BE7
:103370001B78002B0FD1BB79012B06D10A4B1B68A0
:1033800003F10102084B1A6005E0074B1B6803F1CB
:10339000FF32054B1A6007F10807BD4680BD00BF2C
:1033A00000080240A8000020A42F012080B500AF33
:1033B0004FF0100003F0C6FE0346002B05D0FFF7C8
:1033C000BDFF4FF0100003F0E7FE80BD80B584B074
:1033D00000AF4FF00003FB7343E0FA7B264913462E
:1033E0004FEA83039B184FEA8303CB1803F10C03C6
:1033F0001B6818464FF00101FFF76CFC4FF000030B
:103400003B72FA7B1C4913464FEA83039B184FEA31
:103410008303CB1803F110031B78FB72FA7B164968
:1034200013464FEA83039B184FEA8303CB1803F13B
:1034300008031B887B60FA7B0F4913464FEA83031E
:103440009B184FEA8303CB1803F104031A6807F1B2
:1034500004031046194602F0C7FAFB7B03F101038F
:10346000FB73FB7B022BB8D900F03AF800F064F84C
:1034700007F11007BD4680BDAC00002080B485B0C8
:1034800000AF0346FB71FA79134913464FEA8303F1
:103490009B184FEA8303CB1803F110035B78FB738F
:1034A000FB790E4AD35CBB73FB790C4AF97BD15490
:1034B000FB7B002B02D14FF0000307E0BB7B002B0E
:1034C00002D04FF0000301E04FF00103184607F16E
:1034D0001407BD4680BC7047AC00002028020020C5
:1034E00080B584B000AF4FF020004FF00101FFF72E
:1034F00013FC41F28733BB6040F24733BB804FF08F
:103500000003BB814FF00003FB8007F1040309486F
:10351000194603F0D9FF07484FF0010104F042F8C3
:1035200004484FF0010104F05DF807F11007BD46B3
:1035300080BD00BF0014004080B582B000AF0E48CF
:103540004FF001014FF0010204F06CF84FF0370327
:103550003B714FF000037B714FF00003BB714FF0E4
:103560000103FB7107F10403184603F023FE07F182
:103570000807BD4680BD00BF0014004080B582B082
:1035800000AF1F484FF0010104F072F84FF0000344
:10359000FB712EE0FA791B4913464FEA83039B180F
:1035A0004FEA8303CB1803F104031968FA7915482D
:1035B00013464FEA83039B184FEA8303C31803F1B2
:1035C00008031B880846194602F0B2FA0346BB718D
:1035D000FA790C4913464FEA83039B184FEA830399
:1035E000CB1803F11003BA795A70FB7903F1010388
:1035F000FB71FB79022BCDD907F10807BD4680BDD1
:1036000000140040AC00002080B485B000AF034639
:10361000FB714FF00003FB73FB79092B3ED801A22D
:1036200052F823F04D360008553600085D36000884
:10363000653600086D360008753600087D360008CE
:10364000853600088D360008953600084FF00903CE
:10365000FB7323E04FF00103FB731FE04FF0030304
:10366000FB731BE04FF00B03FB7317E04FF00A03F3
:10367000FB7313E04FF00203FB730FE04FF00C03FA
:10368000FB730BE04FF00403FB7307E04FF0000304
:10369000FB7303E04FF00803FB7300BF184607F10C
:1036A0001407BD4680BC704780B485B000AF0346A8
:1036B000FB714FF00003FB73FB79092B3ED801A28D
:1036C00052F823F0ED360008F5360008FD36000804
:1036D000053700080D370008153700081D370008AA
:1036E000253700082D370008353700084FF0030351
:1036F000FB7323E04FF00C03FB731FE04FF0040358
:10370000FB731BE04FF00803FB7317E04FF002035D
:10371000FB7313E04FF00A03FB730FE04FF0090354
:10372000FB730BE04FF00103FB7307E04FF0000366
:10373000FB7303E04FF00B03FB7300BF184607F168
:103740001407BD4680BC704780B483B000AF034609
:10375000FB71FB7903F00F03DAB2FB794FEA131325
:10376000DBB219464FEA8101CB184FEA4303DBB2C3
:10377000D318DBB2184607F10C07BD4680BC704772
:1037800080B483B000AF0346FB71FA79104BA3FB02
:1037900002034FEAD3010B464FEA83035B184FEA5B
:1037A0004303D31ADBB2DAB2F979094BA3FB010365
:1037B0004FEAD303DBB24FEA0313DBB242EA03035F
:1037C000DBB2DBB2184607F10C07BD4680BC704780
:1037D000CDCCCCCC80B483B000AF0346FB71FB7979
:1037E000012B0AD1134B1B7843F00203DAB2114BC1
:1037F0001A70104B1A780F4B1A70FB79002B06D1F8
:103800000C4B1B7823F00203DAB20A4B1A70094BF7
:103810001B7823F00803DAB2064B1A70054B1B78AD
:1038200023F00403DAB2034B1A7007F10C07BD460C
:1038300080BC70472C02002080B483B000AF0346E8
:10384000FB71FB79012B0AD1134B1B7843F0040366
:10385000DAB2114B1A70104B1A780F4B1A70FB79B1
:10386000002B06D10C4B1B7823F00403DAB20A4B71
:103870001A70094B1B7823F00803DAB2064B1A7052
:10388000054B1B7823F00203DAB2034B1A7007F1E1
:103890000C07BD4680BC70472C02002080B483B06A
:1038A00000AF0346FB71FB79012B0AD1134B1B7848
:1038B00043F00803DAB2114B1A70104B1A780F4B11
:1038C0001A70FB79002B06D10C4B1B7823F00803F0
:1038D000DAB20A4B1A70094B1B7823F00203DAB2F2
:1038E000064B1A70054B1B7823F00403DAB2034B26
:1038F0001A7007F10C07BD4680BC70472C020020EF
:1039000080B483B000AF0346FB71FB79012B0AD171
:103910000C4B1B7843F00103DAB20A4B1A70094BC7
:103920001A78084B1A70FB79002B06D1054B1B78CF
:1039300023F00103DAB2034B1A7007F10C07BD46FE
:1039400080BC70472C02002080B400AF0B4B1B786A
:1039500023F00803DAB2094B1A70084B1B7823F0E6
:103960000203DAB2054B1A70044B1B7823F00403F0
:10397000DAB2024B1A70BD4680BC70472C020020A0
:1039800080B483B000AF0346FB71FB79012B0AD1F1
:10399000174B1B7843F04003DAB2154B1A70144BE7
:1039A0001A78134B1A70FB79002B06D1104B1B7839
:1039B00023F04003DAB20E4B1A700D4B1B7823F044
:1039C0002003DAB20A4B1A70094B1B7823F010035C
:1039D000DAB2074B1A70064B1B7803F07F03DAB29A
:1039E000034B1A7007F10C07BD4680BC704700BF3F
:1039F0002C02002080B483B000AF0346FB71FB793A
:103A0000012B0AD1174B1B7843F02003DAB2154B78
:103A10001A70144B1A78134B1A70FB79002B06D1CD
:103A2000104B1B7823F02003DAB20E4B1A700D4BAB
:103A30001B7823F04003DAB20A4B1A70094B1B784B
:103A400023F01003DAB2074B1A70064B1B7803F011
:103A50007F03DAB2034B1A7007F10C07BD4680BC36
:103A6000704700BF2C02002080B483B000AF034633
:103A7000FB71FB79012B15D11C4B1B7843F0100314
:103A8000DAB21A4B1A70194B1A78184B1A70174B76
:103A90001B7863F07F03DAB2144B1A70134B1A7859
:103AA000124B1A70FB79002B0DD1104B1B7823F0B1
:103AB0001003DAB20D4B1A700C4B1B7803F07F0326
:103AC000DAB20A4B1A70094B1B7823F02003DAB2E2
:103AD000064B1A70054B1B7823F04003DAB2034BF8
:103AE0001A7007F10C07BD4680BC70472C020020FD
:103AF00080B483B000AF0346FB71FB79012B0AD180
:103B0000174B1B7843F01003DAB2154B1A70144BA5
:103B10001A78134B1A70FB79002B0DD1104B1B78C0
:103B200023F01003DAB20E4B1A700D4B1B7803F022
:103B30007F03DAB20A4B1A70094B1B7823F020037B
:103B4000DAB2074B1A70064B1B7823F04003DAB247
:103B5000034B1A7007F10C07BD4680BC704700BFCD
:103B60002C02002080B483B000AF0346FB71FB79C8
:103B7000012B0AD1174B1B7863F07F03DAB2154B88
:103B80001A70144B1A78134B1A70FB79002B0DD155
:103B9000104B1B7823F01003DAB20E4B1A700D4B4A
:103BA0001B7803F07F03DAB20A4B1A70094B1B78BB
:103BB00023F02003DAB2074B1A70064B1B7823F070
:103BC0004003DAB2034B1A7007F10C07BD4680BC04
:103BD000704700BF2C02002080B400AF0F4B1B7851
:103BE00023F02003DAB20D4B1A700C4B1B7823F034
:103BF0004003DAB2094B1A70084B1B7803F07F03BD
:103C0000DAB2064B1A70054B1B7823F01003DAB2B8
:103C1000024B1A70BD4680BC704700BF2C020020CA
:103C200080B584B000AF02460B46FA71BB804FF0FE
:103C30000003BB734FF00003FB734FF000037B7373
:103C40004FF00E03FB73FB79032B0CD1FFF77CFEC7
:103C50004FF00100FFF708FF4FF00000FFF750FEA4
:103C60004FF00E03FB73FB790C2B02D14FF00E03C8
:103C7000FB73FB790A2B0CD1FFF766FE4FF00000B7
:103C8000FFF7F2FE4FF00000FFF73AFE4FF000039F
:103C9000FB73FB79022B0CD1FFF756FE4FF00100AE
:103CA000FFF7A8FE4FF00000FFF72AFE4FF00C03CD
:103CB000FB73FB79002B0ED14FF00100FFF7EEFDF7
:103CC0004FF00100FFF75CFE4FF00100FFF718FE18
:103CD0004FF00E03FB73FB79012B0ED14FF0010067
:103CE000FFF778FD4FF00100FFF74AFE4FF00100AB
:103CF000FFF706FE4FF00E03FB73FB790D2B0CD183
:103D0000FFF722FE4FF00100FFF73AFE4FF00000F0
:103D1000FFF7F6FD4FF00003FB73BB88994AA2FB47
:103D200003124FEA52124FF0640101FB02F29B1A98
:103D30009BB2BB73BA7B944BA3FB02134FEAD30134
:103D40000B464FEA83035B184FEA4303D31ADBB2F7
:103D50001846FFF759FC03461A468C4B1A708B4BDA
:103D60001B784FEA0313DAB2884B1A70BA88854B76
:103D7000A3FB02134FEA53139BB2DBB21846FFF7C3
:103D800043FC03461A46814B1B78D318DAB27F4BAB
:103D90001A70BA7B7C4BA3FB02134FEAD303DBB24E
:103DA0001846FFF731FC03461A46794B1A70784BD8
:103DB0001B784FEA0313DAB2754B1A70744B1A78FA
:103DC000FB7BD318DAB2724B1A70FB79042B40D10B
:103DD0006F4B4FF000021A70FFF7FEFE4FF000002D
:103DE000FFF78EFD4FF00603FB73BA88664BA3FB0B
:103DF00002134FEAD3039BB2DBB21846FFF704FC71
:103E000003467B73614B7A7B1A70BA885E4BA3FBC7
:103E100002134FEAD3010B464FEA83035B184FEAC4
:103E20004303D31A9BB2DBB21846FFF7EDFB034600
:103E30001A46574B1A70564B1B784FEA0313DAB2E7
:103E4000534B1A70524B1A78FB7BD318DAB2504B93
:103E50001A70FB79052B44D14D4B4FF000021A70BC
:103E6000FFF7BAFE4FF00000FFF7E6FC4FF000004E
:103E7000FFF746FD4FF00003FB73BA88424BA3FBEC
:103E800002134FEAD3039BB2DBB21846FFF7BCFB29
:103E900003467B733D4B7A7B1A70BA883A4BA3FB7F
:103EA00002134FEAD3010B464FEA83035B184FEA34
:103EB0004303D31A9BB2DBB21846FFF7A5FB0346B8
:103EC0001A46334B1A70324B1B784FEA0313DAB29F
:103ED0002F4B1A702E4B1A78FB7BD318DAB22C4B6F
:103EE0001A70FB79062B77D1294B4FF000021A701C
:103EF00000F000FBFFF770FE4FF00000FFF740FD01
:103F00004FF00100FFF798FC4FF00000FFF7F8FCBE
:103F10004FF00E03FB73BB881A4AA2FB03124FEA51
:103F200052124FF0640101FB02F29B1A9BB2BB7369
:103F3000BA7B154BA3FB02134FEAD3010B464FEAA2
:103F400083035B184FEA4303D31ADBB21846FFF72B
:103F50005BFB03461A460D4B1A700C4B1B784FEA5D
:103F60000313DAB2094B1A70BA88064BA3FB02138B
:103F70004FEA53139BB2DBB21846FFF745FB0346EB
:103F80001A4607E01F85EB51CDCCCCCC2D0200208A
:103F90002E0200209B4B1B78D318DAB2994B1A7073
:103FA000BA7B994BA3FB02134FEAD303DBB218464B
:103FB000FFF72AFB03461A46944B1A70934B1B7863
:103FC0004FEA0313DAB2914B1A70904B1A78FB7BCD
:103FD000D318DAB28D4B1A70FB79072B70D18B4B4B
:103FE0004FF000021A70FFF7F7FD4FF00100FFF7E6
:103FF0007FFD4FF00100FFF7B5FD4FF00000FFF728
:104000001BFC4FF00000FFF77BFC4FF00E03FB732F
:10401000BB887F4AA2FB03124FEA52124FF06401A1
:1040200001FB02F29B1A9BB2BB73BA7B764BA3FBDC
:1040300002134FEAD3010B464FEA83035B184FEAA2
:104040004303D31ADBB21846FFF7DEFA03461A46DB
:104050006C4B1A706B4B1B784FEA0313DAB2694B47
:104060001A70BA886A4BA3FB02134FEA53139BB230
:10407000DBB21846FFF7C8FA03461A46614B1B78B5
:10408000D318DAB25F4B1A70BA7B5F4BA3FB0213F3
:104090004FEAD303DBB21846FFF7B6FA03461A46D7
:1040A0005A4B1A70594B1B784FEA0313DAB2574B2D
:1040B0001A70564B1A78FB7BD318DAB2534B1A702E
:1040C000FB79082B70D1514B4FF000021A70FFF7AB
:1040D00083FD4FF00000FFF70BFD4FF00000FFF7EE
:1040E000ABFB4FF00000FFF70BFC4FF00100FFF7B8
:1040F00047FC4FF00E03FB73BB88454AA2FB03123B
:104100004FEA52124FF0640101FB02F29B1A9BB27C
:10411000BB73BA7B3C4BA3FB02134FEAD3010B46A4
:104120004FEA83035B184FEA4303D31ADBB2184606
:10413000FFF76AFA03461A46324B1A70314B1B7866
:104140004FEA0313DAB22F4B1A70BA88304BA3FB35
:1041500002134FEA53139BB2DBB21846FFF754FA2F
:1041600003461A46274B1B78D318DAB2254B1A7030
:10417000BA7B254BA3FB02134FEAD303DBB21846ED
:10418000FFF742FA03461A46204B1A701F4B1B7862
:104190004FEA0313DAB21D4B1A701C4B1A78FB7BE3
:1041A000D318DAB2194B1A70FB790B2B76D1174B57
:1041B0004FF000021A70FFF70FFD4FF00100FFF7FC
:1041C000D1FC4FF00100FFF737FB4FF00000FFF785
:1041D00097FB4FF00E03FB73BB880D4AA2FB031243
:1041E0004FEA52124FF0640101FB02F29B1A9BB29C
:1041F000BB73BA7B044BA3FB02134FEAD3010B46FC
:1042000008E000BF2D020020CDCCCCCC2E02002037
:104210001F85EB514FEA83035B184FEA4303D31A20
:10422000DBB21846FFF7F0F903461A46574B1A70EF
:10423000564B1B784FEA0313DAB2544B1A70BA8804
:10424000534BA3FB02134FEA53139BB2DBB2184646
:10425000FFF7DAF903461A464C4B1B78D318DAB24B
:104260004A4B1A70BA7B4B4BA3FB02134FEAD303A2
:10427000DBB21846FFF7C8F903461A46464B1A70D8
:10428000454B1B784FEA0313DAB2434B1A70424B8B
:104290001A78FB7BD318DAB23F4B1A70FB79092BE3
:1042A00070D13D4B4FF000021A70FFF795FC4FF0B4
:1042B0000000FFF71DFC4FF00100FFF79BFB4FF0E4
:1042C0000000FFF7B9FA4FF00000FFF719FB4FF0BD
:1042D0000E03FB73BB882E4AA2FB03124FEA521255
:1042E0004FF0640101FB02F29B1A9BB2BB73BA7BD5
:1042F000284BA3FB02134FEAD3010B464FEA83037B
:104300005B184FEA4303D31ADBB21846FFF77CF978
:1043100003461A461D4B1A701C4B1B784FEA0313B9
:10432000DAB21A4B1A70BA88194BA3FB02134FEA80
:1043300053139BB2DBB21846FFF766F903461A46E1
:10434000124B1B78D318DAB2104B1A70BA7B114B90
:10435000A3FB02134FEAD303DBB21846FFF754F96D
:1043600003461A460C4B1A700B4B1B784FEA03138B
:10437000DAB2094B1A70084B1A78FB7BD318DAB201
:10438000054B1A7007F11007BD4680BD2D020020B5
:104390001F85EB51CDCCCCCC2E02002080B584B053
:1043A00000AF02460B46FA71BB714FF00003FB737E
:1043B0004FF00003BB73BA792A4BA3FB02134FEAF9
:1043C000D3010B464FEA83035B184FEA4303D31A2A
:1043D000DBB21846FFF768F90346BB73BB7B4FEAB5
:1043E0000313BB73BA791F4BA3FB02134FEAD3032A
:1043F000DBB21846FFF758F903461A46BB7BD318C1
:10440000BB73FA79174BA3FB02134FEAD3010B4698
:104410004FEA83035B184FEA4303D31ADBB2184613
:10442000FFF742F90346FB73FB7B4FEA0313FB7371
:10443000FA790C4BA3FB02134FEAD303DBB2184605
:10444000FFF732F903461A46FB7BD318FB73064B82
:10445000BA7B1A70054BFA7B1A7007F11007BD463C
:1044600080BD00BFCDCCCCCC2F020020300200207C
:1044700080B500AF4FF0000001F090FD114B1B78AC
:10448000184601F0E9F8104B1B78184601F0E4F8E3
:104490000E4B1B78184601F0DFF80D4B1B781846C1
:1044A00001F0DAF80B4B1B78184601F0D5F80A4BEF
:1044B0001B78184601F0D0F84FF0010001F06EFDB6
:1044C00080BD00BF2C0200202D0200202E02002003
:1044D0002F020020300200203102002080B400AF03
:1044E000034B4FF0F8021A70BD4680BC704700BF06
:1044F0003102002080B400AF034B4FF020021A704D
:10450000BD4680BC704700BF3102002080B400AFC0
:10451000034B4FF0D8021A70BD4680BC704700BFF5
:104520003102002080B400AF034B4FF0F0021A704C
:10453000BD4680BC704700BF3102002080B400AF90
:10454000034B4FF0D0021A70BD4680BC704700BFCD
:104550003102002080B400AF034B4FF000021A700C
:10456000BD4680BC704700BF3102002080B400AF60
:10457000034B4FF038021A70BD4680BC704700BF35
:104580003102002080B400AF034B4FF040021A709C
:10459000BD4680BC704700BF3102002080B400AF30
:1045A000034B4FF0E0021A70BD4680BC704700BF5D
:1045B0003102002080B487B000AF13460246FA7182
:1045C0000A46BA717B71BB79C3F10E03304A82FB94
:1045D00003024FEA62024FEAE373D31A7B617B79ED
:1045E00003F5FA627B69D31A3B61B9797A6913469C
:1045F0004FEA43039B184FEA8303CB18A3F102034E
:10460000FB60FA793B69D2183B69002B01DA03F1B0
:1046100003034FEAA303D2183B691E4981FB030140
:104620004FEA61114FEAE373CB1AD21A3B69194979
:1046300081FB03014FEAE1114FEAE373CB1AD11872
:10464000FA6813464FEA43139B1A114A82FB03028E
:104650004FEA62024FEAE373D31ACB1803F5DA5339
:1046600003F118030C4A82FB0312D2184FEAA2018D
:104670004FEAE372891A0A464FEAC202521A991A9D
:104680000B46184607F11C07BD4680BC704700BFAB
:10469000ABAAAA2A1F85EB519324499280B483B018
:1046A00000AF786000BF7B68002B0CBF00220122A6
:1046B000D2B203F1FF337B60002AF4D107F10C077B
:1046C000BD4680BC704700BF80B500AF4FF005000D
:1046D000FCF748FB4FF0640000F0C2F84FF0050013
:1046E000FCF71AFB80BD00BF80B58AB002AFF8604E
:1046F000B9603B601346FB80FB68002B02D101F0E0
:104700006BFDFEE7BB6A042B02D901F065FDFEE7F5
:10471000FB881846396B00F099FDB861BB69002B26
:104720007AD0BB691A6BFB8803F1FF334FEA83032E
:10473000D3187B617B6923F007037B617B6903F0FE
:104740000703002B02D001F047FDFEE7FB88009332
:10475000B869B968BA6A7B6B00F06EFC7869F96871
:104760003A6801F033FC03461A46BB691A60FB6ADB
:10477000002B02D0FB6ABA691A6001F007FD324BC8
:104780001B6803F10102304B1A60304B1B68002B91
:1047900009D12E4BBA691A602B4B1B68012B0FD124
:1047A00000F09AFC0CE02A4B1B68002B08D1274B29
:1047B0001B68DA6ABB6A9A4202D8244BBA691A604B
:1047C000244B1B6803F10102224B1A60214B1A682B
:1047D000BB691A64BB69DA6A1F4B1B689A4203D92A
:1047E000BB69DA6A1C4B1A60BB69DA6A13464FEA86
:1047F00083039B184FEA83031A46184BD218BB69F0
:1048000003F104031046194601F04CFA4FF001037E
:10481000FB6101F0CDFC02E04FF0FF33FB61FB696F
:10482000012B0BD10A4B1B68002B07D0074B1B68D1
:10483000DA6ABB6A9A4201D201F098FCFB69184619
:1048400007F12007BD4680BD0C0300203402002084
:10485000180300202C03002014030020380200203D
:1048600080B584B000AF78604FF00003FB607B68D8
:10487000002B13D000F062F80D4B1A687B68D31838
:10488000BB600C4B1B6803F10403184601F068FA87
:10489000B86800F0A3FC00F05FF8F860FB68002B3C
:1048A00001D101F063FC07F11007BD4680BD00BFD8
:1048B000100300203402002080B586B004AF1B4BEB
:1048C0004FF0000200924FF0000201924FF0000200
:1048D00002924FF000020392154819464FF08202EF
:1048E0004FF00003FFF700FF78607B68012B02D1D7
:1048F000FEF778FA78607B68012B0CD101F06CFC34
:104900000C4B4FF001021A600B4B4FF000021A6083
:1049100001F0BCFB05E07B68002B02D101F05CFCE0
:10492000FEE707F10807BD4680BD00BF8C7C00088C
:1049300015500008180300201003002080B400AFB9
:10494000044B1B6803F10102024B1A60BD4680BC98
:10495000704700BF1C03002080B582B000AF4FF04D
:1049600000037B603D4B1B68002B02D101F034FC3F
:10497000FEE701F00BFC394B1B6803F1FF32374BAC
:104980001A60364B1B68002B60D1354B1B68002B1F
:104990005CD036E0334BDB68DB683B603B6803F19F
:1049A0001803184601F0DCF93B6803F104031846CC
:1049B00001F0D6F93B68DA6A2B4B1B689A4203D99F
:1049C0003B68DA6A284B1A603B68DA6A13464FEA9A
:1049D00083039B184FEA83031A46244BD2183B6883
:1049E00003F104031046194601F05CF93B68DA6AEA
:1049F0001F4B1B68DB6A9A4203D31E4B4FF0010228
:104A00001A60184B1B68002BC4D11B4B1B68002B72
:104A100013D00EE000F044F80346002B03D0154BF2
:104A20004FF001021A60144B1B6803F1FF32124B66
:104A30001A60114B1B68002BECD10E4B1B68012B2D
:104A400004D14FF001037B6001F090FB01F0B0FB5B
:104A50007B68184607F10807BD4680BD1C0300208F
:104A60000C030020CC020020140300203802002098
:104A700034020020240300202003002080B582B0EF
:104A800000AF01F083FB054B1B687B6001F090FBDE
:104A90007B68184607F10807BD4680BD100300205B
:104AA00080B586B000AF4FF000037B61674B1B6899
:104AB000002B40F0B680664B1B6803F10102644B8B
:104AC0001A60634B1B683B613B69002B31D1614B22
:104AD0001B681B68002B02D001F07EFBFEE75D4BDC
:104AE0001B68FB605C4B1A685A4B1A605A4BFA6899
:104AF0001A605A4B1B6803F10102584B1A60554B60
:104B00001B681B68002B02D14FF0010301E04FF03E
:104B10000003002B04D0524B4FF0FF321A6008E024
:104B20004C4B1B68DB68DB68BB60BB685A684C4B4E
:104B30001A604B4B1B683A699A4259D300E000BF98
:104B4000444B1B681B68002B02D14FF0010301E0AE
:104B50004FF00003002B04D0414B4FF0FF321A609E
:104B600046E03C4B1B68DB68DB68BB60BB685B688E
:104B70007B603A697B689A4203D2394B7A681A6043
:104B800036E0BB6803F10403184601F0E9F8BB689E
:104B90009B6A002B05D0BB6803F11803184601F08F
:104BA000DFF8BB68DA6A2F4B1B689A4203D9BB68EF
:104BB000DA6A2C4B1A60BB68DA6A13464FEA830341
:104BC0009B184FEA83031A46274BD218BB6803F1A0
:104BD00004031046194601F065F8BB68DA6A234BF6
:104BE0001B68DB6A9A42AAD34FF001037B61A7E7F7
:104BF0001E4B1B68DA6A13464FEA83039B184FEA81
:104C000083031A46184BD3181B68012B02D94FF0A7
:104C100001037B61164B1B68002B0AD102F03CFBA1
:104C200007E0134B1B6803F10102114B1A6002F0FD
:104C300033FB104B1B68002B02D04FF001037B614C
:104C40007B69184607F11807BD4680BD1C0300208C
:104C500010030020C4020020C80200202803002006
:104C6000E800002014030020380200203402002055
:104C7000200300202403002080B582B000AF3C4B0D
:104C80001B68002B04D03B4B4FF001021A606AE016
:104C9000384B4FF000021A60374B1B681A68364BCE
:104CA0001B681B6B9A4209D8334B1A68324B1B683E
:104CB00003F134031046194602F0F4FA2E4B1B6838
:104CC0001B6B18462D494FF0140202F0C3FE034639
:104CD000002B17D0284B1A68274B1B6803F13403AD
:104CE0001046194602F0DEFA0CE0254B1B68002B3B
:104CF00002D101F071FAFEE7214B1B6803F1FF328C
:104D00001F4B1A601E4B1A6813464FEA83039B1809
:104D10004FEA83031A461B4BD3181B68002BE4D0C1
:104D2000174B1A6813464FEA83039B184FEA830315
:104D30001A46144BD3187B607B685B685A687B68A3
:104D40005A607B685A687B6803F108039A4204D171
:104D50007B685B685A687B685A607B685B68DB6865
:104D60001A46054B1A6007F10807BD4680BD00BF13
:104D70001C0300202403002034020020947C00083F
:104D8000140300203802002080B584B000AF7860A2
:104D900039607B68002B02D101F01EFAFEE7144B4C
:104DA0001B6803F118037868194600F09FFF104B49
:104DB0001B6803F10403184600F0D2FF3B68B3F10F
:104DC000FF3F08D10A4B1B6803F104030948194649
:104DD00000F068FF07E0084B1A683B68D318FB60D7
:104DE000F86800F0FBF907F11007BD4680BD00BF71
:104DF00034020020F80200201003002080B584B0A7
:104E000000AF786039607B68002B02D101F0E4F9D3
:104E1000FEE70D4B1B6803F118037868194600F094
:104E200041FF094B1B6803F10403184600F098FF8B
:104E3000064B1A683B68D318FB60F86800F0CEF99F
:104E400007F11007BD4680BD34020020100300208A
:104E500080B584B000AF78607B68DB68DB68BB60DE
:104E6000BB68002B02D101F0B7F9FEE7BB6803F184
:104E70001803184600F074FF224B1B68002B22D148
:104E8000BB6803F10403184600F06AFFBB68DA6AE6
:104E90001D4B1B689A4203D9BB68DA6A1A4B1A6029
:104EA000BB68DA6A13464FEA83039B184FEA830311
:104EB0001A46164BD218BB6803F104031046194674
:104EC00000F0F0FE06E0BB6803F118031048194635
:104ED00000F0E8FEBB68DA6A0E4B1B68DB6A9A4298
:104EE00007D34FF00103FB600B4B4FF001021A6038
:104EF00002E04FF00003FB60FB68184607F1100763
:104F0000BD4680BD1C030020140300203802002091
:104F1000CC020020340200202403002080B582B09F
:104F200000AF78607B68002B02D101F055F9FEE7F5
:104F3000054B1A687B681A60044B1A687B685A60D4
:104F400007F10807BD4680BD28030020100300209C
:104F500080B584B000AF786039607B68002B02D1E7
:104F600001F03AF9FEE73B68002B02D101F034F979
:104F7000FEE701F00BF91F4B1B68BB603B681B6829
:104F8000B3F1FF3F03D14FF00003FB6029E07B68E2
:104F90001A68194B1B689A4208D07B685A68BB682C
:104FA0009A4203D84FF00103FB601AE07B685B680C
:104FB000BA68D21A3B681B689A420FD23B681A68DB
:104FC0007B685968BB68CB1AD2183B681A6078684E
:104FD000FFF7A4FF4FF00003FB6002E04FF0010376
:104FE000FB6001F0E5F8FB68184607F11007BD46C5
:104FF00080BD00BF100300202803002080B400AF54
:10500000034B4FF001021A60BD4680BC704700BFE1
:105010002403002080B582B000AF786000F0A0F8D3
:10502000044B1B68012B01D901F0A0F802F02EF906
:10503000F4E700BF3802002080B586B000AFF8600A
:10504000B9607A603B604FF000037B6113E0BA689F
:105050007B69D3181A78F9687B69CB1803F13003A0
:105060001A71BA687B69D3181B78002B07D07B694B
:1050700003F101037B617B69092BE8D900E000BFE4
:10508000FB684FF0000283F83D207B68042B02D9B7
:105090004FF004037B60FB687A68DA62FB687A6829
:1050A0009A64FB6803F10403184600F0EDFDFB6809
:1050B00003F11803184600F0E7FDFB68FA681A616F
:1050C0007B68C3F10502FB689A61FB68FA685A6263
:1050D00007F11807BD4680BD80B582B000AF4FF024
:1050E00000037B6010E07A6813464FEA83039B1845
:1050F0004FEA83031A46124BD318184600F0A0FD5E
:105100007B6803F101037B607B68042BEBD90D48BE
:1051100000F096FD0C4800F093FD0C4800F090FD67
:105120000B4800F08DFD0B4800F08AFD0A4B054A44
:105130001A600A4B044A1A6007F10807BD4680BD91
:10514000380200209C020020B0020020CC02002087
:10515000E0020020F8020020C4020020C802002063
:1051600080B582B000AF2AE0FFF7E8FB184B1B6860
:10517000002B14BF002301237B60FFF7EDFB7B684E
:10518000002B1CD101F002F8114BDB68DB683B609F
:105190003B6803F10403184600F0E2FD0D4B1B6869
:1051A00003F1FF320B4B1A600B4B1B6803F1FF320C
:1051B000094B1A6000F0FCFF386800F081F8064BDC
:1051C0001B68002BD0D107F10807BD4680BD00BF8A
:1051D000E00200200C030020F402002080B582B021
:1051E00000AF7860144B1B687A685A60134B1B68D9
:1051F0007A689A420AD2124B1A680F4B1B6803F165
:1052000004031046194600F071FD11E00D4B1A68B9
:10521000094B1B6803F104031046194600F066FDB4
:10522000094B1B687A689A4202D2074B7A681A6067
:1052300007F10807BD4680BD34020020100300209E
:10524000C8020020C4020020E800002080B584B01D
:1052500000AF03463960FB804FF04C0002F030F89D
:105260000346FB60FB68002B23D03B68002B07D173
:10527000FB884FEA8303184602F022F8034600E059
:105280003B68FA681363FB681B6B002B06D1F86858
:1052900002F0B2F84FF00003FB600AE0FB681A6B03
:1052A000FB884FEA830310464FF0A5011A4602F02F
:1052B00077FCFB68184607F11007BD4680BD00BFAC
:1052C00080B582B000AF78607B681B6B184602F037
:1052D00093F8786802F090F807F10807BD4680BDA2
:1052E00080B483B000AF054B1B687B607B681846B9
:1052F00007F10C07BD4680BC704700BF3402002098
:1053000080B483B000AF0D4B1B68002B03D14FF06E
:1053100000037B600AE00A4B1B68002B03D14FF0AF
:1053200001037B6002E04FF002037B607B6818465C
:1053300007F10C07BD4680BC704700BF1803002072
:105340001C03002080B584B000AF78607B68FB60F0
:105350007B68002B50D0FB68DA6A294B1B68DB6A3C
:105360009A4249D2264B1B68DB6AC3F10502FB68EF
:105370009A61FB685969FB68DA6A13464FEA83034E
:105380009B184FEA83031A461E4BD318994202D149
:105390004FF0010301E04FF00003002B27D0FB6822
:1053A00003F10403184600F0DBFC154B1B68DA6AB6
:1053B000FB68DA62FB68DA6A134B1B689A4203D90E
:1053C000FB68DA6A104B1A60FB68DA6A13464FEA28
:1053D00083039B184FEA83031A460A4BD218FB68D3
:1053E00003F104031046194600F05CFC04E0044B92
:1053F0001B68DA6AFB68DA6207F11007BD4680BDF8
:1054000034020020380200201403002080B584B04C
:1054100000AF78607B68FB607B68002B31D0FB6855
:10542000DA6AFB689B6C9A422BD0FB6803F1040399
:10543000184600F095FCFB689A6CFB68DA62FB6822
:10544000DB6AC3F10502FB689A61FB68DA6A0F4BFD
:105450001B689A4203D9FB68DA6A0C4B1A60FB6836
:10546000DA6A13464FEA83039B184FEA83031A460E
:10547000074BD218FB6803F104031046194600F0ED
:1054800011FC07F11007BD4680BD00BF14030020CA
:105490003802002080B58AB000AF0346FB714FF0A0
:1054A000000387F82730684B1B78002B0BD0674B25
:1054B0001B78FA799A4203D14FF0010387F827301D
:1054C00097F82730BBE04FF480504FF00101FDF713
:1054D00045FC5F4B9B6818464FF00101FDF7FAFB56
:1054E0005B4B9B6918464FF00101FDF7F3FB584BEE
:1054F0009B6A18464FF00101FDF7ECFB544B1A680C
:10550000534B1B7B104619464FF0050200F02EFB53
:105510004F4B1A694E4B1B7F104619464FF0050240
:1055200000F024FB4A4B1A6A494B93F82C30104682
:1055300019464FF0050200F019FB4FF0020387F8FF
:1055400020304FF0020387F821304FF0000387F836
:1055500022304FF0020387F823303D4B9B88FB61DC
:105560003B4B1A6807F11C031046194600F03CFA41
:10557000374B9B8AFB61364B1A6907F11C031046B7
:10558000194600F031FA324B9B8CFB61304B1A6AA2
:1055900007F11C031046194600F026FA4FF00003ED
:1055A0003B814FF482737B814FF00003BB81FB7919
:1055B000002B06D14FF00003FB814FF000033B822C
:1055C00019E0FB79012B06D14FF00003FB814FF06E
:1055D00001033B820FE0FB79022B06D14FF002035F
:1055E000FB814FF000033B8205E04FF00203FB819B
:1055F0004FF001033B824FF400737B824FF038037E
:10560000BB824FF00003FB824FF007033B8307F19F
:1056100008031048194601F07FFA0E484FF00101C7
:1056200001F0C6FA084B4FF001021A70074BFA79E5
:105630001A704FF0010387F8273097F82730184683
:1056400007F12807BD4680BD30030020310300204C
:10565000EC0000200030014080B584B000AF03466C
:10566000FB714FF00003FB7300BF11484FF00201C4
:1056700001F0DAFA0346002BF7D0FB799BB20C4815
:10568000194601F0C3FA00BF09484FF0010101F0CB
:10569000CBFA0346002BF7D0054801F0A9FA0346E0
:1056A000FB73FB7B184607F11007BD4680BD00BFAA
:1056B0000030014090B484B000AF02460B46FA714E
:1056C000BB80FA79334913464FEAC3039B1A4FEA6A
:1056D000C303CB1803F130035B88FB81BB881F2B0E
:1056E00002D9BB887E2B02D9BB880D2B4DD1FA790C
:1056F000FC89BB88D9B2274813464FEAC3039B1ADB
:105700004FEAC3031B19C3180A461A70FB8903F139
:105710000103FB81FB89312B02D94FF00003FB8190
:10572000FA791C4913464FEAC3039B1A4FEAC30395
:10573000CB1803F13003FA895A80FA7915491346D8
:105740004FEAC3039B1A4FEAC303CB1803F130039C
:105750005988FA790F4813464FEAC3039B1A4FEA58
:10576000C303C31803F130039B8899420DD1FA7922
:10577000084913464FEAC3039B1A4FEAC303CB18E9
:1057800003F130034FF002029A7107F11007BD4692
:1057900090BC70476C2F012080B584B000AF0246EA
:1057A0000B46FA71BB804FF00003FB7319E0FA7BE4
:1057B0000F4913464FEAC3039B1A4FEAC303CB18A2
:1057C00003F110031B79FA799A4206D1FA7BBB8860
:1057D00010461946FFF76EFF06E0FB7B03F101035D
:1057E000FB73FB7B002BE2D007F11007BD4680BDA9
:1057F0001C01002080B582B000AF0B4840F225515B
:10580000FBF77EF90346012B0AD10748FBF766F93F
:105810000346FB80FB884FF025001946FFF7BCFFCD
:1058200007F10807BD4680BD0010014080B582B079
:1058300000AF0B4840F22551FBF762F90346012BFC
:105840000AD10748FBF74AF90346FB80FB884FF073
:1058500026001946FFF7A0FF07F10807BD4680BDE7
:105860000044004080B582B000AF0B4840F22551A3
:10587000FBF746F90346012B0AD10748FBF72EF93F
:105880000346FB80FB884FF027001946FFF784FF93
:1058900007F10807BD4680BD0048004080B582B0D2
:1058A00000AF0B4840F22551FBF72AF90346012BC4
:1058B0000AD10748FBF712F90346FB80FB884FF03B
:1058C00034001946FFF768FF07F10807BD4680BDA1
:1058D000004C004080B582B000AF0B4840F225512B
:1058E000FBF70EF90346012B0AD10748FBF7F6F840
:1058F0000346FB80FB884FF035001946FFF74CFF4D
:1059000007F10807BD4680BD0050004080B582B059
:1059100000AF0B4840F22551FBF7F2F80346012B8C
:105920000AD10748FBF7DAF80346FB80FB884FF003
:1059300047001946FFF730FF07F10807BD4680BD55
:105940000014014080B483B000AF02460B46FA71E8
:10595000BB80BB88FF2B02D94FF0FF03BB80FA79D5
:105960001F4913464FEA83039B184FEA8303CB1862
:105970005B78012B02D11B4BBA885A63FA7918491C
:1059800013464FEA83039B184FEA8303CB185B78D7
:10599000022B02D1134BBA889A63FA791049134645
:1059A0004FEA83039B184FEA8303CB185B78032BE2
:1059B00002D10C4BBA88DA63FA79094913464FEAE7
:1059C00083039B184FEA8303CB185B78042B02D127
:1059D000044BBA881A6407F10C07BD4680BC7047B7
:1059E000540100200004004080B487B000AF78600C
:1059F00039604FF000037B614FF000033B614FF0D3
:105A00000003FB604FF000037B6187E07B694FF090
:105A1000010202FA03F33B613B681A683B6902EA40
:105A20000303FB60FA683B699A4273D17B681A688A
:105A30007B694FEA43034FF0030101FA03F36FEA76
:105A400003031A407B681A607B681A683B681B79FD
:105A500019467B694FEA430301FA03F31A437B6853
:105A60001A603B681B79012B03D03B681B79022B22
:105A700034D17B689A687B694FEA43034FF0030196
:105A800001FA03F36FEA03031A407B689A607B68AC
:105A90009A683B685B7919467B694FEA430301FAD0
:105AA00003F31A437B689A607B685A687B699BB2F0
:105AB0004FF0010101FA03F36FEA03031A407B6818
:105AC0005A607B685A683B689B7919467B699BB230
:105AD00001FA03F39BB21A437B685A607B68DA6869
