:020000040800F2
:100000004837012035120008A9120008F76B0008D4
:10001000A9120008A9120008A91200080000000097
:100020000000000000000000000000002D78000823
:10003000A912000800000000C5790008157A000820
:10004000A9120008A9120008A9120008A9120008A4
:10005000A9120008A9120008A9120008A912000894
:10006000A9120008A9120008A9120008A912000884
:10007000A9120008A9120008A9120008A912000874
:10008000A9120008A9120008A9120008A912000864
:10009000A9120008A9120008A9120008A912000854
:1000A000A9120008A9120008A9120008A912000844
:1000B000A9120008A9120008A9120008A912000834
:1000C000A9120008A9120008A9120008A912000824
:1000D000A9120008A9120008A9120008A912000814
:1000E000A9120008A9120008A9120008A912000804
:1000F000A9120008A9120008A9120008A9120008F4
:10010000A9120008A9120008A9120008A9120008E3
:10011000A9120008A9120008A9120008653D0008EC
:10012000A9120008A9120008A9120008A9120008C3
:10013000A9120008A9120008A9120008A9120008B3
:10014000A9120008A9120008A9120008A9120008A3
:10015000A9120008A9120008A9120008A912000893
:10016000A9120008A9120008A9120008A912000883
:10017000A9120008A9120008A9120008A912000873
:10018000A9120008A912000880B582B000AF324B56
:100190001B78002B5AD14FF480004FF0010103F07F
:1001A000D5F92E4B9B6818464FF0010103F0ACF9CE
:1001B0002A4B9B6918464FF0010103F0A5F94FF453
:1001C00080004FF0010103F005FA4FF480004FF07A
:1001D000000103F0FFF9214B1A68204B1B7B1046EE
:1001E00019464FF0040206F0A7FC1C4B1A691B4B82
:1001F0001B7F104619464FF0040206F09DFC4FF09D
:1002000002033B714FF002037B714FF00103BB719E
:100210004FF00003FB71114B9B883B600F4B1A683A
:100220003B461046194606F0C5FB0C4B9B8A3B60CB
:100230000A4B1A693B461046194606F0BBFB00F014
:1002400003FC054B4FF001021A7000E000BF07F1FC
:100250000807BD4680BD00BF8001002000000020CF
:1002600080B584B000AF02460B46FA71BB714FF007
:1002700000037B814FF44053FB6079484FF001014C
:1002800007F07EFE4FF44053FB600DE0FB68002B4F
:1002900004D0FB6803F1FF33FB6005E04FF0FF3053
:1002A00000F0F8FB0346D4E06D486E4907F060FFAC
:1002B0000346002BEAD06A484FF0000107F0BEFE6B
:1002C000FB79674819464FF0000207F099FE4FF49A
:1002D0004053FB600DE0FB68002B04D0FB6803F18A
:1002E000FF33FB6005E06FF0010000F0D3FB034635
:1002F000AFE05B485C4907F03BFF0346002BEAD0C8
:10030000574B1B8B4FF44053FB600DE0FB68002BF9
:1003100004D0FB6803F1FF33FB6005E06FF00200DF
:1003200000F0B8FB034694E04D48504907F020FF29
:100330000346002BEAD0BB794948194607F0C2FEB4
:100340004FF44053FB600DE0FB68002B04D0FB68CA
:1003500003F1FF33FB6005E06FF0030000F09AFB50
:10036000034676E03E48414907F002FF0346002B72
:10037000EAD03B483E4907F0FBFE0346002BE3D0A2
:1003800037484FF0010107F0FBFD4FF44053FB608D
:100390000DE0FB68002B04D0FB6803F1FF33FB602A
:1003A00005E06FF0040000F075FB034651E02C48B7
:1003B0002C4907F0DDFE0346002BEAD0FB792848E4
:1003C00019464FF0010207F01BFE4FF44053FB604B
:1003D0000DE0FB68002B04D0FB6803F1FF33FB60EA
:1003E00005E06FF0050000F055FB034631E01C48C6
:1003F0001D4907F0BDFE0346002BEAD0184B1B8BAE
:100400004FF44053FB600DE0FB68002B04D0FB6809
:1004100003F1FF33FB6005E06FF0060000F03AFBEC
:10042000034616E00E48134907F0A2FE0346002BD0
:10043000EAD00B484FF0010107F0C2FD084807F071
:1004400051FE03467B8106484FF0010107F0F6FD9F
:100450007B891BB2184607F11007BD4680BD00BF5F
:100460000058004001000010020000108000001041
:10047000040000104000001080B584B000AF1346A7
:100480000246FA710A46BA717B714FF000037B8114
:100490004FF44053FB6055484FF0010107F070FDE9
:1004A0004FF44053FB600DE0FB68002B04D0FB6869
:1004B00003F1FF33FB6005E04FF0FF3000F0EAFA94
:1004C00003468DE049484A4907F052FE0346002B97
:1004D000EAD0FB79454819464FF0000207F090FD3D
:1004E0004FF44053FB600DE0FB68002B04D0FB6829
:1004F00003F1FF33FB6005E06FF0010000F0CAFA82
:1005000003466DE039483B4907F032FE0346002BB5
:10051000EAD0364B1B8B4FF44053FB600DE0FB6879
:10052000002B04D0FB6803F1FF33FB6005E06FF0A4
:10053000020000F0AFFA034652E02C482E4907F0C3
:1005400017FE0346002BEAD0BB792848194607F06E
:10055000B9FD4FF44053FB600DE0FB68002B04D065
:10056000FB6803F1FF33FB6005E06FF0030000F070
:1005700091FA034634E01D481F4907F0F9FD034690
:10058000002BEAD07B791948194607F09BFD4FF400
:100590004053FB600DE0FB68002B04D0FB6803F1C7
:1005A000FF33FB6005E06FF0040000F073FA0346D0
:1005B00016E00E48104907F0DBFD0346002BEAD099
:1005C0000A480E4907F0D4FD0346002BE3D0074844
:1005D0004FF0010107F0F4FC4FF000037B817B89B1
:1005E0001BB2184607F11007BD4680BD00580040F9
:1005F0000100001002000010800000100400001034
:1006000080B586B000AF13460246FA710A46BA7149
:100610007B714FF000033B824FF440537B617B7949
:10062000002B02D14FF6F87318E17B790A2B02D91F
:100630004FF6F77312E18C484FF0010107F0A0FC70
:100640004FF440537B610DE07B69002B04D07B6944
:1006500003F1FF337B6105E04FF0FF3000F01AFA41
:100660000346FBE08048814907F082FD0346002BEA
:10067000EAD07B79012B05D17B484FF0000107F0D0
:10068000DDFC04E078484FF0010107F0D7FCFB796E
:10069000754819464FF0000207F0B2FC4FF4405382
:1006A0007B610DE07B69002B04D07B6903F1FF3394
:1006B0007B6105E06FF0010000F0ECF90346CDE04E
:1006C00069486B4907F054FD0346002BEAD0664B9E
:1006D0001B8B4FF440537B610DE07B69002B04D0F2
:1006E0007B6903F1FF337B6105E06FF0020000F0EE
:1006F000D1F90346B2E05C485E4907F039FD034694
:10070000002BEAD0BB795848194607F0DBFC4FF4C0
:1007100040537B610DE07B69002B04D07B6903F1C2
:10072000FF337B6105E06FF0030000F0B3F903468F
:1007300094E04D484F4907F01BFD0346002BEAD0DB
:1007400049484D4907F014FD0346002BE3D04648C5
:100750004FF0010107F014FC4FF440537B610DE0B2
:100760007B69002B04D07B6903F1FF337B6105E0DB
:100770006FF0040000F08EF903466FE03A483B4901
:1007800007F0F6FC0346002BEAD0FB793648194601
:100790004FF0010207F034FC4FF440537B610DE051
:1007A0007B69002B04D07B6903F1FF337B6105E09B
:1007B0006FF0050000F06EF903464FE02A482C491F
:1007C00007F0D6FC0346002BEAD0274B1B8B4FF0DB
:1007D0000003FB7435E0FB7C03F101027B799A4254
:1007E00009DB21484FF0000107F028FC1E484FF0BC
:1007F000010107F0E5FB4FF440537B610DE07B699D
:10080000002B04D07B6903F1FF337B6105E06FF0BF
:10081000060000F03FF9034620E01348174907F0AF
:10082000A7FC0346002BEAD00F4807F05BFC034609
:10083000FB73FB7C124AF97BD154FB7C03F101036F
:10084000FB74FA7C7B799A42C5D307484FF00101CB
:1008500007F0F4FB4FF000033B823B8A1BB21846C3
:1008600007F11807BD4680BD005800400100001088
:100870000200001080000010040000104000001072
:10088000242F012080B586B000AF13460246FA71CE
:100890000A46BA717B714FF000033B824FF440531C
:1008A0007B617B79002B02D14FF6FA73BAE07B793A
:1008B0000A2B02D94FF6F973B4E05D484FF00101FD
:1008C00007F05EFB4FF440537B610DE07B69002B2A
:1008D00004D07B6903F1FF337B6105E04FF0FF300B
:1008E00000F0D8F803469DE05148524907F040FC1B
:1008F0000346002BEAD0FB794D4819464FF0000221
:1009000007F07EFB4FF440537B610DE07B69002BC9
:1009100004D07B6903F1FF337B6105E06FF00100D8
:1009200000F0B8F803467DE04148434907F020FC59
:100930000346002BEAD03E4B1B8B4FF440537B61A8
:100940000DE07B69002B04D07B6903F1FF337B61F1
:1009500005E06FF0020000F09DF8034662E03448C5
:10096000364907F005FC0346002BEAD0BB79304836
:10097000194607F0A7FB4FF440537B610DE07B69FC
:10098000002B04D07B6903F1FF337B6105E06FF03E
:10099000030000F07FF8034644E02548274907F0AC
:1009A000E7FB0346002BEAD04FF00003FB742CE07A
:1009B000FB7C234AD35CFB73FB7B1D48194607F085
:1009C00081FB4FF440537B610DE07B69002B04D029
:1009D0007B6903F1FF337B6105E06FF0040000F0F9
:1009E00059F803461EE01248144907F0C1FB0346BC
:1009F000002BEAD00E48134907F0BAFB0346002B40
:100A0000E3D0FB7C03F10103FB74FA7C7B799A420F
:100A1000CED307484FF0010107F0D2FA4FF00003A0
:100A20003B823B8A1BB2184607F11807BD4680BDC2
:100A3000005800400100001002000010800000106B
:100A4000242F01200400001080B584B000AF4FF0C7
:100A50000003BB804BF6FF73FB804FF000033B812C
:100A60004FF480637B814FF48043BB81074B3B6035
:100A700007484FF0010107F063FA3B460448194666
:100A800007F086F907F11007BD4680BDA08601007A
:100A90000058004080B584B000AF0346FB80FB885F
:100AA000FB810D484FF0010107F08AFA0A484FF028
:100AB000010107F0E3FA08484FF0000107F0DEFA01
:100AC000054807F025F9FFF7BFFFFB891BB2184661
:100AD00007F11007BD4680BD0058004080B582B0C8
:100AE00000AF4FF004004FF0010102F00DFD4FF098
:100AF00001033B714FF00003BB714FF00003FB712A
:100B00004FF003037B714FF480633B603B460C481E
:100B1000194605F04FFF4FF400633B603B46084821
:100B2000194605F047FF064B4FF400625A83044B09
:100B30004FF480621A8307F10807BD4680BD00BFED
:100B40000008024080B582B000AF02460B46FA7141
:100B5000BB71FFF7C3FF55484FF0010105F0F8FBEB
:100B6000BB79202B02D94FF02003BB71504BFA798F
:100B70005A704F4BBA791A704D4B4FF003029A706E
:100B80004B4B4FF00002DA7000F020FA484B5B78D4
:100B9000184600F0F1FA464B1B784FF01100194649
:100BA00000F016F9424B1B784FF01200194600F086
:100BB0000FF93F4B1B784FF01300194600F008F96E
:100BC0003B4B1B784FF01400194600F001F9384BED
:100BD0001B784FF01500194600F0FAF8344B1B78DB
:100BE0004FF01600194600F0F3F8314BDA78304B2D
:100BF0009B781046194600F0DBFA4FF000004FF0EA
:100C0000080100F0E5F84FF001004FF03F0100F05F
:100C1000DFF84FF002004FF03F0100F0D9F84FF03D
:100C200004004FF04F0100F0D3F84FF01C004FF0DC
:100C3000000100F0CDF81F4B4FF480625A831B482F
:100C40004FF0E10105F0B4FB1A4B4FF480621A83B8
:100C5000184B4FF480625A8314484FF0E20105F0BC
:100C6000A7FB144B4FF480621A834FF007004FF03C
:100C700004014FF0010200F04FF84FF007004FF071
:100C800005014FF0010200F047F84FF007004FF068
:100C900006014FF0010200F03FF800F0EBF84FF0D2
:100CA0000103184607F10807BD4680BD0038004023
:100CB000302F01200008024080B582B000AF78607C
:100CC000094B4FF400625A834FF00B0079684FF0E4
:100CD000050200F0A5F8044B4FF400621A8307F1F7
:100CE0000807BD4680BD00BF0008024080B582B045
:100CF00000AF78604FF00A0079684FF0050200F00D
:100D00008FF84FF0100079684FF0050200F088F876
:100D100007F10807BD4680BD80B584B000AF13461B
:100D20000246FA710A46BA717B71FB79184600F0E7
:100D300029F80346FB737B79002B0BD0BB794FF06E
:100D4000010202FA03F3DAB2FB7B42EA0303DBB2ED
:100D5000FB730DE0BB794FF0010202FA03F3DBB243
:100D60006FEA0303DAB2FB7B02EA0303DBB2FB7335
:100D7000FA79FB7B1046194600F02AF807F11007B4
:100D8000BD4680BD80B584B000AF0346FB710E4BFD
:100D90004FF480625A83FB7903F01F03DBB20B48E8
:100DA000194605F005FB09484FF0FF0105F000FB6F
:100DB0000346FB73044B4FF480621A83FB7B184697
:100DC00007F11007BD4680BD000802400038004012
:100DD00080B582B000AF02460B46FA71BB710E4B74
:100DE0004FF480625A83FB7903F01F03DBB243F0B8
:100DF0002003DBB20948194605F0DAFABB79074847
:100E0000194605F0D5FA044B4FF480621A8307F1B6
:100E10000807BD4680BD00BF000802400038004002
:100E200080B584B000AFB96013460246FA73FB7117
:100E30000E4B4FF480625A83FB7B03F01F03DBB23F
:100E400043F02003DBB20A48194605F0B1FAFB79FA
:100E50009BB20748B9681A4605F0FCFA034B4FF4F9
:100E600080621A8307F11007BD4680BD000802406A
:100E70000038004080B500AF194B4FF480625A83B0
:100E800018484FF0E20105F093FA154B4FF48062D9
:100E90001A834FF007004FF004014FF00102FFF7F3
:100EA0003BFF4FF007004FF005014FF00102FFF745
:100EB00033FF4FF007004FF006014FF00102FFF73C
:100EC0002BFF074B4FF400625A834FF000004FF0A6
:100ED0000B01FFF77DFF024B4FF400621A8380BDC8
:100EE000000802400038004080B582B000AF786052
:100EF0000E4B4FF480625A830D484FF0610105F0AC
:100F000057FA0C4B1B780A4879687A6805F07EFA24
:100F1000064B4FF480621A834FF007004FF04001F8
:100F2000FFF756FF07F10807BD4680BD00080240E5
:100F300000380040302F012080B582B000AF00F0B3
:100F400029F80346FB71FB7903F04003002B02D024
:100F50004FF0010307E000F00BF80346002B14BF2D
:100F600000230123DBB2184607F10807BD4680BD08
:100F700080B582B000AF4FF01700FFF703FF0346C4
:100F8000FB71FB7903F00103DBB2184607F1080798
:100F9000BD4680BD80B582B000AF0A4B4FF4806281
:100FA0005A8309484FF0FF0105F002FA0346FB712E
:100FB000044B4FF480621A83FB79184607F1080747
:100FC000BD4680BD000802400038004080B582B0B8
:100FD00000AF4FF000004FF00801FFF7F9FE4FF0AF
:100FE00001004FF03F01FFF7F3FE4FF002004FF01A
:100FF0000301FFF7EDFE4FF003004FF00301FFF791
:10100000E7FE4FF004004FF00301FFF7E1FE4FF061
:1010100005004FF00201FFF7DBFE4FF006004FF036
:101020000E01FFF7D5FE4FF007004FF00E01FFF75E
:10103000CFFE4FF008004FF00001FFF7C9FE4FF060
:1010400009004FF00001FFF7C3FE4FF0E7033B70CC
:101050004FF0E7037B704FF0E703BB704FF0E703FF
:10106000FB704FF0E7033B713B464FF00A00194617
:101070004FF00502FFF7D4FE4FF0C2033B704FF074
:10108000C2037B704FF0C203BB704FF0C203FB7012
:101090004FF0C2033B713B464FF00B0019464FF037
:1010A0000502FFF7BDFE4FF00C004FF0C301FFF744
:1010B0008FFE4FF00D004FF0C401FFF789FE4FF097
:1010C0000E004FF0C501FFF783FE4FF00F004FF009
:1010D000C601FFF77DFE4FF0E7033B704FF0E703DB
:1010E0007B704FF0E703BB704FF0E703FB704FF0EE
:1010F000E7033B713B464FF0100019464FF00502E5
:10110000FFF78EFE4FF011004FF00001FFF760FE79
:101110004FF012004FF00001FFF75AFE4FF013009E
:101120004FF00001FFF754FE4FF014004FF00001A4
:10113000FFF74EFE4FF015004FF00001FFF748FE9D
:101140004FF016004FF00001FFF742FE4FF017007E
:101150004FF01101FFF73CFE4FF01C004FF0000173
:10116000FFF736FE4FF01D004FF00001FFF730FE95
:1011700007F10807BD4680BD80B582B000AF0346C9
:10118000FB71FB797D2B0DD8084B5B78FA799A427D
:1011900008D0064BFA795A70FB794FF005001946D2
:1011A000FFF716FE07F10807BD4680BD302F01206E
:1011B00080B584B000AF02460B46FA71BB714FF0A8
:1011C0000003FB731A4BFA79DA70194BBA799A70EB
:1011D000FB79002B04D1FB7B43F00803FB7306E093
:1011E000FB79022B03D1FB7B43F02003FB73BB791C
:1011F000032B04D1FB7B43F00603FB730EE0BB79AA
:10120000022B04D1FB7B43F00403FB7306E0BB79A4
:10121000012B03D1FB7B43F00203FB73FB7B4FF0FD
:1012200006001946FFF7D4FD07F11007BD4680BD43
:10123000302F012080B582B000AF154B7B60154B7D
:101240003B600BE07B681A683B681A603B6803F1FF
:1012500004033B607B6803F104037B603A680E4B38
:101260009A42EFD30D480E494FF000028842B8BFB2
:1012700040F8042BFADBDFF82C00016841F4700120
:10128000016000F0CBF907F10807BD4680BD00BF43
:101290002A92000800000020800100208001002028
:1012A000442F012088ED00E080B400AFFEE700BFCE
:1012B00080B584B000AF4FF00003FB7356E0FA7BBB
:1012C0002E4913464FEA83039B184FEA8303CB183A
:1012D00003F10C031B6818464FF0010102F014F9EA
:1012E000FA7B264913464FEA83039B184FEA830390
:1012F000CB1803F108031B887B604FF001033B729E
:101300004FF00003BB724FF00103FB724FF002037A
:101310007B72FA7B194913464FEA83039B184FEA05
:101320008303CB1803F104031A6807F10403104682
:10133000194605F03FFBFA7B104913464FEA830339
:101340009B184FEA8303CB1803F110031B78002B83
:1013500004D1FB7B184600F013F803E0FB7B184632
:1013600000F034F8FB7B03F10103FB73FB7B052BDF
:10137000A5D907F11007BD4680BD00BF20000020A1
:1013800080B483B000AF0346FB71FA790E4913466F
:101390004FEA83039B184FEA8303CB1803F104033E
:1013A0001968FA79084813464FEA83039B184FEAF5
:1013B0008303C31803F108031B884B8307F10C0751
:1013C000BD4680BC704700BF2000002080B483B0C1
:1013D00000AF0346FB71FA790E4913464FEA8303C7
:1013E0009B184FEA8303CB1803F104031968FA79B9
:1013F000084813464FEA83039B184FEA8303C31838
:1014000003F108031B880B8307F10C07BD4680BC62
:10141000704700BF2000002090B482B000AF0346A8
:10142000FB71FA79154913464FEA83039B184FEA7B
:101430008303CB1803F104031968FA790F481346A4
:101440004FEA83039B184FEA8303C31803F1040395
:101450001B685869FA79094C13464FEA83039B18B5
:101460004FEA8303E31803F108031B8880EA0303B0
:101470004B6107F10807BD4690BC70472000002073
:1014800080B500AF02F096FBFFF712FF4FF00000AF
:1014900002F0E8FBFEF778FE05F02AFD04F076FD89
:1014A0004FF010004FF00401FFF74CFB4FF000002D
:1014B0004FF00001FFF77CFE4648FFF7FDFB464872
:1014C000FFF714FC454B4FF001021A704FF08000FB
:1014D0004FF0E6014FF00102FFF7D4F942F2342059
:1014E0004FF0090107F05EFC03461A463C4B1A70A8
:1014F00042F235204FF0090107F054FC03461A462A
:10150000384B1A7042F236204FF0090107F04AFCBE
:1015100003461A46344B1A7042F237204FF0090145
:1015200007F040FC03461A46304B1A7042F238204E
:101530004FF0090107F036FC03461A462C4B1A708F
:1015400042F239204FF0090107F02CFC03461A46FD
:10155000284B1A70244B1A78274B1A70204B1A7894
:10156000264B1A70254B1A781E4B1B78D318DAB20B
:10157000234B1A70224B1A781B4B1B78D318DAB204
:10158000204B1A701F4B1A781B4B1B78D318DAB2FA
:101590001D4B1A701C4B1A78154B1B78D318DAB2F6
:1015A0001A4B1A70194B1A78104B1B78D318DAB2F1
:1015B000174B1A70174B4FF000021A704FF00500CE
:1015C000FFF704FF144803F0D5FC4FF00500FFF7C8
:1015D000D7FE80BDA000002098000020242F01200D
:1015E000A4010020A5010020A6010020A7010020E1
:1015F000A8010020AA010020A9010020B9010020B3
:10160000BD010020BB010020BC010020BE01002064
:10161000BA010020BF010020404B4C0080B584B0CF
:1016200004AF05F0AFFBFFF72BFF4B4B4FF0010270
:1016300000924FF0000201924FF0000202924FF030
:1016400000020392454819464FF082024FF0000312
:1016500003F0B6FC424B4FF0010200924FF0000243
:1016600001924FF0000202924FF0000203923D48B7
:1016700019464FF082024FF0000303F0A1FC3A4BF1
:101680004FF0010200924FF0000201924FF0000271
:1016900002924FF000020392344819464FF0820242
:1016A0004FF0000303F08CFC314B4FF0010200922D
:1016B0004FF0000201924FF0000202924FF0000240
:1016C00003922C4819464FF082024FF0000303F0BA
:1016D00077FC294B4FF0010200924FF0000201927B
:1016E0004FF0000202924FF0000203922348194685
:1016F0004FF082024FF0000303F062FC204B4FF0EA
:10170000010200924FF0000201924FF0000202929B
:101710004FF0000203921B4819464FF082024FF02F
:10172000000303F04DFC184B4FF0010200924FF004
:10173000000201924FF0000202924FF00002039269
:10174000124819464FF082024FF0000303F038FCB4
:1017500003F01EFDFEE700BF9C910008AD190008D4
:10176000AC910008411B0008B49100082119000841
:10177000C091000879240008D4910008D919000804
:10178000E091000849180008F4910008911700083A
:1017900080B582B000AF786004E000BF02E000BF17
:1017A00000E000BF224B1B78002BF6D1214B1B78A9
:1017B000002BF4D1204B1B781A46204B1B784FF49A
:1017C0007A7101FB03F31E4981FB03014FEA6111AA
:1017D0004FEAE373CB1A9A42E3DA1A4B1B78092BD0
:1017E00006D803F00BFB4FF0010002F019FC05E0F6
:1017F00003F0E0FA4FF0010002F012FC4FF4B47075
:1018000003F09AFC0F4B1B78092B06D803F002FB60
:101810004FF0000002F004FC05E003F0E3FA4FF0A3
:10182000000002F0FDFB4FF4B47003F085FCB9E753
:10183000AB010020BF010020A2010020A401002074
:101840001F85EB519D01002080B584B000AF78600A
:101850004FF00003FB7306F081F84FF0D0004FF01B
:1018600000014FF00602FEF7CBFE0346FB73FB7B45
:10187000002B3ED1224B1B78184602F059FB034641
:101880001A46204B1A701E4B5B78184602F050FB2C
:1018900003461A461C4B1A70194B9B78184602F0E7
:1018A00047FB03461A46194B1A70154BDB7818464E
:1018B00002F03EFB03461A46154B1A70104B1B797B
:1018C000184602F035FB03461A46124B1A700C4BB1
:1018D0005B79184602F02CFB03461A460E4B1A7031
:1018E000074B9B79184602F023FB03461A460B4B25
:1018F0001A7006F045F84FF0640003F01DFCAAE7EB
:10190000242F01209B0100209C0100209D0100202C
:101910009F0100209E010020A0010020A1010020C5
:1019200080B582B000AF786006F018F8FFF704FBCE
:101930000346012B0BD11B48FFF7D6FA1A4B4FF089
:1019400000021A704FF00100FFF71AFD22E04FF07D
:101950000100FFF73BFD144B1B7803F10103DAB2E2
:10196000114B1A70104B1B78042B13D90D4B4FF0F1
:1019700009021A700B4B4FF009025A70094B4FF0D5
:1019800009029A70074B4FF00902DA70064B4FF0CC
:1019900001021A7005F0F4FF41F2883003F0CCFB2D
:1019A000C2E700BF3C2F0120B601002080B582B005
:1019B00000AF78604FF00200FFF72EFD054B1B785B
:1019C00003F10103DAB2034B1A704FF47A7003F09B
:1019D000B3FBEFE7A201002080B582B000AF7860D2
:1019E000484B1B78002B0FD0464B1B78042B0BD099
:1019F000444B1B780D2B07D0424B1B78112B03D087
:101A0000404B1B78152B14D13F4B1B780A2B0BD066
:101A10003D4B1B78142B07D03B4B1B78232B03D05B
:101A2000394B1B78322B04D1384B4FF001021A701E
:101A300003E0364B4FF000021A704FF0000002F046
:101A400011F90346002B3DD003F0AAFA304B1B7866
:101A5000002B04D12E4B4FF001021A702AE02C4BC0
:101A60001B7803F10103DAB2294B1A70294B4FF0AE
:101A700000021A70284B4FF000021A70274B4FF0EB
:101A800000021A70264B4FF000021A70254B4FF0DF
:101A900000021A70244B4FF000021A70234B4FF0D3
:101AA00000021A70224B4FF000021A70214B4FF0C7
:101AB00000021A70164B1B780B2B03D1144B4FF0FE
:101AC00000021A704FF0010002F0CCF80346002B20
:101AD00005D0194B4FF001021A7003F061FA4FF074
:101AE000020002F0BFF80346002B05D0134B4FF065
:101AF00001021A7003F054FA4FF0020003F01CFBCD
:101B00006EE700BF9D0100209C010020BF01002066
:101B1000AB010020AC010020AD010020AE0100208F
:101B2000AF010020B0010020B1010020B20100206F
:101B3000B3010020B5010020B7010020B80100204A
:101B400080B584B000AF78604FF00003FB730B4B9F
:101B50001B78002B14D04FF000004FF0000104F070
:101B60001DFA4FF001004FF0400104F017FA4FF05A
:101B700002004FF0000104F011FAD7E1AB010020A0
:101B8000824B1B78012B40F0BF81814B1B780A2BC5
:101B900040F289807E4B1B78132B00F28480FB7B04
:101BA000002B02D14FF00103FB73FB7B012B10D103
:101BB000BB7B03F10103BB734FF000037B734FF05A
:101BC00000033B73BB7B5BB2002B02DA4FF00203D6
:101BD000FB73FB7B022B0AD17B7B03F101037B733D
:101BE0007B7B5BB2002B02DA4FF00303FB73FB7BC2
:101BF000032B09D1BB7B03F1FF33BB73BB7B002BF2
:101C000002D14FF00403FB73FB7B042B0AD13B7B17
:101C100003F101033B733B7B5BB2002B02DA4FF015
:101C20000503FB73FB7B052B09D17B7B03F1FF33A2
:101C30007B737B7B002B02D14FF00603FB73FB7B96
:101C4000062B0AD1BB7B03F10103BB73BB7B5BB2E9
:101C5000002B02DA4FF00703FB73FB7B072B09D144
:101C60003B7B03F1FF333B733B7B002B02D14FF0F7
:101C70000003FB733B7B9BB24FF00000194604F05E
:101C80008DF9BB7B9BB24FF00100194604F086F939
:101C90007B7B9BB24FF00200194604F07FF94FF0B6
:101CA0001E0003F049FA3A4B1B78132B40F28B804D
:101CB000374B1B78162B00F28680FB7B002B02D162
:101CC0004FF00103FB73FB7B012B0FD1BB7B03F1B7
:101CD0000103BB734FF000037B734FF000033B73B2
:101CE000BB7B0F2B02D94FF00203FB73FB7B022B54
:101CF00009D17B7B03F101037B737B7B0F2B02D923
:101D00004FF00303FB73FB7B032B09D1BB7B03F178
:101D1000FF33BB73BB7B002B02D14FF00403FB737B
:101D2000FB7B042B09D13B7B03F101033B733B7B22
:101D30000F2B02D94FF00503FB73FB7B052B09D159
:101D40007B7B03F1FF337B737B7B002B02D14FF056
:101D50000603FB73FB7B062B09D1BB7B03F101035D
:101D6000BB73BB7B0F2B02D94FF00703FB73FB7BCD
:101D7000072B0FD13B7B03F1FF333B733B7B002BE6
:101D800008D14FF00003FB7304E000BFAA0100205C
:101D90009D0100203B7B9BB24FF00000194604F0F0
:101DA000FDF8BB7B9BB24FF00100194604F0F6F83A
:101DB0007B7B9BB24FF00200194604F0EFF84FF026
:101DC000280003F0B9F95C4B1B78082B11D84FF0B1
:101DD00000004FF0000104F0E1F84FF001004FF077
:101DE000000104F0DBF84FF002004FF0000104F0B6
:101DF000D5F8514B1B78082B40F298804E4B1B783E
:101E0000092B00F29380FB7B002B02D14FF00103E2
:101E1000FB73FB7B012B0FD1BB7B03F10103BB7376
:101E20004FF000037B734FF000033B73BB7B0F2B22
:101E300002D94FF00203FB73FB7B022B09D17B7BA2
:101E400003F101037B737B7B0F2B02D94FF003035C
:101E5000FB73FB7B032B09D1BB7B03F1FF33BB730C
:101E6000BB7B002B02D14FF00403FB73FB7B042BE5
:101E700009D13B7B03F101033B733B7B0F2B02D961
:101E80004FF00503FB73FB7B052B09D17B7B03F133
:101E9000FF337B737B7B002B02D14FF00603FB7378
:101EA000FB7B062B09D1BB7B03F10103BB73BB7B1F
:101EB0000F2B02D94FF00703FB73FB7B072B09D1D4
:101EC0003B7B03F1FF333B733B7B002B02D14FF095
:101ED0000003FB733B7B9BB24FF00000194604F0FC
:101EE0005DF8BB7B9BB24FF00100194604F056F839
:101EF0007B7B9BB24FF00200194604F04FF84FF085
:101F0000280003F019F911E04FF000004FF0000134
:101F100004F044F84FF001004FF0000104F03EF8E7
:101F20004FF002004FF0000104F038F84FF00300CA
:101F300003F002F90BE600BF9D01002090B591B0BF
:101F400000AF4FF00003FB874FF00003BB874FF05B
:101F500000037B874FF000033B874FF00003FB86B5
:101F60004FF00003BB864FF000037B864FF0000369
:101F70003B864FF00003FB854FF00003BB854FF01D
:101F800000037B854FF000033B8505F0E7FC4FF035
:101F9000EF004FF0AA01FEF763F903469BB24FEA48
:101FA00003239CB24FF0EF004FF0AB01FEF758F95E
:101FB00003469BB2E3189BB2BB874FF0EF004FF094
:101FC000AC01FEF74DF903469BB24FEA03239CB2E6
:101FD0004FF0EF004FF0AD01FEF742F903469BB220
:101FE000E3189BB27B874FF0EF004FF0AE01FEF796
:101FF00037F903469BB24FEA03239CB24FF0EF0040
:102000004FF0AF01FEF72CF903469BB2E3189BB2E9
:102010003B874FF0EF004FF0B001FEF721F9034688
:102020009BB24FEA03239CB24FF0EF004FF0B10197
:10203000FEF716F903469BB2E318FB864FF0EF005C
:102040004FF0B201FEF70CF903469BB24FEA0323AF
:102050009CB24FF0EF004FF0B301FEF701F90346D9
:102060009BB2E318BB864FF0EF004FF0B401FEF7D0
:10207000F7F803469BB24FEA03239CB24FF0EF0000
:102080004FF0B501FEF7ECF803469BB2E3187B86F0
:102090004FF0EF004FF0B601FEF7E2F803469BB2B7
:1020A0004FEA03239CB24FF0EF004FF0B701FEF769
:1020B000D7F803469BB2E3189BB23B864FF0EF0084
:1020C0004FF0B801FEF7CCF803469BB24FEA03236A
:1020D0009CB24FF0EF004FF0B901FEF7C1F8034694
:1020E0009BB2E3189BB2FB854FF0EF004FF0BA01B3
:1020F000FEF7B6F803469BB24FEA03239CB24FF0BB
:10210000EF004FF0BB01FEF7ABF803469BB2E318BC
:102110009BB2BB854FF0EF004FF0BC01FEF7A0F87B
:1021200003469BB24FEA03239CB24FF0EF004FF0FF
:10213000BD01FEF795F803469BB2E3189BB27B8581
:102140004FF0EF004FF0BE01FEF78AF803469BB256
:102150004FEA03239CB24FF0EF004FF0BF01FEF7B0
:102160007FF803469BB2E3189BB23B8505F008FC61
:1021700005F0F4FB4FF0EF004FF0F4014FF02E02AA
:10218000FEF77AF905F0FCFB4FF0050002F0D4FFF2
:1021900005F0E4FB4FF0EF004FF0F601FEF760F8BA
:1021A00003464FEA03244FF0EF004FF0F701FEF72C
:1021B00057F80346E3187B6205F0E2FB05F0CEFB1F
:1021C0004FF0EF004FF0F4014FF03402FEF754F9F6
:1021D00005F0D6FB4FF0050002F0AEFF05F0BEFBA8
:1021E0004FF0EF004FF0F601FEF73AF803464FEAE2
:1021F00003244FF0EF004FF0F701FEF731F80346EC
:10220000E3183B6205F0BCFB7B8E7A6AD31ABA8E68
:1022100002FB03F34FEAD333FB61B7F92A304FEAED
:10222000C322B7F92810FB69CB1892FBF3F37B8329
:10223000FB699AB27B8BD3189BB23B83B7F91830FA
:1022400003F10803002B01DA03F10F034FEA231314
:102250009AB2814B1A803B8BA3F57A639BB2FB82C7
:10226000B7F93C304FEA8302B7F92E30B7F91610B0
:1022700001FB03F3002B03DA03F57E6303F11F0375
:102280004FEA23331946B7F93A30CB18B7F916108D
:1022900001FB03F3002B03DA03F5FE6303F10F03E5
:1022A0004FEAE323D31803F10203002B01DA03F111
:1022B00003034FEAA303BB82B7F93820B7F93030E4
:1022C0004FEA4303B7F9161001FB03F3D318B7F92C
:1022D000162002FB03F3002B03DA03F1005303F192
:1022E000FF334FEA637303F10203FB61FA8EFB696C
:1022F000002B01DA03F103034FEAA30303F50043C4
:1023000003FB02F34FEAD3337B82B7F914303A6A06
:10231000D31A4CF2503202FB03F3FB60FA686FF001
:1023200078439A4206D8FB684FEA43027B8AB2FBA5
:10233000F3F305E07B8AFA68B2FBF3F34FEA430359
:10234000464A1360454B1B68002B01DA03F1FF037B
:102350004FEA23231A46414B1B68002B01DA03F195
:10236000FF034FEA232303FB02F340F6DE3202FBB6
:1023700003F23A4B1B683A4901FB03F3D318002BD5
:1023800003DA4FF6FF729A1813464FEA234303F518
:102390006C6303F10F03002B01DA03F10F034FEA23
:1023A00023131A462D4B1B68D2182C4B1A602B4B4B
:1023B0001A6813464FEA83039B184FEA0312D31A95
:1023C000284A82FB03124FEA22324FEAE373D21A01
:1023D000224B1A6005F0C2FA4FF080004FF0E50181
:1023E0004FF00302FEF70CF905F0CAFA1E4B1B78FA
:1023F000FB87FB8F4FEA0323FB871B4B5B781A4657
:10240000FB8FD318FB87FB8F23F00303FB87FB8F26
:1024100007EE903AB8EEE77ADFED147AC7EE277A46
:10242000C7ED027A97ED027ADFED117A67EE277A2F
:10243000B1EE087A77EEC77AC7ED017AD7ED017A67
:10244000FDEEE77A17EE903A9AB20A4B1A8007F13E
:102450004407BD4690BD00BF8C01002088010020CC
:1024600043E3FFFFAD8BDB68242F01200000804792
:102470000000FA429001002080B586B000AF78607D
:102480004FF00003FB754FF00003BB754FF00003E6
:102490007B754FF000033B754FF00003FB744FF06A
:1024A0000003BB744FF000037B744FF000033B74D8
:1024B0004FF00003FB734FF00003BB734FF00003BA
:1024C0003B734FF000037B730B4B1B78002B40F0EA
:1024D0009D800A4B1B78012B40F09880084B1B789D
:1024E00003F10103DAB2064B1A7002F063FC4FF0FD
:1024F00000037B7386E000BFAB010020BF0100201A
:10250000A30100207B7B002B05D07B7B032B02D01B
:102510007B7B062B07D14FF0010001F025FE4FF029
:10252000010001F07DFD7B7B012B05D07B7B042B23
:1025300002D07B7B072B07D14FF0010001F04EFE4C
:102540004FF0010001F03AFD7B7B022B05D07B7B35
:10255000052B02D07B7B082B09D14FF0010001F045
:1025600077FE4FF0010001F08DFD02F023FC4FF0EB
:10257000010001F0B9FD7B7B1A464FEA8202D218B6
:102580004FEA4202D318DAB27B7B19464FEA810147
:10259000C9184FEA4101CB18DBB21046194602F0C8
:1025A00069FB7B7B9BB21A464FEAC202D21A4FEA02
:1025B0000212D31A9BB24FF00C00194601F024FF0F
:1025C00002F0C2FB4FF0500002F0B6FD01F0F8FE41
:1025D0004FF0000001F0C8FD4FF0000001F020FDB9
:1025E00002F000FC4FF0000001F032FE4FF000005E
:1025F00001F07AFD4FF0C80002F09EFD7B7B03F1F5
:1026000001037B737B7B092B7FF67CAF944B1B789C
:10261000002B40F00081934B1B78002B40F0FB8097
:10262000914B1A78914B1B789A4210D2904B1B78A1
:102630004FF00400194601F0E7FE8E4B1A788E4BDE
:102640001B781046194602F015FB02F07DFB864B05
:102650001A78864B1B789A4213D9834B1A78874B8A
:102660001B789A420DD202F0E1FBFFF767FC844B26
:102670001B689BB24FF00300194601F0C5FE02F043
:1026800063FB794B1A787D4B1B789A4219D9764BAC
:102690001A787C4B1B789A4213D202F0DFFBFFF7CB
:1026A0004DFC4FF000004FF00A0102F0E3FA764BC8
:1026B0001B889BB24FF00000194601F0A5FE02F006
:1026C00043FB694B1A786F4B1B789A4259D9664B7A
:1026D0001A786E4B1B789A4253D202F0BFFB4FF030
:1026E00000004FF0140102F0C5FA694B1B781A463E
:1026F000674B9B7819464FEA8101CB1819464FEA80
:10270000810019460346CB184FEA830399B2604B08
:102710005B7818464FEA8000C3184FEA43039BB228
:10272000CB189BB2D3189BB29AB25A4B1A80584B13
:10273000DB78092B09D1574B1B889BB24FF00D005A
:10274000194601F061FE02F0FFFA514BDB782B2BAA
:1027500009D1504B1B889BB24FF00000194601F085
:1027600053FE02F0F1FA4A4BDB782D2B09D1494B8D
:102770001B889BB24FF00100194601F045FE02F0A4
:10278000E3FA394B1A78414B1B789A4217D9364BEA
:102790001A78414B1B789A4211D202F05FFB4FF03E
:1027A00000004FF00A0102F065FA3C4B1B889BB217
:1027B0004FF00200194601F027FE02F0C5FA2A4B3D
:1027C0001A78354B1B789A4217D9274B1A78344B15
:1027D0001B789A4211D202F0EDFA324B1A78324B42
:1027E0001B781046194602F045FA4FF00A004FF0E8
:1027F000000101F009FE02F0A7FA1B4B1A78284BE2
:102800001B789A4203D9184B4FF000021A704FF010
:10281000320002F091FC124B1B78012B40F0D1806A
:10282000224B1B78002B06D1134B1B78BB751F4B1B
:102830004FF001021A701E4B1B78012B3AD1BB7D61
:1028400003F10103BB7597F916303B2B02DD4FF006
:102850000003BB75164B4FF000021A702AE000BF50
:10286000AB010020BF010020A2010020B90100201F
:102870009B0100209D0100209C010020BD01002043
:1028800088010020BB0100208C010020BC01002039
:102890003C2F012094010020BE0100209001002067
:1028A000BA0100209E010020A0010020AC01002000
:1028B000B7010020954B1B78012B0ED1BB7D03F196
:1028C000FF33BB7597F91630002B02DA4FF03B034C
:1028D000BB758E4B4FF000021A7002F0B3FA8C4BAE
:1028E0001B784FF00500194601F08EFD894B1A78D0
:1028F000BB7D1046194602F0BDF902F025FA4FF0F3
:10290000640002F019FC02F055FA814B1B784FF07D
:102910000500194601F078FD7E4B1A78BB7D104604
:10292000194602F0A7F902F00FFA7B4B1B78012B36
:102930000ED1BB7D03F10103BB7597F916303B2B1C
:1029400002DD4FF00003BB75734B4FF000021A70AD
:102950006E4B1B78012B0AD1BB7D03F1FF33BB7596
:1029600097F91630002B02DA4FF03B03BB754FF09E
:102970001E0001F0F9FA0346DAB2684B1A7097F9B3
:102980001630184601F0F0FA0346DAB2634B5A707B
:10299000604B1B78184601F0E7FA0346DAB25F4B4A
:1029A0009A7004F0DBFF4FF0D0004FF000014FF0C1
:1029B0000302FDF767FF04F0E3FF4FF0640002F04D
:1029C000BBFB574B1B78022B40F0B680554B1B7856
:1029D000002B06D14F4B1B78FB75524B4FF0010279
:1029E0001A704D4B1B78012B0AD1FB7D03F10103BB
:1029F000FB7597F91730172B02DD4FF00003FB75BD
:102A0000424B1B78012B0ED1FB7D03F1FF33FB758D
:102A100097F91730002B02DA4FF01703FB753B4B89
:102A20004FF000021A7002F025FA394B1B784FF074
:102A30000500194601F0E8FCFA7D3B4B1B78104677
:102A4000194602F017F902F07FF94FF0640002F026
:102A500073FB02F0AFF92E4B1B784FF005001946BF
:102A600001F0D2FCFA7D304B1B781046194602F07B
:102A700001F902F069F9284B1B78012B0ED1FB7D7F
:102A800003F10103FB7597F91730172B02DD4FF0A7
:102A90000003FB75204B4FF000021A701B4B1B7894
:102AA000012B0ED1FB7D03F1FF33FB7597F9173036
:102AB000002B02DA4FF01703FB75144B4FF00002A6
:102AC0001A704FF01E0001F04FFA0346DAB2134BB2
:102AD0001A70154B1B78184601F046FA0346DAB215
:102AE0000E4B5A7097F91730184601F03DFA03461D
:102AF000DAB20A4B9A7004F031FF4FF0D0004FF079
:102B000000014FF00302FDF7BDFE0FE0B801002009
:102B10009B0100209D010020B7010020242F0120EF
:102B2000AB010020AD0100209C01002004F028FF33
:102B30004FF0640002F000FB934B1B78032B40F036
:102B4000B680924B1B78002B06D1914B1B783B74BF
:102B50008E4B4FF001021A708E4B1B78012B0ED159
:102B60003B7C03F101033B7497F910301F2B02DD0E
:102B70004FF001033B74874B4FF000021A70864BF5
:102B80001B78012B0ED13B7C03F1FF333B7497F98B
:102B90001030002B02DC4FF01F033B747E4B4FF0D4
:102BA00000021A7002F066F94FF00A004FF00001BF
:102BB00001F02AFC3A7C794B1B781046194602F04A
:102BC00059F802F0C1F84FF0640002F0B5FA02F0D3
:102BD000F1F84FF00A004FF0000101F015FC3A7CCB
:102BE0006E4B1B781046194602F044F802F0ACF820
:102BF000684B1B78012B0ED13B7C03F101033B7426
:102C000097F910301F2B02DD4FF001033B74614B2D
:102C10004FF000021A70604B1B78012B0ED13B7CE9
:102C200003F1FF333B7497F91030002B02DC4FF0B7
:102C30001F033B74584B4FF000021A70397C574BFE
:102C40001A78574B1B78084611461A4602F01EF9AF
:102C50000346DAB2534B1A7097F91030184601F058
:102C600083F90346DAB24F4B5A704C4B1B78184627
:102C700001F07AF90346DAB24A4B9A70484B1B7856
:102C8000184601F071F90346DAB2464BDA7004F0E7
:102C900065FE4FF0D0004FF003014FF00402FDF746
:102CA000F1FD04F06DFE4FF0640002F045FA364B82
:102CB0001B78042B40F0CA803B4B1B78002B06D1BD
:102CC000364B1B78FB73384B4FF001021A70314BB7
:102CD0001B78012B0ED1FB7B03F10103FB7397F9EA
:102CE0000F300C2B02DD4FF00103FB73294B4FF02B
:102CF00000021A70284B1B78012B0ED1FB7B03F1CD
:102D0000FF33FB7397F90F30002B02DA4FF00C03FF
:102D1000FB73214B4FF000021A7002F093F84FF052
:102D20000A004FF0000101F06FFB194B1A78FB7B92
:102D30001046194601F09EFF02F006F84FF06400BD
:102D400002F0FAF902F036F84FF00A004FF00001F5
:102D500001F05AFB0E4B1A78FB7B1046194601F026
:102D600089FF01F0F1FF0B4B1B78012B22D1FB7B7C
:102D700003F10103FB7397F90F300C2B16DD4FF0B5
:102D80000103FB7312E000BFAB010020B201002081
:102D90009E010020B7010020B8010020A001002002
:102DA000A1010020242F0120B3010020944B4FF0FB
:102DB00000021A70934B1B78012B0ED1FB7B03F1A1
:102DC000FF33FB7397F90F30002B02DA4FF00C033F
:102DD000FB738C4B4FF000021A708B4B1978FA7B07
:102DE0008A4B1B78084611461A4602F04FF80346F4
:102DF000DAB2874B1A70844B1B78184601F0B4F88E
:102E00000346DAB2824B5A7097F90F30184601F038
:102E1000ABF80346DAB27E4B9A707C4B1B781846AF
:102E200001F0A2F80346DAB2794BDA7004F096FDAD
:102E30004FF0D0004FF003014FF00402FDF722FDE8
:102E400004F09EFD4FF0640002F076F9714B1B78A0
:102E5000052B58D101F0EAFF6F4B1B78002B0FD1E7
:102E600004F07CFD42F234204FF0090105F09AFF96
:102E700003467B7504F084FD674B4FF001021A7026
:102E80005F4B1B78012B0ED17B7D03F101037B751A
:102E900097F91530632B02DD4FF000037B75584B1B
:102EA0004FF000021A70574B1B78012B0ED17B7D1F
:102EB00003F1FF337B7597F91530002B02DA4FF0E1
:102EC00063037B754F4B4FF000021A707A7D534BB2
:102ED0001A7004F043FD7B7D42F2342019464FF016
:102EE000090205F093FE04F04BFD97F915309BB2F3
:102EF0004FF00600194601F087FA01F025FF4FF068
:102F0000640002F019F9434B1B78062B58D101F0ED
:102F10008DFF434B1B78002B0FD104F01FFD42F2B5
:102F200035204FF0090105F03DFF03463B7504F0E5
:102F300027FD3B4B4FF001021A70314B1B78012BE0
:102F40000ED13B7D03F101033B7597F91430632BE0
:102F500002DD4FF00A033B75294B4FF000021A7057
:102F6000284B1B78012B0ED13B7D03F1FF333B75C2
:102F700097F91430092B02DC4FF063033B75214BAA
:102F80004FF000021A703A7D264B1A7004F0E6FCEE
:102F90003B7D42F2352019464FF0090205F036FE1E
:102FA00004F0EEFC97F914309BB24FF0070019467D
:102FB00001F02AFA01F0C8FE4FF0640002F0BCF8FC
:102FC000144B1B78072B70D101F030FF164B1B7888
:102FD000002B0FD104F0C2FC42F236204FF0090161
:102FE00005F0E0FE0346FB7404F0CAFC0E4B4FF004
:102FF00001021A70024B1B78012B26D116E000BF8C
:10300000B7010020B80100209E010020A10100208E
:10301000242F0120AB010020AE010020A4010020DC
:10302000AF010020A5010020B0010020FB7C03F1CE
:103030000103FB7497F91330632B02DD4FF00A0391
:10304000FB74944B4FF000021A70934B1B78012BCA
:103050000ED1FB7C03F1FF33FB7497F91330092B7E
:1030600002DC4FF06303FB748B4B4FF000021A70CD
:10307000FA7C8A4B1A7004F071FCFB7C42F2362019
:1030800019464FF0090205F0C1FD04F079FC97F9EB
:1030900013309BB24FF00800194601F0B5F901F06A
:1030A00053FE4FF0640002F047F87D4B1B78082B6D
:1030B00058D101F0BBFE7B4B1B78002B0FD104F0E5
:1030C0004DFC42F237204FF0090105F06BFE03463C
:1030D000BB7404F055FC734B4FF001021A706D4B3A
:1030E0001B78012B0ED1BB7C03F10103BB7497F954
:1030F0001230632B02DD4FF00A03BB74654B4FF0B7
:1031000000021A70644B1B78012B0ED1BB7C03F1BB
:10311000FF33BB7497F91230092B02DC4FF06303C5
:10312000BB745D4B4FF000021A70BA7C5E4B1A7094
:1031300004F014FCBB7C42F2372019464FF0090220
:1031400005F064FD04F01CFC97F912309BB24FF0BF
:103150000B00194601F058F901F0F6FD4FF064003C
:1031600001F0EAFF4E4B1B78092B58D101F05EFEAF
:103170004E4B1B78002B0FD104F0F0FB42F23820AD
:103180004FF0090105F00EFE03467B7404F0F8FBD6
:10319000464B4FF001021A703E4B1B78012B0ED1AB
:1031A0007B7C03F101037B7497F91130632B02DD03
:1031B0004FF00A037B74374B4FF000021A70364B06
:1031C0001B78012B0ED17B7C03F1FF337B7497F9C5
:1031D0001130092B02DC4FF063037B742E4B4FF050
:1031E00000021A707A7C324B1A7004F0B7FBBB7C79
:1031F00042F2382019464FF0090205F007FD04F0AD
:10320000BFFB97F911309BB24FF00900194601F04E
:10321000FBF801F099FD4FF0640001F08DFF204BA9
:103220001B780A2B68D101F001FE224B1B78002B82
:103230000FD104F093FB42F239204FF0090105F061
:10324000B1FD0346BB7304F09BFB1A4B4FF0010228
:103250001A70104B1B78012B0DD1BB7B03F10103BE
:10326000BB73BB7B012B02D94FF00003BB73094B2F
:103270004FF000021A70084B1B78012B20D1BB7B4A
:1032800003F10103BB73BB7B012B15D94FF0000386
:10329000BB7311E0B7010020B8010020A601002097
:1032A000AB010020B1010020A7010020B4010020E3
:1032B000A8010020B5010020264B4FF000021A7033
:1032C000254BBA7B1A7004F049FBBB7B42F23920D4
:1032D00019464FF0090205F099FC04F051FBBB7B45
:1032E0009BB24FF00E00194601F08EF801F02CFD54
:1032F0004FF0640001F020FF184B1A78184B1A7039
:10330000174B1A78174B1B78D318DAB2164B1A7072
:10331000154B1A78154B1B78D318DAB2144B1A7068
:10332000134B1A78134B1B78D318DAB2124B1A705E
:10333000114B1A78114B1B78D318DAB2104B1A7054
:103340000F4B1A780F4B1B78D318DAB20E4B1A704A
:10335000FFF7BAB8B8010020AA010020A40100209C
:10336000B9010020A5010020BD010020A601002018
:10337000BB010020A9010020BC010020A801002001
:10338000BE010020A7010020BA01002080B489B04E
:1033900000AF78604FF00003BB614FF000037B612A
:1033A0004FF00003FB614FF002033B614FF000035D
:1033B000FB604FF00203BB604F4B9B6803F00C03B4
:1033C000BB61BB69042B07D0082B09D0002B47D168
:1033D0007B684A4A1A6047E07B68494A1A6043E0C2
:1033E000454B5B6803F480034FEA9353FB60424B09
:1033F0005B6803F03F03BB60FB68002B0FD0404AC3
:10340000BB68B2FBF3F23C4B596847F6C07301EA64
:1034100003034FEA931303FB02F3FB610EE0374A09
:10342000BB68B2FBF3F2344B596847F6C07301EA4C
:1034300003034FEA931303FB02F3FB612E4B5B681C
:1034400003F440334FEA134303F101034FEA43030C
:103450003B61FA693B69B2FBF3F27B681A6003E0F7
:103460007B68264A1A6000BF234B9B6803F0F00379
:10347000BB61BB694FEA1313BB61224ABB69D31816
:103480001B78DBB27B617B681A687B6922FA03F2E6
:103490007B685A60184B9B6803F4E053BB61BB69BF
:1034A0004FEA9323BB61174ABB69D3181B78DBB281
:1034B0007B617B685A687B6922FA03F27B689A60B9
:1034C0000D4B9B6803F46043BB61BB694FEA533308
:1034D000BB610C4ABB69D3181B78DBB27B617B688C
:1034E0005A687B6922FA03F27B68DA6007F12407E5
:1034F000BD4680BC704700BF003802400024F40085
:1035000040787D01A800002080B483B000AF7860CF
:103510000B46FB70FB78002B07D00B4B0A4A116B54
:103520007A6841EA02021A6308E0074B064A116B07
:103530007A686FEA020201EA02021A6307F10C07D5
:10354000BD4680BC704700BF0038024080B483B0E5
:1035500000AF78600B46FB70FB78002B07D00B4B5D
:103560000A4A116C7A6841EA02021A6408E0074BC1
:10357000064A116C7A686FEA020201EA02021A64D2
:1035800007F10C07BD4680BC704700BF0038024001
:1035900080B483B000AF78600B46FB70FB78002BE3
:1035A00007D00B4B0A4A516C7A6841EA02025A640E
:1035B00008E0074B064A516C7A686FEA020201EA9A
:1035C00002025A6407F10C07BD4680BC704700BF79
:1035D0000038024080B483B000AF78600B46FB70C7
:1035E000FB78002B07D00B4B0A4A116A7A6841EA34
:1035F00002021A6208E0074B064A116A7A686FEA0B
:10360000020201EA02021A6207F10C07BD4680BC01
:10361000704700BF0038024080B483B000AF7860CC
:103620000B46FB70FB78002B07D00B4B0A4A516A04
:103630007A6841EA02025A6208E0074B064A516A78
:103640007A686FEA020201EA02025A6207F10C0785
:10365000BD4680BC704700BF0038024080B586B0D0
:1036600004AF4FF000037B6000F078FA124B1B6848
:10367000002B15D0114B4FF0020200924FF00002C8
:1036800001924FF0000202924FF0000203920C48A8
:1036900019464FF482724FF0000301F091FC7860FC
:1036A0007B68002B02D104F07FF9FEE77B681846A7
:1036B00007F10807BD4680BDF00100200092000818
:1036C000D937000880B588B000AFF860B9607A607B
:1036D0003B604FF00003FB611F4B1B68002B34D095
:1036E000BB683B617B687B61FB68BB613B68002B0F
:1036F0001FD102F071FA0346012B0CD1164B1A6848
:1037000007F1100310461946BA6A4FF0000303F0A0
:10371000EDFCF86119E0104B1A6807F11003104630
:1037200019464FF000024FF0000303F0DFFCF86190
:103730000BE0094B1A6807F11003104619463A6866
:103740004FF0000303F08EFDF861FB69184607F1A6
:103750002007BD4680BD00BFF001002080B586B0C7
:1037600002AF786039601B4B1B68DB68DB68FB606D
:10377000FB6803F10403184603F0D8FAFB68DB6921
:10378000012B1ED1FB689A697B68D318F86819462B
:103790003A687B6800F0B6F80346012B11D14FF070
:1037A00000030093F8684FF000017A684FF00003BF
:1037B000FFF788FFB860BB68002B02D104F0F4F873
:1037C000FEE7FB685B6AF868984707F11007BD469B
:1037D00080BD00BFE801002080B584B000AF7860F4
:1037E00007F10803184600F043F8F860BB68F86872
:1037F000194600F003F800F0CDF8F1E780B584B089
:1038000000AF7860396001F005FD07F10803184644
:1038100000F052F8F860BB68002B1ED13B68002B0B
:103820000AD17A68FB689A4206D801F001FD7868EF
:10383000F968FFF793FF14E00C4B1A687968FB688E
:10384000CB1A1046194603F079FF01F0F1FC03464C
:10385000002B05D104F072F803E001F0E9FC00E070
:1038600000BF07F11007BD4680BD00BFF00100207A
:1038700080B485B000AF78600E4B1B681B68002BCE
:1038800014BF002201227B681A607B681B68002B32
:1038900005D1084B1B68DB681B68FB6002E04FF03A
:1038A0000003FB60FB68184607F11407BD4680BCA7
:1038B000704700BFE801002080B584B000AF786099
:1038C00001F048FDF8600E4B1B68FA689A4209D275
:1038D0000B4B1B68184600F0E1F87B684FF00102C3
:1038E0001A6003E07B684FF000021A60044BFA682C
:1038F0001A60FB68184607F11007BD4680BD00BF7F
:10390000F401002080B586B000AFF860B9607A603D
:103910003B604FF000037B61FB68BA685A60FB684C
:10392000FA681A61BA687B689A4214D87A683B6868
:10393000D21AFB689B699A4203D34FF001037B6163
:103940001EE0124B1A68FB6803F104031046194687
:1039500003F0B2F914E07A683B689A4207D2BA6879
:103960003B689A4203D34FF001037B6108E0084BA8
:103970001A68FB6803F104031046194603F09CF92A
:103980007B69184607F11807BD4680BDEC01002091
:10399000E801002080B58AB002AF6AE03B69FB61B4
:1039A000FB695B69002B05D0FB6903F10403184632
:1039B00003F0BCF907F104031846FFF77DFFB86177
:1039C000BB68032B4ED801A252F823F0DD39000862
:1039D000653A0008333A00085D3A0008FA68FB6966
:1039E0009B69D218FB68F8691146BA69FFF78AFF2C
:1039F0000346012B38D1FB695B6AF8699847FB697C
:103A0000DB69012B32D1FA68FB699B69D3184FF04F
:103A100000020092F8694FF000011A464FF00003CF
:103A2000FFF750FE78617B69002B21D103F0BCFFCA
:103A3000FEE7FA68FB699A61FB699B69002B02D17A
:103A400003F0B2FFFEE7FB699A69BB69D318F86916
:103A50001946BA69BB69FFF755FF0AE0F86904F037
:103A6000E7FC06E000BF04E000BF02E000BF00E0AA
:103A700000BF094B1A6807F10803104619464FF0BA
:103A800000024FF0000303F061FC0346002B85D1D8
:103A900007F12007BD4680BDF001002080B58AB047
:103AA00002AF786042E02B4B1B68DB681B68FB6150
:103AB000284B1B68DB68DB68BB61BB6903F104034F
:103AC000184603F033F9BB695B6AB8699847BB696C
:103AD000DB69012B2AD1BB699A69FB69D3187B6129
:103AE0007A69FB699A420FD9BB697A695A60BB69E6
:103AF000BA691A61174B1A68BB6903F104031046CF
:103B0000194603F0D9F811E04FF000030093B869AB
:103B10004FF00001FA694FF00003FFF7D3FD386161
:103B20003B69002B02D103F03FFFFEE7094B1B6806
:103B30001B68002BB7D1074B1B68FB60064B1A684C
:103B4000044B1A60044BFA681A6007F12007BD465F
:103B500080BD00BFE8010020EC01002080B500AF6F
:103B600003F0FCFE0E4B1B68002B16D10D4803F032
:103B70004DF80D4803F04AF80C4B0A4A1A600C4BFA
:103B8000094A1A604FF00A004FF00C014FF0000292
:103B900003F062FA0246024B1A6003F0F1FE80BDA8
:103BA000F0010020C0010020D4010020E801002025
:103BB000EC01002080B584B000AF4FF00003FB7330
:103BC00043E0FA7B264913464FEA83039B184FEAEA
:103BD0008303CB1803F10C031B6818464FF0010157
:103BE000FFF792FC4FF000033B72FA7B1C4913462F
:103BF0004FEA83039B184FEA8303CB1803F11003AA
:103C00001B78FB72FA7B164913464FEA83039B1815
:103C10004FEA8303CB1803F108031B887B60FA7B10
:103C20000F4913464FEA83039B184FEA8303CB18CF
:103C300003F104031A6807F104031046194602F061
:103C4000B9FEFB7B03F10103FB73FB7B022BB8D9AD
:103C500000F03AF800F064F807F11007BD4680BDA7
:103C6000B800002080B485B000AF0346FB71FA793C
:103C7000134913464FEA83039B184FEA8303CB187B
:103C800003F110035B78FB73FB790E4AD35CBB73C3
:103C9000FB790C4AF97BD154FB7B002B02D14FF00E
:103CA000000307E0BB7B002B02D04FF0000301E0D4
:103CB0004FF00103184607F11407BD4680BC70475A
:103CC000B8000020FC01002080B584B000AF4FF0A8
:103CD00020004FF00101FFF739FC41F28733BB6050
:103CE00040F24733BB804FF00003BB814FF000032D
:103CF000FB8007F104030948194604F001FC07485A
:103D00004FF0010104F06AFC04484FF0010104F097
:103D100085FC07F11007BD4680BD00BF00140040C0
:103D200080B582B000AF0E484FF001014FF00102A4
:103D300004F034FF4FF037033B714FF000037B7109
:103D40004FF00003BB714FF00103FB7107F1040357
:103D5000184604F04BFA07F10807BD4680BD00BFC6
:103D60000014004080B582B000AF1F484FF0010141
:103D700004F03AFF4FF00003FB712EE0FA791B4983
:103D800013464FEA83039B184FEA8303CB1803F1D2
:103D900004031968FA79154813464FEA83039B1800
:103DA0004FEA8303C31803F108031B88084619462A
:103DB00002F0A4FE0346BB71FA790C4913464FEAA0
:103DC00083039B184FEA8303CB1803F11003BA79DE
:103DD0005A70FB7903F10103FB71FB79022BCDD9FA
:103DE00007F10807BD4680BD00140040B800002060
:103DF00080B485B000AF0346FB714FF00003FB7346
:103E0000FB79092B3ED801A252F823F0353E000879
:103E10003D3E0008453E00084D3E0008553E000866
:103E20005D3E0008653E00086D3E0008753E0008D6
:103E30007D3E00084FF00903FB7323E04FF00103C0
:103E4000FB731FE04FF00303FB731BE04FF00B030A
:103E5000FB7317E04FF00A03FB7313E04FF002030C
:103E6000FB730FE04FF00C03FB730BE04FF0040308
:103E7000FB7307E04FF00003FB7303E04FF0080310
:103E8000FB7300BF184607F11407BD4680BC70479E
:103E900080B485B000AF0346FB714FF00003FB73A5
:103EA000FB79092B3ED801A252F823F0D53E000839
:103EB000DD3E0008E53E0008ED3E0008F53E000846
:103EC000FD3E0008053F00080D3F0008153F0008B3
:103ED0001D3F00084FF00303FB7323E04FF00C037A
:103EE000FB731FE04FF00403FB731BE04FF008036C
:103EF000FB7317E04FF00203FB7313E04FF00A036C
:103F0000FB730FE04FF00903FB730BE04FF001036D
:103F1000FB7307E04FF00003FB7303E04FF00B036C
:103F2000FB7300BF184607F11407BD4680BC7047FD
:103F300080B483B000AF0346FB71FB7903F00F033D
:103F4000DAB2FB794FEA1313DBB219464FEA81016B
:103F5000CB184FEA4303DBB2D318DBB2184607F1A4
:103F60000C07BD4680BC704780B483B000AF0346E9
:103F7000FB71FA79104BA3FB02034FEAD3010B4606
:103F80004FEA83035B184FEA4303D31ADBB2DAB27A
:103F9000F979094BA3FB01034FEAD303DBB24FEAE4
:103FA0000313DBB242EA0303DBB2DBB2184607F1CC
:103FB0000C07BD4680BC7047CDCCCCCC80B483B060
:103FC00000AF0346FB71FB79012B0AD1134B1B7821
:103FD00043F00203DAB2114B1A70104B1A780F4BF0
:103FE0001A70FB79002B06D10C4B1B7823F00203CF
:103FF000DAB20A4B1A70094B1B7823F00803DAB2C5
:10400000064B1A70054B1B7823F00403DAB2034BFE
:104010001A7007F10C07BD4680BC704700020020F3
:1040200080B483B000AF0346FB71FB79012B0AD14A
:10403000134B1B7843F00403DAB2114B1A70104B88
:104040001A780F4B1A70FB79002B06D10C4B1B789A
:1040500023F00403DAB20A4B1A70094B1B7823F0E1
:104060000803DAB2064B1A70054B1B7823F00203E3
:10407000DAB2034B1A7007F10C07BD4680BC7047DB
:104080000002002080B483B000AF0346FB71FB79CF
:10409000012B0AD1134B1B7843F00803DAB2114B02
:1040A0001A70104B1A780F4B1A70FB79002B06D13F
:1040B0000C4B1B7823F00803DAB20A4B1A70094B39
:1040C0001B7823F00203DAB2064B1A70054B1B78FB
:1040D00023F00403DAB2034B1A7007F10C07BD4654
:1040E00080BC70470002002080B483B000AF03465C
:1040F000FB71FB79012B0AD10C4B1B7843F00103B8
:10410000DAB20A4B1A70094B1A78084B1A70FB790D
:10411000002B06D1054B1B7823F00103DAB2034BC9
:104120001A7007F10C07BD4680BC704700020020E2
:1041300080B400AF0B4B1B7823F00803DAB2094BB5
:104140001A70084B1B7823F00203DAB2054B1A7081
:10415000044B1B7823F00403DAB2024B1A70BD46FD
:1041600080BC70470002002080B483B000AF0346DB
:10417000FB71FB79012B0AD1174B1B7843F04003ED
:10418000DAB2154B1A70144B1A78134B1A70FB796C
:10419000002B06D1104B1B7823F04003DAB20E4BF4
:1041A0001A700D4B1B7823F02003DAB20A4B1A70F9
:1041B000094B1B7823F01003DAB2074B1A70064B39
:1041C0001B7803F07F03DAB2034B1A7007F10C0778
:1041D000BD4680BC704700BF0002002080B483B0A1
:1041E00000AF0346FB71FB79012B0AD1174B1B78FB
:1041F00043F02003DAB2154B1A70144B1A78134BA4
:104200001A70FB79002B06D1104B1B7823F020038A
:10421000DAB20E4B1A700D4B1B7823F04003DAB262
:104220000A4B1A70094B1B7823F01003DAB2074BC4
:104230001A70064B1B7803F07F03DAB2034B1A7037
:1042400007F10C07BD4680BC704700BF000200208C
:1042500080B483B000AF0346FB71FB79012B15D10D
:104260001C4B1B7843F01003DAB21A4B1A70194B2F
:104270001A78184B1A70174B1B7863F07F03DAB269
:10428000144B1A70134B1A78124B1A70FB79002BCF
:104290000DD1104B1B7823F01003DAB20D4B1A70BE
:1042A0000C4B1B7803F07F03DAB20A4B1A70094BF0
:1042B0001B7823F02003DAB2064B1A70054B1B78EB
:1042C00023F04003DAB2034B1A7007F10C07BD4626
:1042D00080BC70470002002080B483B000AF03466A
:1042E000FB71FB79012B0AD1174B1B7843F01003AC
:1042F000DAB2154B1A70144B1A78134B1A70FB79FB
:10430000002B0DD1104B1B7823F01003DAB20E4BAB
:104310001A700D4B1B7803F07F03DAB20A4B1A7048
:10432000094B1B7823F02003DAB2074B1A70064BB7
:104330001B7823F04003DAB2034B1A7007F10C0725
:10434000BD4680BC704700BF0002002080B483B02F
:1043500000AF0346FB71FB79012B0AD1174B1B7889
:1043600063F07F03DAB2154B1A70144B1A78134BB3
:104370001A70FB79002B0DD1104B1B7823F0100322
:10438000DAB20E4B1A700D4B1B7803F07F03DAB2D2
:104390000A4B1A70094B1B7823F02003DAB2074B43
:1043A0001A70064B1B7823F04003DAB2034B1A70E5
:1043B00007F10C07BD4680BC704700BF000200201B
:1043C00080B400AF0F4B1B7823F02003DAB20D4B03
:1043D0001A700C4B1B7823F04003DAB2094B1A70A9
:1043E000084B1B7803F07F03DAB2064B1A70054BBB
:1043F0001B7823F01003DAB2024B1A70BD4680BC62
:10440000704700BF0002002080B584B000AF0246B4
:104410000B46FA71BB804FF00003BB734FF00003F3
:10442000FB734FF000037B734FF00E03FB73FB79BC
:104430000E2B6CD19F4B4FF000021A70FFF7C0FF9C
:104440004FF00100FFF7BAFD4FF00100FFF700FF4A
:104450004FF00000FFF748FE4FF00803FB73BB88E6
:10446000954AA2FB03124FEA52124FF0640101FB7E
:1044700002F29B1A9BB2BB73BA7B904BA3FB021355
:104480004FEAD3010B464FEA83035B184FEA43031D
:10449000D31ADBB21846FFF7ABFC03461A46884B2B
:1044A0001A70874B1B784FEA0313DAB2844B1A70E9
:1044B000BA88814BA3FB02134FEA53139BB2DBB2C2
:1044C0001846FFF795FC03461A467D4B1B78D31818
:1044D000DAB27B4B1A70BA7B784BA3FB02134FEA1C
:1044E000D303DBB21846FFF783FC03461A46714B31
:1044F0001A70704B1B784FEA0313DAB26D4B1A70C7
:104500006C4B1A78FB7BD318DAB26A4B1A70FB79C2
:10451000032B0CD1FFF70CFE4FF00100FFF798FEC4
:104520004FF00000FFF7E0FD4FF00E03FB73FB7947
:104530000C2B02D14FF00E03FB73FB790A2B0CD12D
:10454000FFF7F6FD4FF00000FFF782FE4FF000008E
:10455000FFF7CAFD4FF00003FB73FB79022B0CD170
:10456000FFF7E6FD4FF00100FFF738FE4FF00000C7
:10457000FFF7BAFD4FF00C03FB73FB79002B0ED154
:104580004FF00100FFF77EFD4FF00100FFF7ECFD5B
:104590004FF00100FFF7A8FD4FF00E03FB73FB790E
:1045A000012B0ED14FF00100FFF708FD4FF0010085
:1045B000FFF7DAFD4FF00100FFF796FD4FF00E0315
:1045C000FB73FB790D2B0CD1FFF7B2FD4FF001000F
:1045D000FFF7CAFD4FF00000FFF786FD4FF0000324
:1045E000FB73BB88344AA2FB03124FEA52124FF00E
:1045F000640101FB02F29B1A9BB2BB73BA7B2F4B87
:10460000A3FB02134FEAD3010B464FEA83035B1867
:104610004FEA4303D31ADBB21846FFF7E9FB034620
:104620001A46274B1A70264B1B784FEA0313DAB24F
:10463000234B1A70BA88204BA3FB02134FEA531383
:104640009BB2DBB21846FFF7D3FB03461A461C4B5E
:104650001B78D318DAB21A4B1A70BA7B174BA3FB2C
:1046600002134FEAD303DBB21846FFF7C1FB034640
:104670001A46104B1A700F4B1B784FEA0313DAB22D
:104680000C4B1A700B4B1A78FB7BD318DAB2094B20
:104690001A70FB79042B49D1064B4FF000021A70B7
:1046A000FFF78EFE4FF00000FFF71EFD4FF00603F0
:1046B000FB7307E0020200201F85EB51CDCCCCCC70
:1046C00001020020BA889C4BA3FB02134FEAD303DC
:1046D0009BB2DBB21846FFF78BFB03467B73974B0D
:1046E0007A7B1A70BA88944BA3FB02134FEAD3016A
:1046F0000B464FEA83035B184FEA4303D31A9BB27E
:10470000DBB21846FFF774FB03461A468C4B1A704F
:104710008B4B1B784FEA0313DAB2894B1A70884B24
:104720001A78FB7BD318DAB2854B1A70FB79052B0C
:1047300044D1834B4FF000021A70FFF741FE4FF057
:104740000000FFF76DFC4FF00000FFF7CDFC4FF0CD
:104750000003FB73BA88784BA3FB02134FEAD30321
:104760009BB2DBB21846FFF743FB03467B73734BE8
:104770007A7B1A70BA88704BA3FB02134FEAD301FD
:104780000B464FEA83035B184FEA4303D31A9BB2ED
:10479000DBB21846FFF72CFB03461A46684B1A702B
:1047A000674B1B784FEA0313DAB2654B1A70644B00
:1047B0001A78FB7BD318DAB2614B1A70FB79062B9F
:1047C0006ED15F4B4FF000021A7000F0FFFAFFF756
:1047D000F7FD4FF00000FFF7C7FC4FF00100FFF7B7
:1047E0001FFC4FF00000FFF77FFC4FF00E03FB7340
:1047F000BB88544AA2FB03124FEA52124FF06401E5
:1048000001FB02F29B1A9BB2BB73BA7B4A4BA3FB20
:1048100002134FEAD3010B464FEA83035B184FEABA
:104820004303D31ADBB21846FFF7E2FA03461A46EF
:10483000424B1A70414B1B784FEA0313DAB23F4BDD
:104840001A70BA883F4BA3FB02134FEA53139BB273
:10485000DBB21846FFF7CCFA03461A46374B1B78F3
:10486000D318DAB2354B1A70BA7B334BA3FB021361
:104870004FEAD303DBB21846FFF7BAFA03461A46EB
:104880002F4B1A702E4B1B784FEA0313DAB22C4BC6
:104890001A702B4B1A78FB7BD318DAB2284B1A709C
:1048A000FB79072B79D1264B4FF000021A70FFF7E6
:1048B00087FD4FF00100FFF70FFD4FF00100FFF7FC
:1048C00045FD4FF00000FFF7ABFB4FF00000FFF796
:1048D0000BFC4FF00E03FB73BB881A4AA2FB0312BA
:1048E0004FEA52124FF0640101FB02F29B1A9BB295
:1048F000BB73BA7B104BA3FB02134FEAD3010B46E9
:104900004FEA83035B184FEA4303D31ADBB218461E
:10491000FFF76EFA03461A46084B1A70074B1B78CE
:104920004FEA0313DAB2054B1A70BA88054BA3FBA2
:1049300002134FEA531307E0CDCCCCCC0102002088
:10494000020200201F85EB519BB2DBB21846FFF735
:104950004FFA03461A469B4B1B78D318DAB2994B91
:104960001A70BA7B984BA3FB02134FEAD303DBB256
:104970001846FFF73DFA03461A46944B1A70934BBC
:104980001B784FEA0313DAB2904B1A708F4B1A78E8
:10499000FB7BD318DAB28D4B1A70FB79082B70D1E0
:1049A0008A4B4FF000021A70FFF70AFD4FF000002B
:1049B000FFF792FC4FF00000FFF732FB4FF00000D2
:1049C000FFF792FB4FF00100FFF7CEFB4FF00E0315
:1049D000FB73BB887E4AA2FB03124FEA52124FF0D0
:1049E000640101FB02F29B1A9BB2BB73BA7B764B4C
:1049F000A3FB02134FEAD3010B464FEA83035B1874
:104A00004FEA4303D31ADBB21846FFF7F1F9034626
:104A10001A466C4B1A706B4B1B784FEA0313DAB2D1
:104A2000684B1A70BA886A4BA3FB02134FEA531300
:104A30009BB2DBB21846FFF7DBF903461A46614B1F
:104A40001B78D318DAB25F4B1A70BA7B5E4BA3FBAC
:104A500002134FEAD303DBB21846FFF7C9F9034646
:104A60001A465A4B1A70594B1B784FEA0313DAB2A5
:104A7000564B1A70554B1A78FB7BD318DAB2534B4E
:104A80001A70FB790B2B6CD1504B4FF000021A704F
:104A9000FFF796FC4FF00100FFF758FC4FF00100C4
:104AA000FFF7BEFA4FF00000FFF71EFB4FF00E03BA
:104AB000FB73BB88464AA2FB03124FEA52124FF027
:104AC000640101FB02F29B1A9BB2BB73BA7B3E4BA3
:104AD000A3FB02134FEAD3010B464FEA83035B1893
:104AE0004FEA4303D31ADBB21846FFF781F90346B6
:104AF0001A46344B1A70334B1B784FEA0313DAB261
:104B0000304B1A70BA88324BA3FB02134FEA53138F
:104B10009BB2DBB21846FFF76BF903461A46294BE6
:104B20001B78D318DAB2274B1A70BA7B264BA3FB3B
:104B300002134FEAD303DBB21846FFF759F90346D5
:104B40001A46224B1A70214B1B784FEA0313DAB234
:104B50001E4B1A701D4B1A78FB7BD318DAB21B4B15
:104B60001A70FB79092B79D1184B4FF000021A709B
:104B7000FFF726FC4FF00000FFF7AEFB4FF00100FF
:104B8000FFF72CFB4FF00000FFF74AFA4FF0000050
:104B9000FFF7AAFA4FF00E03FB73BB880C4AA2FB87
:104BA00003124FEA52124FF0640101FB02F29B1A0A
:104BB0009BB2BB73BA7B044BA3FB02134FEAD30136
:104BC0000B4607E001020020CDCCCCCC0202002035
:104BD0001F85EB514FEA83035B184FEA4303D31A57
:104BE000DBB21846FFF704F903461A461D4B1A704C
:104BF0001C4B1B784FEA0313DAB21A4B1A70BA88AF
:104C0000194BA3FB02134FEA53139BB2DBB21846B6
:104C1000FFF7EEF803461A46124B1B78D318DAB2A8
:104C2000104B1A70BA7B114BA3FB02134FEAD3034C
:104C3000DBB21846FFF7DCF803461A460C4B1A7035
:104C40000B4B1B784FEA0313DAB2094B1A70084B6F
:104C50001A78FB7BD318DAB2054B1A7007F11007EC
:104C6000BD4680BD010200201F85EB51CDCCCCCCD0
:104C70000202002080B584B000AF02460B46FA71F4
:104C8000BB714FF00003FB734FF00003BB73BA79A5
:104C90002A4BA3FB02134FEAD3010B464FEA8303CF
:104CA0005B184FEA4303D31ADBB21846FFF7F0F85C
:104CB0000346BB73BB7B4FEA0313BB73BA791F4B2D
:104CC000A3FB02134FEAD303DBB21846FFF7E0F869
:104CD00003461A46BB7BD318BB73FA79174BA3FB69
:104CE00002134FEAD3010B464FEA83035B184FEAE6
:104CF0004303D31ADBB21846FFF7CAF80346FB7327
:104D0000FB7B4FEA0313FB73FA790C4BA3FB0213F3
:104D10004FEAD303DBB21846FFF7BAF803461A4648
:104D2000FB7BD318FB73064BBA7B1A70054BFA7BDF
:104D30001A7007F11007BD4680BD00BFCDCCCCCCAA
:104D4000030200200402002080B500AF4FF00000F5
:104D500002F00AF9114B1B78184601F0E9F8104BE4
:104D60001B78184601F0E4F80E4B1B78184601F04A
:104D7000DFF80D4B1B78184601F0DAF80B4B1B7867
:104D8000184601F0D5F80A4B1B78184601F0D0F808
:104D90004FF0010002F0E8F880BD00BF00020020E3
:104DA0000102002002020020030200200402002071
:104DB0000502002080B400AF034B4FF0F8021A70D8
:104DC000BD4680BC704700BF0502002080B400AF24
:104DD000034B4FF020021A70BD4680BC704700BFE5
:104DE0000502002080B400AF034B4FF0D8021A70C8
:104DF000BD4680BC704700BF0502002080B400AFF4
:104E0000034B4FF0F0021A70BD4680BC704700BFE4
:104E10000502002080B400AF034B4FF0D0021A709F
:104E2000BD4680BC704700BF0502002080B400AFC3
:104E3000034B4FF000021A70BD4680BC704700BFA4
:104E40000502002080B400AF034B4FF038021A7007
:104E5000BD4680BC704700BF0502002080B400AF93
:104E6000034B4FF040021A70BD4680BC704700BF34
:104E70000502002080B400AF034B4FF0E0021A702F
:104E8000BD4680BC704700BF0502002080B487B0DB
:104E900000AF13460246FA710A46BA717B71BB79BC
:104EA000C3F10E03304A82FB03024FEA62024FEA6B
:104EB000E373D31A7B617B7903F5FA627B69D31ABA
:104EC0003B61B9797A6913464FEA43039B184FEA6D
:104ED0008303CB18A3F10203FB60FA793B69D21874
:104EE0003B69002B01DA03F103034FEAA303D21855
:104EF0003B691E4981FB03014FEA61114FEAE373ED
:104F0000CB1AD21A3B69194981FB03014FEAE1111F
:104F10004FEAE373CB1AD118FA6813464FEA4313EA
:104F20009B1A114A82FB03024FEA62024FEAE373C3
:104F3000D31ACB1803F5DA5303F118030C4A82FB9A
:104F40000312D2184FEAA2014FEAE372891A0A4605
:104F50004FEAC202521A991A0B46184607F11C076B
:104F6000BD4680BC704700BFABAAAA2A1F85EB5183
:104F70009324499280B483B000AF786000BF7B680F
:104F8000002B0CBF00220122D2B203F1FF337B6061
:104F9000002AF4D107F10C07BD4680BC704700BF62
:104FA00080B500AF4FF00500FCF710FA4FF0640039
:104FB00000F0C2F84FF00500FCF7E2F980BD00BF39
:104FC00080B58AB002AFF860B9603B601346FB80E1
:104FD000FB68002B02D102F0E7FCFEE7BB6A042B62
:104FE00002D902F0E1FCFEE7FB881846396B00F0BD
:104FF00099FDB861BB69002B7AD0BB691A6BFB883D
:1050000003F1FF334FEA8303D3187B617B6923F0FD
:1050100007037B617B6903F00703002B02D002F0DA
:10502000C3FCFEE7FB880093B869B968BA6A7B6B7A
:1050300000F06EFC7869F9683A6802F0AFFB03464D
:105040001A46BB691A60FB6A002B02D0FB6ABA6978
:105050001A6002F083FC324B1B6803F10102304BF3
:105060001A60304B1B68002B09D12E4BBA691A60AD
:105070002B4B1B68012B0FD100F09AFC0CE02A4B44
:105080001B68002B08D1274B1B68DA6ABB6A9A425F
:1050900002D8244BBA691A60244B1B6803F1010241
:1050A000224B1A60214B1A68BB691A64BB69DA6A21
:1050B0001F4B1B689A4203D9BB69DA6A1C4B1A6002
:1050C000BB69DA6A13464FEA83039B184FEA8303EE
:1050D0001A46184BD218BB6903F10403104619464F
:1050E00001F0C6FD4FF00103FB6102F049FC02E054
:1050F0004FF0FF33FB61FB69012B0BD10A4B1B689F
:10510000002B07D0074B1B68DA6ABB6A9A4201D2B0
:1051100002F014FCFB69184607F12007BD4680BD6C
:10512000E002002008020020EC0200200003002022
:10513000E80200200C02002080B584B000AF786047
:105140004FF00003FB607B68002B13D000F062F887
:105150000D4B1A687B68D318BB600C4B1B6803F1BE
:105160000403184601F0E2FDB86800F0A3FC00F06B
:105170005FF8F860FB68002B01D102F0DFFB07F15C
:105180001007BD4680BD00BFE402002008020020D9
:1051900080B586B004AF1B4B4FF0000200924FF079
:1051A000000201924FF0000202924FF000020392BF
:1051B000154819464FF082024FF00003FFF700FF39
:1051C00078607B68012B02D1FEF748FA78607B6833
:1051D000012B0CD102F0E8FB0C4B4FF001021A60DE
:1051E0000B4B4FF000021A6002F038FB05E07B68C1
:1051F000002B02D102F0D8FBFEE707F10807BD46FD
:1052000080BD00BF08920008ED580008EC020020A5
:10521000E402002080B400AF044B1B6803F10102DC
:10522000024B1A60BD4680BC704700BFF0020020F0
:1052300080B582B000AF4FF000037B603D4B1B6830
:10524000002B02D102F0B0FBFEE702F087FB394BE6
:105250001B6803F1FF32374B1A60364B1B68002B7B
:1052600060D1354B1B68002B5CD036E0334BDB68DC
:10527000DB683B603B6803F11803184601F056FDFC
:105280003B6803F10403184601F050FD3B68DA6AFD
:105290002B4B1B689A4203D93B68DA6A284B1A6089
:1052A0003B68DA6A13464FEA83039B184FEA83038D
:1052B0001A46244BD2183B6803F1040310461946E2
:1052C00001F0D6FC3B68DA6A1F4B1B68DB6A9A4226
:1052D00003D31E4B4FF001021A60184B1B68002BC2
:1052E000C4D11B4B1B68002B13D00EE000F044F818
:1052F0000346002B03D0154B4FF001021A60144BEC
:105300001B6803F1FF32124B1A60114B1B68002B14
:10531000ECD10E4B1B68012B04D14FF001037B60D5
:1053200002F00CFB02F02CFB7B68184607F1080723
:10533000BD4680BDF0020020E0020020A002002057
:10534000E80200200C02002008020020F8020020E1
:10535000F402002080B582B000AF02F0FFFA054BE6
:105360001B687B6002F00CFB7B68184607F108079E
:10537000BD4680BDE402002080B586B000AF4FF08E
:1053800000037B61674B1B68002B40F0B680664BC7
:105390001B6803F10102644B1A60634B1B683B619D
:1053A0003B69002B31D1614B1B681B68002B02D07D
:1053B00002F0FAFAFEE75D4B1B68FB605C4B1A6873
:1053C0005A4B1A605A4BFA681A605A4B1B6803F121
:1053D0000102584B1A60554B1B681B68002B02D109
:1053E0004FF0010301E04FF00003002B04D0524BBB
:1053F0004FF0FF321A6008E04C4B1B68DB68DB683B
:10540000BB60BB685A684C4B1A604B4B1B683A69CF
:105410009A4259D300E000BF444B1B681B68002B25
:1054200002D14FF0010301E04FF00003002B04D044
:10543000414B4FF0FF321A6046E03C4B1B68DB6883
:10544000DB68BB60BB685B687B603A697B689A42DB
:1054500003D2394B7A681A6036E0BB6803F1040363
:10546000184601F063FCBB689B6A002B05D0BB6843
:1054700003F11803184601F059FCBB68DA6A2F4B98
:105480001B689A4203D9BB68DA6A2C4B1A60BB6866
:10549000DA6A13464FEA83039B184FEA83031A46DE
:1054A000274BD218BB6803F104031046194601F0DC
:1054B000DFFBBB68DA6A234B1B68DB6A9A42AAD31C
:1054C0004FF001037B61A7E71E4B1B68DA6A1346A6
:1054D0004FEA83039B184FEA83031A46184BD318ED
:1054E0001B68012B02D94FF001037B61164B1B682F
:1054F000002B0AD102F0ECFE07E0134B1B6803F10E
:105500000102114B1A6002F0E3FE104B1B68002BE6
:1055100002D04FF001037B617B69184607F1180741
:10552000BD4680BDF0020020E40200209802002069
:105530009C020020FC020020F4000020E802002071
:105540000C02002008020020F4020020F8020020D3
:1055500080B582B000AF3C4B1B68002B04D03B4BA6
:105560004FF001021A606AE0384B4FF000021A60F7
:10557000374B1B681A68364B1B681B6B9A4209D85D
:10558000334B1A68324B1B6803F13403104619463B
:1055900002F0A4FE2E4B1B681B6B18462D494FF0E2
:1055A000140203F013FD0346002B17D0284B1A6892
:1055B000274B1B6803F134031046194602F08EFE98
:1055C0000CE0254B1B68002B02D102F0EDF9FEE741
:1055D000214B1B6803F1FF321F4B1A601E4B1A68E8
:1055E00013464FEA83039B184FEA83031A461B4B6B
:1055F000D3181B68002BE4D0174B1A6813464FEAE8
:1056000083039B184FEA83031A46144BD3187B601D
:105610007B685B685A687B685A607B685A687B68FD
:1056200003F108039A4204D17B685B685A687B687F
:105630005A607B685B68DB681A46054B1A6007F1A5
:105640000807BD4680BD00BFF0020020F802002020
:105650000802002010920008E80200200C0200203E
:1056600080B584B000AF786039607B68002B02D1D0
:1056700002F09AF9FEE7144B1B6803F118037868EF
:10568000194601F019FB104B1B6803F1040318467F
:1056900001F04CFB3B68B3F1FF3F08D10A4B1B689C
:1056A00003F104030948194601F0E2FA07E0084B48
:1056B0001A683B68D318FB60F86800F0FBF907F143
:1056C0001007BD4680BD00BF08020020CC020020AC
:1056D000E402002080B584B000AF786039607B6858
:1056E000002B02D102F060F9FEE70D4B1B6803F1BD
:1056F00018037868194601F0BBFA094B1B6803F1DF
:105700000403184601F012FB064B1A683B68D318D5
:10571000FB60F86800F0CEF907F11007BD4680BDC8
:1057200008020020E402002080B584B000AF786059
:105730007B68DB68DB68BB60BB68002B02D102F0D2
:1057400033F9FEE7BB6803F11803184601F0EEFADF
:10575000224B1B68002B22D1BB6803F104031846BF
:1057600001F0E4FABB68DA6A1D4B1B689A4203D960
:10577000BB68DA6A1A4B1A60BB68DA6A13464FEAEA
:1057800083039B184FEA83031A46164BD218BB6853
:1057900003F104031046194601F06AFA06E0BB68FB
:1057A00003F118031048194601F062FABB68DA6A7F
:1057B0000E4B1B68DB6A9A4207D34FF00103FB6074
:1057C0000B4B4FF001021A6002E04FF00003FB6048
:1057D000FB68184607F11007BD4680BDF0020020A7
:1057E000E80200200C020020A00200200802002095
:1057F000F802002080B582B000AF78607B68002B93
:1058000002D102F0D1F8FEE7054B1A687B681A60F6
:10581000044B1A687B685A6007F10807BD4680BDD3
:10582000FC020020E402002080B584B000AF786064
:1058300039607B68002B02D102F0B6F8FEE73B68C6
:10584000002B02D102F0B0F8FEE702F087F81F4B00
:105850001B68BB603B681B68B3F1FF3F03D14FF08F
:105860000003FB6029E07B681A68194B1B689A42A9
:1058700008D07B685A68BB689A4203D84FF001038E
:10588000FB601AE07B685B68BA68D21A3B681B68E9
:105890009A420FD23B681A687B685968BB68CB1A7A
:1058A000D2183B681A607868FFF7A4FF4FF0000336
:1058B000FB6002E04FF00103FB6002F061F8FB685F
:1058C000184607F11007BD4680BD00BFE402002066
:1058D000FC02002080B400AF034B4FF001021A60BD
:1058E000BD4680BC704700BFF802002080B582B082
:1058F00000AF786000F0A0F8044B1B68012B01D9C1
:1059000002F01CF802F0DEFCF4E700BF0C020020FD
:1059100080B586B000AFF860B9607A603B604FF048
:1059200000037B6113E0BA687B69D3181A78F968C1
:105930007B69CB1803F130031A71BA687B69D318FD
:105940001B78002B07D07B6903F101037B617B6926
:10595000092BE8D900E000BFFB684FF0000283F894
:105960003D207B68042B02D94FF004037B60FB6869
:105970007A68DA62FB687A689A64FB6803F1040368
:10598000184601F067F9FB6803F11803184601F0A7
:1059900061F9FB68FA681A617B68C3F10502FB686C
:1059A0009A61FB68FA685A6207F11807BD4680BD24
:1059B00080B582B000AF4FF000037B6010E07A68E2
:1059C00013464FEA83039B184FEA83031A46124B90
:1059D000D318184601F01AF97B6803F101037B60C4
:1059E0007B68042BEBD90D4801F010F90C4801F04D
:1059F0000DF90C4801F00AF90B4801F007F90B48C2
:105A000001F004F90A4B054A1A600A4B044A1A606D
:105A100007F10807BD4680BD0C020020700200207F
:105A200084020020A0020020B4020020CC0200204A
:105A3000980200209C02002080B582B000AF2AE0CE
:105A4000FFF7E8FB184B1B68002B14BF0023012352
:105A50007B60FFF7EDFB7B68002B1CD101F07EFF24
:105A6000114BDB68DB683B603B6803F104031846BD
:105A700001F05CF90D4B1B6803F1FF320B4B1A6010
:105A80000B4B1B6803F1FF32094B1A6001F078FFE2
:105A9000386800F081F8064B1B68002BD0D107F165
:105AA0000807BD4680BD00BFB4020020E002002010
:105AB000C802002080B582B000AF7860144B1B682C
:105AC0007A685A60134B1B687A689A420AD2124B62
:105AD0001A680F4B1B6803F104031046194601F0C6
