:020000040800F2
:100000008037012035120008A9120008276A00086D
:10001000A9120008A9120008A91200080000000097
:100020000000000000000000000000005D760008F5
:10003000A912000800000000F577000845780008C4
:10004000A9120008A9120008A9120008A9120008A4
:10005000A9120008A9120008A9120008A912000894
:10006000A9120008A9120008A9120008A912000884
:10007000A9120008A9120008A9120008A912000874
:10008000A9120008A9120008A9120008A912000864
:10009000A9120008A9120008A9120008A912000854
:1000A000A9120008A9120008A9120008A912000844
:1000B000A9120008A9120008A9120008A912000834
:1000C000A9120008A9120008A9120008A912000824
:1000D000A9120008A9120008A9120008A912000814
:1000E000A9120008A9120008A9120008A912000804
:1000F000A9120008A9120008A9120008A9120008F4
:10010000A9120008A9120008A9120008A9120008E3
:10011000A9120008A9120008A9120008853C0008CD
:10012000A9120008A9120008A9120008A9120008C3
:10013000A9120008A9120008A9120008A9120008B3
:10014000A9120008A9120008A9120008A9120008A3
:10015000A9120008A9120008A9120008A912000893
:10016000A9120008A9120008A9120008A912000883
:10017000A9120008A9120008A9120008A912000873
:10018000A9120008A912000880B582B000AF324B56
:100190001B78002B5AD14FF480004FF0010103F07F
:1001A00065F92E4B9B6818464FF0010103F03CF9AE
:1001B0002A4B9B6918464FF0010103F035F94FF4C3
:1001C00080004FF0010103F095F94FF480004FF0EB
:1001D000000103F08FF9214B1A68204B1B7B10465E
:1001E00019464FF0040206F0BFFB1C4B1A691B4B6B
:1001F0001B7F104619464FF0040206F0B5FB4FF086
:1002000002033B714FF002037B714FF00103BB719E
:100210004FF00003FB71114B9B883B600F4B1A683A
:100220003B461046194606F0DDFA0C4B9B8A3B60B4
:100230000A4B1A693B461046194606F0D3FA00F0FD
:1002400003FC054B4FF001021A7000E000BF07F1FC
:100250000807BD4680BD00BF8001002000000020CF
:1002600080B584B000AF02460B46FA71BB714FF007
:1002700000037B814FF44053FB6079484FF001014C
:1002800007F096FD4FF44053FB600DE0FB68002B38
:1002900004D0FB6803F1FF33FB6005E04FF0FF3053
:1002A00000F0F8FB0346D4E06D486E4907F078FE95
:1002B0000346002BEAD06A484FF0000107F0D6FD54
:1002C000FB79674819464FF0000207F0B1FD4FF483
:1002D0004053FB600DE0FB68002B04D0FB6803F18A
:1002E000FF33FB6005E06FF0010000F0D3FB034635
:1002F000AFE05B485C4907F053FE0346002BEAD0B1
:10030000574B1B8B4FF44053FB600DE0FB68002BF9
:1003100004D0FB6803F1FF33FB6005E06FF00200DF
:1003200000F0B8FB034694E04D48504907F038FE12
:100330000346002BEAD0BB794948194607F0DAFD9D
:100340004FF44053FB600DE0FB68002B04D0FB68CA
:1003500003F1FF33FB6005E06FF0030000F09AFB50
:10036000034676E03E48414907F01AFE0346002B5B
:10037000EAD03B483E4907F013FE0346002BE3D08A
:1003800037484FF0010107F013FD4FF44053FB6075
:100390000DE0FB68002B04D0FB6803F1FF33FB602A
:1003A00005E06FF0040000F075FB034651E02C48B7
:1003B0002C4907F0F5FD0346002BEAD0FB792848CD
:1003C00019464FF0010207F033FD4FF44053FB6034
:1003D0000DE0FB68002B04D0FB6803F1FF33FB60EA
:1003E00005E06FF0050000F055FB034631E01C48C6
:1003F0001D4907F0D5FD0346002BEAD0184B1B8B97
:100400004FF44053FB600DE0FB68002B04D0FB6809
:1004100003F1FF33FB6005E06FF0060000F03AFBEC
:10042000034616E00E48134907F0BAFD0346002BB9
:10043000EAD00B484FF0010107F0DAFC084807F05A
:1004400069FD03467B8106484FF0010107F00EFD70
:100450007B891BB2184607F11007BD4680BD00BF5F
:100460000058004001000010020000108000001041
:10047000040000104000001080B584B000AF1346A7
:100480000246FA710A46BA717B714FF000037B8114
:100490004FF44053FB6055484FF0010107F088FCD2
:1004A0004FF44053FB600DE0FB68002B04D0FB6869
:1004B00003F1FF33FB6005E04FF0FF3000F0EAFA94
:1004C00003468DE049484A4907F06AFD0346002B80
:1004D000EAD0FB79454819464FF0000207F0A8FC26
:1004E0004FF44053FB600DE0FB68002B04D0FB6829
:1004F00003F1FF33FB6005E06FF0010000F0CAFA82
:1005000003466DE039483B4907F04AFD0346002B9E
:10051000EAD0364B1B8B4FF44053FB600DE0FB6879
:10052000002B04D0FB6803F1FF33FB6005E06FF0A4
:10053000020000F0AFFA034652E02C482E4907F0C3
:100540002FFD0346002BEAD0BB792848194607F057
:10055000D1FC4FF44053FB600DE0FB68002B04D04E
:10056000FB6803F1FF33FB6005E06FF0030000F070
:1005700091FA034634E01D481F4907F011FD034678
:10058000002BEAD07B791948194607F0B3FC4FF4E9
:100590004053FB600DE0FB68002B04D0FB6803F1C7
:1005A000FF33FB6005E06FF0040000F073FA0346D0
:1005B00016E00E48104907F0F3FC0346002BEAD082
:1005C0000A480E4907F0ECFC0346002BE3D007482D
:1005D0004FF0010107F00CFC4FF000037B817B8999
:1005E0001BB2184607F11007BD4680BD00580040F9
:1005F0000100001002000010800000100400001034
:1006000080B586B000AF13460246FA710A46BA7149
:100610007B714FF000033B824FF440537B617B7949
:10062000002B02D14FF6F87318E17B790A2B02D91F
:100630004FF6F77312E18C484FF0010107F0B8FB59
:100640004FF440537B610DE07B69002B04D07B6944
:1006500003F1FF337B6105E04FF0FF3000F01AFA41
:100660000346FBE08048814907F09AFC0346002BD3
:10067000EAD07B79012B05D17B484FF0000107F0D0
:10068000F5FB04E078484FF0010107F0EFFBFB7940
:10069000754819464FF0000207F0CAFB4FF440536B
:1006A0007B610DE07B69002B04D07B6903F1FF3394
:1006B0007B6105E06FF0010000F0ECF90346CDE04E
:1006C00069486B4907F06CFC0346002BEAD0664B87
:1006D0001B8B4FF440537B610DE07B69002B04D0F2
:1006E0007B6903F1FF337B6105E06FF0020000F0EE
:1006F000D1F90346B2E05C485E4907F051FC03467D
:10070000002BEAD0BB795848194607F0F3FB4FF4A9
:1007100040537B610DE07B69002B04D07B6903F1C2
:10072000FF337B6105E06FF0030000F0B3F903468F
:1007300094E04D484F4907F033FC0346002BEAD0C4
:1007400049484D4907F02CFC0346002BE3D04648AE
:100750004FF0010107F02CFB4FF440537B610DE09B
:100760007B69002B04D07B6903F1FF337B6105E0DB
:100770006FF0040000F08EF903466FE03A483B4901
:1007800007F00EFC0346002BEAD0FB7936481946E9
:100790004FF0010207F04CFB4FF440537B610DE03A
:1007A0007B69002B04D07B6903F1FF337B6105E09B
:1007B0006FF0050000F06EF903464FE02A482C491F
:1007C00007F0EEFB0346002BEAD0274B1B8B4FF0C4
:1007D0000003FB7435E0FB7C03F101027B799A4254
:1007E00009DB21484FF0000107F040FB1E484FF0A5
:1007F000010107F0FDFA4FF440537B610DE07B6986
:10080000002B04D07B6903F1FF337B6105E06FF0BF
:10081000060000F03FF9034620E01348174907F0AF
:10082000BFFB0346002BEAD00F4807F073FB0346DB
:10083000FB73FB7C124AF97BD154FB7C03F101036F
:10084000FB74FA7C7B799A42C5D307484FF00101CB
:1008500007F00CFB4FF000033B823B8A1BB21846AB
:1008600007F11807BD4680BD005800400100001088
:100870000200001080000010040000104000001072
:10088000242F012080B586B000AF13460246FA71CE
:100890000A46BA717B714FF000033B824FF440531C
:1008A0007B617B79002B02D14FF6FA73BAE07B793A
:1008B0000A2B02D94FF6F973B4E05D484FF00101FD
:1008C00007F076FA4FF440537B610DE07B69002B13
:1008D00004D07B6903F1FF337B6105E04FF0FF300B
:1008E00000F0D8F803469DE05148524907F058FB04
:1008F0000346002BEAD0FB794D4819464FF0000221
:1009000007F096FA4FF440537B610DE07B69002BB2
:1009100004D07B6903F1FF337B6105E06FF00100D8
:1009200000F0B8F803467DE04148434907F038FB42
:100930000346002BEAD03E4B1B8B4FF440537B61A8
:100940000DE07B69002B04D07B6903F1FF337B61F1
:1009500005E06FF0020000F09DF8034662E03448C5
:10096000364907F01DFB0346002BEAD0BB7930481F
:10097000194607F0BFFA4FF440537B610DE07B69E5
:10098000002B04D07B6903F1FF337B6105E06FF03E
:10099000030000F07FF8034644E02548274907F0AC
:1009A000FFFA0346002BEAD04FF00003FB742CE063
:1009B000FB7C234AD35CFB73FB7B1D48194607F085
:1009C00099FA4FF440537B610DE07B69002B04D012
:1009D0007B6903F1FF337B6105E06FF0040000F0F9
:1009E00059F803461EE01248144907F0D9FA0346A5
:1009F000002BEAD00E48134907F0D2FA0346002B29
:100A0000E3D0FB7C03F10103FB74FA7C7B799A420F
:100A1000CED307484FF0010107F0EAF94FF0000389
:100A20003B823B8A1BB2184607F11807BD4680BDC2
:100A3000005800400100001002000010800000106B
:100A4000242F01200400001080B584B000AF4FF0C7
:100A50000003BB804BF6FF73FB804FF000033B812C
:100A60004FF480637B814FF48043BB81074B3B6035
:100A700007484FF0010107F07BF93B46044819464F
:100A800007F09EF807F11007BD4680BDA086010063
:100A90000058004080B584B000AF0346FB80FB885F
:100AA000FB810D484FF0010107F0A2F90A484FF011
:100AB000010107F0FBF908484FF0000107F0F6F9D3
:100AC000054807F03DF8FFF7BFFFFB891BB218464A
:100AD00007F11007BD4680BD0058004080B582B0C8
:100AE00000AF4FF004004FF0010102F09DFC4FF009
:100AF00001033B714FF00003BB714FF00003FB712A
:100B00004FF003037B714FF480633B603B460C481E
:100B1000194605F067FE4FF400633B603B4608480A
:100B2000194605F05FFE064B4FF400625A83044BF2
:100B30004FF480621A8307F10807BD4680BD00BFED
:100B40000008024080B582B000AF02460B46FA7141
:100B5000BB71FFF7C3FF55484FF0010105F010FBD3
:100B6000BB79202B02D94FF02003BB71504BFA798F
:100B70005A704F4BBA791A704D4B4FF003029A706E
:100B80004B4B4FF00002DA7000F020FA484B5B78D4
:100B9000184600F0F1FA464B1B784FF01100194649
:100BA00000F016F9424B1B784FF01200194600F086
:100BB0000FF93F4B1B784FF01300194600F008F96E
:100BC0003B4B1B784FF01400194600F001F9384BED
:100BD0001B784FF01500194600F0FAF8344B1B78DB
:100BE0004FF01600194600F0F3F8314BDA78304B2D
:100BF0009B781046194600F0DBFA4FF000004FF0EA
:100C0000080100F0E5F84FF001004FF03F0100F05F
:100C1000DFF84FF002004FF03F0100F0D9F84FF03D
:100C200004004FF04F0100F0D3F84FF01C004FF0DC
:100C3000000100F0CDF81F4B4FF480625A831B482F
:100C40004FF0E10105F0CCFA1A4B4FF480621A83A1
:100C5000184B4FF480625A8314484FF0E20105F0BC
:100C6000BFFA144B4FF480621A834FF007004FF025
:100C700004014FF0010200F04FF84FF007004FF071
:100C800005014FF0010200F047F84FF007004FF068
:100C900006014FF0010200F03FF800F0EBF84FF0D2
:100CA0000103184607F10807BD4680BD0038004023
:100CB000302F01200008024080B582B000AF78607C
:100CC000094B4FF400625A834FF00B0079684FF0E4
:100CD000050200F0A5F8044B4FF400621A8307F1F7
:100CE0000807BD4680BD00BF0008024080B582B045
:100CF00000AF78604FF00A0079684FF0050200F00D
:100D00008FF84FF0100079684FF0050200F088F876
:100D100007F10807BD4680BD80B584B000AF13461B
:100D20000246FA710A46BA717B71FB79184600F0E7
:100D300029F80346FB737B79002B0BD0BB794FF06E
:100D4000010202FA03F3DAB2FB7B42EA0303DBB2ED
:100D5000FB730DE0BB794FF0010202FA03F3DBB243
:100D60006FEA0303DAB2FB7B02EA0303DBB2FB7335
:100D7000FA79FB7B1046194600F02AF807F11007B4
:100D8000BD4680BD80B584B000AF0346FB710E4BFD
:100D90004FF480625A83FB7903F01F03DBB20B48E8
:100DA000194605F01DFA09484FF0FF0105F018FA41
:100DB0000346FB73044B4FF480621A83FB7B184697
:100DC00007F11007BD4680BD000802400038004012
:100DD00080B582B000AF02460B46FA71BB710E4B74
:100DE0004FF480625A83FB7903F01F03DBB243F0B8
:100DF0002003DBB20948194605F0F2F9BB79074830
:100E0000194605F0EDF9044B4FF480621A8307F19F
:100E10000807BD4680BD00BF000802400038004002
:100E200080B584B000AFB96013460246FA73FB7117
:100E30000E4B4FF480625A83FB7B03F01F03DBB23F
:100E400043F02003DBB20A48194605F0C9F9FB79E3
:100E50009BB20748B9681A4605F014FA034B4FF4E1
:100E600080621A8307F11007BD4680BD000802406A
:100E70000038004080B500AF194B4FF480625A83B0
:100E800018484FF0E20105F0ABF9154B4FF48062C2
:100E90001A834FF007004FF004014FF00102FFF7F3
:100EA0003BFF4FF007004FF005014FF00102FFF745
:100EB00033FF4FF007004FF006014FF00102FFF73C
:100EC0002BFF074B4FF400625A834FF000004FF0A6
:100ED0000B01FFF77DFF024B4FF400621A8380BDC8
:100EE000000802400038004080B582B000AF786052
:100EF0000E4B4FF480625A830D484FF0610105F0AC
:100F00006FF90C4B1B780A4879687A6805F096F9F6
:100F1000064B4FF480621A834FF007004FF04001F8
:100F2000FFF756FF07F10807BD4680BD00080240E5
:100F300000380040302F012080B582B000AF00F0B3
:100F400029F80346FB71FB7903F04003002B02D024
:100F50004FF0010307E000F00BF80346002B14BF2D
:100F600000230123DBB2184607F10807BD4680BD08
:100F700080B582B000AF4FF01700FFF703FF0346C4
:100F8000FB71FB7903F00103DBB2184607F1080798
:100F9000BD4680BD80B582B000AF0A4B4FF4806281
:100FA0005A8309484FF0FF0105F01AF90346FB7117
:100FB000044B4FF480621A83FB79184607F1080747
:100FC000BD4680BD000802400038004080B582B0B8
:100FD00000AF4FF000004FF00801FFF7F9FE4FF0AF
:100FE00001004FF03F01FFF7F3FE4FF002004FF01A
:100FF0000301FFF7EDFE4FF003004FF00301FFF791
:10100000E7FE4FF004004FF00301FFF7E1FE4FF061
:1010100005004FF00201FFF7DBFE4FF006004FF036
:101020000E01FFF7D5FE4FF007004FF00E01FFF75E
:10103000CFFE4FF008004FF00001FFF7C9FE4FF060
:1010400009004FF00001FFF7C3FE4FF0E7033B70CC
:101050004FF0E7037B704FF0E703BB704FF0E703FF
:10106000FB704FF0E7033B713B464FF00A00194617
:101070004FF00502FFF7D4FE4FF0C2033B704FF074
:10108000C2037B704FF0C203BB704FF0C203FB7012
:101090004FF0C2033B713B464FF00B0019464FF037
:1010A0000502FFF7BDFE4FF00C004FF0C301FFF744
:1010B0008FFE4FF00D004FF0C401FFF789FE4FF097
:1010C0000E004FF0C501FFF783FE4FF00F004FF009
:1010D000C601FFF77DFE4FF0E7033B704FF0E703DB
:1010E0007B704FF0E703BB704FF0E703FB704FF0EE
:1010F000E7033B713B464FF0100019464FF00502E5
:10110000FFF78EFE4FF011004FF00001FFF760FE79
:101110004FF012004FF00001FFF75AFE4FF013009E
:101120004FF00001FFF754FE4FF014004FF00001A4
:10113000FFF74EFE4FF015004FF00001FFF748FE9D
:101140004FF016004FF00001FFF742FE4FF017007E
:101150004FF01101FFF73CFE4FF01C004FF0000173
:10116000FFF736FE4FF01D004FF00001FFF730FE95
:1011700007F10807BD4680BD80B582B000AF0346C9
:10118000FB71FB797D2B0DD8084B5B78FA799A427D
:1011900008D0064BFA795A70FB794FF005001946D2
:1011A000FFF716FE07F10807BD4680BD302F01206E
:1011B00080B584B000AF02460B46FA71BB714FF0A8
:1011C0000003FB731A4BFA79DA70194BBA799A70EB
:1011D000FB79002B04D1FB7B43F00803FB7306E093
:1011E000FB79022B03D1FB7B43F02003FB73BB791C
:1011F000032B04D1FB7B43F00603FB730EE0BB79AA
:10120000022B04D1FB7B43F00403FB7306E0BB79A4
:10121000012B03D1FB7B43F00203FB73FB7B4FF0FD
:1012200006001946FFF7D4FD07F11007BD4680BD43
:10123000302F012080B582B000AF154B7B60154B7D
:101240003B600BE07B681A683B681A603B6803F1FF
:1012500004033B607B6803F104037B603A680E4B38
:101260009A42EFD30D480E494FF000028842B8BFB2
:1012700040F8042BFADBDFF82C00016841F4700120
:10128000016000F0BFF907F10807BD4680BD00BF4F
:1012900062900008000000208001002080010020F2
:1012A0007C2F012088ED00E080B400AFFEE700BF96
:1012B00080B584B000AF4FF00003FB7356E0FA7BBB
:1012C0002E4913464FEA83039B184FEA8303CB183A
:1012D00003F10C031B6818464FF0010102F0A4F85B
:1012E000FA7B264913464FEA83039B184FEA830390
:1012F000CB1803F108031B887B604FF001033B729E
:101300004FF00003BB724FF00103FB724FF002037A
:101310007B72FA7B194913464FEA83039B184FEA05
:101320008303CB1803F104031A6807F10403104682
:10133000194605F057FAFA7B104913464FEA830322
:101340009B184FEA8303CB1803F110031B78002B83
:1013500004D1FB7B184600F013F803E0FB7B184632
:1013600000F034F8FB7B03F10103FB73FB7B052BDF
:10137000A5D907F11007BD4680BD00BF20000020A1
:1013800080B483B000AF0346FB71FA790E4913466F
:101390004FEA83039B184FEA8303CB1803F104033E
:1013A0001968FA79084813464FEA83039B184FEAF5
:1013B0008303C31803F108031B884B8307F10C0751
:1013C000BD4680BC704700BF2000002080B483B0C1
:1013D00000AF0346FB71FA790E4913464FEA8303C7
:1013E0009B184FEA8303CB1803F104031968FA79B9
:1013F000084813464FEA83039B184FEA8303C31838
:1014000003F108031B880B8307F10C07BD4680BC62
:10141000704700BF2000002090B482B000AF0346A8
:10142000FB71FA79154913464FEA83039B184FEA7B
:101430008303CB1803F104031968FA790F481346A4
:101440004FEA83039B184FEA8303C31803F1040395
:101450001B685869FA79094C13464FEA83039B18B5
:101460004FEA8303E31803F108031B8880EA0303B0
:101470004B6107F10807BD4690BC70472000002073
:1014800080B500AF02F026FBFFF712FF4FF000001F
:1014900002F078FBFEF778FE05F042FC04F08EFCCB
:1014A0004FF010004FF00401FFF74CFB4FF000002D
:1014B0004FF00001FFF77CFE4148FFF7FDFB41487C
:1014C000FFF714FC404B4FF001021A704FF0800000
:1014D0004FF0E6014FF00102FFF7D4F942F2342059
:1014E0004FF0090107F076FB03461A46374B1A7096
:1014F00042F235204FF0090107F06CFB03461A4613
:10150000334B1A7042F236204FF0090107F062FBAC
:1015100003461A462F4B1A7042F237204FF009014A
:1015200007F058FB03461A462B4B1A7042F238203C
:101530004FF0090107F04EFB03461A46274B1A707D
:10154000244B1A78264B1A70204B1A78254B1A70A8
:10155000244B1A781E4B1B78D318DAB2224B1A7020
:10156000214B1A781B4B1B78D318DAB21F4B1A7019
:101570001E4B1A781A4B1B78D318DAB21C4B1A7010
:101580001B4B1A78154B1B78D318DAB2194B1A700B
:10159000184B1A78104B1B78D318DAB2164B1A7006
:1015A000164B4FF000021A704FF00500FFF70EFFC8
:1015B000134803F0F7FB4FF00500FFF7E1FE80BD95
:1015C000A000002098000020242F0120A40100206A
:1015D000A5010020A6010020A7010020A8010020ED
:1015E000A9010020B7010020BB010020B9010020A3
:1015F000BA010020BC010020B8010020BD0100207C
:10160000404B4C0080B584B004AF05F0D3FAFFF72F
:1016100037FF554B4FF0010200924FF0000201924C
:101620004FF0000202924FF0000203924F48194619
:101630004FF082024FF0000303F0DAFB4C4B4FF007
:10164000010200924FF0000201924FF0000202925C
:101650004FF000020392474819464FF082024FF0C4
:10166000000303F0C5FB444B4FF0010200924FF022
:10167000000201924FF0000202924FF0000203922A
:101680003E4819464FF082024FF0000303F0B0FBD2
:101690003B4B4FF0010200924FF0000201924FF0DD
:1016A000000202924FF000020392364819464FF0B2
:1016B00082024FF0000303F09BFB334B4FF001021B
:1016C00000924FF0000201924FF0000202924FF0A0
:1016D000000203922D4819464FF082024FF000039A
:1016E00003F086FB2A4B4FF0010200924FF00002FC
:1016F00001924FF0000202924FF00002039225483F
:1017000019464FF082024FF0000303F071FB224BA9
:101710004FF0010200924FF0000201924FF00002E0
:1017200002924FF0000203921C4819464FF08202C9
:101730004FF0000303F05CFB194B4FF001020092E5
:101740004FF0000201924FF0000202924FF00002AF
:101750000392144819464FF082024FF0000303F041
:1017600047FB03F02DFCFEE7CC8F0008C5190008ED
:10177000DC8F00084D1B0008E48F0008111F0008D3
:10178000EC8F000839190008F88F00086D24000854
:101790000C900008F1190008189000086118000862
:1017A0002C900008A917000880B582B000AF7860BF
:1017B00004E000BF02E000BF00E000BF224B1B7846
:1017C000002BF6D1214B1B78002BF4D1204B1B783A
:1017D0001A46204B1B784FF47A7101FB03F31E4924
:1017E00081FB03014FEA61114FEAE373CB1A9A427E
:1017F000E3DA1A4B1B78092B06D803F017FA4FF0DF
:10180000010002F09DFB05E003F0ECF94FF0010050
:1018100002F096FB4FF4C37003F0A6FB0F4B1B784E
:10182000092B06D803F00EFA4FF0000002F088FBF7
:1018300005E003F0EFF94FF0000002F081FB4FF4F8
:10184000C37003F091FBB9E7AA010020BD0100209D
:10185000A2010020A40100201F85EB519D01002062
:1018600080B584B000AF78604FF00003FB7305F0E3
:101870008DFF4FF0D0004FF000014FF00602FEF751
:10188000BFFE0346FB73FB7B002B3ED1224B1B7834
:10189000184602F0DDFA03461A46204B1A701E4B1A
:1018A0005B78184602F0D4FA03461A461C4B1A70AD
:1018B000194B9B78184602F0CBFA03461A46194B8F
:1018C0001A70154BDB78184602F0C2FA03461A4626
:1018D000154B1A70104B1B79184602F0B9FA0346E3
:1018E0001A46124B1A700C4B5B79184602F0B0FA8C
:1018F00003461A460E4B1A70074B9B79184602F0A6
:10190000A7FA03461A460B4B1A7005F051FF4FF425
:10191000FA7003F029FBAAE7242F01209B01002085
:101920009C0100209D0100209F0100209E010020BD
:10193000A0010020A101002080B582B000AF786036
:1019400005F024FFFFF7F8FA0346012B0BD11B48E3
:10195000FFF7CAFA1A4B4FF000021A704FF001005D
:10196000FFF70EFD22E04FF00100FFF72FFD144BB3
:101970001B7803F10103DAB2114B1A70104B1B787C
:10198000042B13D90D4B4FF009021A700B4B4FF07B
:1019900009025A70094B4FF009029A70074B4FF039
:1019A0000902DA70064B4FF001021A7005F000FFD1
:1019B00041F2883003F0D8FAC2E700BF3C2F012083
:1019C000B401002080B582B000AF78604FF0020013
:1019D000FFF722FD054B1B7803F10103DAB2034B3D
:1019E0001A704FF47A7003F0BFFAEFE7A2010020FB
:1019F00080B582B000AF7860464B1B78002B0FD0CB
:101A0000444B1B78042B0BD0424B1B780D2B07D07B
:101A1000404B1B78112B03D03E4B1B78152B14D158
:101A20003D4B1B780A2B0BD03B4B1B78142B07D05C
:101A3000394B1B78232B03D0374B1B78322B04D127
:101A4000364B4FF001021A7003E0344B4FF00002A6
:101A50001A704FF0000002F095F80346002B39D0C1
:101A600003F0B6F92E4B1B78002B04D12C4B4FF012
:101A700001021A7026E02A4B1B7803F10103DAB247
:101A8000274B1A70274B4FF000021A70264B4FF06D
:101A900000021A70254B4FF000021A70244B4FF0D1
:101AA00000021A70234B4FF000021A70224B4FF0C5
:101AB00000021A70214B4FF000021A70204B4FF0B9
:101AC00000021A70164B1B780A2B03D1144B4FF0EF
:101AD00000021A704FF0010002F054F80346002B88
:101AE00005D0184B4FF001021A7003F071F94FF056
:101AF000020002F047F80346002B05D0124B4FF0CE
:101B000001021A7003F064F94FF0020003F02CFA9E
:101B100072E700BF9D0100209C010020BD01002054
:101B2000AA010020AB010020AC010020AD01002083
:101B3000AE010020AF010020B0010020B101002063
:101B4000B2010020B5010020B601002080B584B0AC
:101B500000AF78604FF00003FB730B4B1B78002B3A
:101B600014D04FF000004FF0000104F02FF94FF0B7
:101B700001004FF0400104F029F94FF002004FF04E
:101B8000000104F023F9BBE1AA0100207F4B1B7880
:101B90000A2B40F289807D4B1B78132B00F2848046
:101BA000FB7B002B02D14FF00103FB73FB7B012B6E
:101BB00010D1BB7B03F10103BB734FF000037B73B8
:101BC0004FF000033B73BB7B5BB2002B02DA4FF09C
:101BD0000203FB73FB7B022B0AD17B7B03F1010326
:101BE0007B737B7B5BB2002B02DA4FF00303FB734A
:101BF000FB7B032B09D1BB7B03F1FF33BB73BB7BA7
:101C0000002B02D14FF00403FB73FB7B042B0AD1A2
:101C10003B7B03F101033B733B7B5BB2002B02DA9E
:101C20004FF00503FB73FB7B052B09D17B7B03F195
:101C3000FF337B737B7B002B02D14FF00603FB73DA
:101C4000FB7B062B0AD1BB7B03F10103BB73BB7B80
:101C50005BB2002B02DA4FF00703FB73FB7B072B11
:101C600009D13B7B03F1FF333B733B7B002B02D15C
:101C70004FF00003FB733B7B9BB24FF00000194613
:101C800004F0A4F8BB7B9BB24FF00100194604F0AE
:101C90009DF87B7B9BB24FF00200194604F096F84A
:101CA0004FF01E0003F060F9384B1B78132B40F205
:101CB0008880364B1B78162B00F28380FB7B002B31
:101CC00002D14FF00103FB73FB7B012B0FD1BB7BD8
:101CD00003F10103BB734FF000037B734FF000036C
:101CE0003B73BB7B0F2B02D94FF00203FB73FB7BD3
:101CF000022B09D17B7B03F101037B737B7B0F2BD1
:101D000002D94FF00303FB73FB7B032B09D1BB7B91
:101D100003F1FF33BB73BB7B002B02D14FF00403F5
:101D2000FB73FB7B042B09D13B7B03F101033B736A
:101D30003B7B0F2B02D94FF00503FB73FB7B052B7D
:101D400009D17B7B03F1FF337B737B7B002B02D1BB
:101D50004FF00603FB73FB7B062B09D1BB7B03F122
:101D60000103BB73BB7B0F2B02D94FF00703FB733F
:101D7000FB7B072B0CD13B7B03F1FF333B733B7B9E
:101D8000002B05D14FF00003FB7301E09D01002003
:101D90003B7B9BB24FF00000194604F017F8BB7B69
:101DA0009BB24FF00100194604F010F87B7B9BB208
:101DB0004FF00200194604F009F84FF0280003F034
:101DC000D3F8524B1B78082B11D84FF000004FF07E
:101DD000000103F0FBFF4FF001004FF0000103F0A2
:101DE000F5FF4FF002004FF0000103F0EFFF474B0B
:101DF0001B78082B40F28480444B1B78092B7FD83A
:101E0000FB7B002B02D14FF00103FB73FB7B012B0B
:101E10000FD1BB7B03F10103BB734FF000037B7356
:101E20004FF000033B73BB7B0F2B02D94FF0020333
:101E3000FB73FB7B022B09D17B7B03F101037B73DB
:101E40007B7B0F2B02D94FF00303FB73FB7B032B30
:101E500009D1BB7B03F1FF33BB73BB7B002B02D1EA
:101E60004FF00403FB73FB7B042B09D13B7B03F195
:101E700001033B733B7B0F2B02D94FF00503FB7330
:101E8000FB7B052B09D17B7B03F1FF337B737B7BD2
:101E9000002B02D14FF00603FB73FB7B062B09D10D
:101EA000BB7B03F10103BB73BB7B0F2B02D94FF04C
:101EB0000703FB73FB7B072B09D13B7B03F1FF334C
:101EC0003B733B7B002B02D14FF00003FB733B7B4A
:101ED0009BB24FF00000194603F078FFBB7B9BB22A
:101EE0004FF00100194603F071FF7B7B9BB24FF06E
:101EF0000200194603F06AFF4FF0280003F034F89F
:101F00004FF0030003F030F827E600BF9D010020EA
:101F100090B593B000AF78604FF00003A7F846305B
:101F20004FF00003A7F844304FF00003A7F8423009
:101F30004FF00003A7F840304FF00003FB874FF04D
:101F40000003BB874FF000037B874FF000033B8704
:101F50004FF00003FB864FF00003BB864FF00003F9
:101F60007B864FF000033B8605F010FC4FF0EF003E
:101F70004FF0AA01FEF774F903469BB24FEA032320
:101F80009CB24FF0EF004FF0AB01FEF769F903464A
:101F90009BB2E3189BB2A7F844304FF0EF004FF02C
:101FA000AC01FEF75DF903469BB24FEA03239CB2F6
:101FB0004FF0EF004FF0AD01FEF752F903469BB230
:101FC000E3189BB2A7F842304FF0EF004FF0AE019C
:101FD000FEF746F903469BB24FEA03239CB24FF04B
:101FE000EF004FF0AF01FEF73BF903469BB2E31859
:101FF0009BB2A7F840304FF0EF004FF0B001FEF772
:102000002FF903469BB24FEA03239CB24FF0EF0037
:102010004FF0B101FEF724F903469BB2E318FB87AA
:102020004FF0EF004FF0B201FEF71AF903469BB2F2
:102030004FEA03239CB24FF0EF004FF0B301FEF7DD
:102040000FF903469BB2E318BB874FF0EF004FF048
:10205000B401FEF705F903469BB24FEA03239CB295
:102060004FF0EF004FF0B501FEF7FAF803469BB2D0
:10207000E3187B874FF0EF004FF0B601FEF7F0F862
:1020800003469BB24FEA03239CB24FF0EF004FF0A0
:10209000B701FEF7E5F803469BB2E3189BB23B8716
:1020A0004FF0EF004FF0B801FEF7DAF803469BB2AD
:1020B0004FEA03239CB24FF0EF004FF0B901FEF757
:1020C000CFF803469BB2E3189BB2FB864FF0EF00BC
:1020D0004FF0BA01FEF7C4F803469BB24FEA032360
:1020E0009CB24FF0EF004FF0BB01FEF7B9F803468A
:1020F0009BB2E3189BB2BB864FF0EF004FF0BC01E0
:10210000FEF7AEF803469BB24FEA03239CB24FF0B2
:10211000EF004FF0BD01FEF7A3F803469BB2E318B2
:102120009BB27B864FF0EF004FF0BE01FEF798F8B0
:1021300003469BB24FEA03239CB24FF0EF004FF0EF
:10214000BF01FEF78DF803469BB2E3189BB23B86B6
:1021500005F02EFB05F01AFB4FF0EF004FF0F401F5
:102160004FF02E02FEF788F905F022FB4FF0050034
:1021700002F0FAFE05F00AFB4FF0EF004FF0F60117
:10218000FEF76EF803464FEA03244FF0EF004FF0DE
:10219000F701FEF765F80346E318FB6205F008FB5C
:1021A00005F0F4FA4FF0EF004FF0F4014FF0340275
:1021B000FEF762F905F0FCFA4FF0050002F0D4FEDC
:1021C00005F0E4FA4FF0EF004FF0F601FEF748F8A3
:1021D00003464FEA03244FF0EF004FF0F701FEF7FC
:1021E0003FF80346E318BB6205F0E2FA7B8FFA6A18
:1021F000D31ABA8F02FB03F34FEAD3337B62B7F9EA
:1022000032304FEAC322B7F930107B6ACB1892FB09
:10221000F3F37B847B6A9AB27B8CD3189BB23B84AA
:10222000B7F9203003F10803002B01DA03F10F03A3
:102230004FEA23139AB2854B1A803B8CA3F57A633D
:102240009BB2FB83B7F944304FEA8302B7F93630CB
:10225000B7F91E1001FB03F3002B03DA03F57E63CD
:1022600003F11F034FEA23331946B7F94230CB1865
:10227000B7F91E1001FB03F3002B03DA03F5FE632D
:1022800003F10F034FEAE323D31803F10203002BFA
:1022900001DA03F103034FEAA303BB83B7F940203C
:1022A000B7F938304FEA4303B7F91E1001FB03F3C7
:1022B000D318B7F91E2002FB03F3002B03DA03F156
:1022C000005303F1FF334FEA637303F102037B62B0
:1022D000FA8F7B6A002B01DA03F103034FEAA303B1
:1022E00003F5004303FB02F34FEAD3337B83B7F9D3
:1022F0001C30BA6AD31A4CF2503202FB03F37B61F2
:102300007A696FF078439A4206D87B694FEA4302B4
:102310007B8BB2FBF3F305E07B8B7A69B2FBF3F3C3
:102320004FEA43034A4A1360494B1B68002B01DA0A
:1023300003F1FF034FEA23231A46454B1B68002B8A
:1023400001DA03F1FF034FEA232303FB02F340F614
:10235000DE3202FB03F23E4B1B683E4901FB03F3F6
:10236000D318002B03DA4FF6FF729A1813464FEA80
:10237000234303F56C6303F10F03002B01DA03F130
:102380000F034FEA23131A46314B1B68D218304B08
:102390001A602F4B1A6813464FEA83039B184FEAC3
:1023A0000312D31A2C4A82FB03124FEA22324FEA5D
:1023B000E373D21A264B1A6005F0E8F94FF080005B
:1023C0004FF0E5014FF00302FEF71AF905F0F0F9BE
:1023D000224B1B78A7F84630B7F846304FEA032364
:1023E000A7F846301D4B5B781A46B7F84630D3182D
:1023F000A7F84630B7F8463023F00303A7F8463075
:10240000B7F8463007EE903AB8EEE77ADFED147A87
:10241000C7EE277AC7ED047A97ED047ADFED117ADB
:1024200067EE277AB1EE087A77EEC77AC7ED037ABE
:10243000D7ED037AFDEEE77A17EE903A9AB20A4B9F
:102440001A8041F2883002F08FFD69E58C0100208E
:102450008801002043E3FFFFAD8BDB68242F0120C0
:10246000000080470000FA429001002080B586B04D
:1024700000AF78604FF00003FB754FF00003BB75B1
:102480004FF000037B754FF000033B754FF00003E6
:10249000FB744FF00003BB744FF000037B744FF0EC
:1024A00000033B744FF00003FB734FF000037B739A
:1024B0004FF00003BB730B4B1B78002B40F09C804C
:1024C000094B1B78012B40F09780084B1B7803F1D8
:1024D0000103DAB2054B1A7002F084FB4FF00003DF
:1024E000BB7385E0AA010020BD010020A3010020EC
:1024F000BB7B002B05D0BB7B032B02D0BB7B062B09
:1025000007D14FF0010001F0BFFD4FF0010001F0D5
:1025100017FDBB7B012B05D0BB7B042B02D0BB7B03
:10252000072B07D14FF0010001F0E8FD4FF001004B
:1025300001F0D4FCBB7B022B05D0BB7B052B02D06A
:10254000BB7B082B09D14FF0010001F011FE4FF0C9
:10255000010001F027FD02F045FB4FF0010001F002
:1025600053FDBB7B1A464FEA8202D2184FEA420261
:10257000D318DAB2BB7B19464FEA8101C9184FEA7A
:102580004101CB18DBB21046194602F08BFABB7B37
:102590009BB21A464FEAC202D21A4FEA0212D31A6B
:1025A0009BB24FF00C00194601F0BEFE02F0E4FAB7
:1025B0004FF0500002F0D8FC01F092FE4FF0000006
:1025C00001F062FD4FF0000001F0BAFC02F022FBC6
:1025D0004FF0000001F0CCFD4FF0000001F014FDC1
:1025E0004FF0C80002F0C0FCBB7B03F10103BB73DA
:1025F000BB7B092B7FF67CAF934B1B78002B40F005
:10260000FC80924B1B78002B40F0F780904B1A789F
:10261000904B1B789A4210D28F4B1B784FF00400DE
:10262000194601F081FE8D4B1A788D4B1B781046B0
:10263000194602F037FA02F09FFA854B1A78854B5B
:102640001B789A4211D9824B1A78864B1B789A4292
:102650000BD202F003FB844B1B689BB24FF00300CC
:10266000194601F061FE02F087FA794B1A787D4B2A
:102670001B789A4217D9764B1A787C4B1B789A4272
:1026800011D202F003FB4FF000004FF00A0102F0FC
:1026900009FA774B1B889BB24FF00000194601F0F6
:1026A00043FE02F069FA6A4B1A78704B1B789A4223
:1026B00059D9674B1A786F4B1B789A4253D202F064
:1026C000E5FA4FF000004FF0140102F0EBF96A4B0D
:1026D0001B781A46684B9B7819464FEA8101CB1844
:1026E00019464FEA810019460346CB184FEA830387
:1026F00099B2614B5B7818464FEA8000C3184FEAE5
:1027000043039BB2CB189BB2D3189BB29AB25B4BDC
:102710001A80594BDB78092B09D1584B1B889BB287
:102720004FF00D00194601F0FFFD02F025FA524B63
:10273000DB782B2B09D1514B1B889BB24FF000004B
:10274000194601F0F1FD02F017FA4B4BDB782D2B07
:1027500009D14A4B1B889BB24FF00100194601F08A
:10276000E3FD02F009FA3A4B1A78424B1B789A4281
:1027700017D9374B1A78424B1B789A4211D202F084
:1027800085FA4FF000004FF00A0102F08BF93D4B43
:102790001B889BB24FF00200194601F0C5FD02F004
:1027A000EBF92B4B1A78364B1B789A4217D9284BEA
:1027B0001A78354B1B789A4211D202F013FA334B38
:1027C0001A78334B1B781046194602F06BF94FF01C
:1027D0000A004FF0000101F0A7FD02F0CDF91C4BFB
:1027E0001A78294B1B789A4203D9194B4FF00002F3
:1027F0001A704FF4FA7002F0B7FB134B1B78012BE1
:1028000040F0D380234B1B78002B06D1144B1B7850
:10281000BB75204B4FF001021A701F4B1B78012B28
:102820000ED1BB7D03F10103BB7597F916303B2B2D
:1028300002DD4FF00003BB75174B4FF000021A701A
:10284000164B1B782CE000BFAA010020BD01002020
:10285000A2010020B70100209B0100209D01002063
:102860009C010020BB01002088010020B90100204C
:102870008C010020BA0100203C2F0120940100208F
:10288000BC01002090010020B80100209E01002022
:10289000A0010020AB010020B5010020B6010020FE
:1028A000012B0ED1BB7D03F1FF33BB7597F91630B9
:1028B000002B02DA4FF03B03BB75974B4FF0000241
:1028C0001A7002F0D7F9954B1B784FF005001946A6
:1028D00001F02AFD924B1A78BB7D1046194602F092
:1028E000E1F802F049F94FF0640002F03DFB02F01C
:1028F00079F98A4B1B784FF00500194601F014FD59
:10290000874B1A78BB7D1046194602F0CBF802F0CF
:1029100033F9844B1B78012B0ED1BB7D03F10103EE
:10292000BB7597F916303B2B02DD4FF00003BB75EA
:102930007C4B4FF000021A70774B1B78012B0AD1A9
:10294000BB7D03F1FF33BB7597F91630002B02DA1C
:102950004FF03B03BB754FF01E0001F095FA0346A4
:10296000DAB2714B1A7097F91630184601F08CFAEA
:102970000346DAB26C4B5A70694B1B78184601F06B
:1029800083FA0346DAB2684B9A7004F0FFFE4FF008
:10299000D0004FF000014FF00302FDF773FF04F089
:1029A00007FF4FF0640002F0DFFA604B1B78022B48
:1029B00040F0A5805E4B1B78002B06D1584B1B784E
:1029C000FB755B4B4FF001021A70564B1B78012BC5
:1029D0000AD1FB7D03F10103FB7597F91730172B23
:1029E00002DD4FF00003FB754B4B1B78012B0ED122
:1029F000FB7D03F1FF33FB7597F91730002B02DAEB
:102A00004FF01703FB75444B4FF000021A7002F0B1
:102A100049F9424B1B784FF00500194601F084FC40
:102A2000FA7D444B1B781046194602F03BF802F041
:102A3000A3F84FF0640002F097FA02F0D3F8374B96
:102A40001B784FF00500194601F06EFCFA7D394BFA
:102A50001B781046194602F025F802F08DF8314B2C
:102A60001B78012B0ED1FB7D03F10103FB7597F958
:102A70001730172B02DD4FF00003FB75294B4FF089
:102A800000021A70244B1B78012B0ED1FB7D03F141
:102A9000FF33FB7597F91730002B02DA4FF017035D
:102AA000FB751D4B4FF000021A704FF01E0001F035
:102AB000EBF90346DAB21C4B1A701E4B1B78184612
:102AC00001F0E2F90346DAB2174B5A7097F9173062
:102AD000184601F0D9F90346DAB2134B9A7004F0A4
:102AE00055FE4FF0D0004FF000014FF00302FDF70C
:102AF000C9FE04F05DFE4FF0640002F035FA0B4BA6
:102B00001B78032B40F0CC800B4B1B78002B1CD187
:102B10000A4B1B7814E000BFB60100209B01002087
:102B20009D010020B5010020242F0120AA010020D2
:102B3000AC0100209C010020B10100209E0100207A
:102B40003B74914B4FF001021A70904B1B78012B94
:102B50000ED13B7C03F101033B7497F910301F2B1E
:102B600002DD4FF001033B74884B4FF000021A70F6
:102B7000874B1B78012B0ED13B7C03F1FF333B7459
:102B800097F91030002B02DC4FF01F033B74804B91
:102B90004FF000021A7002F085F84FF00A004FF073
:102BA000000101F0C1FB3A7C7A4B1B7810461946B4
:102BB00001F078FF01F0E0FF4FF0640002F0D4F97B
:102BC00002F010F84FF00A004FF0000101F0ACFBEA
:102BD0003A7C704B1B781046194601F063FF01F0F8
:102BE000CBFF6A4B1B78012B0ED13B7C03F1010319
:102BF0003B7497F910301F2B02DD4FF001033B743B
:102C0000624B4FF000021A70614B1B78012B0ED102
:102C10003B7C03F1FF333B7497F91030002B02DC4F
:102C20004FF01F033B745A4B4FF000021A70397C6F
:102C3000584B1A78584B1B78084611461A4602F032
:102C40003DF80346DAB2554B1A7097F91030184622
:102C500001F01AF90346DAB2504B5A704D4B1B780B
:102C6000184601F011F90346DAB24C4B9A704A4B00
:102C70001B78184601F008F90346DAB2474BDA70C0
:102C800004F084FD4FF0D0004FF003014FF0040238
:102C9000FDF7F8FD04F08CFD4FF0640002F064F9DC
:102CA0003F4B1B78042B40F0C9803E4B1B78002B18
:102CB00006D1384B1B78FB733A4B4FF001021A7068
:102CC000324B1B78012B0ED1FB7B03F10103FB730D
:102CD00097F90F300C2B02DD4FF00103FB732B4BE8
:102CE0004FF000021A702A4B1B78012B0ED1FB7B90
:102CF00003F1FF33FB7397F90F30002B02DA4FF02B
:102D00000C03FB73224B4FF000021A7001F0B2FF6C
:102D10004FF00A004FF0000101F006FB224B1A7839
:102D2000FB7B1046194601F0BDFE01F025FF4FF078
:102D3000640002F019F901F055FF4FF00A004FF05E
:102D4000000101F0F1FA184B1A78FB7B1046194686
:102D500001F0A8FE01F010FF0C4B1B78012B0ED1E7
:102D6000FB7B03F10103FB7397F90F300C2B02DDA2
:102D70004FF00103FB73054B4FF000021A70044B38
:102D80001B78012B21D111E0B1010020B5010020F9
:102D9000B6010020A0010020A1010020242F012065
:102DA000AA010020B20100209E010020FB7B03F15C
:102DB000FF33FB7397F90F30002B02DA4FF00C034F
:102DC000FB73944B4FF000021A70934B1978FA7B07
:102DD000924B1B78084611461A4601F06FFF0346D6
:102DE000DAB28F4B1A708C4B1B78184601F04CF8F6
:102DF0000346DAB28A4B5A7097F90F30184601F041
:102E000043F80346DAB2864B9A70844B1B78184617
:102E100001F03AF80346DAB2814BDA7004F0B6FCFE
:102E20004FF0D0004FF003014FF00402FDF72AFDF0
:102E300004F0BEFC4FF0640002F096F8794B1B786A
:102E4000052B58D101F00AFF774B1B78002B0FD1CF
:102E500004F09CFC42F234204FF0090105F0BAFE68
:102E600003467B7504F0A4FC6F4B4FF001021A700F
:102E70006E4B1B78012B0ED17B7D03F101037B751B
:102E800097F91530632B02DD4FF000037B75674B1C
:102E90004FF000021A705F4B1B78012B0ED17B7D27
:102EA00003F1FF337B7597F91530002B02DA4FF0F1
:102EB00063037B75574B4FF000021A707A7D5C4BB1
:102EC0001A7004F063FC7B7D42F2342019464FF007
:102ED000090205F0B3FD04F06BFC97F915309BB2C5
:102EE0004FF00600194601F01FFA01F045FE4FF0C1
:102EF000640002F039F84B4B1B78062B58D101F0D7
:102F0000ADFE4C4B1B78002B0FD104F03FFC42F27E
:102F100035204FF0090105F05DFE03463B7504F0D6
:102F200047FC444B4FF001021A70404B1B78012BB9
:102F30000ED13B7D03F101033B7597F91430632BF0
:102F400002DD4FF000033B75384B4FF000021A7062
:102F5000304B1B78012B0ED13B7D03F1FF333B75CA
:102F600097F91430002B02DA4FF063033B75294BBD
:102F70004FF000021A703A7D2F4B1A7004F006FCD5
:102F80003B7D42F2352019464FF0090205F056FD0F
:102F900004F00EFC97F914309BB24FF0070019466D
:102FA00001F0C2F901F0E8FD4FF0640001F0DCFF30
:102FB0001C4B1B78072B6FD101F050FE1F4B1B7869
:102FC000002B0FD104F0E2FB42F236204FF0090152
:102FD00005F000FE0346FB7404F0EAFB174B4FF0CC
:102FE00001021A70114B1B78012B0ED1FB7C03F1EF
:102FF0000103FB7497F91330632B02DD4FF00003DC
:10300000FB740A4B4FF000021A70024B1B78012B25
:1030100025D115E0B60100209E010020A10100206D
:10302000242F0120AA010020AD010020B5010020BD
:10303000A4010020AE010020A5010020AF01002066
:10304000FB7C03F1FF33FB7497F91330002B02DA9A
:103050004FF06303FB74844B4FF000021A70FA7C4C
:10306000824B1A7004F092FBFB7C42F23620194628
:103070004FF0090205F0E2FC04F09AFB97F91330D7
:103080009BB24FF00800194601F04EF901F074FDB3
:103090004FF0640001F068FF754B1B78082B58D186
:1030A00001F0DCFD734B1B78002B0FD104F06EFB9D
:1030B00042F237204FF0090105F08CFD0346BB7446
:1030C00004F076FB6B4B4FF001021A706A4B1B78D1
:1030D000012B0ED1BB7C03F10103BB7497F91230B5
:1030E000632B02DD4FF00003BB74634B4FF0000213
:1030F0001A705D4B1B78012B0ED1BB7C03F1FF33A3
:10310000BB7497F91230002B02DA4FF06303BB74E3
:10311000554B4FF000021A70BA7C584B1A7004F0ED
:1031200035FBBB7C42F2372019464FF0090205F00F
:1031300085FC04F03DFB97F912309BB24FF00B0079
:10314000194601F0F1F801F017FD4FF0640001F0AD
:103150000BFF474B1B78092B58D101F07FFD484BE3
:103160001B78002B0FD104F011FB42F238204FF0F6
:10317000090105F02FFD03467B7404F019FB404B59
:103180004FF001021A703C4B1B78012B0ED17B7C57
:1031900003F101037B7497F91130632B02DD4FF0CB
:1031A00000037B74344B4FF000021A702E4B1B78D7
:1031B000012B0ED17B7C03F1FF337B7497F9113027
:1031C000002B02DA4FF063037B74274B4FF00002B1
:1031D0001A707A7C2B4B1A7004F0D8FABB7C42F23E
:1031E000382019464FF0090205F028FC04F0E0FAF7
:1031F00097F911309BB24FF00900194601F094F88D
:1032000001F0BAFC4FF0640001F0AEFE1E4B1A78DC
:103210001E4B1A701D4B1A781D4B1B78D318DAB24F
:103220001C4B1A701B4B1A78104B1B78D318DAB250
:10323000194B1A70184B1A78184B1B78D318DAB23E
:10324000174B1A70164B1A780E4B1B78D318DAB23C
:10325000144B1A70134B1A78084B1B78D318DAB238
:10326000114B1A70FFF727B9B6010020A601002004
:10327000AA010020B0010020B5010020A701002014
:10328000B3010020A8010020A4010020B701002004
:10329000A5010020BB010020B9010020A9010020E8
:1032A000BA010020BC010020B801002080B489B020
:1032B00000AF78604FF00003BB614FF000037B610B
:1032C0004FF00003FB614FF002033B614FF000033E
:1032D000FB604FF00203BB604F4B9B6803F00C0395
:1032E000BB61BB69042B07D0082B09D0002B47D149
:1032F0007B684A4A1A6047E07B68494A1A6043E0A3
:10330000454B5B6803F480034FEA9353FB60424BE9
:103310005B6803F03F03BB60FB68002B0FD0404AA3
:10332000BB68B2FBF3F23C4B596847F6C07301EA45
:1033300003034FEA931303FB02F3FB610EE0374AEA
:10334000BB68B2FBF3F2344B596847F6C07301EA2D
:1033500003034FEA931303FB02F3FB612E4B5B68FD
:1033600003F440334FEA134303F101034FEA4303ED
:103370003B61FA693B69B2FBF3F27B681A6003E0D8
:103380007B68264A1A6000BF234B9B6803F0F0035A
:10339000BB61BB694FEA1313BB61224ABB69D318F7
:1033A0001B78DBB27B617B681A687B6922FA03F2C7
:1033B0007B685A60184B9B6803F4E053BB61BB69A0
:1033C0004FEA9323BB61174ABB69D3181B78DBB262
:1033D0007B617B685A687B6922FA03F27B689A609A
:1033E0000D4B9B6803F46043BB61BB694FEA5333E9
:1033F000BB610C4ABB69D3181B78DBB27B617B686D
:103400005A687B6922FA03F27B68DA6007F12407C5
:10341000BD4680BC704700BF003802400024F40065
:1034200040787D01A800002080B483B000AF7860B0
:103430000B46FB70FB78002B07D00B4B0A4A116B35
:103440007A6841EA02021A6308E0074B064A116BE8
:103450007A686FEA020201EA02021A6307F10C07B6
:10346000BD4680BC704700BF0038024080B483B0C6
:1034700000AF78600B46FB70FB78002B07D00B4B3E
:103480000A4A116C7A6841EA02021A6408E0074BA2
:10349000064A116C7A686FEA020201EA02021A64B3
:1034A00007F10C07BD4680BC704700BF00380240E2
:1034B00080B483B000AF78600B46FB70FB78002BC4
:1034C00007D00B4B0A4A516C7A6841EA02025A64EF
:1034D00008E0074B064A516C7A686FEA020201EA7B
:1034E00002025A6407F10C07BD4680BC704700BF5A
:1034F0000038024080B483B000AF78600B46FB70A8
:10350000FB78002B07D00B4B0A4A116A7A6841EA14
:1035100002021A6208E0074B064A116A7A686FEAEB
:10352000020201EA02021A6207F10C07BD4680BCE2
:10353000704700BF0038024080B483B000AF7860AD
:103540000B46FB70FB78002B07D00B4B0A4A516AE5
:103550007A6841EA02025A6208E0074B064A516A59
:103560007A686FEA020201EA02025A6207F10C0766
:10357000BD4680BC704700BF0038024080B586B0B1
:1035800004AF4FF000037B6000F078FA124B1B6829
:10359000002B15D0114B4FF0020200924FF00002A9
:1035A00001924FF0000202924FF0000203920C4889
:1035B00019464FF482724FF0000301F019FC786055
:1035C0007B68002B02D104F007F9FEE77B68184600
:1035D00007F10807BD4680BDF001002038900008C3
:1035E000F936000880B588B000AFF860B9607A603D
:1035F0003B604FF00003FB611F4B1B68002B34D076
:10360000BB683B617B687B61FB68BB613B68002BEF
:103610001FD102F0F9F90346012B0CD1164B1A68A1
:1036200007F1100310461946BA6A4FF0000303F081
:1036300075FCF86119E0104B1A6807F11003104689
:1036400019464FF000024FF0000303F067FCF861E9
:103650000BE0094B1A6807F11003104619463A6847
:103660004FF0000303F016FDF861FB69184607F1FF
:103670002007BD4680BD00BFF001002080B586B0A8
:1036800002AF786039601B4B1B68DB68DB68FB604E
:10369000FB6803F10403184603F060FAFB68DB697A
:1036A000012B1ED1FB689A697B68D318F86819460C
:1036B0003A687B6800F0B6F80346012B11D14FF051
:1036C00000030093F8684FF000017A684FF00003A0
:1036D000FFF788FFB860BB68002B02D104F07CF8CC
:1036E000FEE7FB685B6AF868984707F11007BD467C
:1036F00080BD00BFE801002080B584B000AF7860D5
:1037000007F10803184600F043F8F860BB68F86852
:10371000194600F003F800F0CDF8F1E780B584B069
:1037200000AF7860396001F08DFC07F1080318469E
:1037300000F052F8F860BB68002B1ED13B68002BEC
:103740000AD17A68FB689A4206D801F089FC786849
:10375000F968FFF793FF14E00C4B1A687968FB686F
:10376000CB1A1046194603F001FF01F079FC03461D
:10377000002B05D103F0FAFF03E001F071FC00E03B
:1037800000BF07F11007BD4680BD00BFF00100205B
:1037900080B485B000AF78600E4B1B681B68002BAF
:1037A00014BF002201227B681A607B681B68002B13
:1037B00005D1084B1B68DB681B68FB6002E04FF01B
:1037C0000003FB60FB68184607F11407BD4680BC88
:1037D000704700BFE801002080B584B000AF78607A
:1037E00001F0D0FCF8600E4B1B68FA689A4209D2CF
:1037F0000B4B1B68184600F0E1F87B684FF00102A4
:103800001A6003E07B684FF000021A60044BFA680C
:103810001A60FB68184607F11007BD4680BD00BF5F
:10382000F401002080B586B000AFF860B9607A601E
:103830003B604FF000037B61FB68BA685A60FB682D
:10384000FA681A61BA687B689A4214D87A683B6849
:10385000D21AFB689B699A4203D34FF001037B6144
:103860001EE0124B1A68FB6803F104031046194668
:1038700003F03AF914E07A683B689A4207D2BA68D2
:103880003B689A4203D34FF001037B6108E0084B89
:103890001A68FB6803F104031046194603F024F983
:1038A0007B69184607F11807BD4680BDEC01002072
:1038B000E801002080B58AB002AF6AE03B69FB6195
:1038C000FB695B69002B05D0FB6903F10403184613
:1038D00003F044F907F104031846FFF77DFFB861D0
:1038E000BB68032B4ED801A252F823F0FD38000824
:1038F00085390008533900087D390008FA68FB69EA
:103900009B69D218FB68F8691146BA69FFF78AFF0C
:103910000346012B38D1FB695B6AF8699847FB695C
:10392000DB69012B32D1FA68FB699B69D3184FF030
:1039300000020092F8694FF000011A464FF00003B0
:10394000FFF750FE78617B69002B21D103F044FF23
:10395000FEE7FA68FB699A61FB699B69002B02D15B
:1039600003F03AFFFEE7FB699A69BB69D318F8696F
:103970001946BA69BB69FFF755FF0AE0F86904F018
:103980006FFC06E000BF04E000BF02E000BF00E003
:1039900000BF094B1A6807F10803104619464FF09B
:1039A00000024FF0000303F0E9FB0346002B85D132
:1039B00007F12007BD4680BDF001002080B58AB028
:1039C00002AF786042E02B4B1B68DB681B68FB6131
:1039D000284B1B68DB68DB68BB61BB6903F1040330
:1039E000184603F0BBF8BB695B6AB8699847BB69C6
:1039F000DB69012B2AD1BB699A69FB69D3187B610A
:103A00007A69FB699A420FD9BB697A695A60BB69C6
:103A1000BA691A61174B1A68BB6903F104031046AF
:103A2000194603F061F811E04FF000030093B86904
:103A30004FF00001FA694FF00003FFF7D3FD386142
:103A40003B69002B02D103F0C7FEFEE7094B1B6860
:103A50001B68002BB7D1074B1B68FB60064B1A682D
:103A6000044B1A60044BFA681A6007F12007BD4640
:103A700080BD00BFE8010020EC01002080B500AF50
:103A800003F084FE0E4B1B68002B16D10D4802F08C
:103A9000D5FF0D4802F0D2FF0C4B0A4A1A600C4BBE
:103AA000094A1A604FF00A004FF00C014FF0000273
:103AB00003F0EAF90246024B1A6003F079FE80BD7A
:103AC000F0010020C0010020D4010020E801002006
:103AD000EC01002080B584B000AF4FF00003FB7311
:103AE00043E0FA7B264913464FEA83039B184FEACB
:103AF0008303CB1803F10C031B6818464FF0010138
:103B0000FFF792FC4FF000033B72FA7B1C4913460F
:103B10004FEA83039B184FEA8303CB1803F110038A
:103B20001B78FB72FA7B164913464FEA83039B18F6
:103B30004FEA8303CB1803F108031B887B60FA7BF1
:103B40000F4913464FEA83039B184FEA8303CB18B0
:103B500003F104031A6807F104031046194602F042
:103B600041FEFB7B03F10103FB73FB7B022BB8D906
:103B700000F03AF800F064F807F11007BD4680BD88
:103B8000B800002080B485B000AF0346FB71FA791D
:103B9000134913464FEA83039B184FEA8303CB185C
:103BA00003F110035B78FB73FB790E4AD35CBB73A4
:103BB000FB790C4AF97BD154FB7B002B02D14FF0EF
:103BC000000307E0BB7B002B02D04FF0000301E0B5
:103BD0004FF00103184607F11407BD4680BC70473B
:103BE000B8000020FC01002080B584B000AF4FF089
:103BF00020004FF00101FFF739FC41F28733BB6031
:103C000040F24733BB804FF00003BB814FF000030D
:103C1000FB8007F104030948194604F089FB0748B3
:103C20004FF0010104F0F2FB04484FF0010104F0F1
:103C30000DFC07F11007BD4680BD00BF0014004019
:103C400080B582B000AF0E484FF001014FF0010285
:103C500004F0BCFE4FF037033B714FF000037B7163
:103C60004FF00003BB714FF00103FB7107F1040338
:103C7000184604F0D3F907F10807BD4680BD00BF20
:103C80000014004080B582B000AF1F484FF0010122
:103C900004F0C2FE4FF00003FB712EE0FA791B49DD
:103CA00013464FEA83039B184FEA8303CB1803F1B3
:103CB00004031968FA79154813464FEA83039B18E1
:103CC0004FEA8303C31803F108031B88084619460B
:103CD00002F02CFE0346BB71FA790C4913464FEAF9
:103CE00083039B184FEA8303CB1803F11003BA79BF
:103CF0005A70FB7903F10103FB71FB79022BCDD9DB
:103D000007F10807BD4680BD00140040B800002040
:103D100080B485B000AF0346FB714FF00003FB7326
:103D2000FB79092B3ED801A252F823F0553D00083B
:103D30005D3D0008653D00086D3D0008753D0008CB
:103D40007D3D0008853D00088D3D0008953D00083B
:103D50009D3D00084FF00903FB7323E04FF0010382
:103D6000FB731FE04FF00303FB731BE04FF00B03EB
:103D7000FB7317E04FF00A03FB7313E04FF00203ED
:103D8000FB730FE04FF00C03FB730BE04FF00403E9
:103D9000FB7307E04FF00003FB7303E04FF00803F1
:103DA000FB7300BF184607F11407BD4680BC70477F
:103DB00080B485B000AF0346FB714FF00003FB7386
:103DC000FB79092B3ED801A252F823F0F53D0008FB
:103DD000FD3D0008053E00080D3E0008153E0008A8
:103DE0001D3E0008253E00082D3E0008353E000817
:103DF0003D3E00084FF00303FB7323E04FF00C033C
:103E0000FB731FE04FF00403FB731BE04FF008034C
:103E1000FB7317E04FF00203FB7313E04FF00A034C
:103E2000FB730FE04FF00903FB730BE04FF001034E
:103E3000FB7307E04FF00003FB7303E04FF00B034D
:103E4000FB7300BF184607F11407BD4680BC7047DE
:103E500080B483B000AF0346FB71FB7903F00F031E
:103E6000DAB2FB794FEA1313DBB219464FEA81014C
:103E7000CB184FEA4303DBB2D318DBB2184607F185
:103E80000C07BD4680BC704780B483B000AF0346CA
:103E9000FB71FA79104BA3FB02034FEAD3010B46E7
:103EA0004FEA83035B184FEA4303D31ADBB2DAB25B
:103EB000F979094BA3FB01034FEAD303DBB24FEAC5
:103EC0000313DBB242EA0303DBB2DBB2184607F1AD
:103ED0000C07BD4680BC7047CDCCCCCC80B483B041
:103EE00000AF0346FB71FB79012B0AD1134B1B7802
:103EF00043F00203DAB2114B1A70104B1A780F4BD1
:103F00001A70FB79002B06D10C4B1B7823F00203AF
:103F1000DAB20A4B1A70094B1B7823F00803DAB2A5
:103F2000064B1A70054B1B7823F00403DAB2034BDF
:103F30001A7007F10C07BD4680BC704700020020D4
:103F400080B483B000AF0346FB71FB79012B0AD12B
:103F5000134B1B7843F00403DAB2114B1A70104B69
:103F60001A780F4B1A70FB79002B06D10C4B1B787B
:103F700023F00403DAB20A4B1A70094B1B7823F0C2
:103F80000803DAB2064B1A70054B1B7823F00203C4
:103F9000DAB2034B1A7007F10C07BD4680BC7047BC
:103FA0000002002080B483B000AF0346FB71FB79B0
:103FB000012B0AD1134B1B7843F00803DAB2114BE3
:103FC0001A70104B1A780F4B1A70FB79002B06D120
:103FD0000C4B1B7823F00803DAB20A4B1A70094B1A
:103FE0001B7823F00203DAB2064B1A70054B1B78DC
:103FF00023F00403DAB2034B1A7007F10C07BD4635
:1040000080BC70470002002080B483B000AF03463C
:10401000FB71FB79012B0AD10C4B1B7843F0010398
:10402000DAB20A4B1A70094B1A78084B1A70FB79EE
:10403000002B06D1054B1B7823F00103DAB2034BAA
:104040001A7007F10C07BD4680BC704700020020C3
:1040500080B400AF0B4B1B7823F00803DAB2094B96
:104060001A70084B1B7823F00203DAB2054B1A7062
:10407000044B1B7823F00403DAB2024B1A70BD46DE
:1040800080BC70470002002080B483B000AF0346BC
:10409000FB71FB79012B0AD1174B1B7843F04003CE
:1040A000DAB2154B1A70144B1A78134B1A70FB794D
:1040B000002B06D1104B1B7823F04003DAB20E4BD5
:1040C0001A700D4B1B7823F02003DAB20A4B1A70DA
:1040D000094B1B7823F01003DAB2074B1A70064B1A
:1040E0001B7803F07F03DAB2034B1A7007F10C0759
:1040F000BD4680BC704700BF0002002080B483B082
:1041000000AF0346FB71FB79012B0AD1174B1B78DB
:1041100043F02003DAB2154B1A70144B1A78134B84
:104120001A70FB79002B06D1104B1B7823F020036B
:10413000DAB20E4B1A700D4B1B7823F04003DAB243
:104140000A4B1A70094B1B7823F01003DAB2074BA5
:104150001A70064B1B7803F07F03DAB2034B1A7018
:1041600007F10C07BD4680BC704700BF000200206D
:1041700080B483B000AF0346FB71FB79012B15D1EE
:104180001C4B1B7843F01003DAB21A4B1A70194B10
:104190001A78184B1A70174B1B7863F07F03DAB24A
:1041A000144B1A70134B1A78124B1A70FB79002BB0
:1041B0000DD1104B1B7823F01003DAB20D4B1A709F
:1041C0000C4B1B7803F07F03DAB20A4B1A70094BD1
:1041D0001B7823F02003DAB2064B1A70054B1B78CC
:1041E00023F04003DAB2034B1A7007F10C07BD4607
:1041F00080BC70470002002080B483B000AF03464B
:10420000FB71FB79012B0AD1174B1B7843F010038C
:10421000DAB2154B1A70144B1A78134B1A70FB79DB
:10422000002B0DD1104B1B7823F01003DAB20E4B8C
:104230001A700D4B1B7803F07F03DAB20A4B1A7029
:10424000094B1B7823F02003DAB2074B1A70064B98
:104250001B7823F04003DAB2034B1A7007F10C0706
:10426000BD4680BC704700BF0002002080B483B010
:1042700000AF0346FB71FB79012B0AD1174B1B786A
:1042800063F07F03DAB2154B1A70144B1A78134B94
:104290001A70FB79002B0DD1104B1B7823F0100303
:1042A000DAB20E4B1A700D4B1B7803F07F03DAB2B3
:1042B0000A4B1A70094B1B7823F02003DAB2074B24
:1042C0001A70064B1B7823F04003DAB2034B1A70C6
:1042D00007F10C07BD4680BC704700BF00020020FC
:1042E00080B400AF0F4B1B7823F02003DAB20D4BE4
:1042F0001A700C4B1B7823F04003DAB2094B1A708A
:10430000084B1B7803F07F03DAB2064B1A70054B9B
:104310001B7823F01003DAB2024B1A70BD4680BC42
:10432000704700BF0002002080B584B000AF024695
:104330000B46FA71BB804FF00003BB734FF00003D4
:10434000FB734FF000037B734FF00E03FB73FB799D
:10435000032B0CD1FFF77CFE4FF00100FFF708FFA5
:104360004FF00000FFF750FE4FF00E03FB73FB7998
:104370000C2B02D14FF00E03FB73FB790A2B0CD1EF
:10438000FFF766FE4FF00000FFF7F2FE4FF000006F
:10439000FFF73AFE4FF00003FB73FB79022B0CD1C1
:1043A000FFF756FE4FF00100FFF7A8FE4FF00000A8
:1043B000FFF72AFE4FF00C03FB73FB79002B0ED1A5
:1043C0004FF00100FFF7EEFD4FF00100FFF75CFE3C
:1043D0004FF00100FFF718FE4FF00E03FB73FB795F
:1043E000012B0ED14FF00100FFF778FD4FF00100D7
:1043F000FFF74AFE4FF00100FFF706FE4FF00E03F5
:10440000FB73FB790D2B0CD1FFF722FE4FF001005F
:10441000FFF73AFE4FF00000FFF7F6FD4FF0000304
:10442000FB73BB88994AA2FB03124FEA52124FF06A
:10443000640101FB02F29B1A9BB2BB73BA7B944BE3
:10444000A3FB02134FEAD3010B464FEA83035B1829
:104450004FEA4303D31ADBB21846FFF759FC034671
:104460001A468C4B1A708B4B1B784FEA0313DAB247
:10447000884B1A70BA88854BA3FB02134FEA53137B
:104480009BB2DBB21846FFF743FC03461A46814B4A
:104490001B78D318DAB27F4B1A70BA7B7C4BA3FB24
:1044A00002134FEAD303DBB21846FFF731FC034691
:1044B0001A46794B1A70784B1B784FEA0313DAB21D
:1044C000754B1A70744B1A78FB7BD318DAB2724BA7
:1044D0001A70FB79042B40D16F4B4FF000021A7019
:1044E000FFF7FEFE4FF00000FFF78EFD4FF00603D2
:1044F000FB73BA88664BA3FB02134FEAD3039BB24C
:10450000DBB21846FFF704FC03467B73614B7A7BF2
:104510001A70BA885E4BA3FB02134FEAD3010B4615
:104520004FEA83035B184FEA4303D31A9BB2DBB213
:104530001846FFF7EDFB03461A46574B1A70564BC9
:104540001B784FEA0313DAB2534B1A70524B1A78A6
:10455000FB7BD318DAB2504B1A70FB79052B44D190
:104560004D4B4FF000021A70FFF7BAFE4FF00000FB
:10457000FFF7E6FC4FF00000FFF746FD4FF00003A9
:10458000FB73BA88424BA3FB02134FEAD3039BB2DF
:10459000DBB21846FFF7BCFB03467B733D4B7A7BCF
:1045A0001A70BA883A4BA3FB02134FEAD3010B46A9
:1045B0004FEA83035B184FEA4303D31A9BB2DBB283
:1045C0001846FFF7A5FB03461A46334B1A70324BC9
:1045D0001B784FEA0313DAB22F4B1A702E4B1A785E
:1045E000FB7BD318DAB22C4B1A70FB79062B77D1F0
:1045F000294B4FF000021A7000F000FBFFF770FE2D
:104600004FF00000FFF740FD4FF00100FFF798FC6E
:104610004FF00000FFF7F8FC4FF00E03FB73BB8870
:104620001A4AA2FB03124FEA52124FF0640101FB37
:1046300002F29B1A9BB2BB73BA7B154BA3FB02130E
:104640004FEAD3010B464FEA83035B184FEA43035B
:10465000D31ADBB21846FFF75BFB03461A460D4B35
:104660001A700C4B1B784FEA0313DAB2094B1A701D
:10467000BA88064BA3FB02134FEA53139BB2DBB27B
:104680001846FFF745FB03461A4607E01F85EB5126
:10469000CDCCCCCC01020020020200209B4B1B7829
:1046A000D318DAB2994B1A70BA7B994BA3FB021359
:1046B0004FEAD303DBB21846FFF72AFB03461A463C
:1046C000944B1A70934B1B784FEA0313DAB2914B59
:1046D0001A70904B1A78FB7BD318DAB28D4B1A7094
:1046E000FB79072B70D18B4B4FF000021A70FFF74C
:1046F000F7FD4FF00100FFF77FFD4FF00100FFF7DE
:10470000B5FD4FF00000FFF71BFC4FF00000FFF776
:104710007BFC4FF00E03FB73BB887F4AA2FB0312A6
:104720004FEA52124FF0640101FB02F29B1A9BB256
:10473000BB73BA7B764BA3FB02134FEAD3010B4644
:104740004FEA83035B184FEA4303D31ADBB21846E0
:10475000FFF7DEFA03461A466C4B1A706B4B1B7858
:104760004FEA0313DAB2694B1A70BA886A4BA3FB9B
:1047700002134FEA53139BB2DBB21846FFF7C8FA95
:1047800003461A46614B1B78D318DAB25F4B1A7096
:10479000BA7B5F4BA3FB02134FEAD303DBB218468D
:1047A000FFF7B6FA03461A465A4B1A70594B1B7854
:1047B0004FEA0313DAB2574B1A70564B1A78FB7B49
:1047C000D318DAB2534B1A70FB79082B70D1514BC6
:1047D0004FF000021A70FFF783FD4FF00000FFF763
:1047E0000BFD4FF00000FFF7ABFB4FF00000FFF7B1
:1047F0000BFC4FF00100FFF747FC4FF00E03FB737B
:10480000BB88454AA2FB03124FEA52124FF06401E3
:1048100001FB02F29B1A9BB2BB73BA7B3C4BA3FB1E
:1048200002134FEAD3010B464FEA83035B184FEAAA
:104830004303D31ADBB21846FFF76AFA03461A4657
:10484000324B1A70314B1B784FEA0313DAB22F4BFD
:104850001A70BA88304BA3FB02134FEA53139BB272
:10486000DBB21846FFF754FA03461A46274B1B786B
:10487000D318DAB2254B1A70BA7B254BA3FB02136F
:104880004FEAD303DBB21846FFF742FA03461A4653
:10489000204B1A701F4B1B784FEA0313DAB21D4BE3
:1048A0001A701C4B1A78FB7BD318DAB2194B1A70AA
:1048B000FB790B2B76D1174B4FF000021A70FFF7E4
:1048C0000FFD4FF00100FFF7D1FC4FF00100FFF7A3
:1048D00037FB4FF00000FFF797FB4FF00E03FB7321
:1048E000BB880D4AA2FB03124FEA52124FF064013B
:1048F00001FB02F29B1A9BB2BB73BA7B044BA3FB76
:1049000002134FEAD3010B4608E000BF010200206A
:10491000CDCCCCCC020200201F85EB514FEA8303A3
:104920005B184FEA4303D31ADBB21846FFF7F0F9DE
:1049300003461A46574B1A70564B1B784FEA03131F
:10494000DAB2544B1A70BA88534BA3FB02134FEAE6
:1049500053139BB2DBB21846FFF7DAF903461A4647
:104960004C4B1B78D318DAB24A4B1A70BA7B4B4BBC
:10497000A3FB02134FEAD303DBB21846FFF7C8F9D3
:1049800003461A46464B1A70454B1B784FEA0313F1
:10499000DAB2434B1A70424B1A78FB7BD318DAB267
:1049A0003F4B1A70FB79092B70D13D4B4FF0000241
:1049B0001A70FFF795FC4FF00000FFF71DFC4FF059
:1049C0000100FFF79BFB4FF00000FFF7B9FA4FF033
:1049D0000000FFF719FB4FF00E03FB73BB882E4A54
:1049E000A2FB03124FEA52124FF0640101FB02F2E4
:1049F0009B1A9BB2BB73BA7B284BA3FB02134FEAF3
:104A0000D3010B464FEA83035B184FEA4303D31AE3
:104A1000DBB21846FFF77CF903461A461D4B1A70A5
:104A20001C4B1B784FEA0313DAB21A4B1A70BA8880
:104A3000194BA3FB02134FEA53139BB2DBB2184688
:104A4000FFF766F903461A46124B1B78D318DAB201
:104A5000104B1A70BA7B114BA3FB02134FEAD3031E
:104A6000DBB21846FFF754F903461A460C4B1A708E
:104A70000B4B1B784FEA0313DAB2094B1A70084B41
:104A80001A78FB7BD318DAB2054B1A7007F11007BE
:104A9000BD4680BD010200201F85EB51CDCCCCCCA2
:104AA0000202002080B584B000AF02460B46FA71C6
:104AB000BB714FF00003FB734FF00003BB73BA7977
:104AC0002A4BA3FB02134FEAD3010B464FEA8303A1
:104AD0005B184FEA4303D31ADBB21846FFF768F9B5
:104AE0000346BB73BB7B4FEA0313BB73BA791F4BFF
:104AF000A3FB02134FEAD303DBB21846FFF758F9C2
:104B000003461A46BB7BD318BB73FA79174BA3FB3A
:104B100002134FEAD3010B464FEA83035B184FEAB7
:104B20004303D31ADBB21846FFF742F90346FB737F
:104B3000FB7B4FEA0313FB73FA790C4BA3FB0213C5
:104B40004FEAD303DBB21846FFF732F903461A46A1
:104B5000FB7BD318FB73064BBA7B1A70054BFA7BB1
:104B60001A7007F11007BD4680BD00BFCDCCCCCC7C
:104B7000030200200402002080B500AF4FF00000C7
:104B800002F00AF9114B1B78184601F0E9F8104BB6
:104B90001B78184601F0E4F80E4B1B78184601F01C
:104BA000DFF80D4B1B78184601F0DAF80B4B1B7839
:104BB000184601F0D5F80A4B1B78184601F0D0F8DA
:104BC0004FF0010002F0E8F880BD00BF00020020B5
:104BD0000102002002020020030200200402002043
:104BE0000502002080B400AF034B4FF0F8021A70AA
:104BF000BD4680BC704700BF0502002080B400AFF6
:104C0000034B4FF020021A70BD4680BC704700BFB6
:104C10000502002080B400AF034B4FF0D8021A7099
:104C2000BD4680BC704700BF0502002080B400AFC5
:104C3000034B4FF0F0021A70BD4680BC704700BFB6
:104C40000502002080B400AF034B4FF0D0021A7071
:104C5000BD4680BC704700BF0502002080B400AF95
:104C6000034B4FF000021A70BD4680BC704700BF76
:104C70000502002080B400AF034B4FF038021A70D9
:104C8000BD4680BC704700BF0502002080B400AF65
:104C9000034B4FF040021A70BD4680BC704700BF06
:104CA0000502002080B400AF034B4FF0E0021A7001
:104CB000BD4680BC704700BF0502002080B487B0AD
:104CC00000AF13460246FA710A46BA717B71BB798E
:104CD000C3F10E03304A82FB03024FEA62024FEA3D
:104CE000E373D31A7B617B7903F5FA627B69D31A8C
:104CF0003B61B9797A6913464FEA43039B184FEA3F
:104D00008303CB18A3F10203FB60FA793B69D21845
:104D10003B69002B01DA03F103034FEAA303D21826
:104D20003B691E4981FB03014FEA61114FEAE373BE
:104D3000CB1AD21A3B69194981FB03014FEAE111F1
:104D40004FEAE373CB1AD118FA6813464FEA4313BC
:104D50009B1A114A82FB03024FEA62024FEAE37395
:104D6000D31ACB1803F5DA5303F118030C4A82FB6C
:104D70000312D2184FEAA2014FEAE372891A0A46D7
:104D80004FEAC202521A991A0B46184607F11C073D
:104D9000BD4680BC704700BFABAAAA2A1F85EB5155
:104DA0009324499280B483B000AF786000BF7B68E1
:104DB000002B0CBF00220122D2B203F1FF337B6033
:104DC000002AF4D107F10C07BD4680BC704700BF34
:104DD00080B500AF4FF00500FCF7F8FA4FF0640023
:104DE00000F0C2F84FF00500FCF7CAFA80BD00BF22
:104DF00080B58AB002AFF860B9603B601346FB80B3
:104E0000FB68002B02D102F0E7FCFEE7BB6A042B33
:104E100002D902F0E1FCFEE7FB881846396B00F08E
:104E200099FDB861BB69002B7AD0BB691A6BFB880E
:104E300003F1FF334FEA8303D3187B617B6923F0CF
:104E400007037B617B6903F00703002B02D002F0AC
:104E5000C3FCFEE7FB880093B869B968BA6A7B6B4C
:104E600000F06EFC7869F9683A6802F0AFFB03461F
:104E70001A46BB691A60FB6A002B02D0FB6ABA694A
:104E80001A6002F083FC324B1B6803F10102304BC5
:104E90001A60304B1B68002B09D12E4BBA691A607F
:104EA0002B4B1B68012B0FD100F09AFC0CE02A4B16
:104EB0001B68002B08D1274B1B68DA6ABB6A9A4231
:104EC00002D8244BBA691A60244B1B6803F1010213
:104ED000224B1A60214B1A68BB691A64BB69DA6AF3
:104EE0001F4B1B689A4203D9BB69DA6A1C4B1A60D4
:104EF000BB69DA6A13464FEA83039B184FEA8303C0
:104F00001A46184BD218BB6903F104031046194620
:104F100001F0C6FD4FF00103FB6102F049FC02E025
:104F20004FF0FF33FB61FB69012B0BD10A4B1B6870
:104F3000002B07D0074B1B68DA6ABB6A9A4201D282
:104F400002F014FCFB69184607F12007BD4680BD3E
:104F5000E002002008020020EC02002000030020F4
:104F6000E80200200C02002080B584B000AF786019
:104F70004FF00003FB607B68002B13D000F062F859
:104F80000D4B1A687B68D318BB600C4B1B6803F190
:104F90000403184601F0E2FDB86800F0A3FC00F03D
:104FA0005FF8F860FB68002B01D102F0DFFB07F12E
:104FB0001007BD4680BD00BFE402002008020020AB
:104FC00080B586B004AF1B4B4FF0000200924FF04B
:104FD000000201924FF0000202924FF00002039291
:104FE000154819464FF082024FF00003FFF700FF0B
:104FF00078607B68012B02D1FEF7C0FA78607B688D
:10500000012B0CD102F0E8FB0C4B4FF001021A60AF
:105010000B4B4FF000021A6002F038FB05E07B6892
:10502000002B02D102F0D8FBFEE707F10807BD46CE
:1050300080BD00BF409000081D570008EC02002012
:10504000E402002080B400AF044B1B6803F10102AE
:10505000024B1A60BD4680BC704700BFF0020020C2
:1050600080B582B000AF4FF000037B603D4B1B6802
:10507000002B02D102F0B0FBFEE702F087FB394BB8
:105080001B6803F1FF32374B1A60364B1B68002B4D
:1050900060D1354B1B68002B5CD036E0334BDB68AE
:1050A000DB683B603B6803F11803184601F056FDCE
:1050B0003B6803F10403184601F050FD3B68DA6ACF
:1050C0002B4B1B689A4203D93B68DA6A284B1A605B
:1050D0003B68DA6A13464FEA83039B184FEA83035F
:1050E0001A46244BD2183B6803F1040310461946B4
:1050F00001F0D6FC3B68DA6A1F4B1B68DB6A9A42F8
:1051000003D31E4B4FF001021A60184B1B68002B93
:10511000C4D11B4B1B68002B13D00EE000F044F8E9
:105120000346002B03D0154B4FF001021A60144BBD
:105130001B6803F1FF32124B1A60114B1B68002BE6
:10514000ECD10E4B1B68012B04D14FF001037B60A7
:1051500002F00CFB02F02CFB7B68184607F10807F5
:10516000BD4680BDF0020020E0020020A002002029
:10517000E80200200C02002008020020F8020020B3
:10518000F402002080B582B000AF02F0FFFA054BB8
:105190001B687B6002F00CFB7B68184607F1080770
:1051A000BD4680BDE402002080B586B000AF4FF060
:1051B00000037B61674B1B68002B40F0B680664B99
:1051C0001B6803F10102644B1A60634B1B683B616F
:1051D0003B69002B31D1614B1B681B68002B02D04F
:1051E00002F0FAFAFEE75D4B1B68FB605C4B1A6845
:1051F0005A4B1A605A4BFA681A605A4B1B6803F1F3
:105200000102584B1A60554B1B681B68002B02D1DA
:105210004FF0010301E04FF00003002B04D0524B8C
:105220004FF0FF321A6008E04C4B1B68DB68DB680C
:10523000BB60BB685A684C4B1A604B4B1B683A69A1
:105240009A4259D300E000BF444B1B681B68002BF7
:1052500002D14FF0010301E04FF00003002B04D016
:10526000414B4FF0FF321A6046E03C4B1B68DB6855
:10527000DB68BB60BB685B687B603A697B689A42AD
:1052800003D2394B7A681A6036E0BB6803F1040335
:10529000184601F063FCBB689B6A002B05D0BB6815
:1052A00003F11803184601F059FCBB68DA6A2F4B6A
:1052B0001B689A4203D9BB68DA6A2C4B1A60BB6838
:1052C000DA6A13464FEA83039B184FEA83031A46B0
:1052D000274BD218BB6803F104031046194601F0AE
:1052E000DFFBBB68DA6A234B1B68DB6A9A42AAD3EE
:1052F0004FF001037B61A7E71E4B1B68DA6A134678
:105300004FEA83039B184FEA83031A46184BD318BE
:105310001B68012B02D94FF001037B61164B1B6800
:10532000002B0AD102F0ECFE07E0134B1B6803F1DF
:105330000102114B1A6002F0E3FE104B1B68002BB8
:1053400002D04FF001037B617B69184607F1180713
:10535000BD4680BDF0020020E4020020980200203B
:105360009C020020FC020020F4000020E802002043
:105370000C02002008020020F4020020F8020020A5
:1053800080B582B000AF3C4B1B68002B04D03B4B78
:105390004FF001021A606AE0384B4FF000021A60C9
:1053A000374B1B681A68364B1B681B6B9A4209D82F
:1053B000334B1A68324B1B6803F13403104619460D
:1053C00002F0A4FE2E4B1B681B6B18462D494FF0B4
:1053D000140203F013FD0346002B17D0284B1A6864
:1053E000274B1B6803F134031046194602F08EFE6A
:1053F0000CE0254B1B68002B02D102F0EDF9FEE713
:10540000214B1B6803F1FF321F4B1A601E4B1A68B9
:1054100013464FEA83039B184FEA83031A461B4B3C
:10542000D3181B68002BE4D0174B1A6813464FEAB9
:1054300083039B184FEA83031A46144BD3187B60EF
:105440007B685B685A687B685A607B685A687B68CF
:1054500003F108039A4204D17B685B685A687B6851
:105460005A607B685B68DB681A46054B1A6007F177
:105470000807BD4680BD00BFF0020020F8020020F2
:105480000802002048900008E80200200C020020DA
:1054900080B584B000AF786039607B68002B02D1A2
:1054A00002F09AF9FEE7144B1B6803F118037868C1
:1054B000194601F019FB104B1B6803F10403184651
:1054C00001F04CFB3B68B3F1FF3F08D10A4B1B686E
:1054D00003F104030948194601F0E2FA07E0084B1A
:1054E0001A683B68D318FB60F86800F0FBF907F115
:1054F0001007BD4680BD00BF08020020CC0200207E
:10550000E402002080B584B000AF786039607B6829
:10551000002B02D102F060F9FEE70D4B1B6803F18E
:1055200018037868194601F0BBFA094B1B6803F1B0
:105530000403184601F012FB064B1A683B68D318A7
:10554000FB60F86800F0CEF907F11007BD4680BD9A
:1055500008020020E402002080B584B000AF78602B
:105560007B68DB68DB68BB60BB68002B02D102F0A4
:1055700033F9FEE7BB6803F11803184601F0EEFAB1
:10558000224B1B68002B22D1BB6803F10403184691
:1055900001F0E4FABB68DA6A1D4B1B689A4203D932
:1055A000BB68DA6A1A4B1A60BB68DA6A13464FEABC
:1055B00083039B184FEA83031A46164BD218BB6825
:1055C00003F104031046194601F06AFA06E0BB68CD
:1055D00003F118031048194601F062FABB68DA6A51
:1055E0000E4B1B68DB6A9A4207D34FF00103FB6046
:1055F0000B4B4FF001021A6002E04FF00003FB601A
:10560000FB68184607F11007BD4680BDF002002078
:10561000E80200200C020020A00200200802002066
:10562000F802002080B582B000AF78607B68002B64
:1056300002D102F0D1F8FEE7054B1A687B681A60C8
:10564000044B1A687B685A6007F10807BD4680BDA5
:10565000FC020020E402002080B584B000AF786036
:1056600039607B68002B02D102F0B6F8FEE73B6898
:10567000002B02D102F0B0F8FEE702F087F81F4BD2
:105680001B68BB603B681B68B3F1FF3F03D14FF061
:105690000003FB6029E07B681A68194B1B689A427B
:1056A00008D07B685A68BB689A4203D84FF0010360
:1056B000FB601AE07B685B68BA68D21A3B681B68BB
:1056C0009A420FD23B681A687B685968BB68CB1A4C
:1056D000D2183B681A607868FFF7A4FF4FF0000308
:1056E000FB6002E04FF00103FB6002F061F8FB6831
:1056F000184607F11007BD4680BD00BFE402002038
:10570000FC02002080B400AF034B4FF001021A608E
:10571000BD4680BC704700BFF802002080B582B053
:1057200000AF786000F0A0F8044B1B68012B01D992
:1057300002F01CF802F0DEFCF4E700BF0C020020CF
:1057400080B586B000AFF860B9607A603B604FF01A
:1057500000037B6113E0BA687B69D3181A78F96893
:105760007B69CB1803F130031A71BA687B69D318CF
:105770001B78002B07D07B6903F101037B617B69F8
:10578000092BE8D900E000BFFB684FF0000283F866
:105790003D207B68042B02D94FF004037B60FB683B
:1057A0007A68DA62FB687A689A64FB6803F104033A
:1057B000184601F067F9FB6803F11803184601F079
:1057C00061F9FB68FA681A617B68C3F10502FB683E
:1057D0009A61FB68FA685A6207F11807BD4680BDF6
:1057E00080B582B000AF4FF000037B6010E07A68B4
:1057F00013464FEA83039B184FEA83031A46124B62
:10580000D318184601F01AF97B6803F101037B6095
:105810007B68042BEBD90D4801F010F90C4801F01E
:105820000DF90C4801F00AF90B4801F007F90B4893
:1058300001F004F90A4B054A1A600A4B044A1A603F
:1058400007F10807BD4680BD0C0200207002002051
:1058500084020020A0020020B4020020CC0200201C
:10586000980200209C02002080B582B000AF2AE0A0
:10587000FFF7E8FB184B1B68002B14BF0023012324
:105880007B60FFF7EDFB7B68002B1CD101F07EFFF6
:10589000114BDB68DB683B603B6803F1040318468F
:1058A00001F05CF90D4B1B6803F1FF320B4B1A60E2
:1058B0000B4B1B6803F1FF32094B1A6001F078FFB4
:1058C000386800F081F8064B1B68002BD0D107F137
:1058D0000807BD4680BD00BFB4020020E0020020E2
:1058E000C802002080B582B000AF7860144B1B68FE
:1058F0007A685A60134B1B687A689A420AD2124B34
:105900001A680F4B1B6803F104031046194601F097
:10591000EBF811E00D4B1A68094B1B6803F1040307
:105920001046194601F0E0F8094B1B687A689A4264
:1059300002D2074B7A681A6007F10807BD4680BD9E
:1059400008020020E40200209C02002098020020AF
:10595000F400002080B584B000AF03463960FB80BE
:105960004FF04C0002F0E0FB0346FB60FB68002BAD
:1059700023D03B68002B07D1FB884FEA83031846EE
:1059800002F0D2FB034600E03B68FA681363FB6851
:105990001B6B002B06D1F86802F062FC4FF000038D
:1059A000FB600AE0FB681A6BFB884FEA8303104632
:1059B0004FF0A5011A4603F0C7FAFB68184607F135
:1059C0001007BD4680BD00BF80B582B000AF7860D3
:1059D0007B681B6B184602F043FC786802F040FCC1
:1059E00007F10807BD4680BD80B483B000AF054B0A
:1059F0001B687B607B68184607F10C07BD4680BCBE
:105A0000704700BF0802002080B483B000AF0D4B88
:105A10001B68002B03D14FF000037B600AE00A4BA8
:105A20001B68002B03D14FF001037B6002E04FF0B5
:105A300002037B607B68184607F10C07BD4680BCFB
:105A4000704700BFEC020020F002002080B584B057
:105A500000AF78607B68FB607B68002B50D0FB68F0
:105A6000DA6A294B1B68DB6A9A4249D2264B1B68CB
:105A7000DB6AC3F10502FB689A61FB685969FB6840
:105A8000DA6A13464FEA83039B184FEA83031A46E8
:105A90001E4BD318994202D14FF0010301E04FF0A1
:105AA0000003002B27D0FB6803F10403184601F024
:105AB00055F8154B1B68DA6AFB68DA62FB68DA6A2C
:105AC000134B1B689A4203D9FB68DA6A104B1A60C1
:105AD000FB68DA6A13464FEA83039B184FEA830395
