:020000040800F2
:10000000B83701202513000899130008A76D0008D0
:1000100099130008991300089913000800000000C4
:10002000000000000000000000000000DD79000872
:100030009913000800000000757B0008C57B0008CC
:1000400099130008991300089913000899130008E0
:1000500099130008991300089913000899130008D0
:1000600099130008991300089913000899130008C0
:1000700099130008991300089913000899130008B0
:1000800099130008991300089913000899130008A0
:100090009913000899130008991300089913000890
:1000A0009913000899130008991300089913000880
:1000B0009913000899130008991300089913000870
:1000C0009913000899130008991300089913000860
:1000D00099130008ED5F0008256000085D600008C6
:1000E0009913000899130008991300089913000840
:1000F0009913000899130008991300089913000830
:10010000991300089913000899130008991300081F
:1001100095600008CD60000899130008753D00083F
:1001200099130008991300089913000899130008FF
:1001300099130008991300089913000899130008EF
:1001400099130008991300089913000899130008DF
:100150009913000899130008991300080561000815
:1001600099130008991300089913000899130008BF
:1001700099130008991300089913000899130008AF
:10018000991300089913000880B582B000AF324B74
:100190001B78002B5AD14FF480004FF0010103F07F
:1001A000DDF92E4B9B6818464FF0010103F0B4F9BE
:1001B0002A4B9B6918464FF0010103F0ADF94FF44B
:1001C00080004FF0010103F00DFA4FF480004FF072
:1001D000000103F007FA214B1A68204B1B7B1046E5
:1001E00019464FF0040206F07FFD1C4B1A691B4BA9
:1001F0001B7F104619464FF0040206F075FD4FF0C4
:1002000002033B714FF002037B714FF00103BB719E
:100210004FF00003FB71114B9B883B600F4B1A683A
:100220003B461046194606F09DFC0C4B9B8A3B60F2
:100230000A4B1A693B461046194606F093FC00F03B
:1002400003FC054B4FF001021A7000E000BF07F1FC
:100250000807BD4680BD00BFB80100200000002097
:1002600080B584B000AF02460B46FA71BB714FF007
:1002700000037B814FF44053FB6079484FF001014C
:1002800007F056FF4FF44053FB600DE0FB68002B76
:1002900004D0FB6803F1FF33FB6005E04FF0FF3053
:1002A00000F0F8FB0346D4E06D486E4908F038F8DA
:1002B0000346002BEAD06A484FF0000107F096FF92
:1002C000FB79674819464FF0000207F071FF4FF4C1
:1002D0004053FB600DE0FB68002B04D0FB6803F18A
:1002E000FF33FB6005E06FF0010000F0D3FB034635
:1002F000AFE05B485C4908F013F80346002BEAD0F6
:10030000574B1B8B4FF44053FB600DE0FB68002BF9
:1003100004D0FB6803F1FF33FB6005E06FF00200DF
:1003200000F0B8FB034694E04D48504907F0F8FF51
:100330000346002BEAD0BB794948194607F09AFFDB
:100340004FF44053FB600DE0FB68002B04D0FB68CA
:1003500003F1FF33FB6005E06FF0030000F09AFB50
:10036000034676E03E48414907F0DAFF0346002B9A
:10037000EAD03B483E4907F0D3FF0346002BE3D0C9
:1003800037484FF0010107F0D3FE4FF44053FB60B4
:100390000DE0FB68002B04D0FB6803F1FF33FB602A
:1003A00005E06FF0040000F075FB034651E02C48B7
:1003B0002C4907F0B5FF0346002BEAD0FB7928480B
:1003C00019464FF0010207F0F3FE4FF44053FB6073
:1003D0000DE0FB68002B04D0FB6803F1FF33FB60EA
:1003E00005E06FF0050000F055FB034631E01C48C6
:1003F0001D4907F095FF0346002BEAD0184B1B8BD5
:100400004FF44053FB600DE0FB68002B04D0FB6809
:1004100003F1FF33FB6005E06FF0060000F03AFBEC
:10042000034616E00E48134907F07AFF0346002BF7
:10043000EAD00B484FF0010107F09AFE084807F098
:1004400029FF03467B8106484FF0010107F0CEFEED
:100450007B891BB2184607F11007BD4680BD00BF5F
:100460000058004001000010020000108000001041
:10047000040000104000001080B584B000AF1346A7
:100480000246FA710A46BA717B714FF000037B8114
:100490004FF44053FB6055484FF0010107F048FE10
:1004A0004FF44053FB600DE0FB68002B04D0FB6869
:1004B00003F1FF33FB6005E04FF0FF3000F0EAFA94
:1004C00003468DE049484A4907F02AFF0346002BBE
:1004D000EAD0FB79454819464FF0000207F068FE64
:1004E0004FF44053FB600DE0FB68002B04D0FB6829
:1004F00003F1FF33FB6005E06FF0010000F0CAFA82
:1005000003466DE039483B4907F00AFF0346002BDC
:10051000EAD0364B1B8B4FF44053FB600DE0FB6879
:10052000002B04D0FB6803F1FF33FB6005E06FF0A4
:10053000020000F0AFFA034652E02C482E4907F0C3
:10054000EFFE0346002BEAD0BB792848194607F096
:1005500091FE4FF44053FB600DE0FB68002B04D08C
:10056000FB6803F1FF33FB6005E06FF0030000F070
:1005700091FA034634E01D481F4907F0D1FE0346B7
:10058000002BEAD07B791948194607F073FE4FF427
:100590004053FB600DE0FB68002B04D0FB6803F1C7
:1005A000FF33FB6005E06FF0040000F073FA0346D0
:1005B00016E00E48104907F0B3FE0346002BEAD0C0
:1005C0000A480E4907F0ACFE0346002BE3D007486B
:1005D0004FF0010107F0CCFD4FF000037B817B89D8
:1005E0001BB2184607F11007BD4680BD00580040F9
:1005F0000100001002000010800000100400001034
:1006000080B586B000AF13460246FA710A46BA7149
:100610007B714FF000033B824FF440537B617B7949
:10062000002B02D14FF6F87318E17B790A2B02D91F
:100630004FF6F77312E18C484FF0010107F078FD97
:100640004FF440537B610DE07B69002B04D07B6944
:1006500003F1FF337B6105E04FF0FF3000F01AFA41
:100660000346FBE08048814907F05AFE0346002B11
:10067000EAD07B79012B05D17B484FF0000107F0D0
:10068000B5FD04E078484FF0010107F0AFFDFB79BC
:10069000754819464FF0000207F08AFD4FF44053A9
:1006A0007B610DE07B69002B04D07B6903F1FF3394
:1006B0007B6105E06FF0010000F0ECF90346CDE04E
:1006C00069486B4907F02CFE0346002BEAD0664BC5
:1006D0001B8B4FF440537B610DE07B69002B04D0F2
:1006E0007B6903F1FF337B6105E06FF0020000F0EE
:1006F000D1F90346B2E05C485E4907F011FE0346BB
:10070000002BEAD0BB795848194607F0B3FD4FF4E7
:1007100040537B610DE07B69002B04D07B6903F1C2
:10072000FF337B6105E06FF0030000F0B3F903468F
:1007300094E04D484F4907F0F3FD0346002BEAD003
:1007400049484D4907F0ECFD0346002BE3D04648ED
:100750004FF0010107F0ECFC4FF440537B610DE0DA
:100760007B69002B04D07B6903F1FF337B6105E0DB
:100770006FF0040000F08EF903466FE03A483B4901
:1007800007F0CEFD0346002BEAD0FB793648194628
:100790004FF0010207F00CFD4FF440537B610DE078
:1007A0007B69002B04D07B6903F1FF337B6105E09B
:1007B0006FF0050000F06EF903464FE02A482C491F
:1007C00007F0AEFD0346002BEAD0274B1B8B4FF002
:1007D0000003FB7435E0FB7C03F101027B799A4254
:1007E00009DB21484FF0000107F000FD1E484FF0E3
:1007F000010107F0BDFC4FF440537B610DE07B69C4
:10080000002B04D07B6903F1FF337B6105E06FF0BF
:10081000060000F03FF9034620E01348174907F0AF
:100820007FFD0346002BEAD00F4807F033FD034657
:10083000FB73FB7C124AF97BD154FB7C03F101036F
:10084000FB74FA7C7B799A42C5D307484FF00101CB
:1008500007F0CCFC4FF000033B823B8A1BB21846EA
:1008600007F11807BD4680BD005800400100001088
:100870000200001080000010040000104000001072
:100880005C2F012080B586B000AF13460246FA7196
:100890000A46BA717B714FF000033B824FF440531C
:1008A0007B617B79002B02D14FF6FA73BAE07B793A
:1008B0000A2B02D94FF6F973B4E05D484FF00101FD
:1008C00007F036FC4FF440537B610DE07B69002B51
:1008D00004D07B6903F1FF337B6105E04FF0FF300B
:1008E00000F0D8F803469DE05148524907F018FD42
:1008F0000346002BEAD0FB794D4819464FF0000221
:1009000007F056FC4FF440537B610DE07B69002BF0
:1009100004D07B6903F1FF337B6105E06FF00100D8
:1009200000F0B8F803467DE04148434907F0F8FC81
:100930000346002BEAD03E4B1B8B4FF440537B61A8
:100940000DE07B69002B04D07B6903F1FF337B61F1
:1009500005E06FF0020000F09DF8034662E03448C5
:10096000364907F0DDFC0346002BEAD0BB7930485E
:10097000194607F07FFC4FF440537B610DE07B6923
:10098000002B04D07B6903F1FF337B6105E06FF03E
:10099000030000F07FF8034644E02548274907F0AC
:1009A000BFFC0346002BEAD04FF00003FB742CE0A1
:1009B000FB7C234AD35CFB73FB7B1D48194607F085
:1009C00059FC4FF440537B610DE07B69002B04D050
:1009D0007B6903F1FF337B6105E06FF0040000F0F9
:1009E00059F803461EE01248144907F099FC0346E3
:1009F000002BEAD00E48134907F092FC0346002B67
:100A0000E3D0FB7C03F10103FB74FA7C7B799A420F
:100A1000CED307484FF0010107F0AAFB4FF00003C7
:100A20003B823B8A1BB2184607F11807BD4680BDC2
:100A3000005800400100001002000010800000106B
:100A40005C2F01200400001080B584B000AF4FF08F
:100A50000003BB804BF6FF73FB804FF000033B812C
:100A60004FF480637B814FF48043BB81074B3B6035
:100A700007484FF0010107F03BFB3B46044819468D
:100A800007F05EFA07F11007BD4680BDA0860100A1
:100A90000058004080B584B000AF0346FB80FB885F
:100AA000FB810D484FF0010107F062FB0A484FF04F
:100AB000010107F0BBFB08484FF0000107F0B6FB4F
:100AC000054807F0FDF9FFF7BFFFFB891BB2184689
:100AD00007F11007BD4680BD0058004080B483B0C8
:100AE00000AF78607B689B889BB24FEAC3534FEAA4
:100AF000D3539BB2184607F10C07BD4680BC704724
:100B000080B487B000AF78600B467B804FF0000365
:100B1000FB604FF000037B614FF00003BB604FF0C0
:100B20000003FB747B88DBB24FEA5313DBB2BB607C
:100B30007B8803F01F037B617B694FF0010202FA9F
:100B400003F37B61BB68012B07D17B689B899BB258
:100B50007A6902EA03037B6111E0BB68022B07D1CB
:100B60007B681B8A9BB27A6902EA03037B6106E019
:100B70007B689B8A9BB27A6902EA03037B617B886C
:100B80004FEA13239BB2FB60FB684FF0010202FAAD
:100B900003F3FB607B681B889BB2FA6802EA0303DD
:100BA000FB607B69002B06D0FB68002B03D04FF065
:100BB0000103FB7402E04FF00003FB74FB7C18465A
:100BC00007F11C07BD4680BC704700BF80B582B0EE
:100BD00000AF4FF004004FF0010102F09DFC4FF018
:100BE00001033B714FF00003BB714FF00003FB7139
:100BF0004FF003037B714FF480633B603B460C482E
:100C0000194605F0AFFF4FF400633B603B460848D0
:100C1000194605F0A7FF064B4FF400625A83044BB8
:100C20004FF480621A8307F10807BD4680BD00BFFC
:100C30000008024080B582B000AF02460B46FA7150
:100C4000BB71FFF7C3FF55484FF0010105F058FC99
:100C5000BB79202B02D94FF02003BB71504BFA799E
:100C60005A704F4BBA791A704D4B4FF003029A707D
:100C70004B4B4FF00002DA7000F020FA484B5B78E3
:100C8000184600F0F1FA464B1B784FF01100194658
:100C900000F016F9424B1B784FF01200194600F095
:100CA0000FF93F4B1B784FF01300194600F008F97D
:100CB0003B4B1B784FF01400194600F001F9384BFC
:100CC0001B784FF01500194600F0FAF8344B1B78EA
:100CD0004FF01600194600F0F3F8314BDA78304B3C
:100CE0009B781046194600F0DBFA4FF000004FF0F9
:100CF000080100F0E5F84FF001004FF03F0100F06F
:100D0000DFF84FF002004FF03F0100F0D9F84FF04C
:100D100004004FF04F0100F0D3F84FF01C004FF0EB
:100D2000000100F0CDF81F4B4FF480625A831B483E
:100D30004FF0E10105F014FC1A4B4FF480621A8366
:100D4000184B4FF480625A8314484FF0E20105F0CB
:100D500007FC144B4FF480621A834FF007004FF0EA
:100D600004014FF0010200F04FF84FF007004FF080
:100D700005014FF0010200F047F84FF007004FF077
:100D800006014FF0010200F03FF800F0EBF84FF0E1
:100D90000103184607F10807BD4680BD0038004032
:100DA000682F01200008024080B582B000AF786053
:100DB000094B4FF400625A834FF00B0079684FF0F3
:100DC000050200F0A5F8044B4FF400621A8307F106
:100DD0000807BD4680BD00BF0008024080B582B054
:100DE00000AF78604FF00A0079684FF0050200F01C
:100DF0008FF84FF0100079684FF0050200F088F886
:100E000007F10807BD4680BD80B584B000AF13462A
:100E10000246FA710A46BA717B71FB79184600F0F6
:100E200029F80346FB737B79002B0BD0BB794FF07D
:100E3000010202FA03F3DAB2FB7B42EA0303DBB2FC
:100E4000FB730DE0BB794FF0010202FA03F3DBB252
:100E50006FEA0303DAB2FB7B02EA0303DBB2FB7344
:100E6000FA79FB7B1046194600F02AF807F11007C3
:100E7000BD4680BD80B584B000AF0346FB710E4B0C
:100E80004FF480625A83FB7903F01F03DBB20B48F7
:100E9000194605F065FB09484FF0FF0105F060FBBE
:100EA0000346FB73044B4FF480621A83FB7B1846A6
:100EB00007F11007BD4680BD000802400038004021
:100EC00080B582B000AF02460B46FA71BB710E4B83
:100ED0004FF480625A83FB7903F01F03DBB243F0C7
:100EE0002003DBB20948194605F03AFBBB790748F5
:100EF000194605F035FB044B4FF480621A8307F165
:100F00000807BD4680BD00BF000802400038004011
:100F100080B584B000AFB96013460246FA73FB7126
:100F20000E4B4FF480625A83FB7B03F01F03DBB24E
:100F300043F02003DBB20A48194605F011FBFB79A8
:100F40009BB20748B9681A4605F05CFB034B4FF4A7
:100F500080621A8307F11007BD4680BD0008024079
:100F60000038004080B500AF194B4FF480625A83BF
:100F700018484FF0E20105F0F3FA154B4FF4806288
:100F80001A834FF007004FF004014FF00102FFF702
:100F90003BFF4FF007004FF005014FF00102FFF754
:100FA00033FF4FF007004FF006014FF00102FFF74B
:100FB0002BFF074B4FF400625A834FF000004FF0B5
:100FC0000B01FFF77DFF024B4FF400621A8380BDD7
:100FD000000802400038004080B582B000AF786061
:100FE0000E4B4FF480625A830D484FF0610105F0BB
:100FF000B7FA0C4B1B780A4879687A6805F0DEFA74
:10100000064B4FF480621A834FF007004FF0400107
:10101000FFF756FF07F10807BD4680BD00080240F4
:1010200000380040682F012080B582B000AF00F08A
:1010300029F80346FB71FB7903F04003002B02D033
:101040004FF0010307E000F00BF80346002B14BF3C
:1010500000230123DBB2184607F10807BD4680BD17
:1010600080B582B000AF4FF01700FFF703FF0346D3
:10107000FB71FB7903F00103DBB2184607F10807A7
:10108000BD4680BD80B582B000AF0A4B4FF4806290
:101090005A8309484FF0FF0105F062FA0346FB71DD
:1010A000044B4FF480621A83FB79184607F1080756
:1010B000BD4680BD000802400038004080B582B0C7
:1010C00000AF4FF000004FF00801FFF7F9FE4FF0BE
:1010D00001004FF03F01FFF7F3FE4FF002004FF029
:1010E0000301FFF7EDFE4FF003004FF00301FFF7A0
:1010F000E7FE4FF004004FF00301FFF7E1FE4FF071
:1011000005004FF00201FFF7DBFE4FF006004FF045
:101110000E01FFF7D5FE4FF007004FF00E01FFF76D
:10112000CFFE4FF008004FF00001FFF7C9FE4FF06F
:1011300009004FF00001FFF7C3FE4FF0E7033B70DB
:101140004FF0E7037B704FF0E703BB704FF0E7030E
:10115000FB704FF0E7033B713B464FF00A00194626
:101160004FF00502FFF7D4FE4FF0C2033B704FF083
:10117000C2037B704FF0C203BB704FF0C203FB7021
:101180004FF0C2033B713B464FF00B0019464FF046
:101190000502FFF7BDFE4FF00C004FF0C301FFF753
:1011A0008FFE4FF00D004FF0C401FFF789FE4FF0A6
:1011B0000E004FF0C501FFF783FE4FF00F004FF018
:1011C000C601FFF77DFE4FF0E7033B704FF0E703EA
:1011D0007B704FF0E703BB704FF0E703FB704FF0FD
:1011E000E7033B713B464FF0100019464FF00502F4
:1011F000FFF78EFE4FF011004FF00001FFF760FE89
:101200004FF012004FF00001FFF75AFE4FF01300AD
:101210004FF00001FFF754FE4FF014004FF00001B3
:10122000FFF74EFE4FF015004FF00001FFF748FEAC
:101230004FF016004FF00001FFF742FE4FF017008D
:101240004FF01101FFF73CFE4FF01C004FF0000182
:10125000FFF736FE4FF01D004FF00001FFF730FEA4
:1012600007F10807BD4680BD80B582B000AF0346D8
:10127000FB71FB797D2B0DD8084B5B78FA799A428C
:1012800008D0064BFA795A70FB794FF005001946E1
:10129000FFF716FE07F10807BD4680BD682F012045
:1012A00080B584B000AF02460B46FA71BB714FF0B7
:1012B0000003FB731A4BFA79DA70194BBA799A70FA
:1012C000FB79002B04D1FB7B43F00803FB7306E0A2
:1012D000FB79022B03D1FB7B43F02003FB73BB792B
:1012E000032B04D1FB7B43F00603FB730EE0BB79B9
:1012F000022B04D1FB7B43F00403FB7306E0BB79B4
:10130000012B03D1FB7B43F00203FB73FB7B4FF00C
:1013100006001946FFF7D4FD07F11007BD4680BD52
:10132000682F012080B582B000AF154B7B60154B54
:101330003B600BE07B681A683B681A603B6803F10E
:1013400004033B607B6803F104037B603A680E4B47
:101350009A42EFD30D480E494FF000028842B8BFC1
:1013600040F8042BFADBDFF82C00016841F470012F
:10137000016000F0BFF907F10807BD4680BD00BF5E
:10138000E293000800000020B8010020B80100200E
:10139000B42F012088ED00E080B400AFFEE700BF6D
:1013A00080B584B000AF4FF00003FB7356E0FA7BCA
:1013B0002E4913464FEA83039B184FEA8303CB1849
:1013C00003F10C031B6818464FF0010102F0A4F86A
:1013D000FA7B264913464FEA83039B184FEA83039F
:1013E000CB1803F108031B887B604FF001033B72AD
:1013F0004FF00003BB724FF00103FB724FF002038A
:101400007B72FA7B194913464FEA83039B184FEA14
:101410008303CB1803F104031A6807F10403104691
:10142000194605F09FFBFA7B104913464FEA8303E8
:101430009B184FEA8303CB1803F110031B78002B92
:1014400004D1FB7B184600F013F803E0FB7B184641
:1014500000F034F8FB7B03F10103FB73FB7B052BEE
:10146000A5D907F11007BD4680BD00BF20000020B0
:1014700080B483B000AF0346FB71FA790E4913467E
:101480004FEA83039B184FEA8303CB1803F104034D
:101490001968FA79084813464FEA83039B184FEA04
:1014A0008303C31803F108031B884B8307F10C0760
:1014B000BD4680BC704700BF2000002080B483B0D0
:1014C00000AF0346FB71FA790E4913464FEA8303D6
:1014D0009B184FEA8303CB1803F104031968FA79C8
:1014E000084813464FEA83039B184FEA8303C31847
:1014F00003F108031B880B8307F10C07BD4680BC72
:10150000704700BF2000002090B482B000AF0346B7
:10151000FB71FA79154913464FEA83039B184FEA8A
:101520008303CB1803F104031968FA790F481346B3
:101530004FEA83039B184FEA8303C31803F10403A4
:101540001B685869FA79094C13464FEA83039B18C4
:101550004FEA8303E31803F108031B8880EA0303BF
:101560004B6107F10807BD4690BC70472000002082
:1015700080B500AF02F026FBFFF712FF4FF000002E
:1015800002F078FBFEF700FE05F08AFD04F0D6FDC0
:101590004FF010004FF00401FFF74CFB4FF000003C
:1015A0004FF00001FFF77CFE4148FFF7FDFB41488B
:1015B000FFF714FC404B4FF001021A704FF080000F
:1015C0004FF0E6014FF00102FFF75CF942F23420E0
:1015D0004FF0090107F0BEFC03461A46374B1A705C
:1015E00042F235204FF0090107F0B4FC03461A46D9
:1015F000334B1A7042F236204FF0090107F0AAFC73
:1016000003461A462F4B1A7042F237204FF0090159
:1016100007F0A0FC03461A462B4B1A7042F2382002
:101620004FF0090107F096FC03461A46274B1A7043
:10163000244B1A78264B1A70204B1A78254B1A70B7
:10164000244B1A781E4B1B78D318DAB2224B1A702F
:10165000214B1A781B4B1B78D318DAB21F4B1A7028
:101660001E4B1A781A4B1B78D318DAB21C4B1A701F
:101670001B4B1A78154B1B78D318DAB2194B1A701A
:10168000184B1A78104B1B78D318DAB2164B1A7015
:10169000164B4FF000021A704FF00500FFF70EFFD7
:1016A000134803F0F7FB4FF00500FFF7E1FE80BDA4
:1016B000A0000020980000205C2F0120DC01002009
:1016C000DD010020DE010020DF010020E00100201C
:1016D000E1010020EF010020F3010020F1010020D2
:1016E000F2010020F4010020F0010020F5010020AB
:1016F000404B4C0080B584B004AF05F01BFCFFF7F5
:1017000037FF554B4FF0010200924FF0000201925B
:101710004FF0000202924FF0000203924F48194628
:101720004FF082024FF0000303F0DAFB4C4B4FF016
:10173000010200924FF0000201924FF0000202926B
:101740004FF000020392474819464FF082024FF0D3
:10175000000303F0C5FB444B4FF0010200924FF031
:10176000000201924FF0000202924FF00002039239
:101770003E4819464FF082024FF0000303F0B0FBE1
:101780003B4B4FF0010200924FF0000201924FF0EC
:10179000000202924FF000020392364819464FF0C1
:1017A00082024FF0000303F09BFB334B4FF001022A
:1017B00000924FF0000201924FF0000202924FF0AF
:1017C000000203922D4819464FF082024FF00003A9
:1017D00003F086FB2A4B4FF0010200924FF000020B
:1017E00001924FF0000202924FF00002039225484E
:1017F00019464FF082024FF0000303F071FB224BB9
:101800004FF0010200924FF0000201924FF00002EF
:1018100002924FF0000203921C4819464FF08202D8
:101820004FF0000303F05CFB194B4FF001020092F4
:101830004FF0000201924FF0000202924FF00002BE
:101840000392144819464FF082024FF0000303F050
:1018500047FB03F02DFCFEE74C930008B51A000887
:101860005C9300083D1C00086493000801200008F8
:101870006C930008291A0008789300085D25000879
:101880008C930008E11A0008989300085119000889
:10189000AC9300089918000880B582B000AF78605A
:1018A00004E000BF02E000BF00E000BF224B1B7855
:1018B000002BF6D1214B1B78002BF4D1204B1B7849
:1018C0001A46204B1B784FF47A7101FB03F31E4933
:1018D00081FB03014FEA61114FEAE373CB1A9A428D
:1018E000E3DA1A4B1B78092B06D803F017FA4FF0EE
:1018F000010002F09DFB05E003F0ECF94FF0010060
:1019000002F096FB4FF4C37003F0A6FB0F4B1B785D
:10191000092B06D803F00EFA4FF0000002F088FB06
:1019200005E003F0EFF94FF0000002F081FB4FF407
:10193000C37003F091FBB9E7E2010020F50100203C
:10194000DA010020DC0100201F85EB51D5010020C9
:1019500080B584B000AF78604FF00003FB7306F0F1
:10196000D5F84FF0D0004FF000014FF00602FEF71F
:1019700047FE0346FB73FB7B002B3ED1224B1B78BB
:10198000184602F0DDFA03461A46204B1A701E4B29
:101990005B78184602F0D4FA03461A461C4B1A70BC
:1019A000194B9B78184602F0CBFA03461A46194B9E
:1019B0001A70154BDB78184602F0C2FA03461A4635
:1019C000154B1A70104B1B79184602F0B9FA0346F2
:1019D0001A46124B1A700C4B5B79184602F0B0FA9B
:1019E00003461A460E4B1A70074B9B79184602F0B5
:1019F000A7FA03461A460B4B1A7006F099F84FF4F3
:101A0000FA7003F029FBAAE75C2F0120D301002024
:101A1000D4010020D5010020D7010020D6010020EC
:101A2000D8010020D901002080B582B000AF7860D5
:101A300006F06CF8FFF7F8FA0346012B0BD11B48B0
:101A4000FFF7CAFA1A4B4FF000021A704FF001006C
:101A5000FFF70EFD22E04FF00100FFF72FFD144BC2
:101A60001B7803F10103DAB2114B1A70104B1B788B
:101A7000042B13D90D4B4FF009021A700B4B4FF08A
:101A800009025A70094B4FF009029A70074B4FF048
:101A90000902DA70064B4FF001021A7006F048F89E
:101AA00041F2883003F0D8FAC2E700BF742F01205A
:101AB000EC01002080B582B000AF78604FF00200EA
:101AC000FFF722FD054B1B7803F10103DAB2034B4C
:101AD0001A704FF47A7003F0BFFAEFE7DA010020D2
:101AE00080B582B000AF7860464B1B78002B0FD0DA
:101AF000444B1B78042B0BD0424B1B780D2B07D08B
:101B0000404B1B78112B03D03E4B1B78152B14D167
:101B10003D4B1B780A2B0BD03B4B1B78142B07D06B
:101B2000394B1B78232B03D0374B1B78322B04D136
:101B3000364B4FF001021A7003E0344B4FF00002B5
:101B40001A704FF0000002F095F80346002B39D0D0
:101B500003F0B6F92E4B1B78002B04D12C4B4FF021
:101B600001021A7026E02A4B1B7803F10103DAB256
:101B7000274B1A70274B4FF000021A70264B4FF07C
:101B800000021A70254B4FF000021A70244B4FF0E0
:101B900000021A70234B4FF000021A70224B4FF0D4
:101BA00000021A70214B4FF000021A70204B4FF0C8
:101BB00000021A70164B1B780A2B03D1144B4FF0FE
:101BC00000021A704FF0010002F054F80346002B97
:101BD00005D0184B4FF001021A7003F071F94FF065
:101BE000020002F047F80346002B05D0124B4FF0DD
:101BF00001021A7003F064F94FF0020003F02CFAAE
:101C000072E700BFD5010020D4010020F5010020BB
:101C1000E2010020E3010020E4010020E5010020B2
:101C2000E6010020E7010020E8010020E901002092
:101C3000EA010020ED010020EE01002080B584B013
:101C400000AF78604FF00003FB730B4B1B78002B49
:101C500014D04FF000004FF0000104F077FA4FF07D
:101C600001004FF0400104F071FA4FF002004FF014
:101C7000000104F06BFABBE1E20100207F4B1B780E
:101C80000A2B40F289807D4B1B78132B00F2848055
:101C9000FB7B002B02D14FF00103FB73FB7B012B7D
:101CA00010D1BB7B03F10103BB734FF000037B73C7
:101CB0004FF000033B73BB7B5BB2002B02DA4FF0AB
:101CC0000203FB73FB7B022B0AD17B7B03F1010335
:101CD0007B737B7B5BB2002B02DA4FF00303FB7359
:101CE000FB7B032B09D1BB7B03F1FF33BB73BB7BB6
:101CF000002B02D14FF00403FB73FB7B042B0AD1B2
:101D00003B7B03F101033B733B7B5BB2002B02DAAD
:101D10004FF00503FB73FB7B052B09D17B7B03F1A4
:101D2000FF337B737B7B002B02D14FF00603FB73E9
:101D3000FB7B062B0AD1BB7B03F10103BB73BB7B8F
:101D40005BB2002B02DA4FF00703FB73FB7B072B20
:101D500009D13B7B03F1FF333B733B7B002B02D16B
:101D60004FF00003FB733B7B9BB24FF00000194622
:101D700004F0ECF9BB7B9BB24FF00100194604F074
:101D8000E5F97B7B9BB24FF00200194604F0DEF9C7
:101D90004FF01E0003F060F9384B1B78132B40F214
:101DA0008880364B1B78162B00F28380FB7B002B40
:101DB00002D14FF00103FB73FB7B012B0FD1BB7BE7
:101DC00003F10103BB734FF000037B734FF000037B
:101DD0003B73BB7B0F2B02D94FF00203FB73FB7BE2
:101DE000022B09D17B7B03F101037B737B7B0F2BE0
:101DF00002D94FF00303FB73FB7B032B09D1BB7BA1
:101E000003F1FF33BB73BB7B002B02D14FF0040304
:101E1000FB73FB7B042B09D13B7B03F101033B7379
:101E20003B7B0F2B02D94FF00503FB73FB7B052B8C
:101E300009D17B7B03F1FF337B737B7B002B02D1CA
:101E40004FF00603FB73FB7B062B09D1BB7B03F131
:101E50000103BB73BB7B0F2B02D94FF00703FB734E
:101E6000FB7B072B0CD13B7B03F1FF333B733B7BAD
:101E7000002B05D14FF00003FB7301E0D5010020DA
:101E80003B7B9BB24FF00000194604F05FF9BB7B2F
:101E90009BB24FF00100194604F058F97B7B9BB2CE
:101EA0004FF00200194604F051F94FF0280003F0FA
:101EB000D3F8524B1B78082B11D84FF000004FF08D
:101EC000000104F043F94FF001004FF0000104F06D
:101ED0003DF94FF002004FF0000104F037F9474B95
:101EE0001B78082B40F28480444B1B78092B7FD849
:101EF000FB7B002B02D14FF00103FB73FB7B012B1B
:101F00000FD1BB7B03F10103BB734FF000037B7365
:101F10004FF000033B73BB7B0F2B02D94FF0020342
:101F2000FB73FB7B022B09D17B7B03F101037B73EA
:101F30007B7B0F2B02D94FF00303FB73FB7B032B3F
:101F400009D1BB7B03F1FF33BB73BB7B002B02D1F9
:101F50004FF00403FB73FB7B042B09D13B7B03F1A4
:101F600001033B733B7B0F2B02D94FF00503FB733F
:101F7000FB7B052B09D17B7B03F1FF337B737B7BE1
:101F8000002B02D14FF00603FB73FB7B062B09D11C
:101F9000BB7B03F10103BB73BB7B0F2B02D94FF05B
:101FA0000703FB73FB7B072B09D13B7B03F1FF335B
:101FB0003B733B7B002B02D14FF00003FB733B7B59
:101FC0009BB24FF00000194604F0C0F8BB7B9BB2F7
:101FD0004FF00100194604F0B9F87B7B9BB24FF03B
:101FE0000200194604F0B2F84FF0280003F034F86C
:101FF0004FF0030003F030F827E600BFD5010020C2
:1020000090B593B000AF78604FF00003A7F846306A
:102010004FF00003A7F844304FF00003A7F8423018
:102020004FF00003A7F840304FF00003FB874FF05C
:102030000003BB874FF000037B874FF000033B8713
:102040004FF00003FB864FF00003BB864FF0000308
:102050007B864FF000033B8605F058FD4FF0EF0004
:102060004FF0AA01FEF7FCF803469BB24FEA0323A8
:102070009CB24FF0EF004FF0AB01FEF7F1F80346D2
:102080009BB2E3189BB2A7F844304FF0EF004FF03B
:10209000AC01FEF7E5F803469BB24FEA03239CB27E
:1020A0004FF0EF004FF0AD01FEF7DAF803469BB2B8
:1020B000E3189BB2A7F842304FF0EF004FF0AE01AB
:1020C000FEF7CEF803469BB24FEA03239CB24FF0D3
:1020D000EF004FF0AF01FEF7C3F803469BB2E318E1
:1020E0009BB2A7F840304FF0EF004FF0B001FEF781
:1020F000B7F803469BB24FEA03239CB24FF0EF00C0
:102100004FF0B101FEF7ACF803469BB2E318FB8732
:102110004FF0EF004FF0B201FEF7A2F803469BB27A
:102120004FEA03239CB24FF0EF004FF0B301FEF7EC
:1021300097F803469BB2E318BB874FF0EF004FF0D0
:10214000B401FEF78DF803469BB24FEA03239CB21D
:102150004FF0EF004FF0B501FEF782F803469BB257
:10216000E3187B874FF0EF004FF0B601FEF778F8E9
:1021700003469BB24FEA03239CB24FF0EF004FF0AF
:10218000B701FEF76DF803469BB2E3189BB23B879D
:102190004FF0EF004FF0B801FEF762F803469BB234
:1021A0004FEA03239CB24FF0EF004FF0B901FEF766
:1021B00057F803469BB2E3189BB2FB864FF0EF0043
:1021C0004FF0BA01FEF74CF803469BB24FEA0323E7
:1021D0009CB24FF0EF004FF0BB01FEF741F8034611
:1021E0009BB2E3189BB2BB864FF0EF004FF0BC01EF
:1021F000FEF736F803469BB24FEA03239CB24FF03A
:10220000EF004FF0BD01FEF72BF803469BB2E31839
:102210009BB27B864FF0EF004FF0BE01FEF720F837
:1022200003469BB24FEA03239CB24FF0EF004FF0FE
:10223000BF01FEF715F803469BB2E3189BB23B863D
:1022400005F076FC05F062FC4FF0EF004FF0F40172
:102250004FF02E02FEF710F905F06AFC4FF0050072
:1022600002F0FAFE05F052FC4FF0EF004FF0F601DD
:10227000FDF7F6FF03464FEA03244FF0EF004FF05F
:10228000F701FDF7EDFF0346E318FB6205F050FC94
:1022900005F03CFC4FF0EF004FF0F4014FF034023A
:1022A000FEF7EAF805F044FC4FF0050002F0D4FE1A
:1022B00005F02CFC4FF0EF004FF0F601FDF7D0FFDA
:1022C00003464FEA03244FF0EF004FF0F701FDF70C
:1022D000C7FF0346E318BB6205F02AFC7B8FFA6A4E
:1022E000D31ABA8F02FB03F34FEAD3337B62B7F9F9
:1022F00032304FEAC322B7F930107B6ACB1892FB19
:10230000F3F37B847B6A9AB27B8CD3189BB23B84B9
:10231000B7F9203003F10803002B01DA03F10F03B2
:102320004FEA23139AB2854B1A803B8CA3F57A634C
:102330009BB2FB83B7F944304FEA8302B7F93630DA
:10234000B7F91E1001FB03F3002B03DA03F57E63DC
:1023500003F11F034FEA23331946B7F94230CB1874
:10236000B7F91E1001FB03F3002B03DA03F5FE633C
:1023700003F10F034FEAE323D31803F10203002B09
:1023800001DA03F103034FEAA303BB83B7F940204B
:10239000B7F938304FEA4303B7F91E1001FB03F3D6
:1023A000D318B7F91E2002FB03F3002B03DA03F165
:1023B000005303F1FF334FEA637303F102037B62BF
:1023C000FA8F7B6A002B01DA03F103034FEAA303C0
:1023D00003F5004303FB02F34FEAD3337B83B7F9E2
:1023E0001C30BA6AD31A4CF2503202FB03F37B6101
:1023F0007A696FF078439A4206D87B694FEA4302C4
:102400007B8BB2FBF3F305E07B8B7A69B2FBF3F3D2
:102410004FEA43034A4A1360494B1B68002B01DA19
:1024200003F1FF034FEA23231A46454B1B68002B99
:1024300001DA03F1FF034FEA232303FB02F340F623
:10244000DE3202FB03F23E4B1B683E4901FB03F305
:10245000D318002B03DA4FF6FF729A1813464FEA8F
:10246000234303F56C6303F10F03002B01DA03F13F
:102470000F034FEA23131A46314B1B68D218304B17
:102480001A602F4B1A6813464FEA83039B184FEAD2
:102490000312D31A2C4A82FB03124FEA22324FEA6C
:1024A000E373D21A264B1A6005F030FB4FF0800020
:1024B0004FF0E5014FF00302FEF7A2F805F038FBFC
:1024C000224B1B78A7F84630B7F846304FEA032373
:1024D000A7F846301D4B5B781A46B7F84630D3183C
:1024E000A7F84630B7F8463023F00303A7F8463084
:1024F000B7F8463007EE903AB8EEE77ADFED147A97
:10250000C7EE277AC7ED047A97ED047ADFED117AEA
:1025100067EE277AB1EE087A77EEC77AC7ED037ACD
:10252000D7ED037AFDEEE77A17EE903A9AB20A4BAE
:102530001A8041F2883002F08FFD69E5C401002065
:10254000C001002043E3FFFFAD8BDB685C2F01205F
:10255000000080470000FA42C801002080B586B024
:1025600000AF78604FF00003FB754FF00003BB75C0
:102570004FF000037B754FF000033B754FF00003F5
:10258000FB744FF00003BB744FF000037B744FF0FB
:1025900000033B744FF00003FB734FF000037B73A9
:1025A0004FF00003BB730B4B1B78002B40F09C805B
:1025B000094B1B78012B40F09780084B1B7803F1E7
:1025C0000103DAB2054B1A7002F084FB4FF00003EE
:1025D000BB7385E0E2010020F5010020DB01002053
:1025E000BB7B002B05D0BB7B032B02D0BB7B062B18
:1025F00007D14FF0010001F0BFFD4FF0010001F0E5
:1026000017FDBB7B012B05D0BB7B042B02D0BB7B12
:10261000072B07D14FF0010001F0E8FD4FF001005A
:1026200001F0D4FCBB7B022B05D0BB7B052B02D079
:10263000BB7B082B09D14FF0010001F011FE4FF0D8
:10264000010001F027FD02F045FB4FF0010001F011
:1026500053FDBB7B1A464FEA8202D2184FEA420270
:10266000D318DAB2BB7B19464FEA8101C9184FEA89
:102670004101CB18DBB21046194602F08BFABB7B46
:102680009BB21A464FEAC202D21A4FEA0212D31A7A
:102690009BB24FF00C00194601F0BEFE02F0E4FAC6
:1026A0004FF0500002F0D8FC01F092FE4FF0000015
:1026B00001F062FD4FF0000001F0BAFC02F022FBD5
:1026C0004FF0000001F0CCFD4FF0000001F014FDD0
:1026D0004FF0C80002F0C0FCBB7B03F10103BB73E9
:1026E000BB7B092B7FF67CAF934B1B78002B40F014
:1026F000FC80924B1B78002B40F0F780904B1A78AF
:10270000904B1B789A4210D28F4B1B784FF00400ED
:10271000194601F081FE8D4B1A788D4B1B781046BF
:10272000194602F037FA02F09FFA854B1A78854B6A
:102730001B789A4211D9824B1A78864B1B789A42A1
:102740000BD202F003FB844B1B689BB24FF00300DB
:10275000194601F061FE02F087FA794B1A787D4B39
:102760001B789A4217D9764B1A787C4B1B789A4281
:1027700011D202F003FB4FF000004FF00A0102F00B
:1027800009FA774B1B889BB24FF00000194601F005
:1027900043FE02F069FA6A4B1A78704B1B789A4232
:1027A00059D9674B1A786F4B1B789A4253D202F073
:1027B000E5FA4FF000004FF0140102F0EBF96A4B1C
:1027C0001B781A46684B9B7819464FEA8101CB1853
:1027D00019464FEA810019460346CB184FEA830396
:1027E00099B2614B5B7818464FEA8000C3184FEAF4
:1027F00043039BB2CB189BB2D3189BB29AB25B4BEC
:102800001A80594BDB78092B09D1584B1B889BB296
:102810004FF00D00194601F0FFFD02F025FA524B72
:10282000DB782B2B09D1514B1B889BB24FF000005A
:10283000194601F0F1FD02F017FA4B4BDB782D2B16
:1028400009D14A4B1B889BB24FF00100194601F099
:10285000E3FD02F009FA3A4B1A78424B1B789A4290
:1028600017D9374B1A78424B1B789A4211D202F093
:1028700085FA4FF000004FF00A0102F08BF93D4B52
:102880001B889BB24FF00200194601F0C5FD02F013
:10289000EBF92B4B1A78364B1B789A4217D9284BF9
:1028A0001A78354B1B789A4211D202F013FA334B47
:1028B0001A78334B1B781046194602F06BF94FF02B
:1028C0000A004FF0000101F0A7FD02F0CDF91C4B0A
:1028D0001A78294B1B789A4203D9194B4FF0000202
:1028E0001A704FF4FA7002F0B7FB134B1B78012BF0
:1028F00040F0D380234B1B78002B06D1144B1B7860
:10290000BB75204B4FF001021A701F4B1B78012B37
:102910000ED1BB7D03F10103BB7597F916303B2B3C
:1029200002DD4FF00003BB75174B4FF000021A7029
:10293000164B1B782CE000BFE2010020F5010020BF
:10294000DA010020EF010020D3010020D501002092
:10295000D4010020F3010020C0010020F10100207B
:10296000C4010020F2010020742F0120CC010020BE
:10297000F4010020C8010020F0010020D601002051
:10298000D8010020E3010020ED010020EE0100202D
:10299000012B0ED1BB7D03F1FF33BB7597F91630C8
:1029A000002B02DA4FF03B03BB75974B4FF0000250
:1029B0001A7002F0D7F9954B1B784FF005001946B5
:1029C00001F02AFD924B1A78BB7D1046194602F0A1
:1029D000E1F802F049F94FF0640002F03DFB02F02B
:1029E00079F98A4B1B784FF00500194601F014FD68
:1029F000874B1A78BB7D1046194602F0CBF802F0DF
:102A000033F9844B1B78012B0ED1BB7D03F10103FD
:102A1000BB7597F916303B2B02DD4FF00003BB75F9
:102A20007C4B4FF000021A70774B1B78012B0AD1B8
:102A3000BB7D03F1FF33BB7597F91630002B02DA2B
:102A40004FF03B03BB754FF01E0001F095FA0346B3
:102A5000DAB2714B1A7097F91630184601F08CFAF9
:102A60000346DAB26C4B5A70694B1B78184601F07A
:102A700083FA0346DAB2684B9A7005F047F84FF0D4
:102A8000D0004FF000014FF00302FDF7FBFE05F010
:102A90004FF84FF0640002F0DFFA604B1B78022B16
:102AA00040F0A5805E4B1B78002B06D1584B1B785D
:102AB000FB755B4B4FF001021A70564B1B78012BD4
:102AC0000AD1FB7D03F10103FB7597F91730172B32
:102AD00002DD4FF00003FB754B4B1B78012B0ED131
:102AE000FB7D03F1FF33FB7597F91730002B02DAFA
:102AF0004FF01703FB75444B4FF000021A7002F0C1
:102B000049F9424B1B784FF00500194601F084FC4F
:102B1000FA7D444B1B781046194602F03BF802F050
:102B2000A3F84FF0640002F097FA02F0D3F8374BA5
:102B30001B784FF00500194601F06EFCFA7D394B09
:102B40001B781046194602F025F802F08DF8314B3B
:102B50001B78012B0ED1FB7D03F10103FB7597F967
:102B60001730172B02DD4FF00003FB75294B4FF098
:102B700000021A70244B1B78012B0ED1FB7D03F150
:102B8000FF33FB7597F91730002B02DA4FF017036C
:102B9000FB751D4B4FF000021A704FF01E0001F044
:102BA000EBF90346DAB21C4B1A701E4B1B78184621
:102BB00001F0E2F90346DAB2174B5A7097F9173071
:102BC000184601F0D9F90346DAB2134B9A7004F0B3
:102BD0009DFF4FF0D0004FF000014FF00302FDF7D2
:102BE00051FE04F0A5FF4FF0640002F035FA0B4BE4
:102BF0001B78032B40F0CC800B4B1B78002B1CD197
:102C00000A4B1B7814E000BFEE010020D301002026
:102C1000D5010020ED0100205C2F0120E201002001
:102C2000E4010020D4010020E9010020D6010020A9
:102C30003B74914B4FF001021A70904B1B78012BA3
:102C40000ED13B7C03F101033B7497F910301F2B2D
:102C500002DD4FF001033B74884B4FF000021A7005
:102C6000874B1B78012B0ED13B7C03F1FF333B7468
:102C700097F91030002B02DC4FF01F033B74804BA0
:102C80004FF000021A7002F085F84FF00A004FF082
:102C9000000101F0C1FB3A7C7A4B1B7810461946C3
:102CA00001F078FF01F0E0FF4FF0640002F0D4F98A
:102CB00002F010F84FF00A004FF0000101F0ACFBF9
:102CC0003A7C704B1B781046194601F063FF01F007
:102CD000CBFF6A4B1B78012B0ED13B7C03F1010328
:102CE0003B7497F910301F2B02DD4FF001033B744A
:102CF000624B4FF000021A70614B1B78012B0ED112
:102D00003B7C03F1FF333B7497F91030002B02DC5E
:102D10004FF01F033B745A4B4FF000021A70397C7E
:102D2000584B1A78584B1B78084611461A4602F041
:102D30003DF80346DAB2554B1A7097F91030184631
:102D400001F01AF90346DAB2504B5A704D4B1B781A
:102D5000184601F011F90346DAB24C4B9A704A4B0F
:102D60001B78184601F008F90346DAB2474BDA70CF
:102D700004F0CCFE4FF0D0004FF003014FF00402FE
:102D8000FDF780FD04F0D4FE4FF0640002F064F91A
:102D90003F4B1B78042B40F0C9803E4B1B78002B27
:102DA00006D1384B1B78FB733A4B4FF001021A7077
:102DB000324B1B78012B0ED1FB7B03F10103FB731C
:102DC00097F90F300C2B02DD4FF00103FB732B4BF7
:102DD0004FF000021A702A4B1B78012B0ED1FB7B9F
:102DE00003F1FF33FB7397F90F30002B02DA4FF03A
:102DF0000C03FB73224B4FF000021A7001F0B2FF7C
:102E00004FF00A004FF0000101F006FB224B1A7848
:102E1000FB7B1046194601F0BDFE01F025FF4FF087
:102E2000640002F019F901F055FF4FF00A004FF06D
:102E3000000101F0F1FA184B1A78FB7B1046194695
:102E400001F0A8FE01F010FF0C4B1B78012B0ED1F6
:102E5000FB7B03F10103FB7397F90F300C2B02DDB1
:102E60004FF00103FB73054B4FF000021A70044B47
:102E70001B78012B21D111E0E9010020ED01002098
:102E8000EE010020D8010020D90100205C2F012094
:102E9000E2010020EA010020D6010020FB7B03F1C3
:102EA000FF33FB7397F90F30002B02DA4FF00C035E
:102EB000FB73944B4FF000021A70934B1978FA7B16
:102EC000924B1B78084611461A4601F06FFF0346E5
:102ED000DAB28F4B1A708C4B1B78184601F04CF805
:102EE0000346DAB28A4B5A7097F90F30184601F050
:102EF00043F80346DAB2864B9A70844B1B78184627
:102F000001F03AF80346DAB2814BDA7004F0FEFDC4
:102F10004FF0D0004FF003014FF00402FDF7B2FC78
:102F200004F006FE4FF0640002F096F8794B1B782F
:102F3000052B58D101F00AFF774B1B78002B0FD1DE
:102F400004F0E4FD42F234204FF0090106F002F8EB
:102F500003467B7504F0ECFD6F4B4FF001021A70D5
:102F60006E4B1B78012B0ED17B7D03F101037B752A
:102F700097F91530632B02DD4FF000037B75674B2B
:102F80004FF000021A705F4B1B78012B0ED17B7D36
:102F900003F1FF337B7597F91530002B02DA4FF000
:102FA00063037B75574B4FF000021A707A7D5C4BC0
:102FB0001A7004F0ABFD7B7D42F2342019464FF0CD
:102FC000090205F0FBFE04F0B3FD97F915309BB242
:102FD0004FF00600194601F01FFA01F045FE4FF0D0
:102FE000640002F039F84B4B1B78062B58D101F0E6
:102FF000ADFE4C4B1B78002B0FD104F087FD42F245
:1030000035204FF0090105F0A5FF03463B7504F09C
:103010008FFD444B4FF001021A70404B1B78012B7F
:103020000ED13B7D03F101033B7597F91430632BFF
:1030300002DD4FF000033B75384B4FF000021A7071
:10304000304B1B78012B0ED13B7D03F1FF333B75D9
:1030500097F91430002B02DA4FF063033B75294BCC
:103060004FF000021A703A7D2F4B1A7004F04EFD9B
:103070003B7D42F2352019464FF0090205F09EFED5
:1030800004F056FD97F914309BB24FF00700194633
:1030900001F0C2F901F0E8FD4FF0640001F0DCFF3F
:1030A0001C4B1B78072B6FD101F050FE1F4B1B7878
:1030B000002B0FD104F02AFD42F236204FF0090117
:1030C00005F048FF0346FB7404F032FD174B4FF048
:1030D00001021A70114B1B78012B0ED1FB7C03F1FE
:1030E0000103FB7497F91330632B02DD4FF00003EB
:1030F000FB740A4B4FF000021A70024B1B78012B35
:1031000025D115E0EE010020D6010020D9010020D4
:103110005C2F0120E2010020E5010020ED010020EC
:10312000DC010020E6010020DD010020E701002095
:10313000FB7C03F1FF33FB7497F91330002B02DAA9
:103140004FF06303FB74844B4FF000021A70FA7C5B
:10315000824B1A7004F0DAFCFB7C42F236201946EE
:103160004FF0090205F02AFE04F0E2FC97F9133053
:103170009BB24FF00800194601F04EF901F074FDC2
:103180004FF0640001F068FF754B1B78082B58D195
:1031900001F0DCFD734B1B78002B0FD104F0B6FC63
:1031A00042F237204FF0090105F0D4FE0346BB740C
:1031B00004F0BEFC6B4B4FF001021A706A4B1B7897
:1031C000012B0ED1BB7C03F10103BB7497F91230C4
:1031D000632B02DD4FF00003BB74634B4FF0000222
:1031E0001A705D4B1B78012B0ED1BB7C03F1FF33B2
:1031F000BB7497F91230002B02DA4FF06303BB74F3
:10320000554B4FF000021A70BA7C584B1A7004F0FC
:103210007DFCBB7C42F2372019464FF0090205F0D5
:10322000CDFD04F085FC97F912309BB24FF00B00F6
:10323000194601F0F1F801F017FD4FF0640001F0BC
:103240000BFF474B1B78092B58D101F07FFD484BF2
:103250001B78002B0FD104F059FC42F238204FF0BC
:10326000090105F077FE03467B7404F061FC404BD6
:103270004FF001021A703C4B1B78012B0ED17B7C66
:1032800003F101037B7497F91130632B02DD4FF0DA
:1032900000037B74344B4FF000021A702E4B1B78E6
:1032A000012B0ED17B7C03F1FF337B7497F9113036
:1032B000002B02DA4FF063037B74274B4FF00002C0
:1032C0001A707A7C2B4B1A7004F020FCBB7C42F203
:1032D000382019464FF0090205F070FD04F028FC73
:1032E00097F911309BB24FF00900194601F094F89C
:1032F00001F0BAFC4FF0640001F0AEFE1E4B1A78EC
:103300001E4B1A701D4B1A781D4B1B78D318DAB25E
:103310001C4B1A701B4B1A78104B1B78D318DAB25F
:10332000194B1A70184B1A78184B1B78D318DAB24D
:10333000174B1A70164B1A780E4B1B78D318DAB24B
:10334000144B1A70134B1A78084B1B78D318DAB247
:10335000114B1A70FFF727B9EE010020DE010020A3
:10336000E2010020E8010020ED010020DF01002043
:10337000EB010020E0010020DC010020EF01002033
:10338000DD010020F3010020F1010020E101002017
:10339000F2010020F4010020F001002080B489B087
:1033A00000AF78604FF00003BB614FF000037B611A
:1033B0004FF00003FB614FF002033B614FF000034D
:1033C000FB604FF00203BB604F4B9B6803F00C03A4
:1033D000BB61BB69042B07D0082B09D0002B47D158
:1033E0007B684A4A1A6047E07B68494A1A6043E0B2
:1033F000454B5B6803F480034FEA9353FB60424BF9
:103400005B6803F03F03BB60FB68002B0FD0404AB2
:10341000BB68B2FBF3F23C4B596847F6C07301EA54
:1034200003034FEA931303FB02F3FB610EE0374AF9
:10343000BB68B2FBF3F2344B596847F6C07301EA3C
:1034400003034FEA931303FB02F3FB612E4B5B680C
:1034500003F440334FEA134303F101034FEA4303FC
:103460003B61FA693B69B2FBF3F27B681A6003E0E7
:103470007B68264A1A6000BF234B9B6803F0F00369
:10348000BB61BB694FEA1313BB61224ABB69D31806
:103490001B78DBB27B617B681A687B6922FA03F2D6
:1034A0007B685A60184B9B6803F4E053BB61BB69AF
:1034B0004FEA9323BB61174ABB69D3181B78DBB271
:1034C0007B617B685A687B6922FA03F27B689A60A9
:1034D0000D4B9B6803F46043BB61BB694FEA5333F8
:1034E000BB610C4ABB69D3181B78DBB27B617B687C
:1034F0005A687B6922FA03F27B68DA6007F12407D5
:10350000BD4680BC704700BF003802400024F40074
:1035100040787D01A800002080B483B000AF7860BF
:103520000B46FB70FB78002B07D00B4B0A4A116B44
:103530007A6841EA02021A6308E0074B064A116BF7
:103540007A686FEA020201EA02021A6307F10C07C5
:10355000BD4680BC704700BF0038024080B483B0D5
:1035600000AF78600B46FB70FB78002B07D00B4B4D
:103570000A4A116C7A6841EA02021A6408E0074BB1
:10358000064A116C7A686FEA020201EA02021A64C2
:1035900007F10C07BD4680BC704700BF00380240F1
:1035A00080B483B000AF78600B46FB70FB78002BD3
:1035B00007D00B4B0A4A516C7A6841EA02025A64FE
:1035C00008E0074B064A516C7A686FEA020201EA8A
:1035D00002025A6407F10C07BD4680BC704700BF69
:1035E0000038024080B483B000AF78600B46FB70B7
:1035F000FB78002B07D00B4B0A4A116A7A6841EA24
:1036000002021A6208E0074B064A116A7A686FEAFA
:10361000020201EA02021A6207F10C07BD4680BCF1
:10362000704700BF0038024080B483B000AF7860BC
:103630000B46FB70FB78002B07D00B4B0A4A516AF4
:103640007A6841EA02025A6208E0074B064A516A68
:103650007A686FEA020201EA02025A6207F10C0775
:10366000BD4680BC704700BF0038024080B586B0C0
:1036700004AF4FF000037B6000F078FA124B1B6838
:10368000002B15D0114B4FF0020200924FF00002B8
:1036900001924FF0000202924FF0000203920C4898
:1036A00019464FF482724FF0000301F019FC786064
:1036B0007B68002B02D104F04FFAFEE77B681846C6
:1036C00007F10807BD4680BD28020020B893000816
:1036D000E937000880B588B000AFF860B9607A605B
:1036E0003B604FF00003FB611F4B1B68002B34D085
:1036F000BB683B617B687B61FB68BB613B68002BFF
:103700001FD102F0F9F90346012B0CD1164B1A68B0
:1037100007F1100310461946BA6A4FF0000303F090
:10372000BDFDF86119E0104B1A6807F1100310464F
:1037300019464FF000024FF0000303F0AFFDF861AF
:103740000BE0094B1A6807F11003104619463A6856
:103750004FF0000303F05EFEF861FB69184607F1C5
:103760002007BD4680BD00BF2802002080B586B07E
:1037700002AF786039601B4B1B68DB68DB68FB605D
:10378000FB6803F10403184603F0A8FBFB68DB6940
:10379000012B1ED1FB689A697B68D318F86819461B
:1037A0003A687B6800F0B6F80346012B11D14FF060
:1037B00000030093F8684FF000017A684FF00003AF
:1037C000FFF788FFB860BB68002B02D104F0C4F992
:1037D000FEE7FB685B6AF868984707F11007BD468B
:1037E00080BD00BF2002002080B584B000AF7860AB
:1037F00007F10803184600F043F8F860BB68F86862
:10380000194600F003F800F0CDF8F1E780B584B078
:1038100000AF7860396001F08DFC07F108031846AD
:1038200000F052F8F860BB68002B1ED13B68002BFB
:103830000AD17A68FB689A4206D801F089FC786858
:10384000F968FFF793FF14E00C4B1A687968FB687E
:10385000CB1A1046194604F049F801F079FC0346EA
:10386000002B05D104F042F903E001F071FC00E007
:1038700000BF07F11007BD4680BD00BF2802002031
:1038800080B485B000AF78600E4B1B681B68002BBE
:1038900014BF002201227B681A607B681B68002B22
:1038A00005D1084B1B68DB681B68FB6002E04FF02A
:1038B0000003FB60FB68184607F11407BD4680BC97
:1038C000704700BF2002002080B584B000AF786050
:1038D00001F0D0FCF8600E4B1B68FA689A4209D2DE
:1038E0000B4B1B68184600F0E1F87B684FF00102B3
:1038F0001A6003E07B684FF000021A60044BFA681C
:103900001A60FB68184607F11007BD4680BD00BF6E
:103910002C02002080B586B000AFF860B9607A60F4
:103920003B604FF000037B61FB68BA685A60FB683C
:10393000FA681A61BA687B689A4214D87A683B6858
:10394000D21AFB689B699A4203D34FF001037B6153
:103950001EE0124B1A68FB6803F104031046194677
:1039600003F082FA14E07A683B689A4207D2BA6898
:103970003B689A4203D34FF001037B6108E0084B98
:103980001A68FB6803F104031046194603F06CFA49
:103990007B69184607F11807BD4680BD2402002048
:1039A0002002002080B58AB002AF6AE03B69FB616B
:1039B000FB695B69002B05D0FB6903F10403184622
:1039C00003F08CFA07F104031846FFF77DFFB86196
:1039D000BB68032B4ED801A252F823F0ED39000842
:1039E000753A0008433A00086D3A0008FA68FB6926
:1039F0009B69D218FB68F8691146BA69FFF78AFF1C
:103A00000346012B38D1FB695B6AF8699847FB696B
:103A1000DB69012B32D1FA68FB699B69D3184FF03F
:103A200000020092F8694FF000011A464FF00003BF
:103A3000FFF750FE78617B69002B21D104F08CF8F0
:103A4000FEE7FA68FB699A61FB699B69002B02D16A
:103A500004F082F8FEE7FB699A69BB69D318F8693C
:103A60001946BA69BB69FFF755FF0AE0F86904F027
:103A7000B7FD06E000BF04E000BF02E000BF00E0C9
:103A800000BF094B1A6807F10803104619464FF0AA
:103A900000024FF0000303F031FD0346002B85D1F7
:103AA00007F12007BD4680BD2802002080B58AB0FE
:103AB00002AF786042E02B4B1B68DB681B68FB6140
:103AC000284B1B68DB68DB68BB61BB6903F104033F
:103AD000184603F003FABB695B6AB8699847BB698B
:103AE000DB69012B2AD1BB699A69FB69D3187B6119
:103AF0007A69FB699A420FD9BB697A695A60BB69D6
:103B0000BA691A61174B1A68BB6903F104031046BE
:103B1000194603F0A9F911E04FF000030093B869CA
:103B20004FF00001FA694FF00003FFF7D3FD386151
:103B30003B69002B02D104F00FF8FEE7094B1B682C
:103B40001B68002BB7D1074B1B68FB60064B1A683C
:103B5000044B1A60044BFA681A6007F12007BD464F
:103B600080BD00BF200200202402002080B500AFED
:103B700003F0CCFF0E4B1B68002B16D10D4803F051
:103B80001DF90D4803F01AF90C4B0A4A1A600C4B48
:103B9000094A1A604FF00A004FF00C014FF0000282
:103BA00003F032FB0246024B1A6003F0C1FF80BDF6
:103BB00028020020F80100200C0200202002002032
:103BC0002402002080B584B000AF4FF00003FB73E7
:103BD00043E0FA7B264913464FEA83039B184FEADA
:103BE0008303CB1803F10C031B6818464FF0010147
:103BF000FFF792FC4FF000033B72FA7B1C4913461F
:103C00004FEA83039B184FEA8303CB1803F1100399
:103C10001B78FB72FA7B164913464FEA83039B1805
:103C20004FEA8303CB1803F108031B887B60FA7B00
:103C30000F4913464FEA83039B184FEA8303CB18BF
:103C400003F104031A6807F104031046194602F051
:103C500089FFFB7B03F10103FB73FB7B022BB8D9CC
:103C600000F03AF800F064F807F11007BD4680BD97
:103C7000B800002080B485B000AF0346FB71FA792C
:103C8000134913464FEA83039B184FEA8303CB186B
:103C900003F110035B78FB73FB790E4AD35CBB73B3
:103CA000FB790C4AF97BD154FB7B002B02D14FF0FE
:103CB000000307E0BB7B002B02D04FF0000301E0C4
:103CC0004FF00103184607F11407BD4680BC70474A
:103CD000B80000203402002080B584B000AF4FF05F
:103CE00020004FF00101FFF739FC41F28733BB6040
:103CF00040F24733BB804FF00003BB814FF000031D
:103D0000FB8007F104030948194604F0D1FC074879
:103D10004FF0010104F03AFD04484FF0010104F0B6
:103D200055FD07F11007BD4680BD00BF00140040DF
:103D300080B582B000AF0E484FF001014FF0010294
:103D400005F004F84FF037033B714FF000037B712F
:103D50004FF00003BB714FF00103FB7107F1040347
:103D6000184604F01BFB07F10807BD4680BD00BFE5
:103D70000014004080B582B000AF1F484FF0010131
:103D800005F00AF84FF00003FB712EE0FA791B49A9
:103D900013464FEA83039B184FEA8303CB1803F1C2
:103DA00004031968FA79154813464FEA83039B18F0
:103DB0004FEA8303C31803F108031B88084619461A
:103DC00002F074FF0346BB71FA790C4913464FEABF
:103DD00083039B184FEA8303CB1803F11003BA79CE
:103DE0005A70FB7903F10103FB71FB79022BCDD9EA
:103DF00007F10807BD4680BD00140040B800002050
:103E000080B485B000AF0346FB714FF00003FB7335
:103E1000FB79092B3ED801A252F823F0453E000859
:103E20004D3E0008553E00085D3E0008653E000816
:103E30006D3E0008753E00087D3E0008853E000886
:103E40008D3E00084FF00903FB7323E04FF00103A0
:103E5000FB731FE04FF00303FB731BE04FF00B03FA
:103E6000FB7317E04FF00A03FB7313E04FF00203FC
:103E7000FB730FE04FF00C03FB730BE04FF00403F8
:103E8000FB7307E04FF00003FB7303E04FF0080300
:103E9000FB7300BF184607F11407BD4680BC70478E
:103EA00080B485B000AF0346FB714FF00003FB7395
:103EB000FB79092B3ED801A252F823F0E53E000819
:103EC000ED3E0008F53E0008FD3E0008053F0008F5
:103ED0000D3F0008153F00081D3F0008253F000862
:103EE0002D3F00084FF00303FB7323E04FF00C035A
:103EF000FB731FE04FF00403FB731BE04FF008035C
:103F0000FB7317E04FF00203FB7313E04FF00A035B
:103F1000FB730FE04FF00903FB730BE04FF001035D
:103F2000FB7307E04FF00003FB7303E04FF00B035C
:103F3000FB7300BF184607F11407BD4680BC7047ED
:103F400080B483B000AF0346FB71FB7903F00F032D
:103F5000DAB2FB794FEA1313DBB219464FEA81015B
:103F6000CB184FEA4303DBB2D318DBB2184607F194
:103F70000C07BD4680BC704780B483B000AF0346D9
:103F8000FB71FA79104BA3FB02034FEAD3010B46F6
:103F90004FEA83035B184FEA4303D31ADBB2DAB26A
:103FA000F979094BA3FB01034FEAD303DBB24FEAD4
:103FB0000313DBB242EA0303DBB2DBB2184607F1BC
:103FC0000C07BD4680BC7047CDCCCCCC80B483B050
:103FD00000AF0346FB71FB79012B0AD1134B1B7811
:103FE00043F00203DAB2114B1A70104B1A780F4BE0
:103FF0001A70FB79002B06D10C4B1B7823F00203BF
:10400000DAB20A4B1A70094B1B7823F00803DAB2B4
:10401000064B1A70054B1B7823F00403DAB2034BEE
:104020001A7007F10C07BD4680BC704738020020AB
:1040300080B483B000AF0346FB71FB79012B0AD13A
:10404000134B1B7843F00403DAB2114B1A70104B78
:104050001A780F4B1A70FB79002B06D10C4B1B788A
:1040600023F00403DAB20A4B1A70094B1B7823F0D1
:104070000803DAB2064B1A70054B1B7823F00203D3
:10408000DAB2034B1A7007F10C07BD4680BC7047CB
:104090003802002080B483B000AF0346FB71FB7987
:1040A000012B0AD1134B1B7843F00803DAB2114BF2
:1040B0001A70104B1A780F4B1A70FB79002B06D12F
:1040C0000C4B1B7823F00803DAB20A4B1A70094B29
:1040D0001B7823F00203DAB2064B1A70054B1B78EB
:1040E00023F00403DAB2034B1A7007F10C07BD4644
:1040F00080BC70473802002080B483B000AF034614
:10410000FB71FB79012B0AD10C4B1B7843F00103A7
:10411000DAB20A4B1A70094B1A78084B1A70FB79FD
:10412000002B06D1054B1B7823F00103DAB2034BB9
:104130001A7007F10C07BD4680BC7047380200209A
:1041400080B400AF0B4B1B7823F00803DAB2094BA5
:104150001A70084B1B7823F00203DAB2054B1A7071
:10416000044B1B7823F00403DAB2024B1A70BD46ED
:1041700080BC70473802002080B483B000AF034693
:10418000FB71FB79012B0AD1174B1B7843F04003DD
:10419000DAB2154B1A70144B1A78134B1A70FB795C
:1041A000002B06D1104B1B7823F04003DAB20E4BE4
:1041B0001A700D4B1B7823F02003DAB20A4B1A70E9
:1041C000094B1B7823F01003DAB2074B1A70064B29
:1041D0001B7803F07F03DAB2034B1A7007F10C0768
:1041E000BD4680BC704700BF3802002080B483B059
:1041F00000AF0346FB71FB79012B0AD1174B1B78EB
:1042000043F02003DAB2154B1A70144B1A78134B93
:104210001A70FB79002B06D1104B1B7823F020037A
:10422000DAB20E4B1A700D4B1B7823F04003DAB252
:104230000A4B1A70094B1B7823F01003DAB2074BB4
:104240001A70064B1B7803F07F03DAB2034B1A7027
:1042500007F10C07BD4680BC704700BF3802002044
:1042600080B483B000AF0346FB71FB79012B15D1FD
:104270001C4B1B7843F01003DAB21A4B1A70194B1F
:104280001A78184B1A70174B1B7863F07F03DAB259
:10429000144B1A70134B1A78124B1A70FB79002BBF
:1042A0000DD1104B1B7823F01003DAB20D4B1A70AE
:1042B0000C4B1B7803F07F03DAB20A4B1A70094BE0
:1042C0001B7823F02003DAB2064B1A70054B1B78DB
:1042D00023F04003DAB2034B1A7007F10C07BD4616
:1042E00080BC70473802002080B483B000AF034622
:1042F000FB71FB79012B0AD1174B1B7843F010039C
:10430000DAB2154B1A70144B1A78134B1A70FB79EA
:10431000002B0DD1104B1B7823F01003DAB20E4B9B
:104320001A700D4B1B7803F07F03DAB20A4B1A7038
:10433000094B1B7823F02003DAB2074B1A70064BA7
:104340001B7823F04003DAB2034B1A7007F10C0715
:10435000BD4680BC704700BF3802002080B483B0E7
:1043600000AF0346FB71FB79012B0AD1174B1B7879
:1043700063F07F03DAB2154B1A70144B1A78134BA3
:104380001A70FB79002B0DD1104B1B7823F0100312
:10439000DAB20E4B1A700D4B1B7803F07F03DAB2C2
:1043A0000A4B1A70094B1B7823F02003DAB2074B33
:1043B0001A70064B1B7823F04003DAB2034B1A70D5
:1043C00007F10C07BD4680BC704700BF38020020D3
:1043D00080B400AF0F4B1B7823F02003DAB20D4BF3
:1043E0001A700C4B1B7823F04003DAB2094B1A7099
:1043F000084B1B7803F07F03DAB2064B1A70054BAB
:104400001B7823F01003DAB2024B1A70BD4680BC51
:10441000704700BF3802002080B584B000AF02466C
:104420000B46FA71BB804FF00003BB734FF00003E3
:10443000FB734FF000037B734FF00E03FB73FB79AC
:10444000032B0CD1FFF77CFE4FF00100FFF708FFB4
:104450004FF00000FFF750FE4FF00E03FB73FB79A7
:104460000C2B02D14FF00E03FB73FB790A2B0CD1FE
:10447000FFF766FE4FF00000FFF7F2FE4FF000007E
:10448000FFF73AFE4FF00003FB73FB79022B0CD1D0
:10449000FFF756FE4FF00100FFF7A8FE4FF00000B7
:1044A000FFF72AFE4FF00C03FB73FB79002B0ED1B4
:1044B0004FF00100FFF7EEFD4FF00100FFF75CFE4B
:1044C0004FF00100FFF718FE4FF00E03FB73FB796E
:1044D000012B0ED14FF00100FFF778FD4FF00100E6
:1044E000FFF74AFE4FF00100FFF706FE4FF00E0304
:1044F000FB73FB790D2B0CD1FFF722FE4FF001006F
:10450000FFF73AFE4FF00000FFF7F6FD4FF0000313
:10451000FB73BB88994AA2FB03124FEA52124FF079
:10452000640101FB02F29B1A9BB2BB73BA7B944BF2
:10453000A3FB02134FEAD3010B464FEA83035B1838
:104540004FEA4303D31ADBB21846FFF759FC034680
:104550001A468C4B1A708B4B1B784FEA0313DAB256
:10456000884B1A70BA88854BA3FB02134FEA53138A
:104570009BB2DBB21846FFF743FC03461A46814B59
:104580001B78D318DAB27F4B1A70BA7B7C4BA3FB33
:1045900002134FEAD303DBB21846FFF731FC0346A0
:1045A0001A46794B1A70784B1B784FEA0313DAB22C
:1045B000754B1A70744B1A78FB7BD318DAB2724BB6
:1045C0001A70FB79042B40D16F4B4FF000021A7028
:1045D000FFF7FEFE4FF00000FFF78EFD4FF00603E1
:1045E000FB73BA88664BA3FB02134FEAD3039BB25B
:1045F000DBB21846FFF704FC03467B73614B7A7B02
:104600001A70BA885E4BA3FB02134FEAD3010B4624
:104610004FEA83035B184FEA4303D31A9BB2DBB222
:104620001846FFF7EDFB03461A46574B1A70564BD8
:104630001B784FEA0313DAB2534B1A70524B1A78B5
:10464000FB7BD318DAB2504B1A70FB79052B44D19F
:104650004D4B4FF000021A70FFF7BAFE4FF000000A
:10466000FFF7E6FC4FF00000FFF746FD4FF00003B8
:10467000FB73BA88424BA3FB02134FEAD3039BB2EE
:10468000DBB21846FFF7BCFB03467B733D4B7A7BDE
:104690001A70BA883A4BA3FB02134FEAD3010B46B8
:1046A0004FEA83035B184FEA4303D31A9BB2DBB292
:1046B0001846FFF7A5FB03461A46334B1A70324BD8
:1046C0001B784FEA0313DAB22F4B1A702E4B1A786D
:1046D000FB7BD318DAB22C4B1A70FB79062B77D1FF
:1046E000294B4FF000021A7000F000FBFFF770FE3C
:1046F0004FF00000FFF740FD4FF00100FFF798FC7E
:104700004FF00000FFF7F8FC4FF00E03FB73BB887F
:104710001A4AA2FB03124FEA52124FF0640101FB46
:1047200002F29B1A9BB2BB73BA7B154BA3FB02131D
:104730004FEAD3010B464FEA83035B184FEA43036A
:10474000D31ADBB21846FFF75BFB03461A460D4B44
:104750001A700C4B1B784FEA0313DAB2094B1A702C
:10476000BA88064BA3FB02134FEA53139BB2DBB28A
:104770001846FFF745FB03461A4607E01F85EB5135
:10478000CDCCCCCC390200203A0200209B4B1B78C8
:10479000D318DAB2994B1A70BA7B994BA3FB021368
:1047A0004FEAD303DBB21846FFF72AFB03461A464B
:1047B000944B1A70934B1B784FEA0313DAB2914B68
:1047C0001A70904B1A78FB7BD318DAB28D4B1A70A3
:1047D000FB79072B70D18B4B4FF000021A70FFF75B
:1047E000F7FD4FF00100FFF77FFD4FF00100FFF7ED
:1047F000B5FD4FF00000FFF71BFC4FF00000FFF786
:104800007BFC4FF00E03FB73BB887F4AA2FB0312B5
:104810004FEA52124FF0640101FB02F29B1A9BB265
:10482000BB73BA7B764BA3FB02134FEAD3010B4653
:104830004FEA83035B184FEA4303D31ADBB21846EF
:10484000FFF7DEFA03461A466C4B1A706B4B1B7867
:104850004FEA0313DAB2694B1A70BA886A4BA3FBAA
:1048600002134FEA53139BB2DBB21846FFF7C8FAA4
:1048700003461A46614B1B78D318DAB25F4B1A70A5
:10488000BA7B5F4BA3FB02134FEAD303DBB218469C
:10489000FFF7B6FA03461A465A4B1A70594B1B7863
:1048A0004FEA0313DAB2574B1A70564B1A78FB7B58
:1048B000D318DAB2534B1A70FB79082B70D1514BD5
:1048C0004FF000021A70FFF783FD4FF00000FFF772
:1048D0000BFD4FF00000FFF7ABFB4FF00000FFF7C0
:1048E0000BFC4FF00100FFF747FC4FF00E03FB738A
:1048F000BB88454AA2FB03124FEA52124FF06401F3
:1049000001FB02F29B1A9BB2BB73BA7B3C4BA3FB2D
:1049100002134FEAD3010B464FEA83035B184FEAB9
:104920004303D31ADBB21846FFF76AFA03461A4666
:10493000324B1A70314B1B784FEA0313DAB22F4B0C
:104940001A70BA88304BA3FB02134FEA53139BB281
:10495000DBB21846FFF754FA03461A46274B1B787A
:10496000D318DAB2254B1A70BA7B254BA3FB02137E
:104970004FEAD303DBB21846FFF742FA03461A4662
:10498000204B1A701F4B1B784FEA0313DAB21D4BF2
:104990001A701C4B1A78FB7BD318DAB2194B1A70B9
:1049A000FB790B2B76D1174B4FF000021A70FFF7F3
:1049B0000FFD4FF00100FFF7D1FC4FF00100FFF7B2
:1049C00037FB4FF00000FFF797FB4FF00E03FB7330
:1049D000BB880D4AA2FB03124FEA52124FF064014A
:1049E00001FB02F29B1A9BB2BB73BA7B044BA3FB85
:1049F00002134FEAD3010B4608E000BF3902002042
:104A0000CDCCCCCC3A0200201F85EB514FEA83037A
:104A10005B184FEA4303D31ADBB21846FFF7F0F9ED
:104A200003461A46574B1A70564B1B784FEA03132E
:104A3000DAB2544B1A70BA88534BA3FB02134FEAF5
:104A400053139BB2DBB21846FFF7DAF903461A4656
:104A50004C4B1B78D318DAB24A4B1A70BA7B4B4BCB
:104A6000A3FB02134FEAD303DBB21846FFF7C8F9E2
:104A700003461A46464B1A70454B1B784FEA031300
:104A8000DAB2434B1A70424B1A78FB7BD318DAB276
:104A90003F4B1A70FB79092B70D13D4B4FF0000250
:104AA0001A70FFF795FC4FF00000FFF71DFC4FF068
:104AB0000100FFF79BFB4FF00000FFF7B9FA4FF042
:104AC0000000FFF719FB4FF00E03FB73BB882E4A63
:104AD000A2FB03124FEA52124FF0640101FB02F2F3
:104AE0009B1A9BB2BB73BA7B284BA3FB02134FEA02
:104AF000D3010B464FEA83035B184FEA4303D31AF3
:104B0000DBB21846FFF77CF903461A461D4B1A70B4
:104B10001C4B1B784FEA0313DAB21A4B1A70BA888F
:104B2000194BA3FB02134FEA53139BB2DBB2184697
:104B3000FFF766F903461A46124B1B78D318DAB210
:104B4000104B1A70BA7B114BA3FB02134FEAD3032D
:104B5000DBB21846FFF754F903461A460C4B1A709D
:104B60000B4B1B784FEA0313DAB2094B1A70084B50
:104B70001A78FB7BD318DAB2054B1A7007F11007CD
:104B8000BD4680BD390200201F85EB51CDCCCCCC79
:104B90003A02002080B584B000AF02460B46FA719D
:104BA000BB714FF00003FB734FF00003BB73BA7986
:104BB0002A4BA3FB02134FEAD3010B464FEA8303B0
:104BC0005B184FEA4303D31ADBB21846FFF768F9C4
:104BD0000346BB73BB7B4FEA0313BB73BA791F4B0E
:104BE000A3FB02134FEAD303DBB21846FFF758F9D1
:104BF00003461A46BB7BD318BB73FA79174BA3FB4A
:104C000002134FEAD3010B464FEA83035B184FEAC6
:104C10004303D31ADBB21846FFF742F90346FB738E
:104C2000FB7B4FEA0313FB73FA790C4BA3FB0213D4
:104C30004FEAD303DBB21846FFF732F903461A46B0
:104C4000FB7BD318FB73064BBA7B1A70054BFA7BC0
:104C50001A7007F11007BD4680BD00BFCDCCCCCC8B
:104C60003B0200203C02002080B500AF4FF0000066
:104C700002F052FA114B1B78184601F0E9F8104B7C
:104C80001B78184601F0E4F80E4B1B78184601F02B
:104C9000DFF80D4B1B78184601F0DAF80B4B1B7848
:104CA000184601F0D5F80A4B1B78184601F0D0F8E9
:104CB0004FF0010002F030FA80BD00BF3802002042
:104CC000390200203A0200203B0200203C02002072
:104CD0003D02002080B400AF034B4FF0F8021A7081
:104CE000BD4680BC704700BF3D02002080B400AFCD
:104CF000034B4FF020021A70BD4680BC704700BFC6
:104D00003D02002080B400AF034B4FF0D8021A7070
:104D1000BD4680BC704700BF3D02002080B400AF9C
:104D2000034B4FF0F0021A70BD4680BC704700BFC5
:104D30003D02002080B400AF034B4FF0D0021A7048
:104D4000BD4680BC704700BF3D02002080B400AF6C
:104D5000034B4FF000021A70BD4680BC704700BF85
:104D60003D02002080B400AF034B4FF038021A70B0
:104D7000BD4680BC704700BF3D02002080B400AF3C
:104D8000034B4FF040021A70BD4680BC704700BF15
:104D90003D02002080B400AF034B4FF0E0021A70D8
:104DA000BD4680BC704700BF3D02002080B487B084
:104DB00000AF13460246FA710A46BA717B71BB799D
:104DC000C3F10E03304A82FB03024FEA62024FEA4C
:104DD000E373D31A7B617B7903F5FA627B69D31A9B
:104DE0003B61B9797A6913464FEA43039B184FEA4E
:104DF0008303CB18A3F10203FB60FA793B69D21855
:104E00003B69002B01DA03F103034FEAA303D21835
:104E10003B691E4981FB03014FEA61114FEAE373CD
:104E2000CB1AD21A3B69194981FB03014FEAE11100
:104E30004FEAE373CB1AD118FA6813464FEA4313CB
:104E40009B1A114A82FB03024FEA62024FEAE373A4
:104E5000D31ACB1803F5DA5303F118030C4A82FB7B
:104E60000312D2184FEAA2014FEAE372891A0A46E6
:104E70004FEAC202521A991A0B46184607F11C074C
:104E8000BD4680BC704700BFABAAAA2A1F85EB5164
:104E90009324499280B483B000AF786000BF7B68F0
:104EA000002B0CBF00220122D2B203F1FF337B6042
:104EB000002AF4D107F10C07BD4680BC704700BF43
:104EC00080B500AF4FF00500FCF7F8FA4FF0640032
:104ED00000F0C2F84FF00500FCF7CAFA80BD00BF31
:104EE00080B58AB002AFF860B9603B601346FB80C2
:104EF000FB68002B02D102F02FFEFEE7BB6A042BF9
:104F000002D902F029FEFEE7FB881846396B00F053
:104F100099FDB861BB69002B7AD0BB691A6BFB881D
:104F200003F1FF334FEA8303D3187B617B6923F0DE
:104F300007037B617B6903F00703002B02D002F0BB
:104F40000BFEFEE7FB880093B869B968BA6A7B6B11
:104F500000F06EFC7869F9683A6802F0F7FC0346E5
:104F60001A46BB691A60FB6A002B02D0FB6ABA6959
:104F70001A6002F0CBFD324B1B6803F10102304B8B
:104F80001A60304B1B68002B09D12E4BBA691A608E
:104F90002B4B1B68012B0FD100F09AFC0CE02A4B25
:104FA0001B68002B08D1274B1B68DA6ABB6A9A4240
:104FB00002D8244BBA691A60244B1B6803F1010222
:104FC000224B1A60214B1A68BB691A64BB69DA6A02
:104FD0001F4B1B689A4203D9BB69DA6A1C4B1A60E3
:104FE000BB69DA6A13464FEA83039B184FEA8303CF
:104FF0001A46184BD218BB6903F104031046194630
:1050000001F00EFF4FF00103FB6102F091FD02E0A1
:105010004FF0FF33FB61FB69012B0BD10A4B1B687F
:10502000002B07D0074B1B68DA6ABB6A9A4201D291
:1050300002F05CFDFB69184607F12007BD4680BD04
:105040001803002040020020240300203803002021
:10505000200300204402002080B584B000AF7860B7
:105060004FF00003FB607B68002B13D000F062F868
:105070000D4B1A687B68D318BB600C4B1B6803F19F
:105080000403184601F02AFFB86800F0A3FC00F002
:105090005FF8F860FB68002B01D102F027FD07F1F3
:1050A0001007BD4680BD00BF1C0300204002002049
:1050B00080B586B004AF1B4B4FF0000200924FF05A
:1050C000000201924FF0000202924FF000020392A0
:1050D000154819464FF082024FF00003FFF700FF1A
:1050E00078607B68012B02D1FEF7C0FA78607B689C
:1050F000012B0CD102F030FD0C4B4FF001021A6075
:105100000B4B4FF000021A6002F080FC05E07B6858
:10511000002B02D102F020FDFEE707F10807BD4693
:1051200080BD00BFC09300080D5800082403002074
:105130001C03002080B400AF044B1B6803F1010284
:10514000024B1A60BD4680BC704700BF2803002098
:1051500080B582B000AF4FF000037B603D4B1B6811
:10516000002B02D102F0F8FCFEE702F0CFFC394B35
:105170001B6803F1FF32374B1A60364B1B68002B5C
:1051800060D1354B1B68002B5CD036E0334BDB68BD
:10519000DB683B603B6803F11803184601F09EFE94
:1051A0003B6803F10403184601F098FE3B68DA6A95
:1051B0002B4B1B689A4203D93B68DA6A284B1A606A
:1051C0003B68DA6A13464FEA83039B184FEA83036E
:1051D0001A46244BD2183B6803F1040310461946C3
:1051E00001F01EFE3B68DA6A1F4B1B68DB6A9A42BD
:1051F00003D31E4B4FF001021A60184B1B68002BA3
:10520000C4D11B4B1B68002B13D00EE000F044F8F8
:105210000346002B03D0154B4FF001021A60144BCC
:105220001B6803F1FF32124B1A60114B1B68002BF5
:10523000ECD10E4B1B68012B04D14FF001037B60B6
:1052400002F054FC02F074FC7B68184607F1080772
:10525000BD4680BD2803002018030020D80200208E
:1052600020030020440200204002002030030020E0
:105270002C03002080B582B000AF02F047FC054B44
:105280001B687B6002F054FC7B68184607F1080736
:10529000BD4680BD1C03002080B586B000AF4FF036
:1052A00000037B61674B1B68002B40F0B680664BA8
:1052B0001B6803F10102644B1A60634B1B683B617E
:1052C0003B69002B31D1614B1B681B68002B02D05E
:1052D00002F042FCFEE75D4B1B68FB605C4B1A680A
:1052E0005A4B1A605A4BFA681A605A4B1B6803F102
:1052F0000102584B1A60554B1B681B68002B02D1EA
:105300004FF0010301E04FF00003002B04D0524B9B
:105310004FF0FF321A6008E04C4B1B68DB68DB681B
:10532000BB60BB685A684C4B1A604B4B1B683A69B0
:105330009A4259D300E000BF444B1B681B68002B06
:1053400002D14FF0010301E04FF00003002B04D025
:10535000414B4FF0FF321A6046E03C4B1B68DB6864
:10536000DB68BB60BB685B687B603A697B689A42BC
:1053700003D2394B7A681A6036E0BB6803F1040344
:10538000184601F0ABFDBB689B6A002B05D0BB68DB
:1053900003F11803184601F0A1FDBB68DA6A2F4B30
:1053A0001B689A4203D9BB68DA6A2C4B1A60BB6847
:1053B000DA6A13464FEA83039B184FEA83031A46BF
:1053C000274BD218BB6803F104031046194601F0BD
:1053D00027FDBB68DA6A234B1B68DB6A9A42AAD3B3
:1053E0004FF001037B61A7E71E4B1B68DA6A134687
:1053F0004FEA83039B184FEA83031A46184BD318CE
:105400001B68012B02D94FF001037B61164B1B680F
:10541000002B0AD103F034F807E0134B1B6803F1AB
:105420000102114B1A6003F02BF8104B1B68002B84
:1054300002D04FF001037B617B69184607F1180722
:10544000BD4680BD280300201C030020D0020020A0
:10545000D402002034030020F400002020030020A8
:1054600044020020400200202C03002030030020D2
:1054700080B582B000AF3C4B1B68002B04D03B4B87
:105480004FF001021A606AE0384B4FF000021A60D8
:10549000374B1B681A68364B1B681B6B9A4209D83E
:1054A000334B1A68324B1B6803F13403104619461C
:1054B00002F0ECFF2E4B1B681B6B18462D494FF07A
:1054C000140203F05BFE0346002B17D0284B1A682A
:1054D000274B1B6803F134031046194602F0D6FF30
:1054E0000CE0254B1B68002B02D102F035FBFEE7D8
:1054F000214B1B6803F1FF321F4B1A601E4B1A68C9
:1055000013464FEA83039B184FEA83031A461B4B4B
:10551000D3181B68002BE4D0174B1A6813464FEAC8
:1055200083039B184FEA83031A46144BD3187B60FE
:105530007B685B685A687B685A607B685A687B68DE
:1055400003F108039A4204D17B685B685A687B6860
:105550005A607B685B68DB681A46054B1A6007F186
:105560000807BD4680BD00BF28030020300300208F
:1055700040020020C89300082003002044020020BD
:1055800080B584B000AF786039607B68002B02D1B1
:1055900002F0E2FAFEE7144B1B6803F11803786887
:1055A000194601F061FC104B1B6803F10403184617
:1055B00001F094FC3B68B3F1FF3F08D10A4B1B6834
:1055C00003F104030948194601F02AFC07E0084BDF
:1055D0001A683B68D318FB60F86800F0FBF907F124
:1055E0001007BD4680BD00BF40020020040300201C
:1055F0001C03002080B584B000AF786039607B6800
:10560000002B02D102F0A8FAFEE70D4B1B6803F154
:1056100018037868194601F003FC094B1B6803F175
:105620000403184601F05AFC064B1A683B68D3186D
:10563000FB60F86800F0CEF907F11007BD4680BDA9
:10564000400200201C03002080B584B000AF7860C9
:105650007B68DB68DB68BB60BB68002B02D102F0B3
:105660007BFAFEE7BB6803F11803184601F036FC2D
:10567000224B1B68002B22D1BB6803F104031846A0
:1056800001F02CFCBB68DA6A1D4B1B689A4203D9F7
:10569000BB68DA6A1A4B1A60BB68DA6A13464FEACB
:1056A00083039B184FEA83031A46164BD218BB6834
:1056B00003F104031046194601F0B2FB06E0BB6893
:1056C00003F118031048194601F0AAFBBB68DA6A17
:1056D0000E4B1B68DB6A9A4207D34FF00103FB6055
:1056E0000B4B4FF001021A6002E04FF00003FB6029
:1056F000FB68184607F11007BD4680BD280300204F
:105700002003002044020020D80200204002002094
:105710003003002080B582B000AF78607B68002B3A
:1057200002D102F019FAFEE7054B1A687B681A608D
:10573000044B1A687B685A6007F10807BD4680BDB4
:10574000340300201C03002080B584B000AF7860D3
:1057500039607B68002B02D102F0FEF9FEE73B685E
:10576000002B02D102F0F8F9FEE702F0CFF91F4B4F
:105770001B68BB603B681B68B3F1FF3F03D14FF070
:105780000003FB6029E07B681A68194B1B689A428A
:1057900008D07B685A68BB689A4203D84FF001036F
:1057A000FB601AE07B685B68BA68D21A3B681B68CA
:1057B0009A420FD23B681A687B685968BB68CB1A5B
:1057C000D2183B681A607868FFF7A4FF4FF0000317
:1057D000FB6002E04FF00103FB6002F0A9F9FB68F7
:1057E000184607F11007BD4680BD00BF1C0300200E
:1057F0003403002080B400AF034B4FF001021A6065
:10580000BD4680BC704700BF3003002080B582B029
:1058100000AF786000F0A0F8044B1B68012B01D9A1
:1058200002F064F902F026FEF4E700BF4402002013
:1058300080B586B000AFF860B9607A603B604FF029
:1058400000037B6113E0BA687B69D3181A78F968A2
:105850007B69CB1803F130031A71BA687B69D318DE
:105860001B78002B07D07B6903F101037B617B6907
:10587000092BE8D900E000BFFB684FF0000283F875
:105880003D207B68042B02D94FF004037B60FB684A
:105890007A68DA62FB687A689A64FB6803F1040349
:1058A000184601F0AFFAFB6803F11803184601F03F
:1058B000A9FAFB68FA681A617B68C3F10502FB6804
:1058C0009A61FB68FA685A6207F11807BD4680BD05
:1058D00080B582B000AF4FF000037B6010E07A68C3
:1058E00013464FEA83039B184FEA83031A46124B71
:1058F000D318184601F062FA7B6803F101037B605C
:105900007B68042BEBD90D4801F058FA0C4801F0E4
:1059100055FA0C4801F052FA0B4801F04FFA0B48C7
:1059200001F04CFA0A4B054A1A600A4B044A1A6005
:1059300007F10807BD4680BD44020020A8020020F0
:10594000BC020020D8020020EC020020040300204A
:10595000D0020020D402002080B582B000AF2AE03F
:10596000FFF7E8FB184B1B68002B14BF0023012333
:105970007B60FFF7EDFB7B68002B1CD102F0C6F8C3
:10598000114BDB68DB683B603B6803F1040318469E
:1059900001F0A4FA0D4B1B6803F1FF320B4B1A60A8
:1059A0000B4B1B6803F1FF32094B1A6002F0C0F881
:1059B000386800F081F8064B1B68002BD0D107F146
:1059C0000807BD4680BD00BFEC0200201803002080
:1059D0000003002080B582B000AF7860144B1B68D4
:1059E0007A685A60134B1B687A689A420AD2124B43
:1059F0001A680F4B1B6803F104031046194601F0A7
:105A000033FA11E00D4B1A68094B1B6803F10403CC
:105A10001046194601F028FA094B1B687A689A4229
:105A200002D2074B7A681A6007F10807BD4680BDAD
:105A3000400200201C030020D4020020D0020020DD
:105A4000F400002080B584B000AF03463960FB80CD
:105A50004FF04C0002F028FD0346FB60FB68002B72
:105A600023D03B68002B07D1FB884FEA83031846FD
:105A700002F01AFD034600E03B68FA681363FB6816
:105A80001B6B002B06D1F86802F0AAFD4FF0000353
:105A9000FB600AE0FB681A6BFB884FEA8303104641
:105AA0004FF0A5011A4603F00FFCFB68184607F1FA
:105AB0001007BD4680BD00BF80B582B000AF7860E2
:105AC0007B681B6B184602F08BFD786802F088FD3E
:105AD00007F10807BD4680BD80B483B000AF054B19
